:0200000490006A
:10000000E819002039030090015B0090650300901F
:10001000B1020090B50400909D63009000000000C4
:1000200000000000000000000000000019610090C6
:10003000550B009000000000035B009001000000E1
:100040005703009057030090570300905703009008
:1000500057030090570300905703009057030090F8
:1000600057030090570300905703009057030090E8
:1000700057030090570300905703009057030090D8
:1000800057030090570300905703009057030090C8
:1000900057030090570300905703009057030090B8
:1000A000570300907D630090570300905703009022
:1000B0005703009057030090570300905703009098
:1000C0005703009035460090254600905703009056
:1000D0005703009057030090570300905703009078
:1000E0005703009057030090000000005703009052
:1000F0005703009057030090570300905703009058
:1001000057030090570300908D63009057030090B1
:100110005703009057030090570300905703009037
:100120005703009057030090570300905703009027
:100130005703009057030090570300905703009017
:1001400000000000000000000000000000000000AF
:1001500057030090570300905703009057030090F7
:1001600057030090570300905703009057030090E7
:1001700057030090570300905703009000000000C1
:1001800057030090570300905703009057030090C7
:1001900057030090570300905703009057030090B7
:1001A00057030090570300905703009057030090A7
:1001B0005703009057030090570300905703009097
:1001C0005703009057030090570300905703009087
:1001D0005703009057030090570300905703009077
:1001E0005703009057030090570300905703009067
:1001F0005703009057030090570300905703009057
:100200005703009057030090570300905703009046
:100210005703009057030090570300905703009036
:100220005703009057030090570300900000000010
:100230005703009057030090000000005703009000
:10024000570300903D04009057030090570300901F
:1002500057030090570300905703009057030090F6
:1002600057030090570300905703009057030090E6
:1002700057030090570300905703009000000000C0
:1002800057030090570300905703009000000000B0
:100290000000000057030090DFF810D000F090F845
:1002A0000048004729780090AFF30080E81900204B
:1002B0001EF0040F0CBFEFF30880EFF3098005F088
:1002C000FBBB00000246D2E84F0F411CC2E8431FAF
:1002D00003B1F8E77047024652E8000F411C42E8BC
:1002E000001303B1F8E77047024652E8000F42E8F6
:1002F000001303B1F9E77047024652E8000F83018B
:1003000003D3BFF32F8F0020704700F00040084355
:1003100042E8000303B1F0E77047024652E8000FDD
:10032000800103D2BFF32F8F0020704742E80013F3
:1003300003B1F3E70120704707488047074880472B
:1003400007480047FEE7FEE7FEE7FEE7FEE7FEE7B9
:10035000FEE7FEE7FEE7FEE7550E009081620090A3
:10036000990200901EF0040F0CBFEFF30880EFF32A
:10037000098004F0A7B8000040EA01039B0703D0FE
:1003800009E008C9121F08C0042AFAD203E011F8D4
:10039000013B00F8013B521EF9D27047D2B201E096
:1003A00000F8012B491EFBD270470022F6E710B57A
:1003B00013460A4604461946FFF7F0FF204610BDD3
:1003C000064C074D06E0E06840F0010394E80700A2
:1003D00098471034AC42F6D3FFF762FF2C7C0090B4
:1003E0009C7C009070B58C1810F8015B15F0070329
:1003F00001D110F8013B2A1106D110F8012B03E0BE
:1004000010F8016B01F8016B5B1EF9D12B0705D4C5
:100410000023521E0DD401F8013BFAE710F8013B0E
:10042000CB1A921C03E013F8015B01F8015B521E2A
:10043000F9D5A142D8D3002070BD00001B48006848
:1004400000F0020080B14FF4003019490861022029
:10045000486188610004C8611448001D006840F0CC
:1004600002001249091D08601048006800F00400ED
:1004700070B102200E490860486088600004C860BE
:100480000A48001D006840F004000849091D086082
:100490000648006800F0080038B10448001D0068F4
:1004A00040F008000149091D0860704700540258D7
:1004B0000000003800BFFEE710B500BF48480068E4
:1004C00000F4003000B139E000BF00BF00BFBFF34F
:1004D0004F8F00BF00BF00BF00BF00BF00BFBFF312
:1004E0006F8F00BF00BF00BF00203E49086000BF03
:1004F00000BF00BFBFF34F8F00BF00BF00BF00BFF2
:1005000000BF00BFBFF36F8F00BF00BF00BF344804
:10051000006840F400303249086000BF00BF00BFEF
:10052000BFF34F8F00BF00BF00BF00BF00BF00BFC1
:10053000BFF36F8F00BF00BF00BF00BF00BF284BDD
:100540001B6803F4803303B148E00023244C70346B
:10055000236000BF00BF00BFBFF34F8F00BF00BFCD
:1005600000BF231F1868C0F34E3100BFC0F3C9029B
:1005700000BF43F6E07303EA41134FF0404404EA3E
:1005800082742343174C1034236000BF00BF131E36
:10059000A2F10102EDD10B1EA1F10101E6D100BFD4
:1005A00000BF00BFBFF34F8F00BF00BF00BF0C4BA9
:1005B0001B6843F480330A4C236000BF00BF00BFB8
:1005C000BFF34F8F00BF00BF00BF00BF00BF00BF21
:1005D000BFF36F8F00BF00BF00BF00BF10BD0000A2
:1005E00014ED00E050EF00E00146374A0868904201
:1005F00049D0354A18320868904244D0324A3032E5
:10060000086890423FD0304A4832086890423AD059
:100610002D4A60320868904235D02B4A78320868FB
:10062000904230D0284A9032086890422BD0264A17
:10063000A8320868904226D0244A0868904222D006
:10064000224A1832086890421DD0204A3032086889
:10065000904218D01D4A48320868904213D01B4A75
:100660006032086890420ED0184A7832086890428A
:1006700009D0164A90320868904204D0134AA83232
:100680000868904201D1012000E00020B0B10A7852
:10069000103A1823B2FBF3F000F007020C4B9A5CFF
:1006A000CA65032805D90A686FF30902121D8A6515
:1006B00003E00A686FF309028A6503E0086820F026
:1006C000FF008865886D70471000024010040240EA
:1006D000187B009010B502682B4C0368A34222D00F
:1006E000294C14340368A3421DD0274C28340368D6
:1006F000A34218D0244C3C340368A34213D0224CAC
:1007000050340368A3420ED01F4C64340368A342E4
:1007100009D01D4C78340368A34204D01A4C8C34A1
:100720000368A34201D1012300E000238BB10378C9
:10073000083B1424B3FBF4F1144B03EB8103036671
:10074000124B8033436601F01F040123A3408366EC
:1007500018E00378103B1824B3FBF4F10C4B9A42D9
:1007600004D80B4BA83B9A4200D30831094B03EB4A
:1007700081030366074B8033436601F01F040123A6
:10078000A340836610BD0000085402580058025868
:10079000B8040240000802400179A9B3082940D8F2
:1007A000204B02689A4222D01E4B143302689A42B0
:1007B0001DD01C4B283302689A4218D0194B3C3389
:1007C00002689A4213D0174B503302689A420ED0F7
:1007D000144B643302689A4209D0124B7833026892
:1007E0009A4204D00F4B8C3302689A4201D1012205
:1007F00000E000224AB14A1E0B4B03EB8202C266A4
:10080000094A4032026708E00BE04A1E074B03EB3F
:100810008202C266054A403202674A1E01239340A3
:1008200043677047085402580059025800090240B3
:10083000014600208A69D2B98A6A32B1012A0DD0F4
:10084000022A03D0032A10D10EE000BFCA6A02F0C8
:100850008072B2F1807F00D1012007E0CA6AB2F154
:10086000C07F00D1012001E000E000BF36E08A69CE
:10087000B2F5005F1BD18A6A32B1012A07D0022A81
:1008800003D0032A11D10AE000BF01200EE0CA6A9A
:1008900002F08072B2F1807F00D1012006E0CA6AC6
:1008A000B2F1C07F00D1012000E000BF16E08A6AEB
:1008B00032B1012A05D0022A04D0032A0CD103E068
:1008C00000BF00BF012008E0CA6A02F08072B2F1E6
:1008D000807F00D1012000E000BF00BF7047000012
:1008E000F0B5856D846D984F0668BE4270D0964F06
:1008F00018370668BE426BD0934F30370668BE4249
:1009000066D0914F48370668BE4261D08E4F60373F
:100910000668BE425CD08C4F78370668BE4257D01E
:10092000894F90370668BE4252D0874FA837066875
:10093000BE424DD0854F0668BE4249D0834F18371E
:100940000668BE4244D0814F30370668BE423FD071
:100950007E4F48370668BE423AD07C4F6037066803
:10096000BE4235D0794F78370668BE4230D0774FD7
:1009700090370668BE422BD0744FA8370668BE4237
:1009800026D0734F0668BE4222D0714F14370668D6
:10099000BE421DD06E4F28370668BE4218D06C4F3D
:1009A0003C370668BE4213D0694F50370668BE42D6
:1009B0000ED0674F64370668BE4209D0644F78375F
:1009C0000668BE4204D0624F8C370668BE4201D131
:1009D000012600E000263EB1D0E919767E60C66EA1
:1009E00016B1D0E91C767E60574F0668BE4249D0EA
:1009F000554F18370668BE4244D0534F303706680B
:100A0000BE423FD0504F48370668BE423AD04E4FA4
:100A100060370668BE4235D04B4F78370668BE4215
:100A200030D0494F90370668BE422BD0464FA8378A
:100A30000668BE4226D0454F0668BE4222D0434FCC
:100A400018370668BE421DD0404F30370668BE4298
:100A500018D03E4F48370668BE4213D03B4F603730
:100A60000668BE420ED0394F78370668BE4209D0BC
:100A7000364F90370668BE4204D0344FA837066818
:100A8000BE4201D1012600E00026DEB190F85C6094
:100A900006F01F073F26BE40AE600668366826F4A3
:100AA000802607683E60066873608668402E04D121
:100AB0000668B2600668F16044E00668B1600668E6
:100AC000F2603FE0224F0668BE4222D0204F14372A
:100AD0000668BE421DD01E4F28370668BE4218D099
:100AE0001B4F3C370668BE4213D0194F503706687B
:100AF000BE420ED0164F64370668BE4209D0144F6E
:100B000078370668BE4204D0114F8C370668BE4263
:100B100001D1012600E00026A6B190F85C6006F045
:100B20001F070126BE406660066873608668402E17
:100B300004D10668B2600668F16003E00668B1603F
:100B40000668F260F0BD0000100002401004024090
:100B500008540258704700BFFEE7000070B500BFA0
:100B60000C48866900F05EF9054600BF2946094831
:100B70001830FFF7B9FB044600BFB442F0D1A542DC
:100B800006D200BF03481030FFF7A5FB00BF00BF2F
:100B9000284670BDC00900202DE9FF4F81B088466E
:100BA00091469A464FF0070B51E000BF2E48FFF7E1
:100BB00092FB064606F03F002C4901EB0014B009F9
:100BC0004FF4700101EA00510091DDE90010084383
:100BD0004FF0805101EAD80108434FF0005101EA7B
:100BE000990108434FF0804101EA5A01084340F05F
:100BF0004065294604F10C00FFF77EFB054605F031
:100C0000806010B385F0806585F0004505F00047F1
:100C100028F000403843206029F0004038436060ED
:100C20002AF000403843A060294604F10C00FFF789
:100C300074FB48B100BF0C48001DFFF74CFB00BF20
:100C4000012005B0BDE8F08F04E0ABF1010BBBF172
:100C5000000FAAD100BF00BF03480830FFF73BFBDD
:100C600000BF0020EDE70000C4090020400500207F
:100C7000F0B506460C461546FF2C01D2FF2D01D3D8
:100C80000020F0BD002200231AE0012098403040EF
:100C9000A0B1214610E002EBD1000B4F385C01F00F
:100CA000070C012707FA0CF7384302EBD107DFF8EE
:100CB00018C00CF80700491CA942ECD920325B1C73
:100CC000042BE2D30120DCE7400900202DE9F05F8E
:100CD0008246894600204049087080213F48FFF73E
:100CE00064FB18213E4805F09DFE07463A48006A1D
:100CF0003C49884207D00846374908620846478081
:100D00000120C8610EE034484088B84205D032481E
:100D1000478001203049C86104E02F48C069401C69
:100D20002D49C8612C48C06901280BD100202A49EF
:100D3000487048608860C8604FF480612A48FFF7B7
:100D400034FB0FE000260BE0274800EB0615E868AF
:100D500000F0806018B1E86820F04060E860761C20
:100D6000402EF1D31C48C069012810D100F060F872
:100D7000044614B1DFF8748001E04FF00008164813
:100D8000C0F81480002014498861086102E000F076
:100D90004FF80446ECB1FE2200215046FFF768FFF1
:100DA000EF2211460F20FFF763FFFE2211460420B9
:100DB000FFF75EFFFFF7D2FE834607480023594640
:100DC000C2690B48FFF7E8FEB9F1000F01D000F04F
:100DD00011F82046BDE8F09FC0090020400900201E
:100DE000147C00906B27A5E1400500200084D717F4
:100DF00000FF000310B50948007808B1012010BDBC
:100E0000012006490870FFF7A9FE044600231A4690
:100E100021460348FFF7C0FE0120F0E7C00900208B
:100E200001FF00030148406870470000001000E027
:100E30000648006840F08070044908600448006873
:100E400040F001000249086001207047FCED00E01D
:100E5000001000E07047000070B50246086852F8C4
:100E6000200020F001000E6842F82600886808285B
:100E700001D1402500E00025486828438E683043B2
:100E8000CE6830430E6930434E6930438E6930433B
:100E9000CE6930430E6A30434E6A30438E6A304327
:100EA000CE6A40EA0603086B0343486B0343886B32
:100EB0000343114C44F4801444F4001444F4E0243B
:100EC000086852F82000A04318430E6842F8260034
:100ED000086BB0F5801F07D1086828B1106820F4AE
:100EE00080100E6B30431060086818B110684E6BAC
:100EF00030431060002070BD7FFB080030B5034612
:100F0000D1E9000540EA05108D6840EA05208D8989
:100F100040EA0545088A401E45EA0055087D801EC6
:100F200045EA00608D692843551C43F82500186880
:100F300000F48010B0F5801F0BD1586820F47004C5
:100F4000088A401E44EA0054586820F47000204388
:100F50005860002030BD000030B5024692F83540A0
:100F6000404D1068A84249D03E4D18351068A8423F
:100F700044D03C4D30351068A8423FD0394D4835FB
:100F80001068A8423AD0374D60351068A84235D075
:100F9000344D78351068A84230D0324D9035106805
:100FA000A8422BD02F4DA8351068A84226D02E4D30
:100FB0001068A84222D02C4D18351068A8421DD0C8
:100FC000294D30351068A84218D0274D4835106893
:100FD000A84213D0244D60351068A8420ED0224D8F
:100FE00078351068A84209D01F4D90351068A84286
:100FF00004D01D4DA8351068A84201D1012000E0A1
:10100000002000B100E000BFD06E18B9402050654C
:10101000012324E0D06E006800F48030D8B9012CA0
:1010200019D100BF92F83400012801D1022030BD4F
:10103000012082F8340000BF0889401E0D6845EA8F
:10104000C0404D682843D56E286000BF002082F85C
:10105000340000BFEBE74FF40060506501231846F1
:10106000E5E700001000024010040240014691F83C
:10107000350048B1C86E38B1C86E006840F48030A1
:10108000CA6E1060002070470120FCE770B504466E
:101090000CB9012070BD94F83500022803D08020DF
:1010A00060650120F6E7DC492068884249D0DA49CA
:1010B00018312068884244D0D749303120688842AE
:1010C0003FD0D5494831206888423AD0D249603172
:1010D0002068884235D0D04978312068884230D0A5
:1010E000CD499031206888422BD0CB49A831206867
:1010F000884226D0C9492068884222D0C749183181
:10110000206888421DD0C54930312068884218D0F7
:10111000C24948312068884213D0C04960312068F4
:1011200088420ED0BD4978312068884209D0BB4939
:1011300090312068884204D0B849A831206888429C
:1011400001D1012000E00020F0B3042084F8350034
:10115000B149206888424BD0AF4918312068884295
:1011600046D0AD4930312068884241D0AA49483143
:10117000206888423CD0A84960312068884237D036
:10118000A54978312068884232D0A349903120683F
:1011900088422DD0A049A8312068884228D09F4994
:1011A0002068884224D09D491831206888421FD089
:1011B0009A493031206888421AD0984948312068CD
:1011C000884215D0954900E020E0603120688842CF
:1011D0000ED0924978312068884209D08F499031E9
:1011E0002068884204D08D49A8312068884206D101
:1011F0002068006820F001002168086009E120688B
:10120000006820F001002168086002E120680068A1
:1012100020F00E00216808607F492068884249D08C
:101220007D4918312068884244D07B49303120689C
:1012300088423FD078494831206888423AD0764980
:1012400060312068884235D07349783120688842FF
:1012500030D071499031206888422BD06E49A83136
:101260002068884226D06D492068884222D06B4988
:101270001831206888421DD0684930312068884282
:1012800018D0664948312068884213D063496031DC
:10129000206888420ED0614978312068884209D0A0
:1012A0005E4990312068884204D05C49A8312068AA
:1012B000884206D12068006820F00100216808609B
:1012C00005E02068006820F00100216808605249AC
:1012D0002068884270D050491831206888426BD00D
:1012E0004D4930312068884266D04B4948312068EA
:1012F000884261D048496031206888425CD04649C4
:1013000078312068884257D043499031206888421C
:1013100052D04149A831206888424DD03F492068C9
:10132000884249D03D4918312068884244D03B4921
:101330003031206888423FD038494831206888429F
:101340003AD0364960312068884235D03349783107
:101350002068884230D031499031206888422BD0B3
:101360002E49A8312068884226D02D49206888421D
:1013700022D02B491431206888421DD028492831B9
:101380002068884218D026493C312068884213D012
:1013900023495031206888420ED0214964312068A9
:1013A000884209D01E4978312068884204D01C49FF
:1013B0008C312068884201D1012000E00020D8B1A2
:1013C000206E006820F48070216E0860A56D94F88E
:1013D0005C0000F01F01012088406860D4E919100A
:1013E0004860E06E40B1E06E006820F48070E16E0D
:1013F0000860D4E91C104860012084F8350000BF63
:10140000002084F8340000BF206D10B12046216D0B
:10141000884700203EE60000100002401004024011
:1014200008540258014691F8350070472DE9F04103
:10143000044600F0ABFD804614B90120BDE8F08100
:10144000FE492068884249D0FC491831206888420A
:1014500044D0FA493031206888423FD0F7494831BA
:10146000206888423AD0F54960312068884235D0FA
:10147000F24978312068884230D0F04990312068B4
:1014800088422BD0ED49A8312068884226D0EC490B
:101490002068884222D0EA491831206888421DD04D
:1014A000E74930312068884218D0E5494831206842
:1014B000884213D0E2496031206888420ED0E0496A
:1014C00078312068884209D0DD499031206888420F
:1014D00004D0DB49A8312068884201D1012000E016
:1014E0000020002873D0606A00B100BF022084F899
:1014F000350000BF002084F8340000BFCF492068C9
:10150000884249D0CD4918312068884244D0CB491F
:101510003031206888423FD0C8494831206888422D
:101520003AD0C64960312068884235D0C349783105
:101530002068884230D0C1499031206888422BD041
:10154000BE49A8312068884226D0BD49206888421B
:1015500022D0BB491831206888421DD0B8493031AB
:101560002068884218D0B64948312068884213D094
:10157000B3496031206888420ED0B1497831206883
:10158000884209D0AE4990312068884204D0AC49E5
:10159000A8312068884206D12068006820F0010048
:1015A0002168086005E02068006820F001002168DB
:1015B00008600DE000F0EAFCA0EB0800052807D960
:1015C00020206065032084F83500012036E76AE0BA
:1015D0002068006800F001000028EBD12068056851
:1015E00098480540D4E9020108432169084361692C
:1015F0000843A1690843E1690843216A0843054398
:10160000606A042803D1D4E90B01084305438E48DE
:1016100000686FF30F00B0F1005F1DD360682928E8
:1016200002D360682E2811D960683F2802D3606811
:1016300042280BD96068472802D36068482805D93A
:1016400060684F2804D36068522801D8012000E068
:10165000002008B145F480152068056020684569C0
:1016600025F00705606A0543606A04280DD1A06A69
:101670000543E06A48B12046FFF7DAF828B1402078
:101680006065012084F83500D8E620684561204671
:10169000FEF7AAFF064694F85C0000F01F013F2009
:1016A0008840B0609EE069492068884222D067493E
:1016B0001431206888421DD064492831206888424E
:1016C00018D062493C312068884213D05F495031BC
:1016D000206888420ED05D4964312068884209D074
:1016E0005A4978312068884204D058498C312068A2
:1016F000884201D1012000E00020E0B35349206876
:10170000884222D051491431206888421DD04F4967
:1017100028312068884218D04C493C3120688842E2
:1017200013D04A495031206888420ED0474964316D
:101730002068884209D0454978312068884204D021
:1017400042498C312068884201D1012000E000200C
:1017500000B100BF022084F8350000BF002084F8EB
:10176000340000BF2068056839480540A06840285B
:1017700002D1102106E02EE0A068802801D1C1012D
:1017800000E00021E06841EAD001206941EAD0018F
:10179000606941EAD001A06941EAD001E06941EA0B
:1017A000D001206A41EA10100543206805602749EE
:1017B0002068401A1421B0FBF1F08000E06520465B
:1017C000FEF712FF074694F85C0000F01F010120AD
:1017D0008840786006E040206065032084F835008A
:1017E00001202BE61549206888427FD01349183123
:1017F000206888427AD0114930312068884275D0FB
:101800000E4948312068884270D00C496031206808
:1018100088426BD0094978312068884266D00749F0
:1018200090312068884261D00449A83120688842FC
:101830005CD003492068884258D00BE01000024079
:10184000100402403F8010FE0010005C0854025853
:101850000F00FEFF3B4918312068884246D03949C5
:1018600030312068884241D036494831206888426A
:101870003CD0344960312068884237D031497831D2
:101880002068884232D02F499031206888422DD07C
:101890002C49A8312068884228D02B4920688842EA
:1018A00024D029491431206888421FD02649283184
:1018B000206888421AD024493C312068884215D0DB
:1018C000214950312068884210D01F496431206876
:1018D00088420BD01C4978312068884206D01A49CA
:1018E0008C312068884200E000E001D1012000E056
:1018F000002000B32046FEF7EDFEA068802801D14D
:10190000002060602079216E0860D4E919104860D9
:10191000606860B16068082809D82046FEF73CFF7F
:101920000020E16E0860D4E91C10486003E000204C
:10193000E0662067606700206065012084F835005C
:1019400000207BE510040240085402582DE9F041C4
:1019500004460D4616461F464FF0000814B90120F4
:10196000BDE8F08100BF94F83400012801D10220C5
:10197000F6E7012084F8340000BF94F83500012810
:101980007ED1022084F8350000206065E44920689B
:10199000884249D0E24918312068884244D0E04961
:1019A0003031206888423FD0DD4948312068884284
:1019B0003AD0DB4960312068884235D0D849783147
:1019C0002068884230D0D6499031206888422BD098
:1019D000D349A8312068884226D0D249206888425D
:1019E00022D0D0491831206888421DD0CD493031ED
:1019F0002068884218D0CB4948312068884213D0EB
:101A0000C8496031206888420ED0C64978312068C4
:101A1000884209D0C34990312068884204D0C14926
:101A2000A8312068884206D12068006820F00100B3
:101A30002168086005E02068006820F00100216846
:101A400008603B46324629462046FEF749FFB44926
:101A5000206888424BD0B24918312068884246D06D
:101A6000AF4930312068884241D0AD4948312068C3
:101A700088423CD0AA4960312068884237D000E0D3
:101A800042E1A74978312068884230D0A44990319A
:101A9000206888422BD0A249A8312068884226D0ED
:101AA000A0492068884222D09E4918312068884287
:101AB0001DD09C4930312068884218D0994948315E
:101AC0002068884213D097496031206888420ED040
:101AD000944978312068884209D092499031206831
:101AE000884204D08F49A8312068884201D1012062
:101AF00000E0002080B12068006820F01E0040F067
:101B0000160021680860206CB0B12068006840F0C1
:101B10000800216808600FE02068006820F00E00CF
:101B200040F00A0021680860206C28B12068006835
:101B300040F004002168086079492068884270D02C
:101B400077491831206888426BD075493031206858
:101B5000884266D0724948312068884261D0704915
:101B60006031206888425CD06D49783120688842B5
:101B700057D06B4990312068884252D06849A831CB
:101B8000206888424DD067492068884249D065491D
:101B900018312068884244D0624930312068884238
:101BA0003FD060494831206888423AD05D49603171
:101BB0002068884235D05B4978312068884230D02F
:101BC00058499031206888422BD05649A831206866
:101BD000884226D054492068884222D05249143184
:101BE000206888421DD0504928312068884218D08A
:101BF0004D493C312068884213D04B495031206810
:101C000088420ED0484964312068884209D046494C
:101C100078312068884204D043498C31206888425A
:101C200001D1012000E0002090B1206E006800F496
:101C3000803028B1206E006840F48070216E08600A
:101C4000E06E28B1E06E006840F48070E16E0860DC
:101C500033492068884249D0314918312068884288
:101C600044D02F493031206888423FD02C49483138
:101C7000206888423AD02A4960312068884235D0AD
:101C8000274978312068884230D025499031206832
:101C900088422BD02249A8312068884226D0214989
:101CA0002068884222D01F491831206888421DD000
:101CB0001C4930312068884218D01A4948312068C0
:101CC000884213D017496031206888420ED01549E8
:101CD00078312068884209D01249903120688842C2
:101CE00004D01049A8312068884206D120680068D5
:101CF00040F001002168086010E02068006840F0B2
:101D000001002168086009E04FF40060606500BFD1
:101D1000002084F8340000BF4FF0010840461FE661
:101D200010000240100402400854025870B50446E6
:101D300000F02CF906462546681C10B104480078CE
:101D4000054400BF00F022F9801BA842FAD370BD01
:101D5000100400200348006840F0010001490860B9
:101D60007047000020040058F8B502460B460021D9
:101D70006F4DD7E001278F401E6806EA0704002C4C
:101D800072D01E7906F00306012E04D01E7906F0EB
:101D90000306022E13D190684F000326BE40B043C5
:101DA0004F00DE68BE4030439060506801268E4090
:101DB000B0431E79C6F300168E40304350601E7942
:101DC00006F00306032E09D0D0684F000326BE405C
:101DD000B0434F009E68BE403043D0601E7906F08D
:101DE0000306022E13D1CF0802F1200656F8270071
:101DF0004E07F70E0F26BE40B0434F07FF0E1E6979
:101E0000BE403043CF0802F1200646F82700106894
:101E10004F000326BE40B0431E7906F003064F0074
:101E2000BE40304310605E6806F44036002E78D025
:101E300000BF404E366846F002063E4F3E603E46CA
:101E4000366806F00206009600BF00BF3A4E8F08C3
:101E500056F827008E07370F0F26BE40B043374E87
:101E6000B24202D100262EE05BE0354EB24201D1F3
:101E7000012628E0334EB24201D1022623E0324E41
:101E8000B24201D103261EE0304EB24201D10426F7
:101E900019E02F4EB24201D1052614E02D4EB24278
:101EA00001D106260FE02C4EB24201D107260AE0EE
:101EB0002A4EB24201D1082605E0294EB24201D194
:101EC000092600E00A268F073F0FBE4030431A4E16
:101ED0008F0846F827004FF0B0463068A0435E6890
:101EE00006F4801606B120434FF0B04630607068AB
:101EF000A0435E6806F4001606B120434FF0B046DA
:101F000070606868A0435E6806F4003606B120433E
:101F100068602868A0435E6806F4803606B12043F6
:101F20002860491C1E68CE40002E7FF423AFF8BD08
:101F300080000058F4440258080400580000025879
:101F40000004025800080258000C02580010025801
:101F50000014025800180258001C025800200258B1
:101F600000240258024613690B400BB1012000E027
:101F7000002070470AB1816101E00B048361704762
:101F800001480068000C70470010005C01480068C0
:101F900070470000080400207047704710B50446E1
:101FA0000CB9012010BD242084F84100206800688D
:101FB00020F0010021680860D4F8800010B90A48B8
:101FC000C4F880002046D4F8801088470020606460
:101FD00084F84100206384F8420000BF84F8400088
:101FE00000BF00BFDEE70000D12300902DE9F041E3
:101FF00004462068856920680668C5F3002050B152
:10200000C6F3C01038B1606C40F0010060644FF45A
:1020100080702168C861C5F3802050B1C6F3C0103C
:1020200038B1606C40F0080060644FF48060216853
:10203000C861C5F3402050B1C6F3C01038B1606C20
:1020400040F0020060644FF400702168C861676C62
:1020500007F00B0018B13946204602F00BFCBDE832
:10206000F08170B504462068856920680668606B59
:1020700020B1324629462046636B984770BD000068
:1020800010B504460E492068884218D10D48FFF764
:1020900085FF0B480B49086001210A48C1600021F7
:1020A0000161C16101628160416181610648054948
:1020B0004860084600F00CF801200449087010BD83
:1020C00000580040F4010030130F42107A02003033
:1020D00010B504460CB9012010BD94F84100002849
:1020E0001CD184F840003B4860653B48A0653B48F4
:1020F000E0653B4820663B4860663B48A0663B483D
:10210000E0663B4820673B4860673B48A067E06F5C
:1021100008B93A48E0672046E16F8847242084F8F0
:1021200041002068006820F00100216808606068B4
:1021300020F07060216808612068806820F4004009
:1021400021688860E068012805D1A06840F400405B
:102150002168886004E0A06840F404402168886039
:10216000E068022806D12068406840F400602168D9
:10217000486005E02068406820F4006021684860FD
:10218000206840681E490843216848602068C0688C
:1021900020F400402168C860D4E904010843A16923
:1021A00040EA01202168C860D4E90701084321689A
:1021B00008602068006840F0010021680860002085
:1021C0006064202084F841000020206384F84200ED
:1021D00000BF81E70922009007220090D7230090DA
:1021E000D523009005220090252200900D2200901A
:1021F00081200090991F00909B1F0090D323009096
:10220000008000027047704770470000034A016871
:10221000914202D10121024A1170704700580040DA
:1022200079020030034A0168914202D10121024A39
:102230001170704700580040780200302DE9F843D3
:1022400004460F4615461E46DDE9089894F84100FD
:1022500020284FD1B9F1000F02D0B8F1000F05D1FD
:102260004FF4007060640120BDE8F8832068806945
:10227000C0F3C03008B10220F6E700BF94F8400078
:10228000012801D10220EFE7012084F8400000BFBF
:10229000222084F84100402084F84200002060643D
:1022A000C4F82490A4F82A801348E06213486063BD
:1022B000E764012E05D1E8B221688862B01E20656E
:1022C00005E0C5F3072021688862E8B220650C4864
:1022D000F2B2002339460090204603F0ECFA00BF2A
:1022E000002084F8400000BF0121204602F0F2F9EE
:1022F0000020B9E70220B7E70000FFFFF552009089
:10230000002000802DE9F84304460F4615461E467E
:10231000DDE9089894F84100202850D1B9F1000F68
:1023200002D0B8F1000F05D14FF4007060640120B5
:10233000BDE8F88320688069C0F3C03008B102208E
:10234000F6E700BF94F84000012801D10220EFE732
:10235000012084F8400000BF212084F84100402083
:1023600084F84200002060642085C4F82490A4F81A
:102370002A801448E06214486063E764012E05D1A6
:10238000E8B221688862B01E206505E0C5F3072029
:1023900021688862E8B220650C48F2B2C30239466F
:1023A0000090204603F087FA00BF002084F8400028
:1023B00000BF0121204602F08DF90020B8E702207D
:1023C000B6E700000000FFFFF552009000200080FB
:1023D00070477047704770470348006803490978A1
:1023E00008440149086070470804002010040020D8
:1023F00010B5032000F0D4F901F02AFA1049096859
:10240000C1F303210F4A515C01F01F0120FA01F4CE
:102410000B48006800F00F001146085C00F01F0038
:1024200024FA00F008490860084804600F2000F012
:102430000FF808B1012010BD00F060F90020FAE7A4
:1024400018440258087B0090040400200004002077
:1024500070B504461148007808B9012070BD0F48D6
:1024600000784FF47A71B1FBF0F00D490968B1FBC7
:10247000F0F5284601F02EFF08B10120EEE7102C00
:1024800007D200222146501E00F04DF90548046095
:1024900001E00120E2E70020E0E700001004002056
:1024A000000400200C0400207047704770477047FC
:1024B0007047704770B504460CB9012070BD606864
:1024C000012803D0A06AB0F5000F00D100BF4FF67D
:1024D000FF716069884200D000BF94F8360060B98F
:1024E000002084F83500204603F01EFAA06B08B9DE
:1024F0002F48A0632046A16B8847022084F836004D
:102500002068C5686068012803D0A06AB0F5000F94
:1025100001D125F01E054FF6FF716069884202D097
:102520004EF2C000854323480540D4E90101084329
:10253000216A0843616A0843A16A08430543606849
:1025400018B9E1692069084305436068012803D090
:10255000A06AB0F5000F03D1D4E903100843054386
:102560004FF6FF716069884205D0D4E90510084331
:10257000E169084305432068C5600F492068884227
:1025800003D00E492068884205D1D4E90B010843E5
:102590002168486206E00A492068884202D1216821
:1025A000E06A4862012084F83600002086E70000D7
:1025B000C5250090FEF119FF0024004000240058BA
:1025C00000280058704770B504460E461546022094
:1025D00084F836002068C06820F480102168C86044
:1025E0002068006940F0010021680861102021681E
:1025F0004860206886611021204603F0B3F9032863
:1026000000D170BD0820216848602068456108211C
:10261000204603F0A7F9032800D1F2E720680069FB
:1026200040F0040021680861012084F83600002091
:10263000E7E770474178154A116014490831096885
:1026400021F00101114A08321160121F4168116026
:10265000017B0907C27A41EA0261827A41EAC241FA
:10266000427B41EA8241827B41EA4241C27B41EAAC
:102670000241427A41EA0221027A41EA42010278A9
:102680001143024A083211607047000098ED00E0E3
:1026900000BF00BF00BFBFF35F8F00BF00BF00BF20
:1026A0000548006820F48030034908600020024992
:1026B000703108607047000024ED00E040F0010137
:1026C0000D4A11600C497039096841F480310A4A99
:1026D000703A116000BF00BF00BFBFF34F8F00BF53
:1026E00000BF00BF00BF00BF00BFBFF36F8F00BFC0
:1026F00000BF00BF7047000094ED00E07047014646
:10270000084600280DDB00BF00BF00F01F030122B8
:102710009A4043099B0003F1E023C3F8002100BF66
:1027200000BF00BF70472DE9F05F80460D4616469A
:1027300003F0F2FF074639462A46334601F0070008
:10274000C0F1070ABAF1040F02D94FF0040A01E000
:10275000C0F1070AD14600F1040ABAF1070F02D20C
:102760004FF0000A01E0A0F1030AD4464FF0010A3D
:102770000AFA09FAAAF1010A0AEA020A0AFA0CFAA2
:102780004FF0010B0BFA0CFBABF1010B0BEA030B47
:102790004AEA0B042146404603F0C6FFBDE8F09F1D
:1027A00000BF00F00702064B19684FF6FF031940FF
:1027B000044B0B4343EA0221014B196000BF7047F1
:1027C0000CED00E00000FA052DE9F041044600257B
:1027D000A8464FF00062D4E90010114000201346D3
:1027E00059404040014331D1A06E48B1B0F5801F3F
:1027F0000DD0B0F5001F11D0B0F5401F16D114E078
:10280000F948006840F40030F749086010E0022100
:1028100004F1080003F076F9054609E0022104F10D
:10282000280003F021FA054602E001E0012500BF7F
:1028300000BF55B9EC482430006820F44010A16E68
:102840000843E9492431086000E0A8464FF480734A
:10285000D4E90010194000205940404001432ED1D6
:10286000A06D05281BD2DFE800F0030A111819003B
:10287000DD48006840F40030DB49086011E00021C9
:1028800004F1080003F03EF905460AE0002104F1D6
:10289000280003F0E9F9054603E002E001E0012524
:1028A00000BF00BF55B9D0482430006820F00700B1
:1028B000A16D0843CC492431086000E0A8464FF4DC
:1028C0000073D4E9001019400020594040400143F2
:1028D00034D1E06D802818D003DC40B140281DD1F0
:1028E0000CE0C02818D0B0F5807F17D115E0BE48A5
:1028F000006840F40030BC49086011E0002104F198
:10290000080003F0FFF805460AE0002104F1280062
:1029100003F0AAF9054603E002E001E0012500BF4B
:1029200000BF55B9B0482430006820F4E070E16D74
:102930000843AD492431086000E0A8464FF48063A5
:10294000D4E900101940002059404040014339D1DA
:10295000D4F8A800B0F5800F1AD004DC50B1B0F55F
:10296000001F1ED10DE0B0F5C00F18D0B0F5000F5C
:1029700017D115E09C48006840F400309A4908607F
:1029800011E0002104F1080003F0BCF805460AE05C
:10299000002104F1280003F067F9054603E002E096
:1029A00001E0012500BF00BF5DB98F482C300068F1
:1029B00020F46000D4F8A81008438B492C3108603B
:1029C00000E0A8464FF40062D4E900101140002056
:1029D000134659404040014339D1D4F8AC00B0F11E
:1029E000007F1AD004DC50B1B0F1807F1ED10DE021
:1029F000B0F1407F18D0B0F1806F17D115E07A4860
:102A0000006840F400307849086011E0002104F1CA
:102A1000080003F077F805460AE0002104F12800D9
:102A200003F022F9054603E002E001E0012500BFC2
:102A300000BF5DB96C482C30006820F0E060D4F82D
:102A4000AC10084368492C31086000E0A8464FF0FC
:102A50000073D4E900011840002158404940084360
:102A600028D1E06CA8B1102804D0202809D0302843
:102A700010D10DE05C48006840F400305A4908600D
:102A80000AE0022104F1080003F03CF8054603E0E7
:102A900002E001E0012500BF00BF55B952482030D7
:102AA000006820F03000E16C08434F492031086095
:102AB00000E0A8464FF48053D4E9001019400020EC
:102AC00059404040014337D1206EB0F5005F1AD025
:102AD00004DC50B1B0F5805F1ED10DE0B0F5405F71
:102AE00018D0B0F5804F17D115E03F48006840F48A
:102AF00000303D49086011E0002104F1080003F0B6
:102B000001F805460AE0002104F1280003F0ACF8C2
:102B1000054603E002E001E0012500BF00BF55B912
:102B200031482430006820F4E040216E08432E49EB
:102B30002431086000E0A8464FF40053D4E90010A7
:102B40001940002059404040014335D1606EB0F536
:102B5000403F1ED007DC68B1B0F5803F0BD0B0F528
:102B6000003F19D10EE0B0F5802F13D0B0F5A02FA3
:102B700012D110E012E0012104F1080002F0C2FFBE
:102B800005460BE0012104F1280003F06DF805462D
:102B900004E003E002E001E0012500BF00BF55B9F9
:102BA00011482430006820F4E020616E08430E498B
:102BB0002431086000E0A8464FF48043D4E90001C6
:102BC0001840002158404940084337D1D4F8B0009C
:102BD000B0F1405F20D009DC78B1B0F1805F0DD05A
:102BE000B0F1005F1BD110E02C440258B0F1804FCF
:102BF00013D0B0F1A04F12D110E012E0012104F186
:102C0000080002F07FFF05460BE0012104F12800D7
:102C100003F02AF8054604E003E002E001E00125A4
:102C200000BF00BF4DB9FE48006820F0E040D4F876
:102C3000B0100843FA49086000E0A8464FF400428B
:102C4000D4E9001011400020134659404040014390
:102C500029D1206FB0B1B0F1805F03D0B0F1005F37
:102C600011D108E0EE482C38006840F40030EC49FF
:102C70002C39086009E0012104F1080002F042FF4C
:102C8000054602E001E0012500BF00BF55B9E44858
:102C90000838006820F04050216F0843E0490839A7
:102CA000086000E0A8464FF08072D4E9001011409F
:102CB000002013465940404001432AD1A06CB8B1CE
:102CC000012804D002280BD0032812D10FE0D448E9
:102CD0002C38006840F40030D1492C3908600AE0F3
:102CE000022104F1080002F00DFF054603E002E0B6
:102CF00001E0012500BF00BF55B9C9480C38006884
:102D000020F00300A16C0843C5490C39086000E0BD
:102D1000A8464FF48002D4E9000110400021134678
:102D20005840494008437DD1BE48006840F4807057
:102D3000BC490860FFF72AF9064606E0FFF726F9C6
:102D4000801B642801D9032505E0B648006800F41B
:102D500080700028F2D000BF85BBB14818300068F1
:102D600000F44070B4F8B41001F44071884213D0FC
:102D7000AB481830006820F44077A9481830006844
:102D800040F48030A649183108600846006820F4F5
:102D90008030086008460760D4F8B400B0F5807F42
:102DA00015D1FFF7F3F8064609E0FFF7EFF8801BAF
:102DB00041F28831884202D9032507E038E098487B
:102DC00018300068C0F340000028EED000BF55BBAB
:102DD00000BFB4F8B40000F44070B0F5407F0ED1ED
:102DE0008F484838006820F47C518F4AD4F8B400EA
:102DF000104041EA10108A494839086007E08848C5
:102E00004838006820F47C50854948390860844877
:102E100018300068B4F8B410C1F30B0108438049BE
:102E2000183101E005E001E0086002E0A84600E09A
:102E3000A8460122D4E90001104000211346584061
:102E40004940084330D1E06F18281AD005DC48B15A
:102E5000082808D0102817D10CE0202812D02828E4
:102E600012D110E012E0012104F1080002F04AFE44
:102E700005460BE0012104F1280002F0F5FE0546AD
:102E800004E003E002E001E0012500BF00BF55B906
:102E90006348001F006820F03800E16F0843604974
:102EA000091F086000E0A8460222D4E90001104092
:102EB0000021134658404940084329D1A06F0628F5
:102EC00016D2DFE800F003040B12131412E0012104
:102ED00004F1080002F016FE05460BE0012104F1A2
:102EE000280002F0C1FE054604E003E002E001E034
:102EF000012500BF00BF55B94948001F006820F0F8
:102F00000700A16F08434649091F086000E0A84672
:102F10000423D4E9001019400020594040400143E7
:102F200029D1D4F89400062816D2DFE800F0030473
:102F30000B12131412E0012104F1080002F0E2FD6B
:102F400005460BE0012104F1280002F08DFE054644
:102F500004E003E002E001E0012500BF00BF4DB93D
:102F60002F48006820F00700D4F8941008432C493B
:102F7000086000E0A8462023D4E9000118400021A1
:102F800058404940084337D1D4F89000B0F1405F31
:102F90001ED007DC68B1B0F1805F0BD0B0F1005FEC
:102FA00019D10EE0B0F1804F13D0B0F1A04F12D183
:102FB00010E012E0002104F1080002F0A3FD054634
:102FC0000BE0022104F1280002F04EFE054604E069
:102FD00003E002E001E0012500BF00BF5DB9104839
:102FE000001F006820F0E040D4F8901008430C491E
:102FF000091F086000E0A8464023D4E900101940EA
:1030000000205940404001433CD1D4F89C00B0F529
:10301000406F25D00EDCA0B1B0F5806F12D005E076
:103020005844025800480258FFFCFF0FB0F5006FEB
:1030300019D10EE0B0F5805F13D0B0F5A05F12D1CA
:1030400010E012E0002104F1080002F05BFD0546EB
:103050000BE0022104F1280002F006FE054604E020
:1030600003E002E001E0012500BF00BF4DB9FE48CA
:10307000006820F4E050D4F89C100843FA49086036
:1030800000E0A8468023D4E90010194000205940F0
:103090004040014335D1D4F8A000B0F5C04F1ED058
:1030A00007DC68B1B0F5005F0BD0B0F5804F19D1E7
:1030B0000EE0B0F5004F13D0B0F5204F12D110E064
:1030C00012E0002104F1080002F01CFD05460BE0AF
:1030D000022104F1280002F0C7FD054604E003E0E8
:1030E00002E001E0012500BF00BF4DB9DE480068E5
:1030F00020F46040D4F8A0100843DB49086000E0E9
:10310000A8460823D4E90010194000205940404047
:10311000014317D1D4F88400B0F5805F07D10221B4
:1031200004F1280002F0A0FD08B14FF00108CE48DC
:10313000001F006820F44050D4F884100843CA49A6
:10314000091F08601023D4E90010194000205940DD
:103150004040014315D1D4F89800B0F5807F07D1E5
:10316000022104F1280002F07FFD08B14FF00108B0
:10317000BD48006820F44070D4F898100843BA495C
:1031800008604FF40022D4E90001104000211346EA
:1031900058404940084327D1D4F8A40030B1B0F5D5
:1031A000803F0AD0B0F5003F0FD10DE0002104F1BF
:1031B000080002F0A7FC054609E0022104F12800FE
:1031C00002F052FD054602E001E0012500BF00BF0C
:1031D0004DB9A548006820F44030D4F8A410084345
:1031E000A149086000E0A8464FF48023D4E900011B
:1031F000184000215840494008432DD1D4F8880098
:10320000B0F5801F06D0B0F5001F0CD0B0F5401F00
:1032100011D10FE094482C38006840F400309249F6
:103220002C39086009E0012104F1280002F01CFD9E
:10323000054602E001E0012500BF00BF5DB98A48F4
:10324000001F006820F44010D4F888100843864915
:10325000091F086000E0A8464FF48032D4E900015D
:1032600010400021134658404940084325D1206DA5
:1032700018B1B0F5803F10D108E07B482C380068C9
:1032800040F4003078492C39086008E0022104F14C
:10329000080002F037FC054601E0012500BF00BF31
:1032A00055B971480C38006820F48030216D08430E
:1032B0006D490C39086000E0A8464FF00052D4E98F
:1032C000001011400020134659404040014307D1EF
:1032D000022104F1280002F0C7FC08B14FF00108F8
:1032E0004FF40033D4E90001184000215840494010
:1032F000084329D1D4F88000A0B1B0F5807F06D072
:10330000B0F5007F0CD0B0F5407F0CD109E05648F5
:103310002C38006840F4003053492C39086004E030
:1033200003E002E001E0012500BF00BF5DB94E48A7
:10333000001F006820F44070D4F8801008434A4908
:10334000091F086000E0A8464FF48012D4E900107D
:1033500011400020134659404040014309D14248E2
:103360000838006820F00040616F08433E49083982
:1033700008604FF08052D4E900101140002013463D
:103380005940404001430AD137484838006820F48A
:103390008040D4F8B81008433349483908604FF4E6
:1033A0000012D4E90010114000201346594040405B
:1033B000014309D12C480838006820F08070E16E84
:1033C00008432949083908604FF08042D4E90010C9
:1033D00011400020134659404040014311D100BF25
:1033E00021484838006820F400401F4948390860E7
:1033F00008460068D4F8BC1008431B4948390860E7
:1034000000BF4FF00042D4E90010114000201346E5
:1034100059404040014309D113480C38006820F05E
:103420004050616D084310490C3908604FF40002A8
:10343000D4E9001011400020134659404040014398
:103440000AD10948001F006820F44000D4F88C100D
:1034500008430549091F08600123002160681840DE
:1034600001224940504001E058440258014306D12E
:1034700004F1080002F046FB054605B1A846022209
:1034800000216068104049405040014307D10121AC
:1034900004F1080002F036FB054605B1A8460423F6
:1034A000002061681940042240405140084307D180
:1034B000022104F1080002F025FB054605B1A846EB
:1034C0000823002160681840082249405040014309
:1034D00006D104F1280002F0C7FB054605B1A84655
:1034E000102200216068104049405040014307D13C
:1034F000012104F1280002F0B7FB054605B1A846FA
:10350000202200206168114040405140084307D10B
:10351000022104F1280002F0A7FB054605B1A846E8
:10352000B8F1000F02D10020BDE8F0810120FBE7D7
:103530002DE9F04104460D4614B90120BDE8F081A3
:10354000BD48006800F00F00A8420ED2BA480068DB
:1035500020F00F002843B84908600846006800F0D2
:103560000F00A84201D00120E8E7207800F0040015
:1035700004280ED1B1492069096801F07001884220
:1035800007D9AE48006820F0700021690843AB49B4
:103590000860207800F00800082811D1A749091D0B
:1035A0006069096801F07001884209D9A348001DCB
:1035B000006820F0700061690843A049091D086097
:1035C000207800F01000102811D19C49091DA06935
:1035D000096801F4E061884209D99848001D006833
:1035E00020F4E060A16908439449091D086020782F
:1035F00000F02000202811D190490831E0690968C5
:1036000001F07001884209D98C480830006820F028
:103610007000E1690843894908310860207800F0AA
:10362000020002280ED18549E068096801F00F0107
:10363000884207D98148006820F00F00E1680843FC
:103640007E490860207800F00100002850D07B48B7
:10365000006820F47060A1680843784908606068D9
:10366000022807D1754818380068C0F34040F8B9FF
:10367000012063E76068032807D1704818380068A4
:10368000C0F34060A0B9012058E76068012807D165
:103690006A4818380068C0F3002048B901204DE797
:1036A000664818380068C0F3800008B9012045E773
:1036B00062480838006820F00700616808435F49E5
:1036C00008390860FEF762FC064608E0FEF75EFC7B
:1036D000801B41F28831884201D903202EE75748E8
:1036E0000838006800F038006168B0EBC10FEDD118
:1036F000207800F0020002280ED15049E0680968E5
:1037000001F00F01884207D24C48006820F00F00FA
:10371000E1680843494908604748006800F00F0025
:10372000A8420ED94448006820F00F0028434249BF
:1037300008600846006800F00F00A84201D0012090
:10374000FCE6207800F0040004280ED13B492069F3
:10375000096801F07001884207D23848006820F0FB
:1037600070002169084335490860207800F008009E
:10377000082811D13149091D6069096801F07001FB
:10378000884209D22D48001D006820F07000616950
:1037900008432A49091D0860207800F0100010280D
:1037A00011D12649091DA069096801F4E061884228
:1037B00009D22248001D006820F4E060A169084396
:1037C0001E49091D0860207800F02000202811D132
:1037D0001A490831E069096801F07001884209D28C
:1037E00016480830006820F07000E169084313496A
:1037F0000831086000F02CF810490968C1F3032172
:103800000F4A515C01F01F0120FA01F70B480068D4
:1038100000F00F001146085C00F01F0027FA00F0CE
:10382000084908600848076008480068FEF710FE6D
:103830008046404682E600000020005218440258AC
:10384000087B009004040020000400200C040020E9
:10385000F0B5824E366806F0380636B1082E15D01F
:10386000102E15D0182E7DD114E07C4E103E3668F7
:10387000C6F3401646B1794E103E3668C6F3C1070E
:10388000774E26FA07F000E07548E5E07548E3E07A
:103890007548E1E0714E1836366806F003046F4E45
:1038A00018363668C6F305116C4E1C36366806F0BD
:1038B00001056A4E24363668C6F3CC0616FB05F6BB
:1038C00001EE106AB8EE410A002971D024B1012C32
:1038D00050D0022C6DD16DE0604E103E3668C6F3BC
:1038E00040163EB35D4E103E3668C6F3C1075C4ECF
:1038F00026FA07F301EE103AF8EE411A01EE101A1B
:10390000B8EE411A81EE812A9FED581AC0EE011AD5
:10391000524E20363668C6F3080601EE106AB8EE3D
:10392000411A31EE811AF7EE001A31EE211A62EED9
:10393000010A1EE001EE101AB8EE411ADFED4C1A32
:1039400081EE812A9FED491AC0EE011A434E2036BE
:103950003668C6F3080601EE106AB8EE411A31EE79
:10396000811A00E076E0F7EE001A31EE211A62EEDD
:10397000010A5BE001EE101AB8EE411A9FED3D2AF4
:10398000C2EE011A9FED391A80EE012A334E20361D
:103990003668C6F3080601EE106AB8EE411A32EE38
:1039A000011AB7EE002A31EE021A61EE810A3DE0FB
:1039B0004EE01DE001EE101AB8EE411ADFED2E1AAE
:1039C00081EE812A9FED291AC0EE011A234E20367E
:1039D0003668C6F3080601EE106AB8EE411A31EEF9
:1039E000811AF7EE001A31EE211A62EE010A1DE08B
:1039F00001EE101AB8EE411A9FED1E2AC2EE011A0E
:103A00009FED1A1A80EE012A144E20363668C6F34E
:103A1000080601EE106AB8EE411A32EE011AB7EE4E
:103A2000002A31EE021A61EE810A00BF00BF0B4E80
:103A300020363668C6F34626721C01EE102AB8EE10
:103A4000411AC0EE811ABCEEE11A11EE100A00E034
:103A5000002001E0034800BF00BFF0BD1044025841
:103A60000090D00300093D0040787D010000004631
:103A70000024744C0024744A20BCBE4B2DE9F0474E
:103A8000044614B90120BDE8F087207800F0010059
:103A9000002870D0FA48006800F03808F84818305C
:103AA000D0F80090B8F1100F06D0B8F1180F0FD170
:103AB00009F0030002280BD1F14810380068C0F368
:103AC000404000286AD06068002867D10120DAE70A
:103AD00000BF6068B0F5803F08D1E9481038006841
:103AE00040F48030E649103908602EE0606868B91B
:103AF000E3481038006820F48030E149103908604C
:103B00000846006820F4802008601EE06068B0F578
:103B1000A02F0DD1DA481038006840F48020D84931
:103B2000103908600846006840F4803008600CE0F6
:103B3000D3481038006820F48030D149103908602B
:103B40000846006820F48020086000BF606898B1D3
:103B5000FEF71CFA054606E0FEF718FA401B64283B
:103B600001D903208FE7C64810380068C0F34040F1
:103B70000028F1D012E012E0FEF708FA054606E050
:103B8000FEF704FA401B642801D903207BE7BC48F8
:103B900010380068C0F340400028F1D100BF207801
:103BA00000F00200022874D1B548006800F038081F
:103BB000B3481830D0F80090B8F1000F05D0B8F134
:103BC000180F56D109F00300D0BBAD48103800687B
:103BD000C0F3800018B1E06808B9012053E7A84895
:103BE0001038006820F01900E1680843A449103932
:103BF0000860FEF7CBF9054606E0FEF7C7F9401B63
:103C0000022801D903203EE79D4810380068C0F320
:103C100080000028F1D000BFFEF7B2F941F20301A5
:103C200088421AD8206940280BD195480C38006882
:103C300020F47C3040F4003091490C39086017E0E2
:103C400017E08F480C38006820F47C30216940EA86
:103C500001308B490C3908600AE089480C3800684B
:103C600020F0FE40217C40EA016085490C39086063
:103C700066E0E06888B382481038006820F01900D8
:103C8000E16808437E4910390860FEF77FF9054670
:103C900007E056E0FEF77AF9401B022801D903201D
:103CA000F1E6774810380068C0F380000028F1D0B2
:103CB00000BFFEF765F941F2030188421AD8206976
:103CC00040280BD16E480C38006820F47C3040F45A
:103CD00000306B490C39086017E017E068480C3871
:103CE000006820F47C30216940EA013064490C39D5
:103CF00008600AE062480C38006820F0FE40217C31
:103D000040EA01605E490C39086019E05C481038EF
:103D1000006820F001005A4910390860FEF736F9B2
:103D2000054606E0FEF732F9401B022801D90320C0
:103D3000A9E6534810380068C0F380000028F1D18C
:103D400000BF207800F0100010287CD14C4800689B
:103D500000F038084A481830D0F80090B8F1080F41
:103D600006D0B8F1180F3DD109F00300012839D170
:103D7000434810380068C0F3002020B1E069802873
:103D800001D001207FE600BFFEF7FAF841F20301FF
:103D900088421AD8206A20280AD139480C3800688D
:103DA00020F0F84040F0804035490C39086018E0B8
:103DB00033480C38006820F0F84094F8201040EAAE
:103DC00081602F490C3908600BE02D48001F006806
:103DD00020F07C5094F8201040EA01602849091F27
:103DE000086066E0E06978B325481038006840F064
:103DF0008000234910390860FEF7C8F8054606E040
:103E0000FEF7C4F8401B022801D903203BE61C48FA
:103E100010380068C0F300200028F1D000BFFEF782
:103E2000AFF841F2030188421CD8206A20280CD147
:103E300013480C38006820F0F84040F080401049EA
:103E40000C3908601AE035E01CE00D480C380068B9
:103E500020F0F84094F8201040EA816008490C39BD
:103E600008600BE00648001F006820F07C5094F8C2
:103E7000201040EA01600249091F086019E00000B3
:103E800010440258FA48006820F08000F8490860A1
:103E9000FEF77CF8054606E0FEF778F8401B02289E
:103EA00001D90320EFE5F2480068C0F300200028A4
:103EB000F2D100BF207800F00800082836D16069F0
:103EC000D0B1EB487430006840F00100E84974312B
:103ED0000860FEF75BF8054606E0FEF757F8401B62
:103EE000022801D90320CEE5E14874300068C0F310
:103EF00040000028F1D019E0DD487430006820F05F
:103F00000100DB4974310860FEF740F8054606E021
:103F1000FEF73CF8401B022801D90320B3E5D44842
:103F200074300068C0F340000028F1D1207800F020
:103F30002000202830D1A069B8B1CD48006840F4F5
:103F40008050CB490860FEF721F8054606E0FEF7F1
:103F50001DF8401B022801D9032094E5C4480068DD
:103F6000C0F340300028F2D016E0C148006820F4C9
:103F70008050BF490860FEF709F8054606E0FEF7E5
:103F800005F8401B022801D903207CE5B8480068E9
:103F9000C0F340300028F2D1207800F0040004285B
:103FA0007DD1B448006840F48070B2490860FDF7E4
:103FB000EDFF054606E0FDF7E9FF401B642801D947
:103FC000032060E5AB48006800F480700028F2D060
:103FD00000BFA068012808D1A5487030006840F0F3
:103FE0000100A349703108602DE0A06868B9A048BD
:103FF0007030006820F001009D497031086008466B
:10400000006820F0040008601DE0A06805280DD1BC
:1040100097487030006840F004009549703108609E
:104020000846006840F0010008600CE090487030DD
:10403000006820F001008E49703108600846006871
:1040400020F00400086000BFA068A0B1FDF79EFF4B
:10405000054608E0FDF79AFF401B41F2883188428F
:1040600001D903200FE5824870300068C0F340009A
:104070000028EFD013E0FDF789FF054608E0FDF7C3
:1040800085FF401B41F28831884201D90320FAE4C0
:10409000774870300068C0F340000028EFD1606AB4
:1040A00000287DD072481030006800F038001828D1
:1040B00077D0606A022875D16D48006820F0807062
:1040C0006B490860FDF762FF054606E0FDF75EFFFD
:1040D000401B022801D90320D5E465480068C0F3DD
:1040E00040600028F2D100BFD4E90A1041EA001074
:1040F0005F492831096840F2F332914308435C4933
:1041000028310860208E401EC0F30800616B491EF4
:104110004FF47E4202EA41210843218F491ED20119
:1041200002EA014108433C21095D491E120202EAEC
:10413000016108434E493031086000BF081F006824
:1041400020F00100091F08604948343000684FF62C
:10415000F8718843A16C40EAC100454934310860D8
:1041600043482C30006820F00C00216C0843404983
:104170002C3108600846006820F00200616C08439A
:104180003B492C3108600846006840F480300860E4
:104190000846006840F4003008600846006802E005
:1041A00093E038E01FE040F4802008600846006893
:1041B00040F0010008602E48006840F080702C49F3
:1041C0000860FDF7E3FE054606E0FDF7DFFE401B55
:1041D000022801D9032056E425480068C0F3406056
:1041E0000028F2D071E02248006820F08070204959
:1041F0000860FDF7CBFE054606E0FDF7C7FE401B55
:10420000022801D903203EE419480068C0F3406049
:104210000028F2D159E01648283007681448303099
:104220000668606A012821D007F00301A06A814274
:104230001CD1C7F30511E06A884217D1C6F3080103
:10424000206B401E814211D1606B401EC6F3462197
:1042500088420BD1A06B401EC6F30641884205D1AF
:10426000E06B401EC6F30661884205D001200AE4D7
:10427000004402580048025815480068C0F3CC07B3
:10428000A06CB84221D012480838006820F0010024
:104290000F4908390860FDF779FE054600BFFDF7B4
:1042A00075FE401BFBD00A4800684FF6F871884342
:1042B000A16C40EAC100064908600548083800685A
:1042C00040F0010002490839086000204AE400007B
:1042D0003444025870B504462546681EB0F1807F0C
:1042E00001D301200FE0681E4FF0E02148610F214B
:1042F0004FF0FF3002F018FA00204FF0E021886103
:1043000007200861002070BD70B504462068C668AB
:104310002068056905F0020002281CD106F00200A1
:10432000022818D1401F21680861012020772068E9
:10433000806900F0030020B12046D4F8941088472B
:1043400007E02046D4F89C1088472046D4F8A010F7
:1043500088470020207705F0040004281CD106F0CF
:104360000400042818D1C043216808610220207786
:104370002068806900F4407020B12046D4F8941081
:10438000884707E02046D4F89C1088472046D4F898
:10439000A01088470020207705F0080008281CD1CD
:1043A00006F00800082818D1C043216808610420DD
:1043B00020772068C06900F0030020B12046D4F8BF
:1043C0009410884707E02046D4F89C108847204680
:1043D000D4F8A01088470020207705F0100010289E
:1043E0001CD106F01000102818D1C04321680861C4
:1043F000082020772068C06900F4407020B1204672
:10440000D4F89410884707E02046D4F89C108847D9
:104410002046D4F8A01088470020207705F001003E
:1044200050B106F0010038B16FF001002168086159
:104430002046D4F88410884705F08000802804D0F6
:1044400005F40050B0F5005F0BD106F08000802825
:1044500007D16FF40250216808612046D4F8B410E7
:10446000884705F48070B0F5807F0BD106F080009E
:10447000802807D16FF48070216808612046D4F845
:10448000B810884705F0400040280AD106F04000E7
:10449000402806D1C043216808612046D4F88C101A
:1044A000884705F0200020280AD106F020002028A7
:1044B00006D1C043216808612046D4F8AC10884773
:1044C00070BD000010B504463B48006800F0004095
:1044D00048B13948006840F0004037490860A06999
:1044E000801CA06110BD3448083800683349086258
:1044F0003148001F007881F824002F48C01E007842
:1045000088622D480C300068C8622B48801E0088E5
:1045100008862948006848632748001D00688863AA
:10452000254810300068C86300202549086000BF96
:10453000234800680028FBD0204920680860606894
:104540004860A0688860E068C860206908616069A8
:104550004861A0698861E069C8611AA1002001F082
:10456000A1FC164882691BA1002001F09BFC1348A6
:1045700042691CA1002001F095FC0F48001F026851
:104580001CA1002001F08EFC0B4802681DA1002038
:1045900001F088FC08480C3002681EA1002001F0E0
:1045A00081FC00200649086000BF0548006800281B
:1045B000FBD000BF96E700002CED00E0C80400200F
:1045C0001C04002048617264204661756C74210DE2
:1045D0000A0000005043203D203078253038580D27
:1045E0000A0000004C52203D203078253038580D0C
:1045F0000A00000043465352203D203078253038D1
:10460000580D0A0048465352203D20307825303856
:10461000580D0A0042464152203D2030782530385E
:10462000580D0A0010B50248FDF7E0FC10BD00006F
:10463000F401003010B50248FDF713FD10BD000075
:10464000F401003070B50546AC6BA06B10B10020D2
:10465000A16B0865E06B10B10020E16B0865204696
:1046600001F045F970BD10B50246002001F00103CC
:104670004BB140F0420092F8413003F02803282B60
:1046800001D040F0B00001F00203022B09D140F04C
:10469000440092F8413003F02803282B01D040F069
:1046A000B00001F40043B3F5004F01D140F0B80071
:1046B000102901D140F09000202901D140F02000C4
:1046C000402901D140F0400013681B6883431468FF
:1046D000236010BD10B502460020254C536BA34249
:1046E00022D0244C536BA3421ED0234C536BA342C5
:1046F0001AD001F40043B3F5004F01D140F0B800E7
:1047000001F001030BB140F0F20001F00203022BB3
:1047100001D140F0F400102901D140F0900020298F
:1047200020D140F020001DE001F40043B3F5004F1C
:1047300001D140F0B80001F001030BB140F0F200EC
:1047400001F00203022B01D140F0F400102901D145
:1047500040F09000202901D140F06000402901D1B3
:1047600040F0400013681B6803431468236010BDC9
:10477000E14F009091540090415100900168896987
:10478000C1F3400111B10021026891620168896999
:1047900001F0010129B90168896941F0010102684C
:1047A000916170472DE9F0470446894694F841002D
:1047B00000F02800282852D120688069C0F3004703
:1047C0002068806900F47E00050C20688068C0F3D2
:1047D00009062068C06800F0FE08E06802282ED1B3
:1047E00005F00600062101EAE611884216D1354699
:1047F000A06C401CA064A06C022838D10020A064EA
:1048000008202168C86100BF002084F8400000BF74
:104810002A4639462046A36F984728E045464FF47C
:1048200000412046FFF71FFF00BF002084F8400032
:1048300000BF2A4639462046A36F984717E04FF439
:1048400000412046FFF70FFF00BF002084F8400022
:1048500000BF2A4639462046A36F984707E0082044
:104860002168C86100BF002084F8400000BFBDE897
:10487000F08700002DE9F04104460F4694F84160AE
:10488000002084F842004D48E06200206085606CA2
:1048900038436064282E03D0292E01D02A2E09D156
:1048A00003212046FFF7DFFE282084F8410044481A
:1048B000606324E048F203012046FFF7D4FE20465F
:1048C000FFF75CFF94F84100602816D0202084F8A0
:1048D000410020688069C0F3401070B12068806991
:1048E000C0F3001030B110202168C861606C40F046
:1048F0000400606420202168C86100206063256B8B
:10490000A06B48B3112D01D0212D25D1206800685E
:1049100000F48040B0F5804F05D12068006820F495
:10492000804021680860A06BFCF77CFD01280FD057
:104930002448A16B086500BF002084F8400000BF38
:10494000A06BFCF7A3FB70B3A06B016D884732E04E
:10495000204600F0CCFF2EE0E06B48B3122D01D0D2
:10496000222D25D12068006800F40040B0F5004FEA
:1049700005D12068006820F4004021680860E06BE1
:10498000FCF750FD01280FD00E48E16B086500BF11
:10499000002084F8400000BFE06BFCF777FB10B10B
:1049A000E06B016D884706E0204600F0A0FF02E0C2
:1049B000204600F09CFFBDE8F08100000000FFFFF2
:1049C0006D5700904546009070B504460D46194855
:1049D000E06200202063202084F84100002084F859
:1049E00042006063C5F3800090B12068406A616A4C
:1049F0000870606A401C6062208D48B1208D401EA6
:104A00002085608D401E6085606C40F0040060640D
:104A100048F203012046FFF726FE10202168C861F6
:104A200000BF002084F8400000BF2046616E884728
:104A300070BD00000000FFFFF8B504460D462F468C
:104A400020202168C86194F84100212806D1012165
:104A50002046FFF708FE1120206309E094F841008A
:104A6000222805D102212046FFF7FDFD12202063F8
:104A70002068406838490840216848600020606329
:104A80003648E062C7F3001030B110202168C861D9
:104A9000606C40F00400606494F84100602807D125
:104AA000C7F3800020B12068406AC0B2009000BF08
:104AB0002046FFF763FE666C94F84100602800D042
:104AC00026B1616C2046FFF7D5FE44E094F8410022
:104AD00021281ED1202084F841000020206394F872
:104AE000420040280AD1002084F8420000BF84F828
:104AF000400000BF2046A16E88472CE0002084F8CB
:104B0000420000BF84F8400000BF2046616D884726
:104B100021E094F8410022281DD1202084F8410092
:104B20000020206394F8420040280AD1002084F835
:104B3000420000BF84F8400000BF2046E16E884775
:104B400009E0002084F8420000BF84F8400000BF64
:104B50002046A16D8847F8BD00E800FE0000FFFF79
:104B600010B50446002084F8420094F84100212842
:104B700013D1202084F841001120206300206063BD
:104B800001212046FFF76FFD00BF002084F84000A0
:104B900000BF2046616D884712E0202084F8410064
:104BA000122020630020606302212046FFF75BFD96
:104BB00000BF002084F8400000BF2046A16D884758
:104BC00010BD00002DE9F047044689462068D0F862
:104BD00000804E46E76A94F8415020202168C86161
:104BE000212D01D0292D07D148F201012046FFF7E0
:104BF0003AFD2120206314E0222D01D02A2D07D177
:104C000048F202012046FFF72EFD2220206308E033
:104C1000282D06D148F203012046FFF724FD00208D
:104C200020632068406840F40040216848602068A4
:104C30004068C4490840216848602046FFF79EFD4F
:104C4000C8F38030002870D02068006820F48040CD
:104C500021680860A06B002865D0A06B0068BA4985
:104C6000884258D0A06B0068B7491831884252D0AA
:104C7000A06B0068B449303188424CD0A06B00680A
:104C8000B1494831884246D0A06B0068AE496031D6
:104C9000884240D0A06B0068AB49783188423AD056
:104CA000A06B0068A8499031884234D0A06B00689E
:104CB000A549A83188422ED0A06B0068A34988423C
:104CC00029D0A06B0068A1491831884223D0A06B7D
:104CD00000689E49303188421DD0A06B00689B4916
:104CE0004831884217D0A06B0068984960318842EB
:104CF00011D0A06B00689549783188420BD0A06B29
:104D0000006892499031884205D0A06B00688F49B5
:104D1000A831884203D1A06B0068406802E0A06B14
:104D200000684068608573E0FFE7C8F3C030002882
:104D30006ED02068006820F4004021680860E06BB5
:104D4000002865D0E06B00687F49884258D0E06B4E
:104D500000687D491831884252D0E06B00687A497A
:104D6000303188424CD0E06B006877494831884246
:104D700046D0E06B006874496031884240D0E06BF7
:104D800000687149783188423AD0E06B00686E491A
:104D90009031884234D0E06B00686B49A83188427A
:104DA0002ED0E06B00686949884229D0E06B00682A
:104DB00066491831884223D0E06B0068634930317E
:104DC00088421DD0E06B006860494831884217D0A6
:104DD000E06B00685D496031884211D0E06B00688B
:104DE0005A49783188420BD0E06B006857499031BE
:104DF000884205D0E06B00685449A831884203D14D
:104E0000E06B0068406802E0E06B00684068608525
:104E1000C6F3800080B126F004062068406A616A0B
:104E20000870606A401C6062208D28B1208D401E91
:104E30002085608D401E6085608D18B1606C40F0EB
:104E400004006064C6F3001000B3C8F30010E8B1BA
:104E5000608D00BB94F84100282807D1B7F1007F8E
:104E600004D131462046FFF7AFFD23E094F841001E
:104E700029280CD117F5803F09D010202168C8617E
:104E80002046FFF77BFC204600F064F812E010207B
:104E90002168C8610EE010202168C861606C40F094
:104EA0000400606417B1B7F1807F03D1616C2046C4
:104EB000FFF7E0FC002084F842006063606C60B1A2
:104EC000616C2046FFF7D6FC94F84100282837D1C2
:104ED00031462046FFF778FD32E0E06A10F5803F6A
:104EE00011D0204600F036F81948E062202084F8FE
:104EF00041000020206300BF84F8400000BF20462E
:104F0000616E88471CE094F8410022280CD12020D3
:104F100084F841000020206300BF84F8400000BFF7
:104F20002046216E88470BE0202084F841000020B5
:104F3000206300BF84F8400000BF2046E16D884731
:104F4000BDE8F08700E800FE1000024010040240B7
:104F50000000FFFF70B5044620680568002084F853
:104F60004200C5F3803030B12068006820F48040F2
:104F70002168086008E0C5F3C03028B120680068E7
:104F800020F400402168086094F84100292811D1DC
:104F9000282084F841002120206301212046FFF7CA
:104FA00062FB00BF002084F8400000BF2046E16D96
:104FB000884714E094F841002A2810D1282084F86A
:104FC00041002220206302212046FFF74CFB00BF56
:104FD000002084F8400000BF2046216E884770BD45
:104FE0002DE9F84304460D46164600BF94F84000EC
:104FF000012802D10220BDE8F883012084F8400096
:1050000000BFC5F3001088B1C6F3001070B11020C6
:105010002168C861606C40F0040060642021204673
:10502000FFF758FB2046FFF7A9FB82E0C5F3C0104D
:10503000002851D0C6F3801000284DD020680068A9
:1050400020F0400021680860608DA0B320684068AF
:10505000C0F30908608DFF2804D9FF2020854FF098
:10506000807709E0608D2085E06A10F5803F01D0EF
:10507000E76A01E04FF000770020009094F82820C4
:105080003B464146204600F016FC608D218D401ABB
:10509000608594F84100222806D12068006840F419
:1050A00000402168086044E02068006840F48040C7
:1050B000216808603DE0FFE72068406800F000706C
:1050C000B0F1007F03D02046FFF74AFD31E04021D8
:1050D0002046FFF7CFFB2CE0C5F38010F8B1C6F3F4
:1050E0008010E0B1608DA8B92068406800F00070C1
:1050F000B0F1007F1DD0E06A10F5803F06D1206836
:10510000406840F480402168486012E02046FFF784
:1051100027FD0EE040212046FFF7ACFB09E0C5F378
:10512000401030B1C6F3401018B129462046FFF7B1
:1051300083FC00BF002084F8400000BF00BF5AE796
:10514000F8B504460D461646684F00BF94F8400077
:10515000012801D10220F8BD012084F8400000BFE1
:10516000C5F3001088B1C6F3001070B1102021689B
:10517000C861606C40F00400606420212046FFF7A5
:10518000A9FA2046FFF7FAFAA8E0C5F3400048B1B3
:10519000C6F3400030B1206D216888624FF0FF30C7
:1051A00020659BE0C5F3C010002847D0C6F38010EF
:1051B000002843D001212046FFF755FA1021204650
:1051C000FFF788FA608D98B3608DFF280DD9FF2016
:1051D00020850020009094F82820E06C81B24FF0E8
:1051E0008073204600F067FB0CE0608D2085002076
:1051F000009094F82820E06C81B24FF000732046B4
:1052000000F059FB608D218D401A608594F84100B3
:10521000222806D12068006840F400402168086018
:105220005CE02068006840F480402168086055E038
:10523000FFE740212046FFF71DFB4FE0C5F380103C
:10524000D0B3C6F38010B8B301212046FFF70BFAA4
:1052500010212046FFF73EFA94F84100222800D1A1
:10526000234F608DFF280CD9FF202085009794F8EC
:105270002820E06C81B24FF08073204600F01BFBC9
:105280000BE0608D2085009794F82820E06C81B2B7
:105290004FF00073204600F00EFB608D218D401A08
:1052A000608594F84100222807D12068006840F406
:1052B00000402168086011E006E02068006840F4C2
:1052C00080402168086009E0C5F3401030B1C6F3A2
:1052D000401018B129462046FFF7AEFB00BF002062
:1052E00084F8400000BF00BF35E7000000200080C8
:1052F000002400802DE9F84304460F461646DFF8E7
:1053000088813D4600BF94F84000012802D1022068
:10531000BDE8F883012084F8400000BFC5F3001009
:1053200068B1C6F3001050B110202168C861606CEC
:1053300040F0040060642046FFF720FA93E0C5F3D4
:10534000800090B1C6F3800078B125F00405206894
:10535000406A616A0870606A401C6062208D401E6D
:105360002085608D401E60857DE0C5F34000D0B192
:10537000C6F34000B8B1206D401C68B9606A00787F
:1053800021688862606A401C6062208D401E208512
:10539000608D401E608566E0206D216888624FF058
:1053A000FF3020655FE0C5F3C01050B3C6F3801036
:1053B00038B3608D00B3208DF0B9608DFF280DD912
:1053C000FF2020850020009094F82820E06C81B216
:1053D0004FF08073204600F06EFA44E0608D208527
:1053E0000020009094F82820E06C81B24FF0007308
:1053F000204600F060FA36E040212046FFF73AFAF6
:1054000031E0C5F3801000B3C6F38010E8B101218C
:105410002046FFF728F902212046FFF75BF994F8B0
:105420004100222801D1DFF86480608DFF280DD96A
:10543000FF202085CDF8008094F82820E06C81B210
:105440004FF08073204600F036FA0CE0608D208526
:10545000CDF8008094F82820E06C81B24FF0007302
:10546000204600F028FAC5F3401030B1C6F34010D2
:1054700018B129462046FFF7DFFA00BF002084F864
:10548000400000BF00BF43E70020008000240080F0
:105490002DE9F04704460F461546D4F82C804FF00E
:1054A000000900BF94F84000012802D10220BDE8A5
:1054B000F087012084F8400000BFC7F3401038B1E6
:1054C000C5F3401020B139462046FFF77BFB42E18F
:1054D000C7F30010002873D0C5F300100028FAD0DD
:1054E000C5F3803018B9C5F3C030002869D0E06B2F
:1054F00000286ED0C5F3C03000286AD0E06B006889
:105500009849884258D0E06B006896491831884223
:1055100052D0E06B00689349303188424CD0E06B48
:10552000006890494831884246D0E06B00688D4958
:105530006031884240D0E06B00688A497831884207
:105540003AD0E06B006887499031884234D0E06BF4
:1055500000688449A83188422ED0E06B00688249F7
:10556000884229D0E06B00687F491831884223D0F7
:10557000E06B00687C49303188421DD0E06B0068E8
:1055800079494831884217D0E06B0068764960312C
:10559000884211D0E06B00687349783188420BD0A3
:1055A000E06B006870499031884205D0E06B00687C
:1055B0006D49A831884206D1E06B0068406805E07B
:1055C000BFE0BAE005E0E06B0068406808B94FF062
:1055D0000109A06B00286BD0C5F38030002867D08C
:1055E000A06B00685F49884258D0A06B00685D4995
:1055F0001831884252D0A06B00685A493031884235
:105600004CD0A06B006857494831884246D0A06B07
:10561000006854496031884240D0A06B006851490D
:10562000783188423AD0A06B00684E499031884268
:1056300034D0A06B00684B49A83188422ED0A06BB3
:1056400000684949884229D0A06B00684649183152
:10565000884223D0A06B00684349303188421DD076
:10566000A06B006840494831884217D0A06B0068A1
:105670003D496031884211D0A06B00683A497831C9
:1056800088420BD0A06B006837499031884205D022
:10569000A06B00683449A831884203D1A06B006830
:1056A000406802E0A06B0068406808B94FF001094B
:1056B000B9F1010F20D194F84100282807D1B8F1A1
:1056C000007F04D139462046FFF77EF943E094F885
:1056D000410029280CD118F5803F09D010202168FD
:1056E000C8612046FFF74AF82046FFF733FC32E056
:1056F00010202168C8612EE010202168C861606C0C
:1057000040F00400606494F84160B8F1000F02D0EA
:10571000B8F1807F1FD1212E01D0292E02D1212066
:10572000206305E0222E01D02A2E01D12220206301
:10573000616C2046FFF79EF80DE010202168C861DB
:1057400009E0C7F3C00030B1C5F3C00018B1394655
:105750002046FFF727F800BF002084F8400000BF74
:1057600000BFA4E610000240100402402DE9F04101
:10577000044688461646E56A474600BF94F840004E
:10578000012802D10220BDE8F081012084F8400008
:1057900000BFC7F3401038B1C6F3401020B13946FE
:1057A0002046FFF70FFA7FE0C7F30010A8B3C6F357
:1057B000001090B3608D00BB94F84100282807D1F9
:1057C000B5F1007F04D139462046FFF7FDF86BE0C4
:1057D00094F8410029280CD115F5803F09D01020FC
:1057E0002168C8612046FEF7C9FF2046FFF7B2FBDB
:1057F0005AE010202168C86156E010202168C86175
:10580000606C40F00400606415B1B5F1807F4BD14D
:10581000616C2046FFF72EF846E0FFE7C7F38000F3
:10582000D0B1C6F38000B8B1608D60B12068406A25
:10583000616A0870606A401C6062208D401E20858D
:10584000608D401E6085608D30BB15F5803F2BD08C
:105850002046FFF77FFB27E0C7F3C00038B1C6F34F
:10586000C00020B139462046FEF79CFF1CE0C7F37C
:10587000400088B1C6F3400070B1608D68B1606AC5
:10588000007821688862606A401C6062608D401EFA
:105890006085208D401E208506E0B5F1807F00D018
:1058A00015B92046FFF756FB00BF002084F84000E2
:1058B00000BF00BF67E7F0B5059CC1F309064FF4D0
:1058C0007F0707EA02473E431E43264326F0004572
:1058D000066876684FF4806707EA545767F0FC273C
:1058E00047F4C047BE432E4307687E60F0BD10B545
:1058F000044694F8410060280CD1202084F841002F
:105900000020206300BF84F8400000BF2046616F84
:10591000884708E00020206300BF84F8400000BFF3
:105920002046216F884710BD07490164074941643B
:10593000074981640749C164074901650749416511
:105940000749816570470000AD240090A9240090AC
:1059500033260090AF240090AB240090B324009035
:10596000B124009030B5034600200B4C2468142568
:10597000B4FBF5F44FF47A75B4FBF5F404FB05F2CF
:1059800000BF521E02B903201C6824680C408C42E0
:1059900001D0002AF5D130BD000400201FB5FCF76E
:1059A00077FE01208DF80000002001901F208DF867
:1059B000080000208DF80B008DF80F008DF80E0008
:1059C00001208DF80D0000208DF801008DF80A00EF
:1059D00087208DF8090001208DF80C006846FCF73F
:1059E00029FE01208DF800004FF010400190172093
:1059F0008DF8080003208DF80B0001208DF80F00B2
:105A00008DF80E0000208DF80D0001208DF80100AA
:105A10008DF80A0000208DF809008DF80C0068460A
:105A2000FCF708FE01208DF800004FF0C040019007
:105A300019208DF8080003208DF80B0001208DF847
:105A40000F0000208DF80E0001208DF80D000220BF
:105A50008DF8010000208DF80A008DF80900012062
:105A60008DF80C006846FCF7E5FD01208DF800007C
:105A70004FF0605001900F208DF8080003208DF842
:105A80000B0000208DF80F008DF80E0001208DF81E
:105A90000D0003208DF8010001208DF80A00002080
:105AA0008DF8090001208DF80C006846FCF7C2FD56
:105AB0000420FCF703FE1FBD8CB001680B91416808
:105AC0000A9181680991C16808910169079141694A
:105AD000069181690591C16904910849096803919A
