:0200000490006A
:10000000E8190020390300900D620090650300900C
:10001000B1020090A90900909970009000000000C2
:10002000000000000000000000000000DB670090FE
:100030000D0D0090000000000F6200900100000014
:100040005703009057030090570300905703009008
:1000500057030090570300905703009057030090F8
:10006000570300905703009057030090350A009003
:10007000A90A0090B50A009057030090DD0A00908D
:10008000E90A00905703009057030090B50F0090C5
:10009000CD0F0090C10F0090D90F00905703009032
:1000A00057030090C96900905703009057030090D0
:1000B0005703009057030090570300905703009098
:1000C000570300901552009009520090D966009095
:1000D00057030090657000905703009057030090FD
:1000E0005703009057030090000000005703009052
:1000F0005703009057030090570300905703009058
:100100005703009057030090D56900905703009063
:100110005703009057030090570300905703009037
:100120005703009057030090570300905703009027
:10013000570300905703009057030090E50F00907D
:1001400000000000000000000000000000000000AF
:1001500057030090570300905703009057030090F7
:1001600057030090570300905703009057030090E7
:1001700057030090570300905703009000000000C1
:1001800057030090570300905703009057030090C7
:1001900057030090570300905703009057030090B7
:1001A00057030090570300905703009057030090A7
:1001B0005703009057030090570300905703009097
:1001C0005703009057030090570300905703009087
:1001D0005703009057030090570300905703009077
:1001E0005703009057030090570300905703009067
:1001F0005703009057030090570300905703009057
:100200005703009057030090570300905703009046
:100210005703009057030090570300905703009036
:100220005703009057030090570300900000000010
:100230005703009057030090000000005703009000
:100240005703009055090090570300905703009002
:1002500057030090570300905703009057030090F6
:1002600057030090570300905703009057030090E6
:1002700057030090570300905703009000000000C0
:1002800057030090570300905703009000000000B0
:100290000000000057030090DFF810D000F0AEFA25
:1002A00000480047D98C0090AFF30080E819002087
:1002B0001EF0040F0CBFEFF30880EFF3098005F088
:1002C00083BF00000246D2E84F0F411CC2E8431F23
:1002D00003B1F8E77047024652E8000F411C42E8BC
:1002E000001303B1F8E77047024652E8000F42E8F6
:1002F000001303B1F9E77047024652E8000F83018B
:1003000003D3BFF32F8F0020704700F00040084355
:1003100042E8000303B1F0E77047024652E8000FDD
:10032000800103D2BFF32F8F0020704742E80013F3
:1003300003B1F3E70120704707488047074880472B
:1003400007480047FEE7FEE7FEE7FEE7FEE7FEE7B9
:10035000FEE7FEE7FEE7FEE7B10F0090D1680090F0
:10036000990200901EF0040F0CBFEFF30880EFF32A
:10037000098004F0A5BE00002DE9F05F05460020CD
:1003800092469B4688460646814640241BE0284606
:1003900041464746224600F069F853465A46C01A7D
:1003A000914110D311461846224600F050F82D1AFC
:1003B00067EB01084F4622460120002100F047F874
:1003C00017EB00094E41201EA4F10104DFDC484672
:1003D00031462A464346BDE8F09F40EA01039B07A9
:1003E00003D009E008C9121F08C0042AFAD203E0AA
:1003F00011F8013B00F8013B521EF9D27047D2B20E
:1004000001E000F8012B491EFBD270470022F6E7FD
:1004100010B513460A4604461946FFF7F0FF20467A
:1004200010BD30B50B46014600202022012409E012
:1004300021FA02F59D4205D303FA02F5491B04FA9D
:1004400002F52844151EA2F10102F1DC30BD202A7C
:1004500004DB203A00FA02F1002070479140C2F11B
:10046000200320FA03F3194390407047202A04DB4D
:10047000203A21FA02F00021704721FA02F3D0401D
:10048000C2F1200291400843194670472DE9FE4F02
:10049000804681EA0300C00F0C46009021F0004125
:1004A00023F00045B8EB0200A94105D240462146A1
:1004B00090461C460B46024623F00040104347D0AE
:1004C000270DC7F30A00C3F30A510290401A0190A6
:1004D00040286BDAC3F3130040F4801B0098924667
:1004E00020B10023D2EB030A63EB0B0B01985946B2
:1004F000C0F140025046FFF7AAFF06460D4650469F
:100500005946019A00F08CF910EB08006141002473
:1005100087EA115284EAE7731A4340D0009A62B323
:10052000019A012A4FEA075215DC001B61EB020118
:100530004FF0004202EA0752CDE90042001C41F5AB
:10054000801132462B4600F08CF903B0BDE8F08FE5
:1005500040462146F9E7001B61EB0201001C41F512
:10056000801300185B412018A2F5001747EB030128
:1005700040EAD570B6196D4111E06D084FEA3606B4
:1005800045EAC0754FEA0752001B61EB0201001CEF
:1005900041F5801149084FEA3000001951413246B7
:1005A0002B4603B0BDE8F04F00F04CB90098012293
:1005B00040000023D0EB020263EBE0730098214679
:1005C0004FEAE074B8EB000061EB0401E9E783F067
:1005D00000435BE781F0004158E72DE9FE4F81EAD7
:1005E000030404F0004421F0004100944FF0000B9C
:1005F00023F0004350EA01045ED052EA03045BD0CA
:10060000C3F30A54C1F30A552C44A4F2F334019401
:10061000A0FB0254C1F3130141F48011C3F313038F
:1006200043F4801301FB024400FB034E840A970A43
:1006300044EA815447EA8357A4FB076802958D0A70
:1006400005FB07854FEA932C04FB0C542705029DFC
:100650004FEA065847EA1637B5EB08056EEB070C6C
:10066000870E920E47EA811742EA8312A7FB020126
:10067000B6EB0B0164EB00042B0D43EA0C335E1860
:1006800044EB1C50DA465146E7FB0201C5F3130464
:100690004FEA0B3343EA14534FEA0432019C43EA16
:1006A0000603A4F10C040294009CCDE900B400F010
:1006B000D8F803B0BDE8F08F00200146F9E72DE936
:1006C000F04D81EA030404F0004B21F0004514468C
:1006D0004FF0000A23F0004150EA050220D054EA0E
:1006E00001021DD0C5F30A570246C5F31303C1F337
:1006F0001300C1F30A5640F4801543F48013A7EBAE
:100700000608101BD64608F2FD3873EB050002D32D
:1007100008F1010801E092185B41B8F1000F03DA1B
:1007200000200146BDE8F08D00204FF48011064600
:1007300084460EE0171B73EB050705D3121B63EB12
:10074000050306434CEA010C49084FEA30009218B1
:100750005B4150EA0107EDD152EA030012D082EA70
:10076000040083EA0501084305D0101BAB4106D203
:100770000122002306E000224FF0004302E06FF068
:10078000010253101AEB06004CEB085110EB0A0063
:1007900041EB0B01BDE8F04D00F054B8C1F30A5233
:1007A000C1F3130140F2FF3341F480119A4202DA9F
:1007B00000200146704740F233439A42A2F233428E
:1007C00002DC5242FFF752BEFFF741BE30B5041EB5
:1007D00071F1000404DB4FF00044404264EB01017E
:1007E000141E73F1000405DB1C464FF00043524217
:1007F00063EB0403994208BF904230BD064C074D9D
:1008000006E0E06840F0010394E8070098471034E0
:10081000AC42F6D3FFF744FD2C9600909C960090D6
:10082000202A06DBCB17203A41FA02F043EAE073B4
:1008300006E041FA02F3D040C2F1200291400843A1
:100840001946704710B5141E73F1000408DA401CF5
:1008500041F1000192185B411A4301D120F00100DF
:1008600010BD2DE9F04D92469B4611B1B1FA81F2CF
:1008700002E0B0FA80F220329046FFF7E8FD04462D
:100880000F4640EA0A0041EA0B0153465A46084324
:1008900013D0114653EA010019D0C8F14002504666
:1008A000FFF7E4FD05460E46504659464246FFF71F
:1008B000CEFD084305D0012004E020463946BDE8BE
:1008C000F08D0020054346EAE0762C4337430A9832
:1008D0006305E40AA0EB08000022FD0A44EA47543D
:1008E0000A3002D500200146E9E7010510196941E7
:1008F000DDE9084500196941BDE8F04DA2E770B592
:100900008C1810F8015B15F0070301D110F8013BBA
:100910002A1106D110F8012B03E010F8016B01F841
:10092000016B5B1EF9D12B0705D40023521E0DD499
:1009300001F8013BFAE710F8013BCB1A921C03E0E7
:1009400013F8015B01F8015B521EF9D5A142D8D31F
:10095000002070BD124B022130B5124A4FF4003412
:100960001D68181DAD0707D5C2E90441C2E9061488
:10097000056845F0020505601D686D0707D5116023
:100980005160C2E90214016841F004010160196874
:10099000090703D5016841F00801016030BD00007E
:1009A0000054025800000038FEE700001F4B0020F2
:1009B000F0B51968890311D4BFF34F8FBFF36F8F60
:1009C0001B490860BFF34F8FBFF36F8F196841F465
:1009D00000311960BFF34F8FBFF36F8F1968C903E0
:1009E00023D4124970310860BFF34F8F081F43F6BC
:1009F000FF7400680E4D1035C0F34E31C0F3C902CC
:100A000004EA4116104600BF46EA80772F60401E78
:100A1000FAD2491EF4D2BFF34F8F186840F48030E9
:100A20001860BFF34F8FBFF36F8FF0BD14ED00E080
:100A300050EF00E070B51A4C1A4D2068800615D5AD
:100A4000A06840F02000A060A06840F01000A06006
:100A5000287858B1002105F1E00007F029FC0020BA
:100A6000287028786870281D04F018FA2068C006DD
:100A70000ED5A06840F01000A06068782978884200
:100A800006D008480021C03007F012FC28786870B2
:100A90002068000703D5A06840F00800A06070BD82
:100AA00000000240C4150030014800F089BD00007C
:100AB000301500300748016889020AD58268012193
:100AC00042F400128260026C22F0010202640248C9
:100AD000017070470000024040170030014800F0EC
:100AE0006FBD000040040030014800F069BD000007
:100AF000B8040030294A016891423AD0274A183296
:100B0000914236D0254A3032914232D0234A48327F
:100B100091422ED0214A603291422AD01F4A783227
:100B2000914226D01D4A9032914222D01B4AA832CF
:100B300091421ED01A4A91421BD0194A1832914252
:100B400017D0174A3032914213D0154A4832914299
:100B50000FD0134A603291420BD0114A7832914241
:100B600007D00F4A9032914203D00D4AA8329142E9
:100B700011D1CAB21823103AB2FBF3F26FF3090194
:100B8000032A02F00703074AD25CC26500D9091D97
:100B900081650846704721F0FF01F9E71000024027
:100BA00010040240DC94009030B5224A0123016811
:100BB0009142CAB21BD01F4C1434A14217D01D4C15
:100BC0002834A14213D01B4C3C34A1420FD0194C05
:100BD0005034A1420BD0174C6434A14207D0154CBD
:100BE0007834A14203D0134C8C34A1420CD114218F
:100BF000114C083AB2FBF1F10F4A803201F01F05A7
:100C000004EB8101AB4010E00C4D1824103A0D4468
:100C1000B2FBF4F1A82D00D80831094A01F01F04F5
:100C200002EB8101064AA3408032603080E80E006A
:100C300030BD00000854025800580258F0FBFDBFB8
:100C40000008024010B50279531E072B2DD8174C0F
:100C50000168A1421BD0154C1434A14217D0134C8B
:100C60002834A14213D0114C3C34A1420FD00F4C78
:100C70005034A1420BD00D4C6434A14207D00B4C30
:100C80007834A14203D0094C8C34A14203D10849E5
:100C9000074C443102E00749064C443104EB820220
:100CA000C0E91B2101219940416710BD0854025839
:100CB000FC580258FC08024010B583694FF0C0741C
:100CC000826A0146002053B1B3F5005F15D072B1BE
:100CD000012A0CD0022A0AD0032A09D104E01AB151
:100CE000012A06D0022A03D1C96AC90100D5012010
:100CF00010BDC96AA142FAD010BD002AF7D0012A5E
:100D0000F2D0022AF3D0032AF3D010BD70470000BE
:100D10002DE9F0410A4D05F11806AF6900F032F9EE
:100D2000044601463046FFF7DFFAB842F5D1844267
:100D300003D203481030FFF7CEFA2046BDE8F08119
:100D4000C00900202DE9FF5F93468A464FF080528C
:100D5000994602EADA08510001EA9B074800072594
:100D600000EA59061F48FFF7B6FA830900F03F0270
:100D70001D484FF4700100EB0214009801EA035182
:100D8000084340EA08003843304340F0406104F132
:100D90000C00FFF7B1FA41011CD580F0044101F0CD
:100DA000004029F0004202432AF000452BF00043A6
:100DB000054325600343C4E9013204F10C00FFF749
:100DC000ACFA48B10748001DFFF785FA012004B0CE
:100DD000BDE8F09F6D1EC5D102480830FFF77BFAD1
:100DE0000020F4E7C4090020400500202DE9F04769
:100DF000FF29814601D2FF2A02D30020BDE8F087F7
:100E0000104D002420464FF0010A56460AFA00F31E
:100E100013EA090F0FD00B46B2460AE004EBD306E3
:100E200003F00708AF5D0AFA08FC47EA0C075B1CF1
:100E3000AF559342F2D9401C20340428E5D3012059
:100E4000DCE70000400900202DE9F0473C4C00257C
:100E5000884681468021A4F180002570FFF7D6FAEC
:100E6000384B4FF6FF70182241F221074FEA000677
:100E7000082113F801CB80EA0C2000BF5FEA004C88
:100E800006EA400000D57840491EF7D1521EEFD146
:100E90002D4A0121236A934201D0226202E0628836
:100EA000824202D06080E16137E0E069401CE0618D
:100EB000012832D0254B002003EB0011CA685601EF
:100EC00002D522F04062CA60401C4028F4D3E06999
:100ED00001282BD000F05CF80646DEB1FE22484621
:100EE0000021FFF783FFEF220F201146FFF77EFF5F
:100EF000FE2204201146FFF779FFFFF709FFE269A0
:100F0000002301461248FFF71DFFB8F1000F01D082
:100F100000F022F83046BDE8F08765704FF480613C
:100F20006560A5600948E560FFF770FA00F030F8E9
:100F3000061E00D00748C4E905052561CDE700007D
:100F4000C0090020149600906B27A5E14005002001
:100F500000FF00030084D717084810B5017809B1D5
:100F6000012010BD01210170FFF7D2FE00230146D0
:100F700003481A46FFF7E6FEF2E70000C00900202A
:100F800001FF00030148406870470000001000E0C6
:100F900005490A68054842F080720A60016841F01C
:100FA0000101016001207047FCED00E0001000E04D
:100FB00070470000014801F03BBA0000681F003094
:100FC000014801F035BA0000681F0030014801F007
:100FD0002FBA000054200030014801F029BA000067
:100FE00054200030044810B501F022FA0248BDE850
:100FF0001040EC3001F01CBA681F0030F0B50368F7
:101000004FF6FC716D4C426BD3F884508D4345EA2A
:101010008205C3F88450036853F8845F068F25F473
:101020007F0545EA06451D60836B654D9F18026884
:10103000D2F888308B4343EA8703C2F888300268CD
:1010400052F8883F868F23F4FE0343EA0643136079
:10105000066856F8A03FC26B8B4307EB420243EA97
:1010600082033360076857F8A03FB0F8406023F46C
:10107000FE0343EA06433B60D0E9103603FB062239
:101080000368D3F8B0608E4346EA8206C3F8B060C6
:101090000368B0F84860D3F8B07027F4FE0747EA59
:1010A0000646C3F8B060D0E91267036806FB072262
:1010B000D3F8AC608E4346EA8206C3F8AC60D0E950
:1010C0001467036806FB0722D3F8F0608E4346EAF4
:1010D0008206C3F8F0600368B0F85860D3F8F07087
:1010E00027F47C1747EA0646C3F8F0600368876D6B
:1010F00053F8C06F02EB47028E4346EA8201196043
:101100000168B0F85C20D1F8C03023F47C1343EAC6
:101110000242C1F8C020016890F86020D1F8C030C8
:1011200023F07C5343EA0262C1F8C020416B04EB18
:101130008101C166826B01EB82020267C36B02EB25
:10114000C3024267D0E91034634302EB8302826733
:10115000D0E91234634302EB8302C267D0E914344E
:10116000634302EB8302C0F88020836D02EBC3036C
:10117000C0F88430C46D826E544303EB8403C0F81E
:101180008830046E544303EB8402C0F89020AA42D6
:101190000AD9D0F89C20032142F02002C0F89C20FC
:1011A00080F898100120F0BD002200E004C1D0F8C2
:1011B00090308B42FAD80020F0BD000000AC004017
:1011C000FCD30040F0B58E680C69D1E9005744EAC1
:1011D0000604DFB145F080452C43866ED1E906C593
:1011E0004F695E4391F8203045EA0C05B1F80CC018
:1011F000D0F884E0002047EA0363104F1D430EEB54
:10120000860345EA0C45E3E8024511E044EA8544DB
:10121000E3E71418155CA67894F803C094F801E08D
:10122000360445EA0C6446EA0E252C43001D10C323
:10123000CC683C5D8442ECD8F0BD0000E4940090A2
:10124000F0B50A6850F8223023F0010340F822304C
:101250008C68082C2CD000264A68D1E903CE2243A2
:101260004CEA060C01F1140342EA0C0242EA0E02B7
:1012700093E8F8501A4322430C682A43D1E90C350D
:10128000324350F824603A4342EA0C02DFF840C08F
:1012900042EA0E028F6B13431D432F4326EA0C06CE
:1012A0003E4340F824600A6BB2F5801F02D007E08D
:1012B0004026D1E70A684AB1026842F4801202600F
:1012C0000A681AB10268496B0A4302600020F0BD47
:1012D0007FFB3F00F0B5D1E901630C6800EB8202AF
:1012E000B1F80CE044EA06140E7D4FEA032C104BD3
:1012F0000D8A4CEA0E4C44EA0C045F0107EB0666CB
:1013000003EB05578D693C4334432C43546002681A
:10131000D2020BD5098A4268446803EB015122F4DA
:101320007002114324F470030B4343600020F0BDAE
:101330000000F0FF2DE9F05F28B190F83510022988
:1013400004D0802141650120BDE8F09F904C904B76
:101350000168183C18338E4ADFF83C92A1428D4C4C
:10136000DFF838E28E4FDFF83CB2DFF83CA28F4D59
:101370008F4E31D091422FD099422DD0A1422BD007
:10138000494529D0714527D0B94225D0DFF810C290
:101390000CF1180C61451FD0DFF808C2ACF1600CED
:1013A000614519D0DFF8FCC1ACF1480C614513D0A0
:1013B000DFF8F0C1ACF1300C61450DD0DFF8E4C1CD
:1013C000ACF1180C614507D0594505D0514503D003
:1013D000A94201D0B1422CD1DFF8B4C14FF00408CA
:1013E00080F83580ACF1180C61451DD091421BD0BE
:1013F000994219D0A14217D0494515D0714513D053
:10140000B94211D06648183081420DD06548603825
:10141000814209D063484838814205D0614830385C
:10142000814201D05F481838086820F00100086048
:10143000ABE0D1F800C02CF00E08DFF854C1C1F8C1
:101440000080ACF1180C0168614527D0914225D08D
:10145000994223D0A14221D049451FD071451DD0CA
:10146000B9421BD0DFF838C10CF1180C614515D01A
:10147000DFF830C1ACF1600C61450FD0DFF824C15A
:10148000ACF1480C614509D0DFF818C1ACF1300C63
:10149000614503D0DFF80CC1ACF1180CD1F800C0E5
:1014A0002CF0010CC1F800C0DFF8E4804FF0010C13
:1014B0000168A8F11808414546D0914244D09942AC
:1014C00042D0A14240D049453ED071453CD0B942BE
:1014D0003AD0334A1832914236D0324A603A914279
:1014E00032D0304A483A91422ED02E4A303A914278
:1014F0002AD02C4A183A914226D0594524D0514539
:1015000022D0A94220D0B1421ED02A4A91421BD0FB
:10151000284A1432914217D0264A2832914213D0D9
:10152000244A3C3291420FD0224A503291420BD091
:10153000204A6432914207D01E4A7832914203D049
:101540001C4A8C32914218D1016E0A6822F48072D2
:101550000A6090F85C20816D02F01F020CFA02F222
:101560004A60D0E919124A60C16E31B10A6822F4AA
:1015700080720A60D0E91C124A600022016D80F876
:1015800035C080F8342001B188470020DCE6000037
:1015900028000240580002407000024088000240CB
:1015A000A00002407004024088040240A0040240EF
:1015B000B80402400854025890F835007047000003
:1015C0002DE9FC5F0446F74E0020DFF8D883009039
:1015D0004FF41652F44808F11808A56DDFF8C493CB
:1015E000DFF8C0A3016809F1300920680AF1480A50
:1015F000B1FBF2F1B04201912F68D5F800C0DFF8DD
:10160000ACB335D04146884232D0484530D0504501
:101610002ED058452CD0E5491831884228D0E349CE
:101620003031884224D0E1494831884220D0E04915
:1016300088421DD0DE491831884219D0DC4930314A
:10164000884215D0DA494831884211D0DFF860E38A
:101650000EF1600E70450BD0D54A7832904207D01B
:10166000D34B9033984203D0D149A83188427DD1E1
:1016700094F85C20082102F01F0201FA02F23A42BB
:101680004AD0B04232D0404530D048452ED05045A7
:101690002CD058452AD0C54A1832904226D0C34A89
:1016A0003032904222D0C14A483290421ED0C04AC5
:1016B00090421BD0BE4A1832904217D0BC4A3032FA
:1016C000904213D0BA4A483290420FD0B84A6032A2
:1016D00090420BD0B64A7832904207D0B44A90324A
:1016E000904203D0B24AA832904203D1026802F07D
:1016F000040202E0026802F008026AB1026822F005
:101700000402026094F85C0000F01F008140A960B0
:10171000606D40F00100606594F85C00012100F00C
:101720001F008140394240D02068B04234D040454B
:1017300032D0484530D050452ED058452CD09B4A09
:101740001832904228D0994A3032904224D0974A99
:101750004832904220D0964A90421DD0944A183286
:10176000904219D0924A3032904200E0AFE113D05B
:101770008F4A483290420FD08D4A603290420BD04F
:101780008B4A7832904207D0894A9032904203D0F7
:10179000874AA83290427DD1406910F0800F04D072
:1017A000A960606D40F00200606594F85C0004215F
:1017B00000F01F00814039423ED02068B04232D054
:1017C000404530D048452ED050452CD058452AD0E1
:1017D000764A1832904226D0744A3032904222D053
:1017E000724A483290421ED0714A90421BD0704AD1
:1017F0001832904217D06E4A3032904213D06C4A61
:10180000483290420FD06A4A603290420BD0684A08
:101810007832904207D0664A9032904203D0644AB0
:10182000A83290424ED1006810F0020F04D0A96097
:10183000606D40F00400606594F85C00102100F0D9
:101840001F008140394258D02068B04234D0404512
:1018500032D0484530D050452ED058452CD0534A30
:101860001832904228D0514A3032904224D04F4A08
:101870004832904220D04E4A90421DD04C4A1832F5
:10188000904219D04A4A3032904215D0484A4832E4
:10189000904200E014E00FD0454A603290420BD0F5
:1018A000434A7832904207D0414A9032904203D066
:1018B0003F4AA832904207D1006800F0080006E0D5
:1018C000006872E70068B7E7006800F00400A0B1A4
:1018D000A96020680168490304D50068000308D5A1
:1018E000A16C07E00168C90503D4016821F0080173
:1018F0000160216C09B12046884794F85C002021E2
:1019000000F01F008140394279D02068B04232D0C7
:10191000404530D048452ED050452CD058452AD08F
:10192000224A1832904226D0204A3032904222D0A9
:101930001E4A483290421ED01D4A90421BD01C4A7B
:101940001832904217D01A4A3032904213D0184AB7
:10195000483290420FD0164A603290420BD0144A5F
:101960007832904207D0124A9032904203D0104A07
:10197000A832904203D1006800F0100002E0006835
:1019800000F00200B0B3A96094F835000428206884
:1019900001680FD049037ED5006800032BD4616C29
:1019A0002AE0000010000240000400207000024005
:1019B0001004024021F0160101602068416921F005
:1019C00080014161206C08B9A06C20B120680168D9
:1019D00021F00801016094F85C303F21012003F000
:1019E0001F0300229940A96084F8350084F8342050
:1019F000216D65E003E0E16B09B120468847606D29
:101A000000287DD0606DC00759D02068042184F87B
:101A10003510B0422BD0404529D0484527D05045FD
:101A200025D0584523D09D49884220D09B49183164
:101A300088421CD099493031884218D09849884250
:101A400015D097491831884211D0954930318842D4
:101A50000DD093494831884209D09149603188427C
:101A600005D08F497831884201D08D499031016885
:101A700021F00101016020680099019A491C009140
:101A8000914202D80168C907F6D10068C00710D09A
:101A900003200FE0FFE70168C905ACD4036801210A
:101AA000002223F01003036084F8351084F83420FA
:101AB000A1E7012084F83500002084F83400E16CAF
:101AC00000291DD002B02046BDE8F05F08477549E7
:101AD00088421DD073491431884219D07149283188
:101AE000884215D06F493C31884211D06D49503140
:101AF00088420DD06B496431884209D0694900E0C1
:101B000084E07831884203D066498C3188427DD1A7
:101B100094F85C800427016808F01F0807FA08F7AA
:101B200017EA0C0F009746D04F0744D500980F04D2
:101B3000686003D5C8033CD4A16CC1E7880638D4DB
:101B40002068B0422DD055496039884229D0484597
:101B500027D0504525D0584523D05049884220D021
:101B60004E49183188421CD04C493031884218D037
:101B70004B49884215D04A491831884211D048490A
:101B8000303188420DD046494831884209D07045ED
:101B900007D0904205D0984203D04149A8318842ED
:101BA00003D1016821F0080102E0016821F004017D
:101BB0000160216C84E7022707FA08F717EA0C0F87
:101BC00000974ED08F074CD500980F04686003D55E
:101BD000C80344D4616C73E7880640D42068B042DF
:101BE0002FD02E49603988422BD0484529D0504506
:101BF00027D0584525D02949884222D02749183175
:101C000088421ED025493031884200E044E018D097
:101C10002349884215D022491831884211D02049E1
:101C2000303188420DD01E494831884209D0704574
:101C300007D0904205D0984203D01949A831884274
:101C400003D1016821F0140102E0016821F00A01CA
:101C50000160012184F83510002084F83400E16B24
:101C60002EE7082202FA08F212EA0C0F14D0090734
:101C700012D5016821F00E01016094F85C1001207A
:101C8000002201F01F0100FA01F16960606584F82B
:101C9000350084F8342012E7BDE8FC9F880002403C
:101CA00010040240085402582DE9F05F044601F088
:101CB000ADF8002C07467DD0E34E022120684FF09E
:101CC0000308DFF888934FF00005DFF884A3B042E3
:101CD000DFF880B334D0DC4A1832904230D0484527
:101CE0002ED050452CD058452AD0DA4A183290428E
:101CF00026D0D84A3032904222D0D64A483290423A
:101D00001ED0D54A90421BD0D34A1832904217D0E9
:101D1000D14A3032904213D0CF4A483290420FD04D
:101D2000CD4A603290420BD0CB4A7832904207D0F5
:101D3000C94A9032904203D0C74AA83290427DD11E
:101D400084F83510B04284F834502ED0BE49183192
:101D500088422AD0484528D0504526D0584524D01E
:101D6000BC491831884220D0BA49303188421CD051
:101D7000B8494831884218D0B749884215D0B64989
:101D80001831884211D0B449303188420DD0B2495F
:101D90004831884209D0B0496031884205D0AE4907
:101DA0007831884201D0AC499031016821F00101BD
:101DB000016008E027E100BF01F028F8C01B0528FA
:101DC00001D920211CE120680068C007F4D104F18A
:101DD00008002168D4E9053C8E4685C8096810438F
:101DE000D4E907281F43636A38439C4F40EA0C003C
:101DF0001043394040EA0800042B40EA010003D1B7
:101E0000D4E90B1211430843954909686FF30F0198
:101E1000B1F1005F0FD36168A1F12902052A08D949
:101E2000163A032A05D9083A012A02D94F3903295B
:101E300001D840F48010CEF8000000E023E02068D4
:101E4000676A4069042F20F0070047EA00070DD1B8
:101E5000D4E90A01074349B12046FEF72DFF28B116
:101E600040206065012184F83510CCE0206847618E
:101E70002046FEF73FFE94F85C203F2102F01F024F
:101E80009140816054E0774A90421BD0754B1433E7
:101E9000984217D0734B2833984213D0714B3C3380
:101EA00098420FD06F4B503398420BD06D4B643338
:101EB000984207D06B4B7833984203D0694B8C33F0
:101EC00098427DD184F8351084F83450664B01680F
:101ED000A26801EA030E402A73D0802A72D0002241
:101EE000D4E90378D4E9053142EAD70242EAD808B6
:101EF0005C4AD4E9077C48EAD30848EAD10141EAC0
:101F0000D701524241EA1C11142341EA0E0101603B
:101F100020681044B0FBF3F08000E0652046FEF737
:101F2000E9FD94F85C20012102F01F02914041601C
:101F30002068B04257D044491831884253D04845B0
:101F400051D050454FD058454DD042491831884264
:101F500049D040493031884245D03E4948318842D5
:101F600041D03D4988423ED03B49183188423AD061
:101F700039493031884236D037494831884232D0E9
:101F80003549603188422ED03349783188422AD091
:101F900031499031884226D02F49A831884222D039
:101FA000304988421FD02F49143188421BD02D4917
:101FB0002831884217D02B493C31884213D002E0A7
:101FC0001DE017E018E02749503188420BD0254921
:101FD0006431884207D023497831884203D02149AF
:101FE0008C31884229D12046FEF7DEFDA06880288A
:101FF0000CD00CE0102273E74FF4804270E74021D0
:10200000616584F835800120BDE8F09F6560216E30
:1020100020790860D4E9190141606068401E0728F2
:1020200008D82046FEF70EFEE06E0560D4E91C01DC
:10203000416002E0E566256765670120656584F813
:1020400035000020E0E700001000024040000240A0
:102050005800024070000240100402403F8010FE11
:102060000010005C085402580F00FEFF70B50446D3
:1020700000F0CCFE0546601C02D004480078044401
:1020800000F0C4FE401BA042FAD370BD080400203B
:102090000248016841F001010160704720040058C6
:1020A00010B590F89830012B09D0022B07D0D0F84A
:1020B0009C1041F00201C0F89C10012010BD036883
:1020C0009C6D0C4203D1DC6D44F0010404E09C6D76
:1020D00031EA04041FD00324DC658B0505D50368B1
:1020E000D3F8E0401443C3F8E0404B0505D503683E
:1020F000D3F8E4401443C3F8E4400068084A01EA16
:102100000203446D074A1C434465106840EA91701D
:102110001060002010BDDC6D44F00204DCE700001C
:10212000FFFFCF3F14A8004070B5044690F8980018
:10213000022804D0D4F89C0040F008000DE020688C
:10214000D0F8C03013F07C5F0BD0D0F8C4309B02C5
:102150000CD5D4F89C0040F40070C4F89C00012019
:1021600070BDD4F89C0040F02000F6E7D0F8C40021
:10217000C0F3044520462B46FFF724F821680120D0
:10218000A840C1F8D000C4F89400002070BD70478A
:1021900090F89830012B07D0D0F89C1041F0040142
:1021A000C0F89C100120704761B10068012913D06C
:1021B000D0F8B01021F0FE4141EA0261C0F8B01041
:1021C000002070470068D0F8F01021F07C5141EAFF
:1021D0000261C0F8F010F3E7D0F8A01021F0FE4142
:1021E00041EA0261C0F8A010EAE770B590F89820C3
:1021F000012A09D0022A07D0D0F89C1041F0020130
:10220000C0F89C10012070BD0B68CA6883B10B69CF
:10221000072A43EA427325D00C7A4A6942EA84725B
:102220004968006F00EBC100C0E90032002070BDBA
:10223000072A0DD00C7AD6060D8A4B6943EA8472C0
:1022400046EA0543C06E49681A4340F82120EDE78D
:102250000B8A4FF06055D1E9062442EA034245EA71
:102260000423EFE78A69DBE730B590F89850039CC8
:10227000012D07D0D0F89C1041F00401C0F89C104B
:10228000012030BD0D01016845EA820040EA4300AB
:102290002043C1F88000002030BD70477047000027
:1022A000F0B590F898500024022D04D0D0F89C107E
:1022B00041F0080129E0402905D0412929D0056DC8
:1022C0008D4219D942E00568D5F8A06016F4FE0FDA
:1022D00012D0D5F8A460760613D0D5F8A460F60124
:1022E00005D5D5F8A06016F0004F00D50124D5F82B
:1022F000A470466F456C24E0D0F89C1041F020019A
:1023000003E0D0F89C1041F48071C0F89C100120CB
:10231000F0BD0568D5F8B06016F4FE0FECD0D5F826
:10232000B4607606EDD0D5F8B460F60105D5D5F8E1
:10233000B06016F0004F00D50124D5F8B470866F58
:10234000C56CC7F305273C44654302E0456DC66F85
:102350004D4306EB85052E6816F0804656602E68C4
:1023600036D026F060461660D5F800C000262E4F05
:102370000CF0005CC2F808C0D5F800C00CF0004CAE
:10238000C2F810C0B5F804C01FFA8CFCC2F81CC01B
:10239000D5F804C0CCF3034CC2F80CC0D5F804C087
:1023A0000CF4801CC2F814C0D5F804C00CF4001C56
:1023B000C2F818C0D5F804C0CCF3066CC2F820C02F
:1023C000D5F804C008354FEADC7CC2F824C008E028
:1023D000C6F38A46C7E700BF15F806C003F806C073
:1023E000761CD2F80CC017F80CC0B445F4D84029BC
:1023F0000AD041290CD020294FF001020CD20068EC
:102400008A40C0F898200DE00068C0F8A84009E0B4
:102410000068C0F8B84005E0006801F01F018A407C
:10242000C0F89C200020F0BDE494009070470000AC
:102430002DE9FF5FDFF834B304460BF10401DBF84C
:10244000000025680F68AA468007D5F85090696D8E
:10245000D5F850806E6D2A6DD5F854C02B6D00EA0A
:102460008770009009F470496F6D286D01EA0901C9
:102470000191DAF85410DAF85490DAF8505008F074
:102480000F0806EA0806029602F0F00203F0715304
:102490006FEA09061F4000F060700CEA020CCDF8EC
:1024A0000CC0F20501EA00090DD4E843C0050AD4C6
:1024B00000214FF48073CAF85030CBF8001020464A
:1024C000D4F8C0108847700513D4E843400510D4F1
:1024D000206800234FF48068D0F8DC20D0F8E410A6
:1024E000C0F85080CBF800301140D4F8B820204616
:1024F0009047DFF87CA2009858B12268830F00EA69
:102500000A001065CBF800302046D4F8A0200099CE
:102510009047019858B12268830F00EA0A001065BD
:10252000CBF800302046D4F8A420019990470298B7
:1025300058B12268830F00EA0A001065CBF800301A
:102540002046D4F8A82002999047039858B12268F1
:10255000830F00EA0A001065CBF800302046D4F85B
:10256000AC200399904730050DD4E84300050AD408
:10257000236800204FF400621A65CBF80000204663
:10258000D4F8B0108847B00513D4E843800510D4C0
:10259000206800234FF40078D0F8D820D0F8E0105D
:1025A000C0F85080CBF800301140D4F8B420204659
:1025B000904730030DD4E84300030AD42368002079
:1025C0004FF400221A65CBF800002046D4F8BC1066
:1025D0008847F0030DD4E843C0030AD423680020E1
:1025E0004FF480321A65CBF800002046D4F8C410AE
:1025F000884770030DD4E84340030AD423680020C1
:102600004FF480221A65CBF800002046D4F8C81099
:102610008847B0030FD4E84380030CD4236800201C
:102620004FF400321A65CBF80000D4F89C0040F05B
:102630008000C4F89C00B9F1000F0CD022684FEA6A
:10264000997309EA0A001065CBF800304946D4F8BE
:10265000D020204690475FB12268BB0F07EA0A00EE
:102660001065CBF80030D4F89C003843C4F89C00C7
:102670004049206888426CD1606881468068800744
:1026800067D0D9F82060D9F82410D9F82080D9F87B
:102690002420D9F820C0D9F82470D9F82030D9F8EE
:1026A0002450D9F8200003F4FC4306F00F0AD9F8AF
:1026B00024601D4011EA0A01D9F824A008F030086E
:1026C0000CF4C07C00F4F02002EA080807EA0C07CA
:1026D00006EA0006D9F820B005D0C9F82010204637
:1026E000D4F8D4209047B8F1000006D061680862A1
:1026F0004146D4F8D820204690476FEA0A004006A9
:102700000FD46FEA0B0040060BD460684021C36B06
:10271000C26B01622046190CD4F8DC3002F03F0293
:10272000984737B1606807623946D4F8E020204600
:10273000904735B160680562D4F89C002843C4F81E
:102740009C0036B160680662D4F89C003043C4F83F
:102750009C00D4F89C00002806D0D4F8CC1004B01B
:102760002046BDE8F05F0847BDE8FF9F10A8004085
:10277000FFFFCF3F00A000402DE9F04194B0A549F4
:102780004C2204466846FDF728FE64B1A24D20683D
:10279000A84202D100F58070606094F898004FF074
:1027A000000820B137E0012014B0BDE8F0819B4A59
:1027B000D4F8E410C4F8A020994884F89980C4F8AB
:1027C000A4009C3497480029E0609748206197480E
:1027D00060619748A0619748E061974820629748F8
:1027E00060629748A0629748E062974820639748E4
:1027F00060639748A0639748E063974820649748D0
:102800006064A4F19C0402D19548C4F8E400204619
:10281000D4F8E41088472068816921F010018161B3
:1028200000F0F4FA0327064605E000BF00F0EEFAD8
:10283000801B0A2811D8206880690007F6D4206818
:10284000816941F00101816100F0E0FA06460DE086
:1028500000F0DCFA801B0A2808D9D4F89C0040F06C
:102860000100C4F89C0084F898709CE72068806997
:10287000C007EDD02068816941F002018161207CB0
:1028800001282068816937D041F040018161607C76
:1028900001282068816932D021F480418161A07CC7
:1028A0000128206881692DD041F480518161206820
:1028B000A268816921F440711143816120688169B6
:1028C00021F0A40181612068016921F010010161FA
:1028D000E068012819D010B302281BD02068816954
:1028E00041F0800181612068016941F010010161BE
:1028F000E06803280ED012E021F04001C6E741F461
:102900008041CBE721F48051D0E72068816941F014
:10291000040103E02068816941F020018161207E8B
:102920006FF0FF02D4E90773A68A1102400602EB9A
:102930000727A0F10070384327685B1E184301EB9E
:1029400006463043F861A068B0F5407F11D104F12C
:102950002800A68C6FF00F0C89C801EB0641401EC1
:1029600002EB0322104322680CEB071318430843C1
:10297000D060206E30B12068626ED0F8C010114374
:10298000C0F8C010D4E917126846D14209D02168B6
:10299000A36E51F8C82F50F8233022F007021A43D3
:1029A0000A60216C49B12168636C51F8BC2F50F862
:1029B000233022F007021A430A60A16C51B121684A
:1029C000E36C51F8BC2F50F8233022F0700242EA39
:1029D00003120A60216D51B12168636D51F8BC2F5B
:1029E00050F8230022F4E06242EA002008602068E8
:1029F000A84204D16068816821F003018160C4F8B5
:102A000094800121C4F89C8084F898102046FEF739
:102A1000F5FAC9E6F494009000A000408F210090E0
:102A2000BB2B0090692A0090F12A0090BD2B0090EA
:102A3000B92B0090B72B0090672A00902D240090AE
:102A4000B52B0090B32B00909B2200909D2200900C
:102A5000AD2B0090B12B0090AF2B0090AB2B0090D2
:102A6000652A009070477047890710B536D572B651
:102A700000681B49884212D11A4C2078227800EB5A
:102A8000800101EBC00102EB820303EBC20004EB07
:102A9000C10304EBC0024021A4F51A7014E01249EE
:102AA00088421AD1114C2078217800EB800201EB8A
:102AB000810302EBC00203EBC10004EBC20304EB91
:102AC000C0024021A4F55650121D2C33FFF7E8FB3D
:102AD0002078401C00F07F00207062B610BD00001E
:102AE00000A00040D021003000A40040D4550030A8
:102AF000890610B536D572B600681B49884212D1D6
:102B00001A4C2078227800EB800101EBC00102EB27
:102B1000820303EBC20004EBC10304EBC0024121BA
:102B2000A4F51A7014E0124988421AD1114C207889
:102B3000217800EB800201EB810302EBC00203EB82
:102B4000C10004EBC20304EBC0024121A4F55650BE
:102B5000121D2C33FFF7A4FB2078401C00F07F00EF
:102B6000207062B610BD000000A00040D0210030EF
:102B700000A40040D455003090F89810012907D0E7
:102B8000D0F89C1041F00401C0F89C10012070475F
:102B9000022180F89810002201688B6923F001035C
:102BA0008B61C0F89C201046704770477047704793
:102BB0007047704770477047704770477047000014
:102BC0002DE9F84F03247D4D00234FF001094FF00C
:102BD000B04B4FF00F0AE9E009FA03F73A4076D01C
:102BE0000E7906F00306012E01D0022E18D1D0F87E
:102BF00008C04FEA430ECE6804FA0EF82CEA080C1F
:102C000006FA0EF646EA0C068660D0F804C00E7985
:102C10002CEA070CC6F300169E4046EA0C064660F6
:102C20000E79F643B6070BD0C6684FEA43088F68A3
:102C300004FA08FC26EA0C0607FA08F73743C760CF
:102C40000E7906F00306022E12D1DE080F694FEA54
:102C5000437C00EB8606B646366A4FEADC6C0AFA1D
:102C60000CF807FA0CF726EA08063743CEF820706E
:102C70000F7906684FEA430807F0030704FA08FCD7
:102C800007FA08F726EA0C06374307604E6816F481
:102C9000403F1CD04A4E376847F00207376036681D
:102CA0009F0706F00206009623F0030606F1B046E1
:102CB000B6463F0FD6F80864DFF808810AFA07FC29
:102CC000404526EA0C0603D14FF0000C41E06CE0D1
:102CD000DFF8F4C0604502D14FF0010C39E0DFF8B5
:102CE000ECC0604502D14FF0020C32E0DFF8E0C0EA
:102CF000604502D14FF0030C2BE0DFF8D8C06045EF
:102D000002D14FF0040C24E0DFF8CCC0604502D1C2
:102D10004FF0050C1DE0DFF8C4C0604502D14FF054
:102D2000060C16E0DFF8B8C0604502D14FF0070C82
:102D30000FE0DFF8B0C0604502D14FF0080C08E0AA
:102D4000DFF8A4C0604502D14FF0090C01E04FF05C
:102D50000A0C0CFA07FC4CEA060CCEF808C44F68C3
:102D6000DBF80060FF0226EA020600D516435F4644
:102D7000CBF80060D1F804C0DBF804605FEA8C2C6B
:102D800026EA020600D516437E606E684F6826EA82
:102D90000206BF0300D516436E602E684F6826EA10
:102DA0000206FF0300D516432E605B1C0A6832FA48
:102DB00003F67FF411AFBDE8F88F000080000058E3
:102DC000F444025800000258000402580008025857
:102DD000000C025800100258001402580018025843
:102DE000001C0258002002580024025800690840C4
:102DF00000D0012070470AB1816170470904FBE7E8
:102E000001480068000C70470010005C01488068B1
:102E100070470000080400207047704710B5040098
:102E20000BD0242084F841002068016821F00101C2
:102E30000160D4F8800010B104E0012010BD084802
:102E4000C4F880000146204688470020606484F86A
:102E50004100206384F8420084F8400010BD000067
:102E6000CD31009030B403689A691968D243D40513
:102E700009D4CC43240606D4456C4FF4807445F045
:102E800001054564DC6153050AD4CB431B0607D416
:102E9000446C4FF4806344F0080444640468E361C4
:102EA00092050AD4C943090607D4426C4FF4007155
:102EB00042F0020242640268D161416C11F00B0FD2
:102EC00002D030BC02F088BA30BC70470268436B55
:102ED00091691268002B00D01847704770B50068E0
:102EE0000C4DA84214D10C48FFF798FF0A48002166
:102EF00001240A4AC0E90341C16101628160416164
:102F00008161C0E9005200F00BF80348001F847093
:102F100070BD000000580040F8010030130F42104F
:102F200070B5040004D094F84100002510B11FE0F2
:102F3000012070BDE06F354900283648616534498D
:102F400084F84050C4E91610334820663348606660
:102F50003348A0663348E0663348206733486067EB
:102F60003348A06701D13348E0672046E16F8847C6
:102F7000242084F841002068016821F001010160EB
:102F8000D4E9001020F0706008612068816821F4A5
:102F900000418160E06821680128A06830D040F4D9
:102FA00004408860E0680228206841682BD021F442
:102FB00000614160206820211F4A43681343436039
:102FC0002068C26822F40042C26054F8106B0DCC35
:102FD000104340EA0320F06054F81C3CD4E900029E
:102FE0001043186054F81C0D026842F001020260A0
:102FF000656484F84110256384F84250002070BD58
:1030000040F40040CDE741F40061D2E74130009048
:103010003F300090D3310090D13100903D3000908E
:103020005D30009045300090DD2E0090192E00900C
:103030001B2E0090CF310090008000027047704737
:103040007047000000680349884202D1024901200C
:103050004870704700580040F40100300068034990
:10306000884202D102490120087070470058004090
:10307000F40100302DE9F8438946044690F84100F8
:10308000DDE90861202841D1AEB3A1B3206885698C
:10309000ED432D043AD594F84050012D36D000254B
:1030A0004FF0220C012784F84070194F4FF0400870
:1030B00084F841C084F84280656466626185E76295
:1030C000C4F84C90012B13496163D1B219D0120A94
:1030D00082622165DAB210480023494600902046FA
:1030E00002F09CFF0121204684F8405002F0D2F803
:1030F0000020BDE8F883FFE74FF400706064012012
:10310000F7E74FF0FF3281622265E3E70220F0E744
:103110000000FFFFB15B0090002000802DE9F84324
:10312000044690F84100DDE90865202845D1CEB37A
:10313000C5B320688769FF433F043ED594F84070CB
:10314000012F3AD0012784F840704FF000094FF06A
:1031500021084FF0400C84F84180DFF8648084F847
:1031600042C0C4F84490A4F8289066626585C4F80B
:103170002C80E164012B134D6563D5B218D0120A7F
:1031800082622565DAB210480090C302204602F040
:1031900045FF0121204684F8409002F07BF8002092
:1031A000BDE8F883FFE74FF4007060640120F7E7A3
:1031B0004FF0FF3285622265E4E70220F0E700006D
:1031C0000000FFFFB15B0090002000807047704757
:1031D00070477047024881680278114481607047E7
:1031E00008040020032010B500F0C6F801F076F8BE
:1031F0000F4A104914681368C4F3032203F00F0345
:103200008A5CC95C02F01F0201F01F01D0400A4A2B
:1032100020FA01F11160094908600F2000F010F850
:1032200008B1012010BD00F079F8002010BD0000A9
:1032300018440258CC94009004040020000400209C
:1032400070B50D4D04462878A0B14FF47A71B1FBEA
:10325000F0F00A490968B1FBF0F001F00CFE48B942
:10326000102C07D200222146501E00F065F80020E5
:103270006C6070BD012070BD0804002000040020B7
:10328000154BF0B5083B427813491A600B680A1FCA
:1032900023F001030B6043681360057BC67A827AD2
:1032A000437B2D07847B45EA0665C77B90F809C000
:1032B000067A90F800E045EAC24040EA834040EADE
:1032C000444040EA074040EA0C2040EA460040EA19
:1032D0000E000860F0BD0000A0ED00E0BFF35F8FBE
:1032E000044800210368034A23F4803303607032EA
:1032F0001160704724ED00E0074A40F001000649E4
:1033000070321060086840F480300860BFF34F8F5F
:10331000BFF36F8F7047000024ED00E07047002876
:1033200009DB410900F01F028900012001F1E021C1
:103330009040C1F8000170470E4BF0B41B680D4679
:10334000C3F30223C3F10706042E00D90426191D76
:10335000072901D2002300E0DB1E012404FA06F154
:103360009C40491E2940641E994014402143F0BCF2
:1033700004F02AB80CED00E0064900F0070210B591
:103380004FF6FF040868044B204040EA022018432F
:10339000086010BD0CED00E00000FA0510B500F06B
:1033A00057FF05490968054AC1F30211515C01F054
:1033B0001F01C84010BD000020440258CC9400906A
:1033C000494930B5484C0B1D0A68143409681D681A
:1033D000246802F00303C5F30012C1F30531C4F3FE
:1033E000CC04002914FB02F200EE102AF8EE400A89
:1033F00075D03F4A9FED3D1AB7EE000A6BB1DFED85
:103400003D1A012B01D0022B64D002EE101A116874
:10341000F8EE422A81EEA22A21E0334C283C2368B0
:103420009B0612D5344B246801EE901A1168C4F340
:10343000C104F8EE612AE34001EE903AC1F30801BD
:10344000F8EE611A81EEA22A0BE001EE901ADFED90
:103450002B2A00BFF8EE611A116882EEA12AC1F38F
:10346000080101EE901A1168F8EE611A40EE811A17
:1034700071EE800A62EE200AC1F3462101EE101AB5
:10348000B8EE411A31EE001AC0EE811ABCEEE11A14
:1034900080ED001A1168C1F3064101EE101AB8EE72
:1034A000411A31EE001AC0EE811ABCEEE11A80ED2D
:1034B000011A1168C1F3066101EE101AB8EE411A43
:1034C00031EE000A80EE801ABCEEC10A80ED020ADD
:1034D00030BD04E001EE901ADFED092ABAE70021C1
:1034E000016041608160F3E7284402580000003920
:1034F000384402580024744A0090D0030024744CCD
:1035000020BCBE4B494930B5484C0B1D0A681C34E1
:1035100009681D68246802F00303C5F30022C1F3A3
:103520000551C4F3CC04002914FB02F200EE102A6A
:10353000F8EE400A75D03F4A9FED3D1AB7EE000AFB
:103540006BB1DFED3D1A012B01D0022B64D002EEEE
:10355000101A1168F8EE422A81EEA22A21E0334CBB
:10356000283C23689B0612D5344B246801EE901A40
:103570001168C4F3C104F8EE612AE34001EE903A09
:10358000C1F30801F8EE611A81EEA22A0BE001EE08
:10359000901ADFED2B2A00BFF8EE611A116882EE57
:1035A000A12AC1F3080101EE901A1168F8EE611A20
:1035B00040EE811A71EE800A62EE200AC1F34621C4
:1035C00001EE101AB8EE411A31EE001AC0EE811A5F
:1035D000BCEEE11A80ED001A1168C1F3064101EE5C
:1035E000101AB8EE411A31EE001AC0EE811ABCEE84
:1035F000E11A80ED011A1168C1F3066101EE101A9B
:10360000B8EE411A31EE000A80EE801ABCEEC10A13
:1036100080ED020A30BD04E001EE901ADFED092AC8
:10362000BAE70021016041608160F3E72844025855
:1036300000000039404402580024744A0090D0032E
:103640000024744C20BCBE4B2DE9FE4F0546DFF82C
:10365000E48350F8081B0024F64FC943019005F19C
:103660002800264608F12408009008011DD4A86E01
:1036700050B1B0F5801F0CD0B0F5001F0ED0B0F5E2
:10368000401F1ED001240FE0386840F4003038603D
:1036900017E00198022102F0BBFD03E0009802212F
:1036A00002F046FE04000CD026462888C043C00520
:1036B00023D4A86D05281ED2DFE800F00C11161BDC
:1036C0001B00AA6ED8F8001021F440111143C8F86D
:1036D0000010EAE7386840F40030386009E00198EB
:1036E000002102F095FD03E00098002102F020FE89
:1036F000044674B100E0012426462888C0438005B2
:1037000028D4E86D80281ED00CDC90B140280ED162
:1037100014E0AA6DD8F8001021F007011143C8F891
:103720000010EAE7C02813D0B0F5807F10D0012444
:103730000FE0386840F40030386009E0019800215B
:1037400002F066FD03E00098002102F0F1FD04465E
:103750009CB126462888DFF8DC92C04309F12C0989
:1037600040052CD4D5F8A800B0F5800F20D00DDC92
:10377000A0B1B0F5001F0FD115E0EA6DD8F8001028
:1037800021F4E0711143C8F80010E3E7B0F5C00F71
:1037900013D0B0F5000F10D001240FE0386840F4CA
:1037A0000030386009E00198002102F031FD03E0AB
:1037B0000098002102F0BCFD04467CB12646288812
:1037C000C04300052DD4D5F8AC00B0F1007F21D066
:1037D0000EDCA8B1B0F1807F10D116E0D5F8A8209A
:1037E000D9F8001021F460011143C9F80010E6E790
:1037F000B0F1407F13D0B0F1806F10D001240FE002
:10380000386840F40030386009E00198002102F087
:10381000FFFC03E00098002102F08AFD044674B129
:1038200026462868C04380011FD4E86CD8B1102810
:103830000FD0202812D0302815D0012414E0D5F85C
:10384000AC20D9F8001021F0E0611143C9F8001054
:10385000E7E7386840F40030386004E0019802215E
:1038600002F0D6FC044674B126462888C043C00442
:103870002BD4286EB0F5005F20D00DDCA0B1B0F5E0
:10388000805F0FD115E06B48EA6C2030016821F0B1
:10389000300111430160E8E7B0F5405F13D0B0F5A7
:1038A000804F10D001240FE0386840F400303860B9
:1038B00009E00198002102F0ABFC03E00098002130
:1038C00002F036FD04468CB126462888C0438004A9
:1038D00029D4686EB0F5403F23D010DC08B3B0F5B2
:1038E000803F14D0B0F5003F0FD115E02A6ED8F814
:1038F000001021F4E0411143C8F80010E5E7B0F5ED
:10390000802F0ED0B0F5A02F0BD001240AE0019833
:10391000012102F07DFC03E00098012102F008FD86
:10392000044694B126462888C04340042AD4D5F8DA
:10393000B000B0F1405F23D010DC08B3B0F1805F7D
:1039400014D0B0F1005F0FD115E06A6ED8F8001006
:1039500021F4E0211143C8F80010E4E7B0F1804FF2
:103960000ED0B0F1A04F0BD001240AE00198012144
:1039700002F04EFC03E00098012102F0D9FC04465D
:1039800074B126462888C04300041FD4286FD8B1DC
:10399000B0F1805F0ED0B0F1005F10D0012414E0D0
:1039A000D5F8B020D9F8001021F0E0411143C9F852
:1039B0000010E7E7386840F40030386004E0019810
:1039C000012102F025FC044674B126462868C04354
:1039D000C0011ED4A86CD0B101280ED0022811D08D
:1039E000032814D0012413E02A6FD8F8001021F026
:1039F00040511143C8F80010E8E7386840F400303F
:103A0000386004E00198022102F002FC0446ACB1E7
:103A100026462868DFF81CB0C043ABF11C0B4002FF
:103A200052D40548016841F480710160FFF7EEF956
:103A3000824611E02C44025800480258FA48AA6C09
:103A4000016821F0030111430160E2E7FFF7DEF9AD
:103A5000A0EB0A00642835D8F4480068C005F5D505
:103A60008CBBDFF8C4A3B5F8B4100AF1240ADAF865
:103A7000000001F4407100F44070884211D0DAF87F
:103A80000010DAF8002021F4407142F48032CAF8C4
:103A90000020DAF8002022F48032CAF80020CAF8A8
:103AA0000010D5F8B400B0F5807F1AD1FFF7AEF959
:103AB000029012E0FFF7AAF90299411A41F2883008
:103AC00081420AD9032426462878DFF85CA3C04344
:103AD0000AF1080AC00721D03CE0DAF800008007AC
:103AE000E8D5D5F8B410C1F30120032858460DD00D
:103AF000016821F47C510160B5F8B420DAF80010B7
:103B0000C2F30B021143CAF80010DDE7C84A03688C
:103B100002EA111223F47C511143ECE7E86F1828F4
:103B200016D005DCA0B1082808D0102804D10AE07E
:103B300020280DD028280BD001240AE0019801216B
:103B400002F066FB03E00098012102F0F1FB04465D
:103B500064B126462878C04380071ED4A86F062883
:103B600019D2DFE800F0160C11161616EA6FDAF813
:103B7000001021F038011143CAF80010EAE701985B
:103B8000012102F045FB03E00098012102F0D0FB87
:103B900004467CB100E0012426462878C043400753
:103BA0001FD4D5F89400062819D2DFE800F0160CCF
:103BB00011161616AA6FDAF8001021F0070111434A
:103BC000CAF80010E9E70198012102F021FB03E0A7
:103BD0000098012102F0ACFB0446A4B100E00124EE
:103BE00026462878C04380062BD4D5F89000B0F143
:103BF000405F24D011DC10B3B0F1805F15D0B0F17C
:103C0000005F10D116E0D5F89420D9F8001021F00B
:103C100007011143C9F80010E3E7B0F1804F0ED05F
:103C2000B0F1A04F0BD001240AE00198002102F06E
:103C3000EFFA03E00098022102F07AFB044694B107
:103C400026462878C04340062BD4D5F89C00B0F512
:103C5000406F24D011DC10B3B0F5806F15D0B0F5F3
:103C6000006F10D116E0D5F89020DAF8001021F09E
:103C7000E0411143CAF80010E3E7B0F5805F0ED0D1
:103C8000B0F5A05F0BD001240AE00198002102F0FA
:103C9000BFFA03E00098022102F04AFB044694B107
:103CA00026462878C04300062BD4D5F8A000B0F5EE
:103CB000C04F24D011DC10B3B0F5005F15D0B0F5C3
:103CC000804F10D116E0D5F89C20D9F8001021F4CF
:103CD000E0511143C9F80010E3E7B0F5004F0ED0F2
:103CE000B0F5204F0BD001240AE00198002102F02A
:103CF0008FFA03E00098022102F01AFB044654B147
:103D000026462878C04300071ED4D5F88400B0F5B5
:103D1000805F0AD00FE0D5F8A020D9F8001021F478
:103D200060411143C9F80010EBE70098022102F04E
:103D3000FFFA00B10126D5F88420DAF8001021F44A
:103D400040511143CAF800102878C043C00613D46C
:103D5000D5F89800B0F5807F05D10098022102F0D7
:103D6000E7FA00B10126D5F89820D9F8001021F41F
:103D700040711143C9F800102868C043000316D4ED
:103D8000D5F8A40038B1B0F5803F09D0B0F5003FB8
:103D90000BD001240AE00198002102F039FA03E077
:103DA0000098022102F0C4FA04468CB12646286825
:103DB000C043400322D4D5F88800B0F5801F11D04D
:103DC000B0F5001F13D0B0F5401F15D0012414E04A
:103DD000D5F8A420D9F8001021F440311143C9F8D6
:103DE0000010E4E7386840F40030386004E00098E0
:103DF000012102F09DFA04465CB126462868C043C2
:103E0000C00323D4286DA8B1B0F5803F17D001249A
:103E10001BE0D5F88820DAF8001021F44011114396
:103E2000CAF80010EAE700004C4402580048025863
:103E3000CFFFFF00386840F40030386004E001989C
:103E4000022102F0E5F90446E4B126462868C043A1
:103E5000800005D40098022102F06AFA00B1012620
:103E60002868C04380031BD4D5F88000B0B1B0F5FA
:103E7000807F0FD0B0F5007F10D0B0F5407F0DD01F
:103E800001240CE05A482A6D016821F48031114365
:103E90000160DBE7386840F400303860ECB3264658
:103EA0002868C043C00207D46A6FD8F8001021F018
:103EB00000411143C8F800102868C043C00008D46E
:103EC000D5F8B820DBF8001021F480411143CBF87D
:103ED00000102868C043800207D4EA6ED8F80010AA
:103EE00021F080711143C8F800102868C0434000D9
:103EF0000CD4DBF8001021F40041CBF80010DBF803
:103F00000010D5F8BC201143CBF800102868C0433E
:103F100008D437486A6D016800E018E021F040518C
:103F2000114301602868C043000208D4D5F88C20F2
:103F3000DAF8001021F440011143CAF80010287982
:103F40000024C04300F0010020430AD00FE0D5F860
:103F50008020DAF8001021F440711143CAF80010F3
:103F60009EE70198002102F053F900B10646287936
:103F7000C04300F00200204305D10198012102F066
:103F800047F900B106462879C04300F004002043F9
:103F900005D10198022102F03BF900B106462879CB
:103FA000C04300F00800204305D10098002102F032
:103FB000BFF900B106462879C04300F01000204345
:103FC00005D10098012102F0B3F900B10646287925
:103FD000C04300F02000044304D10098022102F005
:103FE000A7F900B916B10120BDE8FE8F0020FBE75C
:103FF0004C4402582DE9F05F04000F467ED0DFF8F4
:104000003882D8F8000000F00F00B8420CD2D8F87F
:10401000001021F00F013943C8F80010D8F8000053
:1040200000F00F00B84269D12078844D40070AD5CE
:104030002069296801F07001884204D9296821F0BB
:1040400070010143296020787C4E361D00070AD597
:104050006069316801F07001884204D9316821F04B
:104060007001014331602078C0060AD5A06931682B
:1040700001F4E061884204D9316821F4E061014330
:1040800031602078DFF8B4B180060BF1080B0CD555
:10409000E1695846DBF8002002F07002914204D931
:1040A000026822F070020A430260207880070AD575
:1040B000E068296801F00F01884204D9296821F0DD
:1040C0000F01014329602078C0073ED05B49A268F8
:1040D0002868183920F4706010432860606802284E
:1040E00018D0032819D00968012819D049070029D8
:1040F0004ADADFF848A1AAF1080A00E044E0DAF859
:10410000002022F007020243CAF80020FEF77EFEDC
:10411000814612E009688903E9E709688901E6E751
:10412000C905E4E7FEF772FEA0EB090141F2883011
:10413000814202D90320BDE8F09F6168DAF80000EF
:1041400000F03800B0EBC10FECD1207880070AD521
:10415000E068296801F00F01884204D2296821F043
:104160000F0101432960D8F80010404601F00F010B
:10417000B9420BD9016821F00F0139430160006891
:1041800000F00F00B84201D00120D4E720784007AA
:104190000AD52069296801F07001884204D2296893
:1041A00021F0700101432960207800070AD5606979
:1041B000316801F07001884204D2316821F0700149
:1041C000014331602078C0060AD5A069316801F446
:1041D000E061884204D2316821F4E061014331603A
:1041E000207880060CD5E1695846DBF8002002F003
:1041F0007002914204D2026822F070020A43026007
:1042000000F06CF80E492A682B68C2F3032203F011
:104210000F038A5CC95C02F01F0201F01F01D0404D
:10422000084A20FA01F11160074908600748006850
:10423000BDE8F05FFFF704B80020005218440258B0
:10424000CC94009004040020000400200C04002002
:1042500030B500F043F80B4A0B490C4B1568146855
:10426000C5F3032204F00F048A5C095D02F01F020B
:1042700001F01F01D040064A20FA01F119601060D8
:10428000084630BD18440258CC9400900404002025
:104290000004002000B5FFF7DBFF05490968054A67
:1042A000C1F30211515C01F01F01C84000BD0000C4
:1042B0001C440258CC94009000B5FFF7C9FF054993
:1042C0000968054AC1F30221515C01F01F01C84091
:1042D00000BD00001C440258CC940090454970B5C4
:1042E00045480968434B103B11F0380208D00111D2
:1042F000082A03D0102A0BD0182A0BD0084670BD0C
:1043000019688906FBD51968C1F3C101C84070BDA1
:104310003A4870BD3749374D18310C1D24350A68AD
:10432000096826682D6802F0030406F00102C1F353
:104330000511C5F3CC0515FB02F200EE102AB8EE0C
:10434000400AE9B32F4ADFED2E0AB7EE001A6CB12E
:10435000DFED2D1A012C01D0022C43D002EE101AF1
:104360001068F8EE422A81EEA22A1EE01C68A4061C
:1043700011D51B6801EE901A1168C3F3C103F8EE62
:10438000612AD84001EE900AC1F30800F8EE611AE4
:1043900081EEA22A0BE001EE901ADFED1C2A00BF8D
:1043A000F8EE611A106882EEA12AC0F3080001EE4F
:1043B000900AF8EE611A40EE201A31EE810A00E010
:1043C00015E022EE000A1068C0F34620401C00EE03
:1043D000900AF8EE600A80EE201ABCEEC10A10EED8
:1043E000100A70BD01EE901ADFED092AD8E700200F
:1043F00070BD0000104402580090D00340787D0149
:1044000000000039304402580024744A0024744CDF
:1044100020BCBE4B2DE9F05F04007DD0FF4F20781B
:10442000FE4D1837DFF8F493103DC00748D0D9F897
:104430000000396800F03800102815D0182803D182
:1044400001F0030002280FD06068B0F5803F12D061
:1044500010B1B0F5A02F18D0286820F48030286063
:10446000286820F4802009E02868800328D5606847
:104470000028D2D024E0286840F4803028606068AA
:1044800088B1FEF7C3FC064609E0286840F48020A6
:104490002860F0E7FEF7BAFC801B64286FD8286814
:1044A0008003F7D50CE0FEF7B1FC064605E000BF3F
:1044B000FEF7ACFC801B6428F0D828688003F7D492
:1044C000207841F20308D54E0C3E800769D5D9F813
:1044D0000000396810F038000ED0182801D1880784
:1044E0000AD0E06890B3296821F0190101432960DE
:1044F000FEF78CFC824631E02868400702D5E06870
:1045000000288AD0E168286820F019000843286054
:10451000FEF77CFC824607E0DFE000BFFEF776FC9A
:10452000A0EB0A000228B9D828684007F6D500BFDA
:10453000FEF766FC40451BD82069402812D0316840
:1045400021F47C3141EA003030602AE018E000BFFD
:10455000FEF75CFCA0EB0A0002289FD82868400701
:10456000F6D5E5E7306820F47C3040F40030EBE726
:10457000207C316821F0FE4141EA0060E4E70DE172
:10458000286820F001002860FEF740FC824605E024
:10459000FEF73CFCA0EB0A0002288DD828684007F3
:1045A000F6D42078C0065DD5D9F80000DFF86CB2EB
:1045B000396800F03800ABF1040B082810D0182837
:1045C00003D101F0030001280AD0E069002828681F
:1045D00038D040F080002860FEF718FC824623E0C7
:1045E0002868C00523D5E069802876D11FE0206ABD
:1045F000202821D0316821F0F84141EA8060306004
:1046000030E000BF94F82010DBF8002022F07C524C
:1046100042EA0161CBF8001024E000BFFEF7F6FB90
:10462000A0EB0A00022898D82868C005F6D5FEF746
:10463000E7FB4045E6D8DAE7306820F0F84040F084
:104640008040DCE720F080002860FEF7DFFB0646B4
:1046500005E000BFFEF7DAFB801B02289DD8286822
:10466000C005F7D42078000729D56C48616964300B
:1046700000298046016811D041F001010160FEF778
:10468000C5FB064605E000BFFEF7C0FB801B022805
:10469000C9D8D8F800008007F6D510E021F0010154
:1046A0000160FEF7B3FB064605E000BFFEF7AEFB78
:1046B000801B022872D8D8F800008007F6D4207832
:1046C000800623D5A0690028286810D040F48050C7
:1046D0002860FEF79BFB064605E036E1FEF796FBF9
:1046E000801B02285AD828688004F7D50EE020F4F1
:1046F00080502860FEF78AFB064604E0FEF786FB42
:10470000801B02284AD828688004F7D42078400704
:104710004FD5DFF80C81D8F8001041F48071C8F84B
:104720000010FEF773FB064605E000BFFEF76EFBC8
:10473000801B642832D8D8F80000C005F6D5374E63
:10474000A068603601280AD008B1052813D0306867
:1047500020F001003060306820F0040002E0306892
:1047600040F001003060A06841F2883A90B1FEF755
:104770004DFB80460AE0306840F004003060EEE710
:10478000FEF744FBA0EB0801514507D830688007CD
:10479000F6D50EE0FEF73AFB804607E084E000BF66
:1047A000FEF734FBA0EB080151457DD83068800747
:1047B000F6D4606AB0B3DFF86480D9F8001008F16D
:1047C00020084FF6F87B08F10409C1F3C201032960
:1047D000A8F1040A69D00228286820F080702860B7
:1047E00003D0FEF713FB044684E0FEF70FFB0646FA
:1047F00005E000BFFEF70AFB801B022877D8286877
:104800008001F7D4E26A40F2F331386854F8283F67
:10481000884340EA02101843386004E0104402580C
:1048200000480258B5E0217B434622894FF4FE0C34
:10483000208A4FF0FE474902267D521E401EA1F5F8
:104840000071C2F308088AB2761E0CEA004042EA00
:1048500008020243504607EA06610A431A60DAF882
:10486000002022F00102CAF80020D9F80020266AB0
:1048700022EA0B0242EAC602C9F80020DAF8001068
:10488000A26921F00C011143CAF800100168E26925
:1048900021F0020111430160016841F4803101609F
:1048A000016841F4003101E021E027E00160016886
:1048B00041F480210160016841F001010160286834
:1048C00040F080702860FEF7A1FA044605E000BFC2
:1048D000FEF79CFA001B022809D828688001F7D54A
:1048E00057E000BFFEF792FA001B022802D903200E
:1048F000BDE8F09F28688001F4D44AE039680128B7
:10490000D8F8000021D0A26A01F0030393421CD121
:10491000E26AC1F305118A4217D1216BC0F3080284
:10492000491E8A4211D1616BC0F34622491E914251
:104930000BD1A16BC0F30642491E914205D1E16B38
:10494000C0F30660491E814201D00120D0E7A16C6E
:104950004E46D9F80000C0F3CC00814219D0DAF8F5
:104960000000554620F00100CAF80000FEF74EFA9C
:104970004FEA0007FEF74AFAB842FBD0A26C306853
:1049800020EA0B0040EAC2003060286840F00100D5
:1049900028600020ACE77047704700002DE9F04721
:1049A00004460068002103694269876894F88160C1
:1049B00000F130095FEA025C03EA020508D51A0734
:1049C00006D5816941F400618161D4F8A8107AE0CC
:1049D00015F0600F08D1680706D5616F204688473B
:1049E000216F20468847012105F04100012805D1AB
:1049F000680703D4216F20468847012105F0220073
:104A0000022803D1680701D4616F5CE000297DD1E1
:104A100028074FF001085AD52068816941F0080144
:104A200081612068816941F010018161206881699C
:104A300041F4006181612068016921F00801016190
:104A40002068806810F4404F20D023E0E0680F28F1
:104A500006D92168606E096B0160606E001D0FE071
:104A6000072806D9B9F80000616E0880606E801CC6
:104A700006E02068616E90F830000870606E401C9F
:104A80006066B4F86A00401EA4F86A00B4F86A00D0
:104A90000028DBD1204601F025FE84F88180D4F87F
:104AA000840010B1D4F8A0100DE0052E06D0042E1D
:104AB00007D0032E7DD1D4F8881004E0D4F89010EC
:104AC00001E0D4F88C102046BDE8F047084715F403
:104AD000587F6ED068060AD5D4F8840040F00400F0
:104AE000C4F884002068816941F040018161A80513
:104AF0000AD5D4F8840040F00100C4F8840020688E
:104B0000816941F400718161E80500E051E00AD556
:104B1000D4F8840040F00800C4F88400206881695B
:104B200041F480718161A8060AD5D4F8840040F070
:104B30008000C4F884002068816941F0200181610F
:104B4000D4F88400002834D0206840F26B32C7F3D8
:104B500081310368032923F00101016020680169A4
:104B600021EA0201016102D084F881809AE720687D
:104B7000114D816821F440418160E06F50B10565BD
:104B8000E06FFCF7D7FB28B1D4F8840040F0400078
:104B9000C4F88400A06F00280BD00565A06FFCF757
:104BA000C9FB002805D0D4F8840040F04000C4F8C8
:104BB0008400BDE8F0870000C36700902DE9F05F36
:104BC000040045D0964B2068DFF858A2A66A9842A8
:104BD000DFF854B206D0504504D0584502D0E16801
:104BE0000F2935D8E1680127E56B01F10802D208E9
:104BF00007EB55156A43984205D0504503D05845F8
:104C000001D0082A24D8864B984203D0504501D0C1
:104C1000584501D1102A1BD8B6F5800F06D04FEAAF
:104C2000014900BF94F88100A8B138E07C4A904265
:104C300007D0504505D0584503D0206BB0F5702FF4
:104C400006D8206B00B908048146B1EB194FE9D9A9
:104C50000120BDE8F09F754A0020D4F8AC10C4F8DC
:104C6000882084F880007248C4F88C008034714831
:104C70002061714860617148A0617148E0617148CC
:104C80002062714860627148A062A4F1800411B989
:104C90006F48C4F8AC002046D4F8AC108847022016
:104CA00084F881002068016821F001010160A06999
:104CB000B0F1806F11D16068B0F5800F01D018B1EC
:104CC0000BE0A06B20B108E0A06BB0F1805F04D1D5
:104CD0002068016841F4805101606068400209D594
:104CE000E068072806D32068226D016821F48071EE
:104CF000114303E02068016821F480710160A26A19
:104D0000E069E16B25681043E36841EA0901084363
:104D10001843A860D4E90D02D4E90581636A2569C6
:104D20001843276A0A43266810432843A56DD4E92F
:104D300001C2D4E9123140EA0800384340EA0C00CD
:104D40000843104318432843F060A06AB0F5800F71
:104D50002FD1206C0128206801682DD021F400415A
:104D60000160606C01282068016828D021F480412E
:104D700001602B492068884206D0504504D0584530
:104D800002D0B9F5702F1DD0884203D0504501D014
:104D9000584502D1B9F5F81F14D00268012122F458
:104DA0000052026001EB1942E06A91402268084318
:104DB0001064606870B11DE041F40041D0E741F437
:104DC0008041D5E7016841F4005101602168E06A43
:104DD0000864EEE7A06A30B92068816821F4C05108
:104DE00041F4006181602068816821F4C06141F470
:104DF000806181602068016D21F0010101656068BA
:104E0000400206D52068626DC16821F0004111435F
:104E1000C1600020C4F88400012184F8811018E7E3
:104E20000030014000380040003C00405D4E0090E2
:104E3000574E0090614E00905F4E0090594E00908A
:104E4000754E009099490090974900905B4E0090F4
:104E5000554E0090704770477047704770477047D5
:104E60000349884202D10120091F087070470000E1
:104E70008C0300307047401EB0F1807F10B501D325
:104E8000012010BD4FF0E02460610F21601702F097
:104E90009BFA0020A0610721216110BD016841F249
:104EA00011130A6A1A4207D10A6A9B101A4203D1E7
:104EB0000A6822F001020A60012180F83D100020FA
:104EC00070472DE9F041044600680027C66805696F
:104ED000A90715D5B10713D5FA1E02610121217763
:104EE00020688069800702D0D4F8941005E0D4F8D7
:104EF0009C1020468847D4F8A01020468847277782
:104F0000680718D5700716D5226802206FF00401D3
:104F1000116120772068806910F4407F02D0D4F8B6
:104F2000941005E0D4F89C1020468847D4F8A010CF
:104F3000204688472777280717D5300715D52268D8
:104F400004206FF00801116120772068C069800794
:104F500002D0D4F8941005E0D4F89C10204688477D
:104F6000D4F8A010204688472777E80618D5F00621
:104F700016D5226808206FF0100111612077206893
:104F8000C06910F4407F02D0D4F8941005E0D4F842
:104F90009C1020468847D4F8A010204688472777E1
:104FA000E80709D0F00707D021686FF00100086119
:104FB0002046D4F884108847280601D4A80409D5CF
:104FC000300607D521686FF4025008612046D4F8F6
:104FD000B4108847E80509D5300607D521686FF475
:104FE000807008612046D4F8B8108847680609D553
:104FF000700607D521686FF0400008612046D4F89C
:105000008C108847A8060BD5B00609D521686FF02B
:10501000200008612046D4F8AC10BDE8F0410847F4
:10502000BDE8F08170477047704770477047704720
:105030007047704710B5040003D0D4F8880010B151
:1050400010E0012010BD002084F88400204601F00B
:10505000ABFDD4F8C40010B91548C4F8C40001462B
:10506000204688472420C4F888002068016821F081
:1050700001010160A06A10B1204601F0B1FC204698
:1050800001F0D0FD0128DDD02068416821F4904175
:1050900041602068816821F02A01816020680168F0
:1050A00041F0010101602046BDE8104001F0FCBC68
:1050B000B5500090704770477047704770470000C8
:1050C0002DE9F047354E3168002908DA316841F0A2
:1050D000004131608169891C8161BDE8F0872F49F9
:1050E0002F4C083901F104090B684F1DDFF8ACA003
:1050F0008A1D23620AF10C0A99F80050931D84F866
:1051000024500AF1040C97F80080264D0027C4F8BB
:105110002880DAF80010E162118821863168616325
:105120001968A163DCF80010E1632F602968002989
:10513000FCD001682160416861608168A160C1683C
:10514000E16001692161416961618169A161C069B1
:10515000E061002014A101F0C7F9A269002016A1A6
:1051600001F0C2F96269002017A101F0BDF9D9F878
:105170000020002018A101F0B7F9326800201AA120
:1051800001F0B2F9DAF8002000201BA101F0ACF91F
:105190002F6028680028FCD09FE700002CED00E07D
:1051A000C80400201C040020486172642046617518
:1051B0006C74210D0A0000005043203D20307825FA
:1051C0003038580D0A0000004C52203D2030782520
:1051D0003038580D0A00000043465352203D20301D
:1051E00078253038580D0A0048465352203D20306B
:1051F00078253038580D0A0042464152203D203073
:1052000078253038580D0A000148FDF72BBE000004
:10521000F80100300148FDF759BE0000F8010030E8
:10522000806B0021826B02B11165C26B02B1116506
:1052300000F00CBFCA074FF028034FF0000210B572
:1052400006D090F84140422233EA040400D0F22212
:105250008C0707D590F8414042F04402A34301D0A7
:1052600042F0B0020B0401D542F0B802102904D07C
:10527000202905D0402906D007E042F0900204E042
:1052800042F0200201E042F04002006801689143D0
:10529000016010BD10B51E4C0022436BA34217D015
:1052A0001C4CA34214D01C4CA34211D00B0400D5BB
:1052B000B822CB0701D042F0F2028B0701D542F0B1
:1052C000F402102916D020291CD142F0200219E046
:1052D0000B0400D5B822CB0701D042F0F2028B07B5
:1052E00001D542F0F402102904D0202905D040292C
:1052F00006D007E042F0900204E042F0600201E0D4
:1053000042F04002006801681143016010BD0000D6
:1053100065590090F95C0090755A009001688A699F
:10532000D243920701D400228A6200688169C9438E
:10533000C90703D0816941F00101816170472DE9FE
:10534000F047044690F841002822002508218243B6
:10535000206804D0C16184F84050BDE8F0878769B7
:1053600086694FF0FE088268D0F80CC04FF40049FF
:10537000E36808EA16460CF0FE08022BC7F3004764
:10538000C2F3090208D049462046FFF753FF84F8CC
:1053900040503246A36F1AE0062306F0060603EAE1
:1053A000D2139E420BD1A36C5B1CA364A36C022B93
:1053B000D3D1A564C16184F84050A36F07E049468A
:1053C0002046FFF737FF84F840504246A36F394626
:1053D0002046BDE8F047184770B5444A044690F8A7
:1053E0004100002584F84250E2626585626C2828FD
:1053F00042EA0102626433D0292831D02A282FD012
:1054000048F203012046FFF715FF2046FFF786FF0D
:1054100094F84100602813D0202184F841102068BE
:105420008269D24392060BD48269D243D20605D454
:105430001022C261606C40F0040060642068C161A9
:105440006563A16B206B2A4E19B1112812D0212857
:1054500010D0E16BF1B3122824D0222822D03EE0F4
:1054600003212046FFF7E6FE22492820616384F8E5
:105470004100E6E720680168490403D5016821F48A
:1054800080410160A06BFCF797F8012827D0A06B42
:10549000066584F84050A06BFBF74CFF002823D032
:1054A000A06B16E020680168090403D5016821F4A7
:1054B00000410160E06BFCF77FF801280FD0E06B42
:1054C000066584F84050E06BFBF734FF00280BD0F2
:1054D000E06B00E003E0016DBDE870400847204646
:1054E000BDE8704000F0B2BD70BD00000000FFFFDD
:1054F00021520090055F009070B50446174AC843DA
:10550000002541074FF02000E262256384F8410046
:1055100084F84250656311D42068616A406A08705B
:10552000606A401C6062208D40B1618D401E208504
:10553000491E6185606C40F00400606448F203011C
:105540002046FFF777FE21681020C861204684F8C6
:105550004050616EBDE87040084700000000FFFF4A
:10556000F8B50446006820260D46C66194F841004F
:10557000212804D094F84100222806D00BE0012114
:105580002046FFF757FE112004E002212046FFF7D6
:1055900051FE122020632068E9432B4B00255FEA6F
:1055A000C16C4268294F02EA03024260E762656308
:1055B00006D422681020D061606C40F00400606462
:1055C00094F84100602805D1480703D42068406A58
:1055D000C0B200902046FFF7A1FE606C94F8411025
:1055E000602900D028B1616C2046BDE8F840FFF783
:1055F000F3BE94F84100212814D094F841002228E9
:1056000021D184F84160256394F8420084F8425027
:10561000402884F8405014D0A16D01B02046BDE868
:10562000F040084784F84160256394F8420084F80C
:105630004250402884F8405001D0616DEDE7A16EE2
:10564000EBE7E16EE9E7F8BD00E800FE0000FFFFD0
:1056500070B504460025202084F8425094F841108B
:1056600021290FD0122184F8410021630221204614
:105670006563FFF7DFFD84F84050A16D2046BDE86B
:1056800070400847112184F8410021630121204620
:105690006563FFF7CFFD84F84050616DEEE70000D1
:1056A0002DE9F05F0D46016820270446D1F80080FF
:1056B000C66A90F84100CF61212808D0292806D079
:1056C00022280BD02A2809D028280ED014E048F22E
:1056D00001012046FFF7AEFD21200CE048F2020157
:1056E0002046FFF7A7FD222005E048F203012046EF
:1056F000FFF7A0FD0020206320687349426842F450
:1057000000424260206842680A4042602046FFF73B
:1057100005FE6FEA08016D4A6D4BDFF8B8C1480419
:10572000DFF8B491DFF8B4A1DFF8B4B1DFF8B4E189
:105730000BD42068D0F8008028F48048C0F800809E
:10574000A06B0CE04068608537E0080435D4206821
:10575000D0F8008028F40048C0F80080E06B60B307
:1057600000689042EED09842ECD06045EAD04845BF
:10577000E8D05045E6D05845E4D07045E2D0594ACB
:1057800018329042DED0584A9042DBD0564A183246
:105790009042D7D0544A30329042D3D0524A483205
:1057A0009042CFD0504A60329042CBD04E4A7832AD
:1057B0009042C7D04C4A9032C4E7E84340070FD428
:1057C000206825F00405626A406A1070606A401C17
:1057D0006062208D20B1628D401E2085521E628540
:1057E000608D18B1606C40F004006064E843DFF83D
:1057F000FC80C00632D4C80630D4618D102051B16F
:105800002168C861606C40F00400606416B3B6F1B2
:10581000807F1FD022E094F84110282902D1B6F1F0
:10582000007F04D094F84110292905D00FE02946C3
:105830002046FFF761FE11E0464508D02168C861A7
:105840002046FFF76BFD204600F052F806E0216885
:10585000C86103E0616C2046FFF7BEFD002684F8B6
:105860004260606C666368B1616C2046FFF7B4FD0E
:1058700094F84100282824D129462046BDE8F05F4D
:10588000FFF73ABEE06A4546A8420AD0204600F03B
:105890002FF8E56284F84170266384F84060616EF9
:1058A00009E094F8410084F841702228266384F8C6
:1058B000406004D0E16D2046BDE8F05F0847216EEE
:1058C000F9E7BDE8F09F000000E800FE100002408C
:1058D0002800024040000240580002407000024090
:1058E00088000240A0000240100402400000FFFFB8
:1058F00070B5044600680025016884F84250C94329
:105900004A0403D4016821F4804104E0090403D46B
:10591000016821F40041016094F8411028202929F0
:1059200012D094F841102A291AD1222184F841007A
:10593000216302212046FFF77DFC84F84050216E50
:105940002046BDE870400847212184F841002163CA
:1059500001212046FFF76EFC84F84050E16DEFE72F
:1059600070BD0000F8B5044690F8400001281AD038
:10597000CB43012584F84050DE064FF000056FEA66
:10598000020012D4C20610D421681020C861606CD5
:1059900040F00400606420212046FFF77BFC204695
:1059A000FFF7BCFC60E00220F8BD314A1E0639D486
:1059B000460637D42068016821F040010160608DFF
:1059C000002820682AD04168608DFF28C1F30901B2
:1059D00004D9FF2020854FF0807308E0608DE36AD2
:1059E0002085934201D0E36A01E04FF000730095F7
:1059F00094F82820204600F011FB608D218D401A7C
:105A0000608594F8410022282068016803D041F4A1
:105A10008041016028E041F40041FAE740688001DC
:105A200017D505E05E0618D4460616D4608D20B161
:105A300040212046FFF7D0FC16E02068416889012C
:105A400012D4E16A914204D1416841F4804141603D
:105A50000AE02046FFF7FCFD06E09A0604D4800623
:105A600002D42046FFF77CFD002084F84050F8BDAA
:105A70000000FFFF2DE9F843044690F840004A4E2D
:105A800001281AD0CB43012584F84050DF064FF09F
:105A900000076FEA020013D4C20611D42168102057
:105AA000C861606C40F00400606420212046FFF76C
:105AB000F1FB2046FFF732FC71E00220BDE8F883DD
:105AC0009A0708D4820706D4206D4FF0FF31226870
:105AD0009062216563E01A064FF0FF054FF0807871
