:0200000490006A
:10000000E8190020390300900D4D00906503009021
:10001000B1020090C5090090096200900000000044
:100020000000000000000000000000009F5400904D
:10003000450D0090000000000F4D009001000000F1
:100040005703009057030090570300905703009008
:1000500057030090570300905703009057030090F8
:10006000570300905703009057030090510A0090E7
:10007000C50A0090D10A009057030090F90A009039
:10008000050B00905703009057030090ED0F009070
:10009000F90F00905703009057030090570300900A
:1000A000570300908D56009057030090570300901F
:1000B0005703009057030090570300905703009098
:1000C0005703009057030090570300909D530090F2
:1000D00057030090D561009057030090570300909C
:1000E0005703009057030090000000005703009052
:1000F0005703009057030090570300905703009058
:1001000057030090514F009099560090570300906C
:100110005703009057030090570300905703009037
:100120005703009057030090570300905703009027
:10013000570300905703009057030090051000905C
:1001400000000000000000000000000000000000AF
:1001500057030090570300905703009057030090F7
:1001600057030090570300905703009057030090E7
:1001700057030090570300905703009000000000C1
:1001800057030090570300905703009057030090C7
:1001900057030090570300905703009057030090B7
:1001A000B549009057030090110B00905703009041
:1001B0005703009057030090570300905703009097
:1001C0005703009057030090570300905703009087
:1001D0005703009057030090570300905703009077
:1001E0005703009057030090570300905703009067
:1001F0005703009057030090570300905703009057
:100200005703009057030090570300905703009046
:100210005703009057030090570300905703009036
:100220005703009057030090570300900000000010
:100230005703009057030090000000005703009000
:1002400057030090710900905703009057030090E6
:1002500057030090570300905703009057030090F6
:1002600057030090570300905703009057030090E6
:1002700057030090570300905703009000000000C0
:1002800057030090570300905703009000000000B0
:100290000000000057030090DFF810D000F0BCFA17
:1002A00000480047C9710090AFF30080E8190020B2
:1002B0001EF0040F0CBFEFF30880EFF3098004F089
:1002C00003BD00000246D2E84F0F411CC2E8431FA5
:1002D00003B1F8E77047024652E8000F411C42E8BC
:1002E000001303B1F8E77047024652E8000F42E8F6
:1002F000001303B1F9E77047024652E8000F83018B
:1003000003D3BFF32F8F0020704700F00040084355
:1003100042E8000303B1F0E77047024652E8000FDD
:10032000800103D2BFF32F8F0020704742E80013F3
:1003300003B1F3E70120704707488047074880472B
:1003400007480047FEE7FEE7FEE7FEE7FEE7FEE7B9
:10035000FEE7FEE7FEE7FEE7E90F00909555009007
:10036000990200901EF0040F0CBFEFF30880EFF32A
:10037000098004F07BBA00002DE9F05F05460020FB
:1003800092469B4688460646814640241BE0284606
:1003900041464746224600F077F853465A46C01A6F
:1003A000914110D311461846224600F05EF82D1AEE
:1003B00067EB01084F4622460120002100F055F866
:1003C00017EB00094E41201EA4F10104DFDC484672
:1003D00031462A464346BDE8F09F10B5431A934282
:1003E00009D28318881803E010F8011D03F8011DD5
:1003F000521EF9D210BD40EA01039B0703D009E069
:1004000008C9121F08C0042AFAD203E011F8013B00
:1004100000F8013B521EF9D210BDD2B201E000F843
:10042000012B491EFBD270470022F6E710B5134698
:100430000A4604461946FFF7F0FF204610BD30B5C6
:100440000B46014600202022012409E021FA02F592
:100450009D4205D303FA02F5491B04FA02F528442C
:10046000151EA2F10102F1DC30BD202A04DB203A86
:1004700000FA02F1002070479140C2F1200320FAF7
:1004800003F3194390407047202A04DB203A21FAF5
:1004900002F00021704721FA02F3D040C2F120029D
:1004A00091400843194670472DE9FE4F804681EA86
:1004B0000300C00F0C46009021F0004123F00045DE
:1004C000B8EB0200A94105D24046214690461C46A1
:1004D0000B46024623F00040104347D0270DC7F3D8
:1004E0000A00C3F30A510290401A019040286BDAC7
:1004F000C3F3130040F4801B0098924620B1002300
:10050000D2EB030A63EB0B0B01985946C0F1400292
:100510005046FFF7AAFF06460D4650465946019A37
:1005200000F08CF910EB08006141002487EA1152B9
:1005300084EAE7731A4340D0009A62B3019A012A11
:100540004FEA075215DC001B61EB02014FF000423D
:1005500002EA0752CDE90042001C41F58011324603
:100560002B4600F08CF903B0BDE8F08F40462146E1
:10057000F9E7001B61EB0201001C41F58013001834
:100580005B412018A2F5001747EB030140EAD57044
:10059000B6196D4111E06D084FEA360645EAC0759F
:1005A0004FEA0752001B61EB0201001C41F580116C
:1005B00049084FEA30000019514132462B4603B03A
:1005C000BDE8F04F00F04CB9009801224000002334
:1005D000D0EB020263EBE073009821464FEAE0742F
:1005E000B8EB000061EB0401E9E783F000435BE74F
:1005F00081F0004158E72DE9FE4F81EA030404F041
:10060000004421F0004100944FF0000B23F0004320
:1006100050EA01045ED052EA03045BD0C3F30A54EB
:10062000C1F30A552C44A4F2F3340194A0FB025404
:10063000C1F3130141F48011C3F3130343F4801396
:1006400001FB024400FB034E840A970A44EA8154EA
:1006500047EA8357A4FB076802958D0A05FB0785C7
:100660004FEA932C04FB0C542705029D4FEA0658D1
:1006700047EA1637B5EB08056EEB070C870E920EAE
:1006800047EA811742EA8312A7FB0201B6EB0B018E
:1006900064EB00042B0D43EA0C335E1844EB1C5052
:1006A000DA465146E7FB0201C5F313044FEA0B3368
:1006B00043EA14534FEA0432019C43EA0603A4F1CF
:1006C0000C040294009CCDE900B400F0D8F803B00B
:1006D000BDE8F08F00200146F9E72DE9F04D81EAF1
:1006E000030404F0004B21F0004514464FF0000ACB
:1006F00023F0004150EA050220D054EA01021DD047
:10070000C5F30A570246C5F31303C1F31300C1F33F
:100710000A5640F4801543F48013A7EB0608101B1B
:10072000D64608F2FD3873EB050002D308F1010844
:1007300001E092185B41B8F1000F03DA0020014696
:10074000BDE8F08D00204FF48011064684460EE08F
:10075000171B73EB050705D3121B63EB0503064359
:100760004CEA010C49084FEA300092185B4150EA0C
:100770000107EDD152EA030012D082EA040083EAB5
:100780000501084305D0101BAB4106D2012200230E
:1007900006E000224FF0004302E06FF00102531028
:1007A0001AEB06004CEB085110EB0A0041EB0B0171
:1007B000BDE8F04D00F054B8C1F30A52C1F3130183
:1007C00040F2FF3341F480119A4202DA00200146E0
:1007D000704740F233439A42A2F2334202DC524263
:1007E000FFF752BEFFF741BE30B5041E71F10004A1
:1007F00004DB4FF00044404264EB0101141E73F12E
:10080000000405DB1C464FF00043524263EB040337
:10081000994208BF904230BD064C074D06E0E068A3
:1008200040F0010394E8070098471034AC42F6D337
:10083000FFF736FDDC7400905C750090202A06DB23
:10084000CB17203A41FA02F043EAE07306E041FA9E
:1008500002F3D040C2F1200291400843194670478C
:1008600010B5141E73F1000408DA401C41F10001B8
:1008700092185B411A4301D120F0010010BD2DE90F
:10088000F04D92469B4611B1B1FA81F202E0B0FA06
:1008900080F220329046FFF7E8FD04460F4640EA1A
:1008A0000A0041EA0B0153465A46084313D0114649
:1008B00053EA010019D0C8F140025046FFF7E4FDA9
:1008C00005460E46504659464246FFF7CEFD0843C0
:1008D00005D0012004E020463946BDE8F08D002017
:1008E000054346EAE0762C4337430A986305E40A59
:1008F000A0EB08000022FD0A44EA47540A3002D562
:1009000000200146E9E7010510196941DDE90845C4
:1009100000196941BDE8F04DA2E770B58C1810F8D8
:10092000015B15F0070301D110F8013B2A1106D134
:1009300010F8012B03E010F8016B01F8016B5B1E4E
:10094000F9D12B0705D40023521E0DD401F8013B29
:10095000FAE710F8013BCB1A921C03E013F8015B95
:1009600001F8015B521EF9D5A142D8D3002070BD19
:10097000124B022130B5124A4FF400341D68181D85
:10098000AD0707D5C2E90441C2E90614056845F080
:10099000020505601D686D0707D511605160C2E949
:1009A0000214016841F0040101601968090703D5C8
:1009B000016841F00801016030BD00000054025898
:1009C00000000038FEE700001F4B0020F0B519685A
:1009D000890311D4BFF34F8FBFF36F8F1B4908609A
:1009E000BFF34F8FBFF36F8F196841F40031196067
:1009F000BFF34F8FBFF36F8F1968C90323D4124918
:100A000070310860BFF34F8F081F43F6FF74006812
:100A10000E4D1035C0F34E31C0F3C90204EA411641
:100A2000104600BF46EA80772F60401EFAD2491E6A
:100A3000F4D2BFF34F8F186840F480301860BFF3D2
:100A40004F8FBFF36F8FF0BD14ED00E050EF00E06B
:100A500070B51A4C1A4D2068800615D5A06840F074
:100A60002000A060A06840F01000A060287858B175
:100A7000002105F1E00006F0CFF900202870287869
:100A80006870281D03F06FFB2068C0060ED5A068B3
:100A900040F01000A06068782978884206D00848A5
:100AA0000021C03006F0B8F9287868702068000787
:100AB00003D5A06840F00800A06070BD00000240AF
:100AC000B8130030014800F0EBBB000040130030C9
:100AD0000748016889020AD58268012142F40012A0
:100AE0008260026C22F001020264024801707047C9
:100AF0000000024040150030014800F0D1BB00006A
:100B000050020030014800F0CBBB0000C8020030AA
:100B100004484168890704D5022181600122024806
:100B20000270704700100052381E0030294A0168D8
:100B300091423AD0274A1832914236D0254A303273
:100B4000914232D0234A483291422ED0214A60321B
:100B500091422AD01F4A7832914226D01D4A9032C3
:100B6000914222D01B4AA83291421ED01A4A914289
:100B70001BD0194A1832914217D0174A303291428D
:100B800013D0154A483291420FD0134A6032914235
:100B90000BD0114A7832914207D00F4A90329142DD
:100BA00003D00D4AA832914211D1CAB21823103A8B
:100BB000B2FBF3F26FF30901032A02F00703074ABD
:100BC000D25CC26500D9091D81650846704721F0D5
:100BD000FF01F9E710000240100402407074009019
:100BE00030B5224A012301689142CAB21BD01F4C82
:100BF0001434A14217D01D4C2834A14213D01B4CF1
:100C00003C34A1420FD0194C5034A1420BD0174CA8
:100C10006434A14207D0154C7834A14203D0134C60
:100C20008C34A1420CD11421114C083AB2FBF1F1E1
:100C30000F4A803201F01F0504EB8101AB4010E048
:100C40000C4D1824103A0D44B2FBF4F1A82D00D835
:100C50000831094A01F01F0402EB8101064AA34052
:100C60008032603080E80E0030BD00000854025829
:100C700000580258F0FBFDBF0008024010B5027991
:100C8000531E072B2DD8174C0168A1421BD0154CC1
:100C90001434A14217D0134C2834A14213D0114C64
:100CA0003C34A1420FD00F4C5034A1420BD00D4C1C
:100CB0006434A14207D00B4C7834A14203D0094CD4
:100CC0008C34A14203D10849074C443102E0074962
:100CD000064C443104EB8202C0E91B2101219940FA
:100CE000416710BD08540258FC580258FC080240E5
:100CF00010B583694FF0C074826A0146002053B179
:100D0000B3F5005F15D072B1012A0CD0022A0AD0C7
:100D1000032A09D104E01AB1012A06D0022A03D11C
:100D2000C96AC90100D5012010BDC96AA142FAD023
:100D300010BD002AF7D0012AF2D0022AF3D0032AEC
:100D4000F3D010BD704700002DE9F0410A4D05F1C8
:100D50001806AF6900F032F9044601463046FFF745
:100D6000C3FAB842F5D1844203D203481030FFF7EA
:100D7000B2FA2046BDE8F081C00900202DE9FF5FEE
:100D800093468A464FF08052994602EADA085100AB
:100D900001EA9B074800072500EA59061F48FFF7AC
:100DA0009AFA830900F03F021D484FF4700100EBEE
:100DB0000214009801EA0351084340EA080038434E
:100DC000304340F0406104F10C00FFF795FA410117
:100DD0001CD580F0044101F0004029F0004202439C
:100DE0002AF000452BF00043054325600343C4E986
:100DF000013204F10C00FFF790FA48B10748001DDA
:100E0000FFF769FA012004B0BDE8F09F6D1EC5D15F
:100E100002480830FFF75FFA0020F4E7C409002019
:100E2000400500202DE9F047FF29814601D2FF2A25
:100E300002D30020BDE8F087104D002420464FF07B
:100E4000010A56460AFA00F313EA090F0FD00B46BF
:100E5000B2460AE004EBD30603F00708AF5D0AFAD6
:100E600008FC47EA0C075B1CAF559342F2D9401CC3
:100E700020340428E5D30120DCE7000040090020ED
:100E80002DE9F0473C4C0025884681468021A4F19D
:100E900080002570FFF7C8FA384B4FF6FF70182214
:100EA00041F221074FEA0006082113F801CB80EA3E
:100EB0000C2000BF5FEA004C06EA400000D57840F5
:100EC000491EF7D1521EEFD12D4A0121236A9342C8
:100ED00001D0226202E06288824202D06080E16139
:100EE00037E0E069401CE061012832D0254B00204A
:100EF00003EB0011CA68560102D522F04062CA60B5
:100F0000401C4028F4D3E06901282BD000F05CF8A5
:100F10000646DEB1FE2248460021FFF783FFEF229E
:100F20000F201146FFF77EFFFE2204201146FFF737
:100F300079FFFFF709FFE269002301461248FFF736
:100F40001DFFB8F1000F01D000F022F83046BDE8D7
:100F5000F08765704FF480616560A5600948E560C1
:100F6000FFF762FA00F030F8061E00D00748C4E927
:100F700005052561CDE70000C0090020C47400907C
:100F80006B27A5E14005002000FF00030084D71770
:100F9000084810B5017809B1012010BD0121017088
:100FA000FFF7D2FE0023014603481A46FFF7E6FE8C
:100FB000F2E70000C009002001FF0003014840687B
:100FC00070470000001000E005490A68054842F03B
:100FD00080720A60016841F00101016001207047E0
:100FE000FCED00E0001000E070470000014800F058
:100FF000B5BE0000F4230030014800F0AFBE000091
:10100000E0240030044810B500F0A8FE0248BDE816
:101010001040EC3000F0A2BEF42300302DE9F05F68
:1010200028B190F83510022904D0802141650120B3
:10103000BDE8F09F904C904B0168183C18338E4AE5
:10104000DFF83C92A1428D4CDFF838E28E4FDFF89A
:101050003CB2DFF83CA28F4D8F4E31D091422FD061
:1010600099422DD0A1422BD0494529D0714527D096
:10107000B94225D0DFF810C20CF1180C61451FD021
:10108000DFF808C2ACF1600C614519D0DFF8FCC193
:10109000ACF1480C614513D0DFF8F0C1ACF1300C75
:1010A00061450DD0DFF8E4C1ACF1180C614507D003
:1010B000594505D0514503D0A94201D0B1422CD1A8
:1010C000DFF8B4C14FF0040880F83580ACF1180C9B
:1010D00061451DD091421BD0994219D0A14217D031
:1010E000494515D0714513D0B94211D06648183022
:1010F00081420DD065486038814209D06348483844
:10110000814205D061483038814201D05F481838AB
:10111000086820F001000860ABE0D1F800C02CF0B6
:101120000E08DFF854C1C1F80080ACF1180C01685A
:10113000614527D0914225D0994223D0A14221D0A8
:1011400049451FD071451DD0B9421BD0DFF838C1C9
:101150000CF1180C614515D0DFF830C1ACF1600C12
:1011600061450FD0DFF824C1ACF1480C614509D0CE
:10117000DFF818C1ACF1300C614503D0DFF80CC1C9
:10118000ACF1180CD1F800C02CF0010CC1F800C073
:10119000DFF8E4804FF0010C0168A8F11808414520
:1011A00046D0914244D0994242D0A14240D04945D4
:1011B0003ED071453CD0B9423AD0334A18329142C0
:1011C00036D0324A603A914232D0304A483A91425F
:1011D0002ED02E4A303A91422AD02C4A183A9142C7
:1011E00026D0594524D0514522D0A94220D0B14221
:1011F0001ED02A4A91421BD0284A1432914217D05D
:10120000264A2832914213D0244A3C3291420FD0D0
:10121000224A503291420BD0204A6432914207D088
:101220001E4A7832914203D01C4A8C32914218D126
:10123000016E0A6822F480720A6090F85C20816D69
:1012400002F01F020CFA02F24A60D0E919124A6059
:10125000C16E31B10A6822F480720A60D0E91C12B2
:101260004A600022016D80F835C080F8342001B159
:1012700088470020DCE600002800024058000240B9
:101280007000024088000240A0000240700402404A
:1012900088040240A0040240B804024008540258E6
:1012A0002DE9FC5F0446F74E0020DFF8D88300905C
:1012B0004FF41652F44808F11808A56DDFF8C493EE
:1012C000DFF8C0A3016809F1300920680AF1480A73
:1012D000B1FBF2F1B04201912F68D5F800C0DFF800
:1012E000ACB335D04146884232D0484530D0504525
:1012F0002ED058452CD0E5491831884228D0E349F2
:101300003031884224D0E1494831884220D0E04938
:1013100088421DD0DE491831884219D0DC4930316D
:10132000884215D0DA494831884211D0DFF860E3AD
:101330000EF1600E70450BD0D54A7832904207D03E
:10134000D34B9033984203D0D149A83188427DD104
:1013500094F85C20082102F01F0201FA02F23A42DE
:101360004AD0B04232D0404530D048452ED05045CA
:101370002CD058452AD0C54A1832904226D0C34AAC
:101380003032904222D0C14A483290421ED0C04AE8
:1013900090421BD0BE4A1832904217D0BC4A30321D
:1013A000904213D0BA4A483290420FD0B84A6032C5
:1013B00090420BD0B64A7832904207D0B44A90326D
:1013C000904203D0B24AA832904203D1026802F0A0
:1013D000040202E0026802F008026AB1026822F028
:1013E0000402026094F85C0000F01F008140A960D4
:1013F000606D40F00100606594F85C00012100F030
:101400001F008140394240D02068B04234D040456E
:1014100032D0484530D050452ED058452CD09B4A2C
:101420001832904228D0994A3032904224D0974ABC
:101430004832904220D0964A90421DD0944A1832A9
:10144000904219D0924A3032904200E0AFE113D07E
:101450008F4A483290420FD08D4A603290420BD072
:101460008B4A7832904207D0894A9032904203D01A
:10147000874AA83290427DD1406910F0800F04D095
:10148000A960606D40F00200606594F85C00042182
:1014900000F01F00814039423ED02068B04232D077
:1014A000404530D048452ED050452CD058452AD004
:1014B000764A1832904226D0744A3032904222D076
:1014C000724A483290421ED0714A90421BD0704AF4
:1014D0001832904217D06E4A3032904213D06C4A84
:1014E000483290420FD06A4A603290420BD0684A2C
:1014F0007832904207D0664A9032904203D0644AD4
:10150000A83290424ED1006810F0020F04D0A960BA
:10151000606D40F00400606594F85C00102100F0FC
:101520001F008140394258D02068B04234D0404535
:1015300032D0484530D050452ED058452CD0534A53
:101540001832904228D0514A3032904224D04F4A2B
:101550004832904220D04E4A90421DD04C4A183218
:10156000904219D04A4A3032904215D0484A483207
:10157000904200E014E00FD0454A603290420BD018
:10158000434A7832904207D0414A9032904203D089
:101590003F4AA832904207D1006800F0080006E0F8
:1015A000006872E70068B7E7006800F00400A0B1C7
:1015B000A96020680168490304D50068000308D5C4
:1015C000A16C07E00168C90503D4016821F0080196
:1015D0000160216C09B12046884794F85C00202105
:1015E00000F01F008140394279D02068B04232D0EB
:1015F000404530D048452ED050452CD058452AD0B3
:10160000224A1832904226D0204A3032904222D0CC
:101610001E4A483290421ED01D4A90421BD01C4A9E
:101620001832904217D01A4A3032904213D0184ADA
:10163000483290420FD0164A603290420BD0144A82
:101640007832904207D0124A9032904203D0104A2A
:10165000A832904203D1006800F0100002E0006858
:1016600000F00200B0B3A96094F8350004282068A7
:1016700001680FD049037ED5006800032BD4616C4C
:101680002AE0000010000240000400207000024028
:101690001004024021F0160101602068416921F028
:1016A00080014161206C08B9A06C20B120680168FC
:1016B00021F00801016094F85C303F21012003F023
:1016C0001F0300229940A96084F8350084F8342073
:1016D000216D65E003E0E16B09B120468847606D4C
:1016E00000287DD0606DC00759D02068042184F89F
:1016F0003510B0422BD0404529D0484527D0504521
:1017000025D0584523D09D49884220D09B49183187
:1017100088421CD099493031884218D09849884273
:1017200015D097491831884211D0954930318842F7
:101730000DD093494831884209D09149603188429F
:1017400005D08F497831884201D08D4990310168A8
:1017500021F00101016020680099019A491C009163
:10176000914202D80168C907F6D10068C00710D0BD
:1017700003200FE0FFE70168C905ACD4036801212D
:10178000002223F01003036084F8351084F834201D
:10179000A1E7012084F83500002084F83400E16CD2
:1017A00000291DD002B02046BDE8F05F084775490A
:1017B00088421DD073491431884219D071492831AB
:1017C000884215D06F493C31884211D06D49503163
:1017D00088420DD06B496431884209D0694900E0E4
:1017E00084E07831884203D066498C3188427DD1CB
:1017F00094F85C800427016808F01F0807FA08F7CE
:1018000017EA0C0F009746D04F0744D500980F04F5
:10181000686003D5C8033CD4A16CC1E7880638D4FE
:101820002068B0422DD055496039884229D04845BA
:1018300027D0504525D0584523D05049884220D044
:101840004E49183188421CD04C493031884218D05A
:101850004B49884215D04A491831884211D048492D
:10186000303188420DD046494831884209D0704510
:1018700007D0904205D0984203D04149A831884210
:1018800003D1016821F0080102E0016821F00401A0
:101890000160216C84E7022707FA08F717EA0C0FAA
:1018A00000974ED08F074CD500980F04686003D581
:1018B000C80344D4616C73E7880640D42068B04202
:1018C0002FD02E49603988422BD0484529D0504529
:1018D00027D0584525D02949884222D02749183198
:1018E00088421ED025493031884200E044E018D0BB
:1018F0002349884215D022491831884211D0204905
:10190000303188420DD01E494831884209D0704597
:1019100007D0904205D0984203D01949A831884297
:1019200003D1016821F0140102E0016821F00A01ED
:101930000160012184F83510002084F83400E16B47
:101940002EE7082202FA08F212EA0C0F14D0090757
:1019500012D5016821F00E01016094F85C1001209D
:10196000002201F01F0100FA01F16960606584F84E
:10197000350084F8342012E7BDE8FC9F880002405F
:1019800010040240085402582DE9F05F044600F0AC
:10199000ABFC002C07467DD0E34E022120684FF0BF
:1019A0000308DFF888934FF00005DFF884A3B04206
:1019B000DFF880B334D0DC4A1832904230D048454A
:1019C0002ED050452CD058452AD0DA4A18329042B1
:1019D00026D0D84A3032904222D0D64A483290425D
:1019E0001ED0D54A90421BD0D34A1832904217D00D
:1019F000D14A3032904213D0CF4A483290420FD071
:101A0000CD4A603290420BD0CB4A7832904207D018
:101A1000C94A9032904203D0C74AA83290427DD141
:101A200084F83510B04284F834502ED0BE491831B5
:101A300088422AD0484528D0504526D0584524D041
:101A4000BC491831884220D0BA49303188421CD074
:101A5000B8494831884218D0B749884215D0B649AC
:101A60001831884211D0B449303188420DD0B24982
:101A70004831884209D0B0496031884205D0AE492A
:101A80007831884201D0AC499031016821F00101E0
:101A9000016008E027E100BF00F026FCC01B05281C
:101AA00001D920211CE120680068C007F4D104F1AD
:101AB00008002168D4E9053C8E4685C809681043B2
:101AC000D4E907281F43636A38439C4F40EA0C005F
:101AD0001043394040EA0800042B40EA010003D1DA
:101AE000D4E90B1211430843954909686FF30F01BC
:101AF000B1F1005F0FD36168A1F12902052A08D96D
:101B0000163A032A05D9083A012A02D94F3903297E
:101B100001D840F48010CEF8000000E023E02068F7
:101B2000676A4069042F20F0070047EA00070DD1DB
:101B3000D4E90A01074349B12046FFF7D9F828B193
:101B400040206065012184F83510CCE020684761B1
:101B50002046FEF7EBFF94F85C203F2102F01F02C5
:101B60009140816054E0774A90421BD0754B14330A
:101B7000984217D0734B2833984213D0714B3C33A3
:101B800098420FD06F4B503398420BD06D4B64335B
:101B9000984207D06B4B7833984203D0694B8C3313
:101BA00098427DD184F8351084F83450664B016832
:101BB000A26801EA030E402A73D0802A72D0002264
:101BC000D4E90378D4E9053142EAD70242EAD808D9
:101BD0005C4AD4E9077C48EAD30848EAD10141EAE3
:101BE000D701524241EA1C11142341EA0E0101605F
:101BF00020681044B0FBF3F08000E0652046FEF75B
:101C000095FF94F85C20012102F01F029140416091
:101C10002068B04257D044491831884253D04845D3
:101C200051D050454FD058454DD042491831884287
:101C300049D040493031884245D03E4948318842F8
:101C400041D03D4988423ED03B49183188423AD084
:101C500039493031884236D037494831884232D00C
:101C60003549603188422ED03349783188422AD0B4
:101C700031499031884226D02F49A831884222D05C
:101C8000304988421FD02F49143188421BD02D493A
:101C90002831884217D02B493C31884213D002E0CA
:101CA0001DE017E018E02749503188420BD0254944
:101CB0006431884207D023497831884203D02149D2
:101CC0008C31884229D12046FEF78AFFA0688028FF
:101CD0000CD00CE0102273E74FF4804270E74021F3
:101CE000616584F835800120BDE8F09F6560216E54
:101CF00020790860D4E9190141606068401E072816
:101D000008D82046FEF7BAFFE06E0560D4E91C0152
:101D1000416002E0E566256765670120656584F836
:101D200035000020E0E700001000024040000240C3
:101D30005800024070000240100402403F8010FE34
:101D40000010005C085402580F00FEFF02480168B2
:101D500041F0010101607047200400582DE9FF5F48
:101D6000DFF834B304460BF10401DBF8000025680A
:101D70000F68AA468007D5F85090696DD5F8508055
:101D80006E6D2A6DD5F854C02B6D00EA87700090F7
:101D900009F470496F6D286D01EA09010191DAF8C3
:101DA0005410DAF85490DAF8505008F00F0806EAA8
:101DB0000806029602F0F00203F071536FEA09067A
:101DC0001F4000F060700CEA020CCDF80CC0F20568
:101DD00001EA00090DD4E843C0050AD400214FF4FC
:101DE0008073CAF85030CBF800102046D4F8C010E9
:101DF0008847700513D4E843400510D420680023B9
:101E00004FF48068D0F8DC20D0F8E410C0F850809F
:101E1000CBF800301140D4F8B82020469047DFF8C6
:101E20007CA2009858B12268830F00EA0A0010656E
:101E3000CBF800302046D4F8A020009990470198B4
:101E400058B12268830F00EA0A001065CBF8003011
:101E50002046D4F8A42001999047029858B12268EE
:101E6000830F00EA0A001065CBF800302046D4F852
:101E7000A82002999047039858B12268830F00EA7E
:101E80000A001065CBF800302046D4F8AC20039946
:101E9000904730050DD4E84300050AD4236800209C
:101EA0004FF400621A65CBF800002046D4F8B01059
:101EB0008847B00513D4E843800510D42068002378
:101EC0004FF40078D0F8D820D0F8E010C0F8508057
:101ED000CBF800301140D4F8B420204690473003AE
:101EE0000DD4E84300030AD4236800204FF40022F5
:101EF0001A65CBF800002046D4F8BC108847F003E0
:101F00000DD4E843C0030AD4236800204FF4803284
:101F10001A65CBF800002046D4F8C4108847700337
:101F20000DD4E84340030AD4236800204FF48022F4
:101F30001A65CBF800002046D4F8C8108847B003D3
:101F40000FD4E84380030CD4236800204FF4003200
:101F50001A65CBF80000D4F89C0040F08000C4F86B
:101F60009C00B9F1000F0CD022684FEA997309EA7E
:101F70000A001065CBF800304946D4F8D02020463E
:101F800090475FB12268BB0F07EA0A001065CBF8E3
:101F90000030D4F89C003843C4F89C0040492068C5
:101FA00088426CD1606881468068800767D0D9F824
:101FB0002060D9F82410D9F82080D9F82420D9F845
:101FC00020C0D9F82470D9F82030D9F82450D9F895
:101FD000200003F4FC4306F00F0AD9F824601D40EA
:101FE00011EA0A01D9F824A008F030080CF4C07CEA
:101FF00000F4F02002EA080807EA0C0706EA0006E7
:10200000D9F820B005D0C9F820102046D4F8D42043
:102010009047B8F1000006D0616808624146D4F8E4
:10202000D820204690476FEA0A0040060FD46FEA96
:102030000B0040060BD460684021C36BC26B016289
:102040002046190CD4F8DC3002F03F02984737B133
:10205000606807623946D4F8E0202046904735B1E1
:1020600060680562D4F89C002843C4F89C0036B12F
:1020700060680662D4F89C003043C4F89C00D4F831
:102080009C00002806D0D4F8CC1004B02046BDE84F
:10209000F05F0847BDE8FF9F10A80040FFFFCF3F5B
:1020A00000A000402DE9F84F03247D4D00234FF0A0
:1020B00001094FF0B04B4FF00F0AE9E009FA03F7BE
:1020C0003A4076D00E7906F00306012E01D0022E9A
:1020D00018D1D0F808C04FEA430ECE6804FA0EF8C3
:1020E0002CEA080C06FA0EF646EA0C068660D0F8D2
:1020F00004C00E792CEA070CC6F300169E4046EA8F
:102100000C0646600E79F643B6070BD0C6684FEA58
:1021100043088F6804FA08FC26EA0C0607FA08F759
:102120003743C7600E7906F00306022E12D1DE088F
:102130000F694FEA437C00EB8606B646366A4FEAE3
:10214000DC6C0AFA0CF807FA0CF726EA08063743A3
:10215000CEF820700F7906684FEA430807F00307AE
:1021600004FA08FC07FA08F726EA0C06374307606A
:102170004E6816F4403F1CD04A4E376847F00207BD
:10218000376036689F0706F00206009623F00306C4
:1021900006F1B046B6463F0FD6F80864DFF808816E
:1021A0000AFA07FC404526EA0C0603D14FF0000C62
:1021B00041E06CE0DFF8F4C0604502D14FF0010C63
:1021C00039E0DFF8ECC0604502D14FF0020C32E09C
:1021D000DFF8E0C0604502D14FF0030C2BE0DFF8E0
:1021E000D8C0604502D14FF0040C24E0DFF8CCC029
:1021F000604502D14FF0050C1DE0DFF8C4C060451A
:1022000002D14FF0060C16E0DFF8B8C0604502D1ED
:102210004FF0070C0FE0DFF8B0C0604502D14FF07F
:10222000080C08E0DFF8A4C0604502D14FF0090CAB
:1022300001E04FF00A0C0CFA07FC4CEA060CCEF851
:1022400008C44F68DBF80060FF0226EA020600D5EA
:1022500016435F46CBF80060D1F804C0DBF8046099
:102260005FEA8C2C26EA020600D516437E606E6873
:102270004F6826EA0206BF0300D516436E602E683B
:102280004F6826EA0206FF0300D516432E605B1C4A
:102290000A6832FA03F67FF411AFBDE8F88F000048
:1022A00080000058F444025800000258000402580C
:1022B00000080258000C025800100258001402587E
:1022C00000180258001C025800200258002402582E
:1022D0000AB1816170470904FBE70000014800680A
:1022E000000C70470010005C0148806870470000D7
:1022F0000804002002488168027811448160704718
:1023000008040020032010B500F0D6F901F086F98A
:102310000F4A104914681368C4F3032203F00F0333
:102320008A5CC95C02F01F0201F01F01D0400A4A1A
:1023300020FA01F11160094908600F2000F010F83F
:1023400008B1012010BD00F089F9002010BD000087
:102350001844025860740090040400200004002017
:1023600070B50D4D04462878A0B14FF47A71B1FBD9
:10237000F0F00A490968B1FBF0F001F0DDFE48B960
:10238000102C07D200222146501E00F075F90020C3
:102390006C6070BD012070BD0804002000040020A6
:1023A0002DE9F041044690F8A00016460F4601289A
:1023B0001DD0012584F8A050022084F8A10006EB6E
:1023C000860000EBC600342204EB80003830FEF7B4
:1023D00004F832463946204602F0F2FA216800201D
:1023E0004D6284F8A15084F8A000BDE8F08102207D
:1023F000FBE770472DE9F0410446006800274FF0E5
:102400000408856B466B690716D5710714D5426BB6
:1024100022F0040242632068C0F83C80D4F8A40093
:1024200040F00100C4F8A40084F8A180204684F89C
:10243000A070D4F8B0108847A80717D5B00715D5F5
:1024400020680222436B23F0020343632068C263C7
:10245000D4F8A40040F00200C4F8A40084F8A180DD
:10246000204684F8A070D4F8B010884705EA06002A
:102470004FF00108C0070FD021684A6B22F001021B
:102480004A632168C1F83C8084F8A180204684F822
:10249000A070D4F8A8108847280713D5300711D5A5
:1024A00020680822436B23F0080343632068C2635B
:1024B00084F8A180204684F8A070D4F8AC10BDE860
:1024C000F0410847BDE8F0812DE9F041040004D057
:1024D00094F8A100002518B116E00120BDE8F081B4
:1024E0003149D4F8B400C4F8A810304984F8A05099
:1024F000C4F8AC102E49C4F8B01010B92D48C4F877
:10250000B400014620468847022084F8A1002068D4
:102510000123816921F070418161D4E90010D4E97F
:1025200002722669384332438E6910433043886112
:102530002268A08AA16941EA004191602268A08BCB
:10254000216A41EA0041D1602268A08CA16A41EA77
:10255000004111612268A08D216B41EA0041516167
:10256000226894F8351094F83600D66A000406F014
:102570007F46D662226840EA012094F83460D16A2E
:1025800031430143D1622068416B41F00601416350
:102590002068816941F001018161C4F8A45084F888
:1025A000A13000209AE70000B9250090BD250090D9
:1025B000F3230090BB2500907047704770470000E0
:1025C000154BF0B5083B427813491A600B680A1F97
:1025D00023F001030B6043681360057BC67A827A9F
:1025E000437B2D07847B45EA0665C77B90F809C0CD
:1025F000067A90F800E045EAC24040EA834040EAAB
:10260000444040EA074040EA0C2040EA460040EAE5
:102610000E000860F0BD0000A0ED00E0BFF35F8F8A
:10262000044800210368034A23F4803303607032B6
:102630001160704724ED00E0074A40F001000649B0
:1026400070321060086840F480300860BFF34F8F2C
:10265000BFF36F8F7047000024ED00E07047002843
:1026600009DB410900F01F028900012001F1E0218E
:102670009040C1F8000170470E4BF0B41B680D4646
:10268000C3F30223C3F10706042E00D90426191D43
:10269000072901D2002300E0DB1E012404FA06F121
:1026A0009C40491E2940641E994014402143F0BCBF
:1026B00003F042BF0CED00E0064900F0070210B540
:1026C0004FF6FF040868044B204040EA02201843FC
:1026D000086010BD0CED00E00000FA0510B500F038
:1026E00057FF05490968054AC1F30211515C01F021
:1026F0001F01C84010BD00002044025860740090C3
:10270000494930B5484C0B1D0A68143409681D68E6
:10271000246802F00303C5F30012C1F30531C4F3CA
:10272000CC04002914FB02F200EE102AF8EE400A55
:1027300075D03F4A9FED3D1AB7EE000A6BB1DFED51
:102740003D1A012B01D0022B64D002EE101A116841
:10275000F8EE422A81EEA22A21E0334C283C23687D
:102760009B0612D5344B246801EE901A1168C4F30D
:10277000C104F8EE612AE34001EE903AC1F308018A
:10278000F8EE611A81EEA22A0BE001EE901ADFED5D
:102790002B2A00BFF8EE611A116882EEA12AC1F35C
:1027A000080101EE901A1168F8EE611A40EE811AE4
:1027B00071EE800A62EE200AC1F3462101EE101A82
:1027C000B8EE411A31EE001AC0EE811ABCEEE11AE1
:1027D00080ED001A1168C1F3064101EE101AB8EE3F
:1027E000411A31EE001AC0EE811ABCEEE11A80EDFA
:1027F000011A1168C1F3066101EE101AB8EE411A10
:1028000031EE000A80EE801ABCEEC10A80ED020AA9
:1028100030BD04E001EE901ADFED092ABAE700218D
:10282000016041608160F3E72844025800000039EC
:10283000384402580024744A0090D0030024744C99
:1028400020BCBE4B494930B5484C0B1D0A681C34AE
:1028500009681D68246802F00303C5F30022C1F370
:102860000551C4F3CC04002914FB02F200EE102A37
:10287000F8EE400A75D03F4A9FED3D1AB7EE000AC8
:102880006BB1DFED3D1A012B01D0022B64D002EEBB
:10289000101A1168F8EE422A81EEA22A21E0334C88
:1028A000283C23689B0612D5344B246801EE901A0D
:1028B0001168C4F3C104F8EE612AE34001EE903AD6
:1028C000C1F30801F8EE611A81EEA22A0BE001EED5
:1028D000901ADFED2B2A00BFF8EE611A116882EE24
:1028E000A12AC1F3080101EE901A1168F8EE611AED
:1028F00040EE811A71EE800A62EE200AC1F3462191
:1029000001EE101AB8EE411A31EE001AC0EE811A2B
:10291000BCEEE11A80ED001A1168C1F3064101EE28
:10292000101AB8EE411A31EE001AC0EE811ABCEE50
:10293000E11A80ED011A1168C1F3066101EE101A67
:10294000B8EE411A31EE000A80EE801ABCEEC10AE0
:1029500080ED020A30BD04E001EE901ADFED092A95
:10296000BAE70021016041608160F3E72844025822
:1029700000000039404402580024744A0090D003FB
:102980000024744C20BCBE4B2DE9FE4F0546DFF8F9
:10299000E48350F8081B0024F64FC943019005F169
:1029A0002800264608F12408009008011DD4A86ECE
:1029B00050B1B0F5801F0CD0B0F5001F0ED0B0F5AF
:1029C000401F1ED001240FE0386840F4003038600A
:1029D00017E00198022102F09BF903E00098022120
:1029E00002F026FA04000CD026462888C043C00511
:1029F00023D4A86D05281ED2DFE800F00C11161BA9
:102A00001B00AA6ED8F8001021F440111143C8F839
:102A10000010EAE7386840F40030386009E00198B7
:102A2000002102F075F903E00098002102F000FA9D
:102A3000044674B100E0012426462888C04380057E
:102A400028D4E86D80281ED00CDC90B140280ED12F
:102A500014E0AA6DD8F8001021F007011143C8F85E
:102A60000010EAE7C02813D0B0F5807F10D0012411
:102A70000FE0386840F40030386009E00198002128
:102A800002F046F903E00098002102F0D1F9044673
:102A90009CB126462888DFF8DC92C04309F12C0956
:102AA00040052CD4D5F8A800B0F5800F20D00DDC5F
:102AB000A0B1B0F5001F0FD115E0EA6DD8F80010F5
:102AC00021F4E0711143C8F80010E3E7B0F5C00F3E
:102AD00013D0B0F5000F10D001240FE0386840F497
:102AE0000030386009E00198002102F011F903E09C
:102AF0000098002102F09CF904467CB12646288803
:102B0000C04300052DD4D5F8AC00B0F1007F21D032
:102B10000EDCA8B1B0F1807F10D116E0D5F8A82066
:102B2000D9F8001021F460011143C9F80010E6E75C
:102B3000B0F1407F13D0B0F1806F10D001240FE0CE
:102B4000386840F40030386009E00198002102F054
:102B5000DFF803E00098002102F06AF9044674B13E
:102B600026462868C04380011FD4E86CD8B11028DD
:102B70000FD0202812D0302815D0012414E0D5F829
:102B8000AC20D9F8001021F0E0611143C9F8001021
:102B9000E7E7386840F40030386004E0019802212B
:102BA00002F0B6F8044674B126462888C043C00433
:102BB0002BD4286EB0F5005F20D00DDCA0B1B0F5AD
:102BC000805F0FD115E06B48EA6C2030016821F07E
:102BD000300111430160E8E7B0F5405F13D0B0F574
:102BE000804F10D001240FE0386840F40030386086
:102BF00009E00198002102F08BF803E00098002121
:102C000002F016F904468CB126462888C043800499
:102C100029D4686EB0F5403F23D010DC08B3B0F57E
:102C2000803F14D0B0F5003F0FD115E02A6ED8F8E0
:102C3000001021F4E0411143C8F80010E5E7B0F5B9
:102C4000802F0ED0B0F5A02F0BD001240AE0019800
:102C5000012102F05DF803E00098012102F0E8F89C
:102C6000044694B126462888C04340042AD4D5F8A7
:102C7000B000B0F1405F23D010DC08B3B0F1805F4A
:102C800014D0B0F1005F0FD115E06A6ED8F80010D3
:102C900021F4E0211143C8F80010E4E7B0F1804FBF
:102CA0000ED0B0F1A04F0BD001240AE00198012111
:102CB00002F02EF803E00098012102F0B9F8044672
:102CC00074B126462888C04300041FD4286FD8B1A9
:102CD000B0F1805F0ED0B0F1005F10D0012414E09D
:102CE000D5F8B020D9F8001021F0E0411143C9F81F
:102CF0000010E7E7386840F40030386004E00198DD
:102D0000012102F005F8044674B126462868C04344
:102D1000C0011ED4A86CD0B101280ED0022811D059
:102D2000032814D0012413E02A6FD8F8001021F0F2
:102D300040511143C8F80010E8E7386840F400300B
:102D4000386004E00198022101F0E2FF0446ACB1D2
:102D500026462868DFF81CB0C043ABF11C0B4002CC
:102D600052D40548016841F480710160FFF7BCFA54
:102D7000824611E02C44025800480258FA48AA6CD6
:102D8000016821F0030111430160E2E7FFF7ACFAAB
:102D9000A0EB0A00642835D8F4480068C005F5D5D2
:102DA0008CBBDFF8C4A3B5F8B4100AF1240ADAF832
:102DB000000001F4407100F44070884211D0DAF84C
:102DC0000010DAF8002021F4407142F48032CAF891
:102DD0000020DAF8002022F48032CAF80020CAF875
:102DE0000010D5F8B400B0F5807F1AD1FFF77CFA57
:102DF000029012E0FFF778FA0299411A41F2883006
:102E000081420AD9032426462878DFF85CA3C04310
:102E10000AF1080AC00721D03CE0DAF80000800778
:102E2000E8D5D5F8B410C1F30120032858460DD0D9
:102E3000016821F47C510160B5F8B420DAF8001083
:102E4000C2F30B021143CAF80010DDE7C84A036859
:102E500002EA111223F47C511143ECE7E86F1828C1
:102E600016D005DCA0B1082808D0102804D10AE04B
:102E700020280DD028280BD001240AE00198012138
:102E800001F046FF03E00098012101F0D1FF044664
:102E900064B126462878C04380071ED4A86F062850
:102EA00019D2DFE800F0160C11161616EA6FDAF8E0
:102EB000001021F038011143CAF80010EAE7019828
:102EC000012101F025FF03E00098012101F0B0FF8E
:102ED00004467CB100E0012426462878C043400720
:102EE0001FD4D5F89400062819D2DFE800F0160C9C
:102EF00011161616AA6FDAF8001021F00701114317
:102F0000CAF80010E9E70198012101F001FF03E090
:102F10000098012101F08CFF0446A4B100E00124D7
:102F200026462878C04380062BD4D5F89000B0F10F
:102F3000405F24D011DC10B3B0F1805F15D0B0F148
:102F4000005F10D116E0D5F89420D9F8001021F0D8
:102F500007011143C9F80010E3E7B0F1804F0ED02C
:102F6000B0F1A04F0BD001240AE00198002101F03C
:102F7000CFFE03E00098022101F05AFF044694B10D
:102F800026462878C04340062BD4D5F89C00B0F5DF
:102F9000406F24D011DC10B3B0F5806F15D0B0F5C0
:102FA000006F10D116E0D5F89020DAF8001021F06B
:102FB000E0411143CAF80010E3E7B0F5805F0ED09E
:102FC000B0F5A05F0BD001240AE00198002101F0C8
:102FD0009FFE03E00098022101F02AFF044694B10D
:102FE00026462878C04300062BD4D5F8A000B0F5BB
:102FF000C04F24D011DC10B3B0F5005F15D0B0F590
:10300000804F10D116E0D5F89C20D9F8001021F49B
:10301000E0511143C9F80010E3E7B0F5004F0ED0BE
:10302000B0F5204F0BD001240AE00198002101F0F7
:103030006FFE03E00098022101F0FAFE044654B14D
:1030400026462878C04300071ED4D5F88400B0F582
:10305000805F0AD00FE0D5F8A020D9F8001021F445
:1030600060411143C9F80010EBE70098022101F01C
:10307000DFFE00B10126D5F88420DAF8001021F433
:1030800040511143CAF800102878C043C00613D439
:10309000D5F89800B0F5807F05D10098022101F0A5
:1030A000C7FE00B10126D5F89820D9F8001021F408
:1030B00040711143C9F800102868C043000316D4BA
:1030C000D5F8A40038B1B0F5803F09D0B0F5003F85
:1030D0000BD001240AE00198002101F019FE03E061
:1030E0000098022101F0A4FE04468CB1264628680F
:1030F000C043400322D4D5F88800B0F5801F11D01A
:10310000B0F5001F13D0B0F5401F15D0012414E016
:10311000D5F8A420D9F8001021F440311143C9F8A2
:103120000010E4E7386840F40030386004E00098AC
:10313000012101F07DFE04465CB126462868C043AB
:10314000C00323D4286DA8B1B0F5803F17D0012467
:103150001BE0D5F88820DAF8001021F44011114363
:10316000CAF80010EAE700004C4402580048025830
:10317000CFFFFF00386840F40030386004E0019869
:10318000022101F0C5FD0446E4B126462868C0438B
:10319000800005D40098022101F04AFE00B101260A
:1031A0002868C04380031BD4D5F88000B0B1B0F5C7
:1031B000807F0FD0B0F5007F10D0B0F5407F0DD0EC
:1031C00001240CE05A482A6D016821F48031114332
:1031D0000160DBE7386840F400303860ECB3264625
:1031E0002868C043C00207D46A6FD8F8001021F0E5
:1031F00000411143C8F800102868C043C00008D43B
:10320000D5F8B820DBF8001021F480411143CBF849
:1032100000102868C043800207D4EA6ED8F8001076
:1032200021F080711143C8F800102868C0434000A5
:103230000CD4DBF8001021F40041CBF80010DBF8CF
:103240000010D5F8BC201143CBF800102868C0430B
:1032500008D437486A6D016800E018E021F0405159
:10326000114301602868C043000208D4D5F88C20BF
:10327000DAF8001021F440011143CAF8001028794F
:103280000024C04300F0010020430AD00FE0D5F82D
:103290008020DAF8001021F440711143CAF80010C0
:1032A0009EE70198002101F033FD00B10646287920
:1032B000C04300F00200204305D10198012101F034
:1032C00027FD00B106462879C04300F004002043E2
:1032D00005D10198022101F01BFD00B106462879B5
:1032E000C04300F00800204305D10098002101F000
:1032F0009FFD00B106462879C04300F0100020432E
:1033000005D10098012101F093FD00B1064628790E
:10331000C04300F02000044304D10098022101F0D2
:1033200087FD00B916B10120BDE8FE8F0020FBE744
:103330004C4402582DE9F05F04000F467ED0DFF8C0
:103340003882D8F8000000F00F00B8420CD2D8F84C
:10335000001021F00F013943C8F80010D8F8000020
:1033600000F00F00B84269D12078844D40070AD59B
:103370002069296801F07001884204D9296821F088
:1033800070010143296020787C4E361D00070AD564
:103390006069316801F07001884204D9316821F018
:1033A0007001014331602078C0060AD5A0693168F8
:1033B00001F4E061884204D9316821F4E0610143FD
:1033C00031602078DFF8B4B180060BF1080B0CD522
:1033D000E1695846DBF8002002F07002914204D9FE
:1033E000026822F070020A430260207880070AD542
:1033F000E068296801F00F01884204D9296821F0AA
:103400000F01014329602078C0073ED05B49A268C4
:103410002868183920F4706010432860606802281A
:1034200018D0032819D00968012819D049070029A4
:103430004ADADFF848A1AAF1080A00E044E0DAF825
:10344000002022F007020243CAF80020FEF74CFFDA
:10345000814612E009688903E9E709688901E6E71E
:10346000C905E4E7FEF740FFA0EB090141F288300F
:10347000814202D90320BDE8F09F6168DAF80000BC
:1034800000F03800B0EBC10FECD1207880070AD5EE
:10349000E068296801F00F01884204D2296821F010
:1034A0000F0101432960D8F80010404601F00F01D8
:1034B000B9420BD9016821F00F013943016000685E
:1034C00000F00F00B84201D00120D4E72078400777
:1034D0000AD52069296801F07001884204D2296860
:1034E00021F0700101432960207800070AD5606946
:1034F000316801F07001884204D2316821F0700116
:10350000014331602078C0060AD5A069316801F412
:10351000E061884204D2316821F4E0610143316006
:10352000207880060CD5E1695846DBF8002002F0CF
:103530007002914204D2026822F070020A430260D3
:1035400000F06CF80E492A682B68C2F3032203F0DE
:103550000F038A5CC95C02F01F0201F01F01D0401A
:10356000084A20FA01F1116007490860074800681D
:10357000BDE8F05FFEF7F4BE002000521844025888
:103580006074009004040020000400200C0400205B
:1035900030B500F043F80B4A0B490C4B1568146822
:1035A000C5F3032204F00F048A5C095D02F01F02D8
:1035B00001F01F01D040064A20FA01F119601060A5
:1035C000084630BD1844025860740090040400207E
:1035D0000004002000B5FFF7DBFF05490968054A34
:1035E000C1F30211515C01F01F01C84000BD000091
:1035F0001C4402586074009000B5FFF7C9FF0549EC
:103600000968054AC1F30221515C01F01F01C8405D
:1036100000BD00001C44025860740090454970B51C
:1036200045480968434B103B11F0380208D001119E
:10363000082A03D0102A0BD0182A0BD0084670BDD8
:1036400019688906FBD51968C1F3C101C84070BD6E
:103650003A4870BD3749374D18310C1D24350A687A
:10366000096826682D6802F0030406F00102C1F320
:103670000511C5F3CC0515FB02F200EE102AB8EED9
:10368000400AE9B32F4ADFED2E0AB7EE001A6CB1FB
:10369000DFED2D1A012C01D0022C43D002EE101ABE
:1036A0001068F8EE422A81EEA22A1EE01C68A406E9
:1036B00011D51B6801EE901A1168C3F3C103F8EE2F
:1036C000612AD84001EE900AC1F30800F8EE611AB1
:1036D00081EEA22A0BE001EE901ADFED1C2A00BF5A
:1036E000F8EE611A106882EEA12AC0F3080001EE1C
:1036F000900AF8EE611A40EE201A31EE810A00E0DD
:1037000015E022EE000A1068C0F34620401C00EECF
:10371000900AF8EE600A80EE201ABCEEC10A10EEA4
:10372000100A70BD01EE901ADFED092AD8E70020DB
:1037300070BD0000104402580090D00340787D0115
:1037400000000039304402580024744A0024744CAC
:1037500020BCBE4B2DE9F05F04007DD0FF4F2078E8
:10376000FE4D1837DFF8F493103DC00748D0D9F864
:103770000000396800F03800102815D0182803D14F
:1037800001F0030002280FD06068B0F5803F12D02E
:1037900010B1B0F5A02F18D0286820F48030286030
:1037A000286820F4802009E02868800328D5606814
:1037B0000028D2D024E0286840F480302860606877
:1037C00088B1FEF791FD064609E0286840F48020A4
:1037D0002860F0E7FEF788FD801B64286FD8286812
:1037E0008003F7D50CE0FEF77FFD064605E000BF3D
:1037F000FEF77AFD801B6428F0D828688003F7D490
:10380000207841F20308D54E0C3E800769D5D9F8DF
:103810000000396810F038000ED0182801D1880750
:103820000AD0E06890B3296821F0190101432960AA
:10383000FEF75AFD824631E02868400702D5E0686D
:1038400000288AD0E168286820F019000843286021
:10385000FEF74AFD824607E0DFE000BFFEF744FDC9
:10386000A0EB0A000228B9D828684007F6D500BFA7
:10387000FEF734FD40451BD82069402812D031683E
:1038800021F47C3141EA003030602AE018E000BFCA
:10389000FEF72AFDA0EB0A0002289FD828684007FF
:1038A000F6D5E5E7306820F47C3040F40030EBE7F3
:1038B000207C316821F0FE4141EA0060E4E70DE13F
:1038C000286820F001002860FEF70EFD824605E022
:1038D000FEF70AFDA0EB0A0002288DD828684007F1
:1038E000F6D42078C0065DD5D9F80000DFF86CB2B8
:1038F000396800F03800ABF1040B082810D0182804
:1039000003D101F0030001280AD0E06900282868EB
:1039100038D040F080002860FEF7E6FC824623E0C5
:103920002868C00523D5E069802876D11FE0206A89
:10393000202821D0316821F0F84141EA80603060D0
:1039400030E000BF94F82010DBF8002022F07C5219
:1039500042EA0161CBF8001024E000BFFEF7C4FC8E
:10396000A0EB0A00022898D82868C005F6D5FEF713
:10397000B5FC4045E6D8DAE7306820F0F84040F082
:103980008040DCE720F080002860FEF7ADFC0646B2
:1039900005E000BFFEF7A8FC801B02289DD8286820
:1039A000C005F7D42078000729D56C4861696430D8
:1039B00000298046016811D041F001010160FEF745
:1039C00093FC064605E000BFFEF78EFC801B022834
:1039D000C9D8D8F800008007F6D510E021F0010121
:1039E0000160FEF781FC064605E000BFFEF77CFCA7
:1039F000801B022872D8D8F800008007F6D42078FF
:103A0000800623D5A0690028286810D040F4805093
:103A10002860FEF769FC064605E036E1FEF764FC27
:103A2000801B02285AD828688004F7D50EE020F4BD
:103A300080502860FEF758FC064604E0FEF754FC70
:103A4000801B02284AD828688004F7D420784007D1
:103A50004FD5DFF80C81D8F8001041F48071C8F818
:103A60000010FEF741FC064605E000BFFEF73CFCF7
:103A7000801B642832D8D8F80000C005F6D5374E30
:103A8000A068603601280AD008B1052813D0306834
:103A900020F001003060306820F0040002E030685F
:103AA00040F001003060A06841F2883A90B1FEF722
:103AB0001BFC80460AE0306840F004003060EEE70E
:103AC000FEF712FCA0EB0801514507D830688007CB
:103AD000F6D50EE0FEF708FC804607E084E000BF64
:103AE000FEF702FCA0EB080151457DD83068800745
:103AF000F6D4606AB0B3DFF86480D9F8001008F13A
:103B000020084FF6F87B08F10409C1F3C20103292C
:103B1000A8F1040A69D00228286820F08070286083
:103B200003D0FEF7E1FB044684E0FEF7DDFB06462A
:103B300005E000BFFEF7D8FB801B022877D8286875
:103B40008001F7D4E26A40F2F331386854F8283F34
:103B5000884340EA02101843386004E010440258D9
:103B600000480258B5E0217B434622894FF4FE0C01
:103B7000208A4FF0FE474902267D521E401EA1F5C5
:103B80000071C2F308088AB2761E0CEA004042EACD
:103B900008020243504607EA06610A431A60DAF84F
:103BA000002022F00102CAF80020D9F80020266A7D
:103BB00022EA0B0242EAC602C9F80020DAF8001035
:103BC000A26921F00C011143CAF800100168E269F2
:103BD00021F0020111430160016841F4803101606C
:103BE000016841F4003101E021E027E00160016853
:103BF00041F480210160016841F001010160286801
:103C000040F080702860FEF76FFB044605E000BFBF
:103C1000FEF76AFB001B022809D828688001F7D547
:103C200057E000BFFEF760FB001B022802D903200B
:103C3000BDE8F09F28688001F4D44AE03968012883
:103C4000D8F8000021D0A26A01F0030393421CD1EE
:103C5000E26AC1F305118A4217D1216BC0F3080251
:103C6000491E8A4211D1616BC0F34622491E91421E
:103C70000BD1A16BC0F30642491E914205D1E16B05
:103C8000C0F30660491E814201D00120D0E7A16C3B
:103C90004E46D9F80000C0F3CC00814219D0DAF8C2
:103CA0000000554620F00100CAF80000FEF71CFB9A
:103CB0004FEA0007FEF718FBB842FBD0A26C306851
:103CC00020EA0B0040EAC2003060286840F00100A2
:103CD00028600020ACE700002DE9F84304460068A6
:103CE000E56A416B09041BD5290719D5D4E90950A8
:103CF000202813D30026206801F0EFF9020A28706B
:103D0000010C6A70030EA970761CEB70082E05F189
:103D10000405F0D3A06A2038C4E90950BDE8F8834F
:103D2000416B0127DFF8EC810026C90551D5390226
:103D30004CF23A12816329072068C16B21EA020123
:103D4000C1632068C16B21F08051C1632068C168E4
:103D500021F04001C1601AD515F0220F0AD0206869
:103D600001F0FCF830B1616B01436163D4F8841059
:103D7000204688472168AA07C1F8388084F8307047
:103D8000E66202D0D4F88010BFE0E16FBDE0280603
:103D9000C4D5206815F0220F86622068C6622068AC
:103DA00006650AD0206801F0D9F830B1616B014393
:103DB0006163D4F884102046884715F0300F84F8EA
:103DC0003070E66202D0E16F20468847A807D9D15B
:103DD000A4E7416B490421D529071FD5D4E9075031
:103DE00020289BD3002628780090697840EA01209B
:103DF0000090A97840EA01400090E9782D1D40EA42
:103E0000016000902068694601F07EF9761C082E5A
:103E1000E9D3206A2038C4E907507FE7416B11F0ED
:103E20003A0F416B57D0890703D5616B41F002010E
:103E30006163416B090703D5616B41F00801616360
:103E4000416B890603D5616B41F020016163416BD1
:103E5000C90603D5616B41F010016163C0F8388079
:103E60002068C16B21F49D71C1632068C16821F095
:103E70004001C1602068C16A41F40051C1622068FC
:103E8000C16841F08001C160206801F067F8626B91
:103E90002B074FF4006140EA020060632068C268AB
:103EA00022F08002C2602068816303D584F83070FC
:103EB000E6620DE028068BD5606B002888D020686C
:103EC000C16B21F08051C1632068066584F83070B1
:103ED000D4F8841019E0C9009FD54FF08051816358
:103EE0002068006D40074FEA856007D4002802DA99
:103EF000D4F8981009E0D4F8901006E0002802DA0F
:103F0000D4F8941001E0D4F88C1001B02046BDE83C
:103F1000F04308473A0F00182DE9F04704460068BF
:103F2000002103694269876894F8816000F13009D3
:103F30005FEA025C03EA020508D51A0706D5816923
:103F400041F400618161D4F8A8107AE015F0600FA7
:103F500008D1680706D5616F20468847216F204643
:103F60008847012105F04100012805D1680703D4E5
:103F7000216F20468847012105F02200022803D145
:103F8000680701D4616F5CE000297DD128074FF0FC
:103F900001085AD52068816941F0080181612068D3
:103FA000816941F0100181612068816941F40061FB
:103FB00081612068016921F0080101612068806841
:103FC00010F4404F20D023E0E0680F2806D9216884
:103FD000606E096B0160606E001D0FE0072806D956
:103FE000B9F80000616E0880606E801C06E02068F1
:103FF000616E90F830000870606E401C6066B4F826
:104000006A00401EA4F86A00B4F86A000028DBD1F8
:10401000204601F0C9F984F88180D4F8840010B1F9
:10402000D4F8A0100DE0052E06D0042E07D0032EE4
:104030007DD1D4F8881004E0D4F8901001E0D4F8D1
:104040008C102046BDE8F047084715F4587F6ED025
:1040500068060AD5D4F8840040F00400C4F884004F
:104060002068816941F040018161A8050AD5D4F832
:10407000840040F00100C4F884002068816941F4A4
:1040800000718161E80500E051E00AD5D4F88400B0
:1040900040F00800C4F884002068816941F4807110
:1040A0008161A8060AD5D4F8840040F08000C4F8E5
:1040B00084002068816941F020018161D4F8840086
:1040C000002834D0206840F26B32C7F38131036896
:1040D000032923F0010101602068016921EA02013E
:1040E000016102D084F881809AE72068114D8168CF
:1040F00021F440418160E06F50B10565E06FFCF74D
:104100008DFF28B1D4F8840040F04000C4F884004A
:10411000A06F00280BD00565A06FFCF77FFF00287B
:1041200005D0D4F8840040F04000C4F88400BDE815
:10413000F087000087540090401EB0F1807F10B5DA
:1041400001D3012010BD4FF0E02460610F21601702
:1041500002F0F2F90020A0610721216110BD704733
:10416000704770477047016841F211130A6A1A429A
:1041700007D10A6A9B101A4203D10A6822F0010291
:104180000A60012180F83D10002070477047000050
:10419000074A016891420AD1007F022807D10449E9
:1041A000044834310A1D0968016011684160704794
:1041B000000C00401404002070472DE9F041044633
:1041C00000680027C6680569A90715D5B10713D58A
:1041D000FA1E02610121217720688069800702D0E0
:1041E000D4F8941005E0D4F89C1020468847D4F801
:1041F000A010204688472777680718D5700716D57E
:10420000226802206FF00401116120772068806924
:1042100010F4407F02D0D4F8941005E0D4F89C103C
:1042200020468847D4F8A0102046884727772807DB
:1042300017D5300715D5226804206FF008011161E9
:1042400020772068C069800702D0D4F8941005E078
:10425000D4F89C1020468847D4F8A0102046884700
:104260002777E80618D5F00616D5226808206FF0E3
:104270001001116120772068C06910F4407F02D0DE
:10428000D4F8941005E0D4F89C1020468847D4F860
:10429000A010204688472777E80709D0F00707D005
:1042A00021686FF0010008612046D4F88410884727
:1042B000280601D4A80409D5300607D521686FF473
:1042C000025008612046D4F8B4108847E80509D5A3
:1042D000300607D521686FF4807008612046D4F855
:1042E000B8108847680609D5700607D521686FF0B1
:1042F000400008612046D4F88C108847A8060BD5EA
:10430000B00609D521686FF0200008612046D4F876
:10431000AC10BDE8F0410847BDE8F08170470000EF
:1043200030B50022044600680D4601F021FA41F242
:104330001111224B20688A1098420BD0204B9842D2
:1043400008D0204B984205D01F4B984202D01F4BFB
:10435000984209D1036A0B4206D1036A134203D182
:10436000436C23F4004343642068036A0B4206D184
:10437000016A114203D1016821F0010101604FF08F
:1043800001005DB1042D0CD0082D0DD00C2D0ED0E8
:10439000102D0FD084F84300002030BD84F83E007B
:1043A000FAE784F83F00F7E784F84000F4E784F880
:1043B0004100F1E784F84200EEE700000000014010
:1043C0000004014000400140004401400048014019
:1043D00070B5044690F83C0000260D4601280BD02D
:1043E000012084F83C000C2A4AD007DC82B1042A60
:1043F00020D0082A06D131E0022070BD102A53D007
:10440000142A63D00126002084F83C00304670BD99
:10441000206801F0BBF92068816941F008018161E1
:104420002068816921F00401816120682A6981691D
:10443000114311E0206801F0FBF92068816941F423
:10444000006181612068816921F480618161206857
:104450002969826942EA01218161D4E7206801F07B
:1044600033FA2068C16941F00801C1612068C1695F
:1044700021F00401C16120682A69C169114311E07A
:10448000206801F06DFA2068C16941F40061C161E2
:104490002068C16921F48061C16120682969C2690D
:1044A00042EA0121C161AEE7206801F095FA206877
:1044B000416D41F0080141652068416D21F0040122
:1044C000416520682A69416D114311E0206801F0BF
:1044D000BDFA2068416D41F4006141652068416D7D
:1044E00021F48061416520682969426D42EA012119
:1044F000416588E710B5044641F21112022084F8A4
:104500003D002068016A114207D1016A92101142F0
:1045100003D1016821F001010160A06E08B91048C3
:10452000A066014620468847002084F8480084F8A9
:104530003E0084F83F0084F8400084F8410084F88D
:10454000420084F8430084F8440084F8450084F86D
:10455000460084F8470084F83D0084F83C0010BD14
:10456000D945009010B5040003D094F83D0010B177
:104570000EE0012010BD002084F83C00204601F030
:104580009FFA606E08B91348606601462046884766
:10459000022084F83D002068211D01F083F80120ED
:1045A00084F8480084F83E0084F83F0084F8400016
:1045B00084F8410084F8420084F8430084F8440001
:1045C00084F8450084F8460084F8470084F83D00EC
:1045D000002010BDDB450090704770477047704762
:1045E00030B504464FF0020269B1042912D00829FF
:1045F00017D00C291CD0102921D094F84300012891
:1046000024D0012030BD94F83E000128F9D184F86F
:104610003E201DE094F83F000128F2D184F83F20AD
:1046200016E094F840000128EBD184F840200FE018
:1046300094F841000128E4D184F8412008E094F87E
:1046400042000128DDD184F8422001E084F84320B3
:104650000122206801F08CF81B4B20681B491C4A82
:10466000984209D0884207D0904205D0194DA842FF
:1046700002D0194DA84203D1456C45F4004545646C
:104680002068984212D0B0F1804F0FD0134B98425F
:104690000CD0134B984209D0124B984206D0884256
:1046A00004D01149884201D0904207D181680F4A55
:1046B0001140062906D0B1F5803F03D0016841F0D2
:1046C00001010160002030BD0000014000040140F4
:1046D0000040014000440140004801400004004007
:1046E00000080040000C00400018004007000100D6
:1046F00030B50022044600680D4601F039F841F259
:104700001111224B20688A1098420BD0204B9842FE
:1047100008D0204B984205D01F4B984202D01F4B27
:10472000984209D1036A0B4206D1036A134203D1AE
:10473000436C23F4004343642068036A0B4206D1B0
:10474000016A114203D1016821F0010101604FF0BB
:1047500001005DB1042D0CD0082D0DD00C2D0ED014
:10476000102D0FD084F84300002030BD84F83E00A7
:10477000FAE784F83F00F7E784F84000F4E784F8AC
:104780004100F1E784F84200EEE70000000001403C
:104790000004014000400140004401400048014045
:1047A00010B500680649884208D10648FFF7DBFCCF
:1047B000BDE8104003480021FFF7B2BD10BD000066
:1047C00000000140C00000307047704770477047DC
:1047D00070477047704770477047704770470000D8
:1047E00010B5040003D0D4F8880010B110E0012007
:1047F00010BD002084F88400204601F08DFAD4F822
:10480000C40010B91548C4F8C400014620468847C2
:104810002420C4F888002068016821F001010160AB
:10482000A06A10B1204601F093F9204601F0B2FAD7
:104830000128DDD02068416821F490414160206862
:10484000816821F02A0181602068016841F001013E
:1048500001602046BDE8104001F0DEB961480090DB
:104860007047704770477047704700002DE9F04768
:10487000354E3168002908DA316841F00041316075
:104880008169891C8161BDE8F0872F492F4C083967
:1048900001F104090B684F1DDFF8ACA08A1D2362EB
:1048A0000AF10C0A99F80050931D84F824500AF17B
:1048B000040C97F80080264D0027C4F82880DAF809
:1048C0000010E16211882186316861631968A16373
:1048D000DCF80010E1632F6029680029FCD0016832
:1048E0002160416861608168A160C168E16001691F
:1048F0002161416961618169A161C069E061002054
:1049000014A100F053FCA269002016A100F04EFC97
:104910006269002017A100F049FCD9F800200020AE
:1049200018A100F043FC326800201AA100F03EFC00
:10493000DAF8002000201BA100F038FC2F60286866
:104940000028FCD09FE700002CED00E0C804002008
:104950001C04002048617264204661756C74210D4E
:104960000A0000005043203D203078253038580D93
:104970000A0000004C52203D203078253038580D78
:104980000A00000043465352203D2030782530383D
:10499000580D0A0048465352203D203078253038C3
:1049A000580D0A0042464152203D203078253038CB
:1049B000580D0A000148FDF71DBD00003C1E0030E7
:1049C0002DE9FC4F82468D88894693468820DAF887
:1049D00000108C2300EBCB149422A646C868C0F3C9
:1049E0000B4028440D59040403EBCB1005F470452B
:1049F000CDE9000441F80E509C23D9F8004003EBA8
:104A0000CB164FF0AC0C982340F2077702EBCB119A
:104A1000A02503EBCB1205EBCB13DAF800500CEB1F
:104A2000CB1CD5F80C80C8F30B4808F10108A04452
:104A3000019C48EA040845F80E80DAF80040B9F80D
:104A40000C50D4F80C802058C8F30A08454400F4F0
:104A50007048009844F80080DAF80040D9F808005F
:104A6000D4F80C80C8F30A0808F1010880440098C3
:104A700048EA054844F80080DAF80000445824F079
:104A800007044450DAF80040D9F81000605099F853
:104A9000310099F81810040299F83200000440EA35
:104AA000016099F8301021430143DAF80000815188
:104AB000DAF80000815821F0FF018150DAF8000097
:104AC000D9F814108150DAF80000C158B943C15028
:104AD000DAF80010D9E907021043C850DAF80010DC
:104AE000D9F8240041F80C00D9F81000C8B3012807
:104AF0003AD004283AD0022838D0032836D00728E4
:104B000034D00120DAF80030B02505EBCB11B42207
:104B100084245D5802EBCB1205F0E0255D50D9E905
:104B2000003504EBCB14EB1AB9F828504343454346
:104B3000DAF80000DB1D43EA05434350DAF80000D1
:104B400081586FF30A018150DAF80000D9F82C106F
:104B50008150DAF80000015941F001010151BDE82E
:104B6000FC8FFFE70420CDE70320CBE70220C9E755
:104B70007FB5FDF753FD00258DF80F5001248DF80A
:104B80000E501F208DF808008DF80B5087218DF8EE
:104B9000004068468DF80D408DF80A5001958DF85B
:104BA00001508DF809108DF80C40FDF709FD122019
:104BB0008DF808008DF80F5003268DF80B604FF02C
:104BC00010518DF80E5068468DF800408DF80D405C
:104BD0008DF80A4001918DF801408DF809508DF84B
:104BE0000C40FDF7EDFC17218DF808108DF80F40F3
:104BF00002208DF80B604FF010428DF80E408DF8BA
:104C000000408DF80D508DF80A4001928DF801009A
:104C100068468DF809508DF80C50FDF7D1FC19202D
:104C20008DF808008DF80F4071078DF80B6068460D
:104C30008DF80E508DF800408DF80D408DF80A501B
:104C400001918DF801608DF809508DF80C40FDF749
:104C5000B7FC0F218DF808108DF80F5004208DF847
:104C60000B604FF060528DF80E508DF800408DF8BB
:104C70000D408DF80A4001928DF8010068468DF8CC
:104C800009508DF80C40FDF79BFC11218DF80810A0
:104C90008DF80F5030078DF80B6005228DF80E50FF
:104CA0008DF800408DF80D408DF80A40019068465F
:104CB0008DF801208DF809508DF80C40FDF780FC2F
:104CC0000420FDF7B9FC7FBD08B505680E490095C5
:104CD00045680A1D009585680095C56800950569B9
:104CE00000954569009585690095074BC06900905E
:104CF0000C3308681C1D0090106800901868009024
:104D000020680090FEE7000028ED00E07047704743
:104D10002DE9F047454D044689464FF0000A2868C2
:104D2000C04380070AD0414E283E306820F08060A2
:104D30003060FDF7D9FA0746B04608E00120BDE82B
:104D4000F08700BFFDF7D0FAC01B022867D8D8F85B
:104D500000000001F6D4206829684FF4FE0721F412
:104D60007C313E0241EA00302860207AA389B4F801
:104D700004C040022D4D2D495B1E227CACF1010C7C
:104D80001035091DA0F5007080B2521ECCF3080C3E
:104D900007EA034340EA0C00184306EA02621043A4
:104DA00028600868626920F0C000104308600A6843
:104DB000A06922F0200202430A60281D0A6822F03E
:104DC00010020A6002684FF6F873E4699A4342EAF7
:104DD000C40202600868B9F1000F40F010020A60D6
:104DE00011D00868B9F1010F11D040F4001008602B
:104DF000D8F80000444640F08060C8F80000FDF795
:104E000073FA05460DE0086840F40020EFE740F42F
:104E10008010ECE7FDF768FA401B022801D9032057
:104E20008DE720680001F5D5504688E728440258F0
:104E30002DE9F047454D044689464FF0000A2868A1
:104E4000C04380070AD0414E283E306820F0805091
:104E50003060FDF749FA0746B04608E00120BDE89A
:104E6000F08700BFFDF740FAC01B022867D8D8F8CA
:104E700000008000F6D4208829684FF4FE0721F056
:104E80007C713E0241EA00502860207AA389B4F880
:104E900004C040022D4D2D495B1E227CACF1010C5B
:104EA0001835091DA0F5007080B2521ECCF3080C15
:104EB00007EA034340EA0C00184306EA0262104383
:104EC00028600868626920F44060104308600A683E
:104ED000A06922F4007202430A60281D0A6822F4C5
:104EE00080720A6002684FF6F873E4699A4342EAF6
:104EF000C40202600868B9F1000F40F480720A60D1
:104F000011D00868B9F1010F11D040F0807008602D
:104F1000D8F80000444640F08050C8F80000FDF783
:104F2000E3F905460DE0086840F48000EFE740F43F
:104F30000000ECE7FDF7D8F9401B022801D9032057
:104F40008DE720688000F5D5504688E72844025850
:104F50000148FEF7C1BE0000701D003010B585B0DD
:104F600004464FF4807200200C2113018DE80700E5
:104F7000CDE90303E06840F08000E060E06820F0E5
:104F80004000E0606946204600F0AAF8074A0C217C
:104F9000204600F00DF8E168B0F1007F21F08001BB
:104FA000E16000D1002005B010BD000000E1F50572
:104FB00030B5464D4FF4FA53434C2D68B5FBF3F32F
:104FC00053435B1E02D24FF0004030BD426B224281
:104FD000F7D09204F5D4426B520703D504218163C4
:104FE000084630BD426BD20702D00121816306E042
:104FF000354A803282630269D2B28A4201D00120EE
:1050000030BD002100F066F83149084201D100208E
:1050100030BD002802DA4FF0007030BD410001D5EC
:10502000402030BD810001D5802030BDC10002D5B7
:105030004FF4807030BD010102D54FF4007030BDD7
:10504000410102D54FF4806030BDC10102D54FF45B
:10505000006030BD010202D54FF4805030BD4102E6
:1050600002D54FF4005030BD810202D54FF480408C
:1050700030BDC10202D54FF4004030BD410302D51E
:105080004FF4003030BD810302D54FF4802030BD95
:10509000C10302D54FF4002030BD010402D54FF406
:1050A000801030BD410402D54FF4001030BD8104A2
:1050B00002D54FF4800030BD000702D54FF4000048
:1050C00030BD4FF4803030BD45002000000400208A
:1050D00008E0FFFD084440697047D0F88000704741
:1050E00070B5084D0A688260C368D1E90126D1E92C
:1050F00003412B4032430C4322431343C36000203F
:1051000070BD0000C0E0FEFF0968C0F880100020FC
:10511000704701F07BB800002DE9F04107460B48CD
:1051200015460E460078532801D001F06FF8EFF3D2
:105130001184202080F311882A463146384600F039
:1051400007F8E1B281F31188BDE8F0812004002066
:1051500070B500EB40000E461349144601EBC00544
:10516000E86A183520B101280FD0022805D113E0D4
:10517000284601F07FF8A04201D2002411E0224627
:105180003146284601F09CF90BE0284601F072F800
:10519000A042F4D20446F2E73146284601F063F912
:1051A0000446204670BD0000200400200FB408B55E
:1051B00004A96A460091039900F004F801B05DF873
:1051C00014FB00002DE9F04798B04FF0000892461C
:1051D000814607AA0C4640210292CDE90318CDE989
:1051E0000589404614F8011B002972D0252908D0F2
:1051F00002A801F019F905980028F3DA18B0BDE803
:10520000F087002001212278232A1ED02B2A19D0D2
:105210002D2A02D0302A08D102E040F0010001E03E
:1052200040F00200641C0029EDD100212278A2F197
:1052300030030A2B0CD201EB810102EB4101303922
:10524000641CF3E740F00400ECE740F00800E9E7F5
:105250000026D2B235462E2A19D114F8012F2A2A57
:1052600008D1DAF800200126131DCAF80030641CAA
:1052700015680CE02278A2F130030A2B07D205EB67
:1052800085030126641C02EB4305303DF2E72278DA
:105290006C2A0DD0682A0BD0702A58D00BDC252A36
:1052A00062D0582A2ED0632A0CD0642A60D111E033
:1052B00014F8012FECE7732A33D0752A19D0782A15
:1052C00056D11FE0DAF80000011DCAF8001001787D
:1052D0004BE04FE0DAF80020131DCAF800302B46EF
:1052E00016680A22CDE9001002A8314600F0CEFF70
:1052F0003EE0DAF80020131DCAF800302B4616688D
:105300000A2207E0DAF80020131DCAF800302B4605
:1053100016681022CDE9001002A8314601F01AF8F3
:1053200026E0DAF80000011DCAF8001007680FB97E
:10533000002618A717F8011BD1B106B1C5B102A804
:1053400001F072F805986D1E0028F3DA10E0DAF823
:10535000000008252B46011DCAF800101022016824
:1053600002A8CDE90058D9E7252102A801F05CF890
:10537000641C40E700287FF741AF049820B107A9DB
:1053800002464846FFF7C8FEDDE9041008440590D0
:1053900034E70000284E554C4C2900000148FEF728
:1053A000BBBD00009C01003010B5026840F26F33B5
:1053B0005169946944F0080494610268946944F066
:1053C000100494610268146824F0010414600268F7
:1053D00014699C4314610268936823F4404393600A
:1053E00090F88120042A0CD08A060AD5D0F88420AF
:1053F00042F08002C0F884200268936943F02003E1
:10540000936190F88120032A1DD04A060AD5D0F86E
:10541000842042F00402C0F884200268936943F0BB
:1054200040039361826AB2F5800F0CD10A060AD557
:10543000D0F8842042F00202C0F884200268936908
:1054400043F0800393618A050AD5D0F8842042F0A6
:105450000102C0F884200268936943F400739361E9
:10546000C9050AD5D0F8841041F00801C0F88410AD
:1054700001688A6942F480728A610021A0F8621092
:10548000A0F86A1010BD806B00210122A0F86A10FC
:10549000A0F8621080F88120D0F8A010084770476B
:1054A000394830B59DB0016821F0040101603749E9
:1054B00035480C300A6822F001020A600968016868
:1054C000002441F440410160016801F440411B9116
:1054D00001688904FCD50220039401210091052371
:1054E0000794C2030192A0211294CDE90A03042279
:1054F0000990CDE90C100825CDE90E20CDE9105416
:105500006846FEF727F900B1FEE740201A903F21D8
:105510000301CDE916500322CDE9180313AB13A8FC
:1055200083E816000421FDF705FF00B1FEE71848E7
:10553000016841F0800101601548F430016841F0D4
:1055400002010160006800F002001B901048DC308E
:10555000016841F000510160016801F000511B91A8
:10556000016841F080410160016801F080411B91B8
:10557000016841F000410160006800F000401B90AC
:10558000FCF7E4FB1DB030BD0C4802582C04005859
:10559000004402583348F0B5334A016841F47001C1
:1055A0000160106800F00F00072804D2106820F096
:1055B0000F00C01D10602D4900202C4C10340B68CA
:1055C0002B4D43F001030B6020600B682B400B60F8
:1055D000136803F00F03072B04D9136823F00F039C
:1055E000DB1D1360214C234A1834234B261D371D25
:1055F00020601E4C214D28343060261D3860371D38
:1056000023603B1D35601C1D3A60251D2E1D186052
:10561000331D22602860326018600A68134B184CF2
:1056200022F4802260330A60186020686FF30F0054
:10563000B0F1005F03D213490120C1F808010B4803
:10564000D4300168C9040BD4026843F2D2010E4B76
:1056500042F4805202601960016821F480510160B7
:10566000F0BD000088ED00E0002000520044025828
:105670007FEDF6EA80020101000202020000FF0154
:105680000010005C00800051004000520148FEF70D
:1056900094BD0000C00000300148FEF78EBD000040
:1056A000000000302DE9F047294B4FF0804A294D8A
:1056B00002689842284E294F294C09D0504507D0FE
:1056C000A84205D0B04203D0B84201D0A04205D1D3
:1056D000D1F804C022F070024CEA0202DFF884C064
:1056E000DFF884809842DFF884900FD050450DD0C9
:1056F000A8420BD0B04209D0B84207D0A04205D092
:10570000604503D0404501D0484503D1CD6822F41F
:1057100040722A438E684D6922F08002C6620E688C
:105720002A439842866207D0A04205D0604503D044
:10573000404501D0484501D1096901630368012151
:1057400043F00403036041610260BDE8F08700009C
:10575000000001400004004000080040000C004030
:105760000004014000400140004401400048014065
:1057700010B5046A012301F01F018B409C430462B1
:105780008A40016A1143016210BD00002DE9F04F0B
:10579000DFF88480214EDFF88890DFF888B0026A55
:1057A000036AB042DFF880A022F0020C1F4F23F002
:1057B00001020262426885698B680C6805EA080587
:1057C00025F0030543EA0C0344EA050407D04845E5
:1057D00005D0584503D0504501D0B84205D1CD6819
:1057E00023F008031D4325F00403B04207D04845C9
:1057F00005D0584503D0504501D0B84205D122F418
:105800004076D1E9055235432A43426084614968B4
:1058100041630362BDE8F08F8FFFFEFF000001408F
:1058200000040140004001400044014000480140A4
:10583000F0B5DFF87CE01F4C1F4D026A036AA042FE
:1058400022F0200623F01003036242688369D1F836
:1058500008C00F6803EA0E0323F4407E46EA0C13E7
:105860004EEA072601D0A84206D1CF6823F0800374
:1058700043EA071323F04003A0420AD0A84208D00D
:105880000E4CA04205D00E4CA04202D00D4CA042BE
:1058900007D1D1E9054522F4406242EA840242EA96
:1058A000850242608661496881630362F0BD000041
:1058B000FF8FFFFE00000140000401400040014056
:1058C0000044014000480140F0B5DFF87CE01F4D86
:1058D0001F4E026A036AA84222F4007723F4807301
:1058E00003624368C269D1F808C002EA0E020C687C
:1058F00022F0030E47EA0C2244EA0E0401D0B04223
:1059000006D1CF6822F4006242EA072222F48062C4
:10591000A8420AD0B04208D00E4DA84205D00E4D84
:10592000A84202D00D4DA84207D1D1E9055623F473
:10593000405343EA051343EA06134360C4614968D0
:10594000C1630262F0BD00008FFFFEFF0000014056
:105950000004014000400140004401400048014073
:10596000F0B5046A026A22F4805202624268C36996
:1059700024F40054DFF848C08E680D6803EA0C0375
:10598000104F23F4407344EA0634B84243EA052337
:105990000BD00D4DA84208D00C4DA84205D00C4D9F
:1059A000A84202D00B4DA84204D14D6922F4804296
:1059B00042EA85124260C361496801640462F0BD35
:1059C000FF8FFFFE00000140000401400040014045
:1059D0000044014000480140F0B5164F164B026AE2
:1059E000046A984222F4003524F48033036242684A
:1059F000436D0E890C6803EA070344EA030445EA91
:105A000006430BD00D4DA84208D00D4DA84205D03D
:105A10000C4DA84202D00C4DA84204D14D6922F48D
:105A2000803242EA0522426044654968816503622A
:105A3000F0BD00008FFFFEFF0000014000040140A8
:105A4000004001400044014000480140F0B5164FBD
:105A5000164B026A046A984224F48013036222F40B
:105A600000144268436D0E890D6803EA070344EA97
:105A7000065443EA05230BD00D4DA84208D00D4D26
:105A8000A84205D00C4DA84202D00C4DA84204D12A
:105A90004D6922F4802242EA8522426043654968CA
:105AA000C1650462F0BD0000FF8FFFFE00000140F1
:105AB0000004014000400140004401400048014012
:105AC0001549C0F884101549C0F888101449C0F869
:105AD0008C101449C0F890101349C0F89410134961
