:0200000490006A
:100000006829002039030090353C0090650300907A
:10001000B1020090330500900942009000000000FA
:10002000000000000000000000000000853F00907C
:100030006906009000000000373C009001000000BD
:100040005703009057030090570300905703009008
:1000500057030090570300905703009057030090F8
:1000600057030090570300905703009057030090E8
:1000700057030090570300905703009057030090D8
:1000800057030090570300905703009057030090C8
:1000900057030090570300905703009057030090B8
:1000A00057030090E94100905703009057030090D8
:1000B0005703009057030090570300905703009098
:1000C00057030090212800901128009057030090BA
:1000D0005703009057030090570300905703009078
:1000E0005703009057030090000000005703009052
:1000F0005703009057030090570300905703009058
:100100005703009057030090F94100905703009067
:100110005703009057030090570300905703009037
:100120005703009057030090570300905703009027
:100130005703009057030090570300905703009017
:1001400000000000000000000000000000000000AF
:1001500057030090570300905703009057030090F7
:1001600057030090570300905703009057030090E7
:1001700057030090570300905703009000000000C1
:1001800057030090570300905703009057030090C7
:1001900057030090570300905703009057030090B7
:1001A00057030090570300905703009057030090A7
:1001B0005703009057030090570300905703009097
:1001C0005703009057030090570300905703009087
:1001D0005703009057030090570300905703009077
:1001E0005703009057030090570300905703009067
:1001F0005703009057030090570300905703009057
:100200005703009057030090570300905703009046
:100210005703009057030090570300905703009036
:100220005703009057030090570300900000000010
:100230005703009057030090000000005703009000
:100240005703009057030090570300905703009006
:1002500057030090570300905703009057030090F6
:1002600057030090570300905703009057030090E6
:1002700057030090570300905703009000000000C0
:1002800057030090570300905703009000000000B0
:100290000000000057030090DFF810D000F00CF9C8
:1002A0000048004711D60290AFF300806829002073
:1002B0001EF0040F0CBFEFF30880EFF3098003F08A
:1002C00095BC00000246D2E84F0F411CC2E8431F14
:1002D00003B1F8E77047024652E8000F411C42E8BC
:1002E000001303B1F8E77047024652E8000F42E8F6
:1002F000001303B1F9E77047024652E8000F83018B
:1003000003D3BFF32F8F0020704700F00040084355
:1003100042E8000303B1F0E77047024652E8000FDD
:10032000800103D2BFF32F8F0020704742E80013F3
:1003300003B1F3E70120704707488047074880472B
:1003400007480047FEE7FEE7FEE7FEE7FEE7FEE7B9
:10035000FEE7FEE7FEE7FEE769090090ED4000904A
:10036000990200901EF0040F0CBFEFF30880EFF32A
:10037000098002F09DB900002DE9F05F05460020DC
:1003800092469B4688460646814640241BE0284606
:1003900041464746224600F07FF853465A46C01A67
:1003A000914110D311461846224600F066F82D1AE6
:1003B00067EB01084F4622460120002100F05DF85E
:1003C00017EB00094E41201EA4F10104DFDC484672
:1003D00031462A464346BDE8F09F10B5431A934282
:1003E00009D28318881803E010F8011D03F8011DD5
:1003F000521EF9D210BD40EA01039B0703D009E069
:1004000008C9121F08C0042AFAD203E011F8013B00
:1004100000F8013B521EF9D210BDD2B201E000F843
:10042000012B491EFBD270470022F6E710B5134698
:100430000A4604461946FFF7F0FF204610BD421C4D
:1004400010F8011B0029FBD1801A704710B500225B
:1004500000E0521C835C8C5CA34201D1002BF8D1DC
:10046000D8B2E1B2401A10BD034611F8012B00F8D2
:10047000012B002AF9D118467047202A04DB203AC4
:1004800000FA02F1002070479140C2F1200320FAE7
:1004900003F3194390407047202A04DB203A21FAE5
:1004A00002F00021704721FA02F3D040C2F120028D
:1004B0009140084319467047064C074D06E0E06836
:1004C00040F0010394E8070098471034AC42F6D39B
:1004D000FFF7E6FE50E40490C0E4049070B58C1879
:1004E00010F8015B15F0070301D110F8013B2A1148
:1004F00006D110F8012B03E010F8016B01F8016B35
:100500005B1EF9D12B0705D40023521E0DD401F830
:10051000013BFAE710F8013BCB1A921C03E013F8F9
:10052000015B01F8015B521EF9D5A142D8D300202E
:1005300070BD00BFFEE7000010B500BF484800686E
:1005400000F4003000B139E000BF00BF00BFBFF3CE
:100550004F8F00BF00BF00BF00BF00BF00BFBFF391
:100560006F8F00BF00BF00BF00203E49086000BF82
:1005700000BF00BFBFF34F8F00BF00BF00BF00BF71
:1005800000BF00BFBFF36F8F00BF00BF00BF344884
:10059000006840F400303249086000BF00BF00BF6F
:1005A000BFF34F8F00BF00BF00BF00BF00BF00BF41
:1005B000BFF36F8F00BF00BF00BF00BF00BF284B5D
:1005C0001B6803F4803303B148E00023244C7034EB
:1005D000236000BF00BF00BFBFF34F8F00BF00BF4D
:1005E00000BF231F1868C0F34E3100BFC0F3C9021B
:1005F00000BF43F6E07303EA41134FF0404404EABE
:1006000082742343174C1034236000BF00BF131EB5
:10061000A2F10102EDD10B1EA1F10101E6D100BF53
:1006200000BF00BFBFF34F8F00BF00BF00BF0C4B28
:100630001B6843F480330A4C236000BF00BF00BF37
:10064000BFF34F8F00BF00BF00BF00BF00BF00BFA0
:10065000BFF36F8F00BF00BF00BF00BF10BD000021
:1006600014ED00E050EF00E0704700BFFEE700002F
:1006700070B500BF0C48866900F05EF9054600BF02
:10068000294609481830FFF72FFE044600BFB44240
:10069000F0D1A54206D200BF03481030FFF71BFE81
:1006A00000BF00BF284670BD401900202DE9FF4F54
:1006B00081B0884691469A464FF0070B51E000BF43
:1006C0002E48FFF708FE064606F03F002C4901EBD6
:1006D0000014B0094FF4700101EA00510091DDE906
:1006E000001008434FF0805101EAD80108434FF051
:1006F000005101EA990108434FF0804101EA5A0193
:10070000084340F04065294604F10C00FFF7F4FD72
:10071000054605F0806010B385F0806585F00045E2
:1007200005F0004728F000403843206029F00040E1
:10073000384360602AF000403843A060294604F145
:100740000C00FFF7EAFD48B100BF0C48001DFFF7A1
:10075000C2FD00BF012005B0BDE8F08F04E0ABF1A1
:10076000010BBBF1000FAAD100BF00BF0348083046
:10077000FFF7B1FD00BF0020EDE7000044190020A5
:10078000C0140020F0B506460C461546FF2C01D2D9
:10079000FF2D01D30020F0BD002200231AE001202C
:1007A00098403040A0B1214610E002EBD1000B4F41
:1007B000385C01F0070C012707FA0CF7384302EB0D
:1007C000D107DFF818C00CF80700491CA942ECD982
:1007D00020325B1C042BE2D30120DCE7C018002090
:1007E0002DE9F05F8246894600204049087080214B
:1007F0003F48FFF719FE18213E4808F0DAFD07468A
:100800003A48006A3C49884207D00846374908629E
:10081000084647800120C8610EE034484088B8424D
:1008200005D03248478001203049C86104E02F4894
:10083000C069401C2D49C8612C48C06901280BD1F2
:1008400000202A49487048608860C8604FF4806181
:100850002A48FFF7E9FD0FE000260BE0274800EBF0
:100860000615E86800F0806018B1E86820F0406084
:10087000E860761C402EF1D31C48C069012810D1D5
:1008800000F060F8044614B1DFF8748001E04FF026
:1008900000081648C0F814800020144988610861D7
:1008A00002E000F04FF80446ECB1FE220021504671
:1008B000FFF768FFEF2211460F20FFF763FFFE22CC
:1008C00011460420FFF75EFFFFF7D2FE834607487C
:1008D00000235946C2690B48FFF7E8FEB9F1000F43
:1008E00001D000F011F82046BDE8F09F401900202B
:1008F000C0180020C8DB04906B27A5E1C0140020BD
:100900000084D71700FF000310B50948007808B12C
:10091000012010BD012006490870FFF7A9FE04461A
:1009200000231A4621460348FFF7C0FE0120F0E7E6
:100930004019002001FF0003014840687047000093
:10094000001000E00648006840F08070044908602C
:100950000448006840F00100024908600120704727
:10096000FCED00E0001000E07047000070B50246AA
:10097000086852F8200020F001000E6842F82600B6
:100980008868082801D1402500E0002548682843F0
:100990008E683043CE6830430E6930434E69304331
:1009A0008E693043CE6930430E6A30434E6A30431D
:1009B0008E6A3043CE6A40EA0603086B0343486BF5
:1009C0000343886B0343114C44F4801444F4001433
:1009D00044F4E024086852F82000A04318430E684D
:1009E00042F82600086BB0F5801F07D1086828B1CF
:1009F000106820F480100E6B30431060086818B146
:100A000010684E6B30431060002070BD7FFB080003
:100A100030B50346D1E9000540EA05108D6840EA8B
:100A200005208D8940EA0545088A401E45EA0055A3
:100A3000087D801E45EA00608D692843551C43F8F7
:100A40002500186800F48010B0F5801F0BD158689D
:100A500020F47004088A401E44EA0054586820F4C8
:100A6000700020435860002030BD000070B504467F
:100A70000CB9012070BD94F83500022803D0802005
:100A800060650120F6E7DC492068884249D0DA49F0
:100A900018312068884244D0D749303120688842D4
:100AA0003FD0D5494831206888423AD0D249603198
:100AB0002068884235D0D04978312068884230D0CB
:100AC000CD499031206888422BD0CB49A83120688D
:100AD000884226D0C9492068884222D0C7491831A7
:100AE000206888421DD0C54930312068884218D01E
:100AF000C24948312068884213D0C049603120681B
:100B000088420ED0BD4978312068884209D0BB495F
:100B100090312068884204D0B849A83120688842C2
:100B200001D1012000E00020F0B3042084F835005A
:100B3000B149206888424BD0AF49183120688842BB
:100B400046D0AD4930312068884241D0AA49483169
:100B5000206888423CD0A84960312068884237D05C
:100B6000A54978312068884232D0A3499031206865
:100B700088422DD0A049A8312068884228D09F49BA
:100B80002068884224D09D491831206888421FD0AF
:100B90009A493031206888421AD0984948312068F3
:100BA000884215D0954900E020E0603120688842F5
:100BB0000ED0924978312068884209D08F4990310F
:100BC0002068884204D08D49A8312068884206D127
:100BD0002068006820F001002168086009E12068B1
:100BE000006820F001002168086002E120680068C8
:100BF00020F00E00216808607F492068884249D0B3
:100C00007D4918312068884244D07B4930312068C2
:100C100088423FD078494831206888423AD07649A6
:100C200060312068884235D0734978312068884225
:100C300030D071499031206888422BD06E49A8315C
:100C40002068884226D06D492068884222D06B49AE
:100C50001831206888421DD06849303120688842A8
:100C600018D0664948312068884213D06349603102
:100C7000206888420ED0614978312068884209D0C6
:100C80005E4990312068884204D05C49A8312068D0
:100C9000884206D12068006820F0010021680860C1
:100CA00005E02068006820F00100216808605249D2
:100CB0002068884270D050491831206888426BD033
:100CC0004D4930312068884266D04B494831206810
:100CD000884261D048496031206888425CD04649EA
:100CE00078312068884257D0434990312068884243
:100CF00052D04149A831206888424DD03F492068F0
:100D0000884249D03D4918312068884244D03B4947
:100D10003031206888423FD03849483120688842C5
:100D20003AD0364960312068884235D0334978312D
:100D30002068884230D031499031206888422BD0D9
:100D40002E49A8312068884226D02D492068884243
:100D500022D02B491431206888421DD028492831DF
:100D60002068884218D026493C312068884213D038
:100D700023495031206888420ED0214964312068CF
:100D8000884209D01E4978312068884204D01C4925
:100D90008C312068884201D1012000E00020D8B1C8
:100DA000206E006820F48070216E0860A56D94F8B4
:100DB0005C0000F01F01012088406860D4E9191030
:100DC0004860E06E40B1E06E006820F48070E16E33
:100DD0000860D4E91C104860012084F8350000BF89
:100DE000002084F8340000BF206D10B12046216D32
:100DF000884700203EE60000100002401004024038
:100E000008540258014691F83500704770B5044601
:100E100000F02CF906462546681C10B104480078FD
:100E2000054400BF00F022F9801BA842FAD370BD30
:100E3000100400200348006840F0010001490860E8
:100E40007047000020040058F8B502460B46002108
:100E50006F4DD7E001278F401E6806EA0704002C7B
:100E600072D01E7906F00306012E04D01E7906F01A
:100E70000306022E13D190684F000326BE40B043F4
:100E80004F00DE68BE4030439060506801268E40BF
:100E9000B0431E79C6F300168E40304350601E7971
:100EA00006F00306032E09D0D0684F000326BE408B
:100EB000B0434F009E68BE403043D0601E7906F0BC
:100EC0000306022E13D1CF0802F1200656F82700A0
:100ED0004E07F70E0F26BE40B0434F07FF0E1E69A8
:100EE000BE403043CF0802F1200646F827001068C4
:100EF0004F000326BE40B0431E7906F003064F00A4
:100F0000BE40304310605E6806F44036002E78D054
:100F100000BF404E366846F002063E4F3E603E46F9
:100F2000366806F00206009600BF00BF3A4E8F08F2
:100F300056F827008E07370F0F26BE40B043374EB6
:100F4000B24202D100262EE05BE0354EB24201D122
:100F5000012628E0334EB24201D1022623E0324E70
:100F6000B24201D103261EE0304EB24201D1042626
:100F700019E02F4EB24201D1052614E02D4EB242A7
:100F800001D106260FE02C4EB24201D107260AE01D
:100F90002A4EB24201D1082605E0294EB24201D1C3
:100FA000092600E00A268F073F0FBE4030431A4E45
:100FB0008F0846F827004FF0B0463068A0435E68BF
:100FC00006F4801606B120434FF0B04630607068DA
:100FD000A0435E6806F4001606B120434FF0B04609
:100FE00070606868A0435E6806F4003606B120436E
:100FF00068602868A0435E6806F4803606B1204326
:101000002860491C1E68CE40002E7FF423AFF8BD37
:1010100080000058F44402580804005800000258A8
:101020000004025800080258000C02580010025830
:101030000014025800180258001C025800200258E0
:1010400000240258024613690B400BB1012000E056
:10105000002070470AB1816101E00B048361704791
:1010600001480068000C70470010005C01480068EF
:1010700070470000080400207047704710B5044610
:101080000CB9012010BD242084F8410020680068BC
:1010900020F0010021680860D4F8800010B90A48E7
:1010A000C4F880002046D4F880108847002060648F
:1010B00084F84100206384F8420000BF84F84000B7
:1010C00000BF00BFDEE70000B11400902DE9F04141
:1010D00004462068856920680668C5F3002050B181
:1010E000C6F3C01038B1606C40F0010060644FF48A
:1010F00080702168C861C5F3802050B1C6F3C0106C
:1011000038B1606C40F0080060644FF48060216882
:10111000C861C5F3402050B1C6F3C01038B1606C4F
:1011200040F0020060644FF400702168C861676C91
:1011300007F00B0018B13946204601F091FCBDE8DC
:10114000F08170B504462068856920680668606B88
:1011500020B1324629462046636B984770BD000097
:1011600010B504460E492068884218D10D48FFF793
:1011700085FF0B480B49086001210A48C160002126
:101180000161C16101628160416181610648054977
:101190004860084600F00CF801200449087010BDB2
:1011A00000580040F4010030130F42107A02003062
:1011B00010B504460CB9012010BD94F84100002878
:1011C0001CD184F840003B4860653B48A0653B4823
:1011D000E0653B4820663B4860663B48A0663B486C
:1011E000E0663B4820673B4860673B48A067E06F8C
:1011F00008B93A48E0672046E16F8847242084F820
:1012000041002068006820F00100216808606068E3
:1012100020F07060216808612068806820F4004038
:1012200021688860E068012805D1A06840F400408A
:101230002168886004E0A06840F404402168886068
:10124000E068022806D12068406840F40060216808
:10125000486005E02068406820F40060216848602C
:10126000206840681E490843216848602068C068BB
:1012700020F400402168C860D4E904010843A16952
:1012800040EA01202168C860D4E9070108432168C9
:1012900008602068006840F00100216808600020B4
:1012A0006064202084F841000020206384F842001C
:1012B00000BF81E7E9120090E7120090B714009098
:1012C000B5140090E512009005130090ED12009007
:1012D00061110090791000907B100090B314009081
:1012E000008000027047704770470000034A0168A1
:1012F000914202D10121024A11707047005800400A
:1013000079020030034A0168914202D10121024A68
:101310001170704700580040780200302DE9F84302
:1013200004460F4615461E46DDE9089894F841002C
:1013300020284FD1B9F1000F02D0B8F1000F05D12C
:101340004FF4007060640120BDE8F8832068806974
:10135000C0F3C03008B10220F6E700BF94F84000A7
:10136000012801D10220EFE7012084F8400000BFEE
:10137000222084F84100402084F84200002060646C
:10138000C4F82490A4F82A801348E06213486063EC
:10139000E764012E05D1E8B221688862B01E20659D
:1013A00005E0C5F3072021688862E8B220650C4893
:1013B000F2B2002339460090204602F072FB00BFD3
:1013C000002084F8400000BF0121204601F078FA97
:1013D0000020B9E70220B7E70000FFFFE1340090EA
:1013E000002000802DE9F84304460F4615461E46AE
:1013F000DDE9089894F84100202850D1B9F1000F98
:1014000002D0B8F1000F05D14FF4007060640120E4
:10141000BDE8F88320688069C0F3C03008B10220BD
:10142000F6E700BF94F84000012801D10220EFE761
:10143000012084F8400000BF212084F841004020B2
:1014400084F84200002060642085C4F82490A4F849
:101450002A801448E06214486063E764012E05D1D5
:10146000E8B221688862B01E206505E0C5F3072058
:1014700021688862E8B220650C48F2B2C30239469E
:101480000090204602F00DFB00BF002084F84000D1
:1014900000BF0121204601F013FA0020B8E7022026
:1014A000B6E700000000FFFFE1340090002000805C
:1014B00070477047704770470348006803490978D0
:1014C0000844014908607047080400201004002007
:1014D00010B5032000F00EF900F0B0FA10490968C9
:1014E000C1F303210F4A515C01F01F0120FA01F4FE
:1014F0000B48006800F00F001146085C00F01F0068
:1015000024FA00F008490860084804600F2000F041
:101510000FF808B1012010BD00F09AF80020FAE79A
:1015200018440258A64A0390040400200004002036
:1015300070B504461148007808B9012070BD0F4805
:1015400000784FF47A71B1FBF0F00D490968B1FBF6
:10155000F0F5284600F0B4FF08B10120EEE7102CAA
:1015600007D200222146501E00F087F8054804608B
:1015700001E00120E2E70020E0E700001004002085
:10158000000400200C0400204178154A1160144921
:101590000831096821F00101114A08321160121F57
:1015A00041681160017B0907C27A41EA0261827ACF
:1015B00041EAC241427B41EA8241827B41EA4241A7
:1015C000C27B41EA0241427A41EA0221027A41EABF
:1015D000420102781143024A08321160704700004C
:1015E00098ED00E000BF00BF00BFBFF35F8F00BFFA
:1015F00000BF00BF0548006820F480300349086040
:1016000000200249703108607047000024ED00E0BE
:1016100040F001010D4A11600C497039096841F42C
:1016200080310A4A703A116000BF00BF00BFBFF3AB
:101630004F8F00BF00BF00BF00BF00BF00BFBFF3A0
:101640006F8F00BF00BF00BF7047000094ED00E047
:1016500070470146084600280DDB00BF00BF00F0C0
:101660001F0301229A4043099B0003F1E023C3F8C2
:10167000002100BF00BF00BF70472DE9F05F80462A
:101680000D46164602F07EFF074639462A46334687
:1016900001F00700C0F1070ABAF1040F02D94FF0B8
:1016A000040A01E0C0F1070AD14600F1040ABAF1C8
:1016B000070F02D24FF0000A01E0A0F1030AD4465E
:1016C0004FF0010A0AFA09FAAAF1010A0AEA020A23
:1016D0000AFA0CFA4FF0010B0BFA0CFBABF1010B01
:1016E0000BEA030B4AEA0B042146404602F052FF84
:1016F000BDE8F09F00BF00F00702064B19684FF6E7
:10170000FF031940044B0B4343EA0221014B1960CC
:1017100000BF70470CED00E00000FA052DE9F04134
:1017200004460D4614B90120BDE8F081BD480068AB
:1017300000F00F00A8420ED2BA48006820F00F0057
:101740002843B84908600846006800F00F00A84226
:1017500001D00120E8E7207800F0040004280ED131
:10176000B1492069096801F07001884207D9AE4883
:10177000006820F0700021690843AB4908602078B8
:1017800000F00800082811D1A749091D60690968FF
:1017900001F07001884209D9A348001D006820F0BB
:1017A000700061690843A049091D0860207800F0B5
:1017B0001000102811D19C49091DA069096801F485
:1017C000E061884209D99848001D006820F4E06073
:1017D000A16908439449091D0860207800F02000A1
:1017E000202811D190490831E069096801F07001A1
:1017F000884209D98C480830006820F07000E169FF
:101800000843894908310860207800F00200022866
:101810000ED18549E068096801F00F01884207D9B7
:101820008148006820F00F00E16808437E490860A5
:10183000207800F00100002850D07B48006820F498
:101840007060A1680843784908606068022807D181
:10185000754818380068C0F34040F8B9012063E7C4
:101860006068032807D1704818380068C0F34060EA
:10187000A0B9012058E76068012807D16A481838E4
:101880000068C0F3002048B901204DE766481838C9
:101890000068C0F3800008B9012045E762480838B5
:1018A000006820F00700616808435F490839086054
:1018B000FFF7DCFB064608E0FFF7D8FB801B41F290
:1018C0008831884201D903202EE75748083800683C
:1018D00000F038006168B0EBC10FEDD1207800F066
:1018E000020002280ED15049E068096801F00F019A
:1018F000884207D24C48006820F00F00E168084396
:10190000494908604748006800F00F00A8420ED916
:101910004448006820F00F00284342490860084608
:10192000006800F00F00A84201D00120FCE62078FA
:1019300000F0040004280ED13B492069096801F039
:101940007001884207D23848006820F07000216991
:10195000084335490860207800F00800082811D1B4
:101960003149091D6069096801F07001884209D296
:101970002D48001D006820F07000616908432A4965
:10198000091D0860207800F01000102811D12649A8
:10199000091DA069096801F4E061884209D2224862
:1019A000001D006820F4E060A16908431E49091D7C
:1019B0000860207800F02000202811D11A49083151
:1019C000E069096801F07001884209D216480830C0
:1019D000006820F07000E16908431349083108608D
:1019E00000F02CF810490968C1F303210F4A515C3B
:1019F00001F01F0120FA01F70B48006800F00F000A
:101A00001146085C00F01F0027FA00F00849086042
:101A10000848076008480068FFF78AFD804640468E
:101A200082E600000020005218440258A64A0390A3
:101A300004040020000400200C040020F0B5824EB5
:101A4000366806F0380636B1082E15D0102E15D09F
:101A5000182E7DD114E07C4E103E3668C6F3401639
:101A600046B1794E103E3668C6F3C107774E26FA66
:101A700007F000E07548E5E07548E3E07548E1E00F
:101A8000714E1836366806F003046F4E1836366805
:101A9000C6F305116C4E1C36366806F001056A4E19
:101AA00024363668C6F3CC0616FB05F601EE106A3E
:101AB000B8EE410A002971D024B1012C50D0022C7B
:101AC0006DD16DE0604E103E3668C6F340163EB3F1
:101AD0005D4E103E3668C6F3C1075C4E26FA07F32A
:101AE00001EE103AF8EE411A01EE101AB8EE411A62
:101AF00081EE812A9FED581AC0EE011A524E20360F
:101B00003668C6F3080601EE106AB8EE411A31EEE7
:101B1000811AF7EE001A31EE211A62EE010A1EE078
:101B200001EE101AB8EE411ADFED4C1A81EE812A4F
:101B30009FED491AC0EE011A434E20363668C6F3AF
:101B4000080601EE106AB8EE411A31EE811A00E083
:101B500076E0F7EE001A31EE211A62EE010A5BE040
:101B600001EE101AB8EE411A9FED3D2AC2EE011A9D
:101B70009FED391A80EE012A334E20363668C6F3BF
:101B8000080601EE106AB8EE411A32EE011AB7EEFD
:101B9000002A31EE021A61EE810A3DE04EE01DE0BE
:101BA00001EE101AB8EE411ADFED2E1A81EE812AED
:101BB0009FED291AC0EE011A234E20363668C6F36F
:101BC000080601EE106AB8EE411A31EE811AF7EEFE
:101BD000001A31EE211A62EE010A1DE001EE101A20
:101BE000B8EE411A9FED1E2AC2EE011A9FED1A1A95
:101BF00080EE012A144E20363668C6F3080601EE40
:101C0000106AB8EE411A32EE011AB7EE002A31EE30
:101C1000021A61EE810A00BF00BF0B4E2036366803
:101C2000C6F34626721C01EE102AB8EE411AC0EE29
:101C3000811ABCEEE11A11EE100A00E0002001E06A
:101C4000034800BF00BFF0BD104402580090D0030D
:101C500000093D0040787D01000000460024744CDE
:101C60000024744A20BCBE4B2DE9F047044614B949
:101C70000120BDE8F087207800F00100002870D036
:101C8000FA48006800F03808F8481830D0F800909A
:101C9000B8F1100F06D0B8F1180F0FD109F00300FA
:101CA00002280BD1F14810380068C0F340400028EA
:101CB0006AD06068002867D10120DAE700BF606859
:101CC000B0F5803F08D1E9481038006840F4803012
:101CD000E649103908602EE0606868B9E3481038BA
:101CE000006820F48030E149103908600846006837
:101CF00020F4802008601EE06068B0F5A02F0DD1B0
:101D0000DA481038006840F48020D849103908605B
:101D10000846006840F4803008600CE0D348103872
:101D2000006820F48030D149103908600846006806
:101D300020F48020086000BF606898B1FFF796F932
:101D4000054606E0FFF792F9401B642801D90320FD
:101D50008FE7C64810380068C0F340400028F1D033
:101D600012E012E0FFF782F9054606E0FFF77EF980
:101D7000401B642801D903207BE7BC481038006869
:101D8000C0F340400028F1D100BF207800F00200ED
:101D9000022874D1B548006800F03808B3481830FC
:101DA000D0F80090B8F1000F05D0B8F1180F56D157
:101DB00009F00300D0BBAD4810380068C0F38000C4
:101DC00018B1E06808B9012053E7A8481038006846
:101DD00020F01900E1680843A44910390860FFF7B2
:101DE00045F9054606E0FFF741F9401B022801D9F5
:101DF00003203EE79D4810380068C0F380000028AB
:101E0000F1D000BFFFF72CF941F2030188421AD844
:101E1000206940280BD195480C38006820F47C30AC
:101E200040F4003091490C39086017E017E08F4802
:101E30000C38006820F47C30216940EA01308B497D
:101E40000C3908600AE089480C38006820F0FE4030
:101E5000217C40EA016085490C39086066E0E06851
:101E600088B382481038006820F01900E168084300
:101E70007E4910390860FFF7F9F8054607E056E09B
:101E8000FFF7F4F8401B022801D90320F1E6774858
:101E900010380068C0F380000028F1D000BFFFF7C1
:101EA000DFF841F2030188421AD8206940280BD19B
:101EB0006E480C38006820F47C3040F400306B49E8
:101EC0000C39086017E017E068480C38006820F407
:101ED0007C30216940EA013064490C3908600AE02D
:101EE00062480C38006820F0FE40217C40EA016026
:101EF0005E490C39086019E05C481038006820F031
:101F000001005A4910390860FFF7B0F8054606E0AD
:101F1000FFF7ACF8401B022801D90320A9E653487B
:101F200010380068C0F380000028F1D100BF20788D
:101F300000F0100010287CD14C48006800F03808F0
:101F40004A481830D0F80090B8F1080F06D0B8F120
:101F5000180F3DD109F00300012839D1434810384A
:101F60000068C0F3002020B1E069802801D0012082
:101F70007FE600BFFFF774F841F2030188421AD8E8
:101F8000206A20280AD139480C38006820F0F8402F
:101F900040F0804035490C39086018E033480C386F
:101FA000006820F0F84094F8201040EA81602F4942
:101FB0000C3908600BE02D48001F006820F07C50B1
:101FC00094F8201040EA01602849091F086066E083
:101FD000E06978B325481038006840F08000234954
:101FE00010390860FFF742F8054606E0FFF73EF8B3
:101FF000401B022801D903203BE61C48103800682A
:10200000C0F300200028F1D000BFFFF729F841F20B
:10201000030188421CD8206A20280CD113480C38B0
:10202000006820F0F84040F0804010490C3908600A
:102030001AE035E01CE00D480C38006820F0F8404C
:1020400094F8201040EA816008490C3908600BE0E0
:102050000648001F006820F07C5094F8201040EAE9
:1020600001600249091F086019E00000104402588D
:10207000FA48006820F08000F8490860FEF7F6FF93
:10208000054606E0FEF7F2FF401B022801D90320B7
:10209000EFE5F2480068C0F300200028F2D100BF4D
:1020A000207800F00800082836D16069D0B1EB48EC
:1020B0007430006840F00100E84974310860FEF7B0
:1020C000D5FF054606E0FEF7D1FF401B022801D9E7
:1020D0000320CEE5E14874300068C0F340000028DA
:1020E000F1D019E0DD487430006820F00100DB49D0
:1020F00074310860FEF7BAFF054606E0FEF7B6FF4A
:10210000401B022801D90320B3E5D448743000688D
:10211000C0F340000028F1D1207800F020002028F2
:1021200030D1A069B8B1CD48006840F48050CB49A7
:102130000860FEF79BFF054606E0FEF797FF401B91
:10214000022801D9032094E5C4480068C0F3403058
:102150000028F2D016E0C148006820F48050BF4942
:102160000860FEF783FF054606E0FEF77FFF401B91
:10217000022801D903207CE5B8480068C0F340304C
:102180000028F2D1207800F0040004287DD1B44862
:10219000006840F48070B2490860FEF767FF0546AA
:1021A00006E0FEF763FF401B642801D9032060E5C9
:1021B000AB48006800F480700028F2D000BFA0682F
:1021C000012808D1A5487030006840F00100A349FB
:1021D000703108602DE0A06868B9A04870300068D0
:1021E00020F001009D49703108600846006820F029
:1021F000040008601DE0A06805280DD197487030E4
:10220000006840F004009549703108600846006895
:1022100040F0010008600CE090487030006820F049
:1022200001008E49703108600846006820F0040003
:10223000086000BFA068A0B1FEF718FF054608E0DF
:10224000FEF714FF401B41F28831884201D9032078
:102250000FE5824870300068C0F340000028EFD0DE
:1022600013E0FEF703FF054608E0FEF7FFFE401B04
:1022700041F28831884201D90320FAE4774870306E
:102280000068C0F340000028EFD1606A00287DD0CC
:1022900072481030006800F03800182877D0606A63
:1022A000022875D16D48006820F080706B49086085
:1022B000FEF7DCFE054606E0FEF7D8FE401B0228CE
:1022C00001D90320D5E465480068C0F340600028C8
:1022D000F2D100BFD4E90A1041EA00105F49283169
:1022E000096840F2F332914308435C4928310860A1
:1022F000208E401EC0F30800616B491E4FF47E42E1
:1023000002EA41210843218F491ED20102EA01411C
:1023100008433C21095D491E120202EA016108439B
:102320004E493031086000BF081F006820F00100EE
:10233000091F08604948343000684FF6F871884337
:10234000A16C40EAC10045493431086043482C3053
:10235000006820F00C00216C084340492C310860D3
:102360000846006820F00200616C08433B492C31AC
:1023700008600846006840F480300860084600683D
:1023800040F4003008600846006802E093E038E05E
:102390001FE040F4802008600846006840F001001B
:1023A00008602E48006840F080702C490860FEF7F5
:1023B0005DFE054606E0FEF759FE401B022801D9E6
:1023C000032056E425480068C0F340600028F2D09E
:1023D00071E02248006820F0807020490860FEF714
:1023E00045FE054606E0FEF741FE401B022801D9E6
:1023F00003203EE419480068C0F340600028F2D191
:1024000059E0164828300768144830300668606A7A
:10241000012821D007F00301A06A81421CD1C7F333
:102420000511E06A884217D1C6F30801206B401EEF
:10243000814211D1606B401EC6F3462188420BD108
:10244000A06B401EC6F30641884205D1E06B401EDA
:10245000C6F30661884205D001200AE40044025810
:102460000048025815480068C0F3CC07A06CB84279
:1024700021D012480838006820F001000F490839BF
:102480000860FEF7F3FD054600BFFEF7EFFD401BB9
:10249000FBD00A4800684FF6F8718843A16C40EA07
:1024A000C1000649086005480838006840F001008E
:1024B00002490839086000204AE400003444025808
:1024C00070B504462546681EB0F1807F01D3012017
:1024D0000FE0681E4FF0E02148610F214FF0FF3000
:1024E00002F058F800204FF0E021886107200861D1
:1024F000002070BD70B504462068C6682068056974
:1025000005F0020002281CD106F00200022818D1B2
:10251000401F21680861012020772068806900F051
:10252000030020B12046D4F89410884707E02046E5
:10253000D4F89C1088472046D4F8A0108847002083
:10254000207705F0040004281CD106F004000428BC
:1025500018D1C04321680861022020772068806973
:1025600000F4407020B12046D4F89410884707E06A
:102570002046D4F89C1088472046D4F8A0108847FD
:102580000020207705F0080008281CD106F008007C
:10259000082818D1C04321680861042020772068EA
:1025A000C06900F0030020B12046D4F89410884799
:1025B00007E02046D4F89C1088472046D4F8A010A5
:1025C00088470020207705F0100010281CD106F065
:1025D0001000102818D1C043216808610820207716
:1025E0002068C06900F4407020B12046D4F89410EF
:1025F000884707E02046D4F89C1088472046D4F846
:10260000A01088470020207705F0010050B106F0A7
:10261000010038B16FF00100216808612046D4F84C
:102620008410884705F08000802804D005F400500D
:10263000B0F5005F0BD106F08000802807D16FF461
:102640000250216808612046D4F8B410884705F488
:102650008070B0F5807F0BD106F08000802807D114
:102660006FF48070216808612046D4F8B81088475C
:1026700005F0400040280AD106F04000402806D16D
:10268000C043216808612046D4F88C10884705F0C3
:10269000200020280AD106F02000202806D1C043BF
:1026A000216808612046D4F8AC10884770BD00004E
:1026B00010B504463B48006800F0004048B1394876
:1026C000006840F0004037490860A069801CA061A4
:1026D00010BD344808380068334908623148001F8B
:1026E000007881F824002F48C01E007888622D48A9
:1026F0000C300068C8622B48801E00880886294874
:10270000006848632748001D00688863254810302A
:102710000068C86300202549086000BF234800689E
:102720000028FBD020492068086060684860A068E5
:102730008860E068C8602069086160694861A069D4
:102740008861E069C8611AA1002001F0E1FA164829
:1027500082691BA1002001F0DBFA134842691CA129
:10276000002001F0D5FA0F48001F02681CA10020CC
:1027700001F0CEFA0B4802681DA1002001F0C8FA52
:1027800008480C3002681EA1002001F0C1FA0020A8
:102790000649086000BF054800680028FBD000BF5C
:1027A00096E700002CED00E0840E00201C040020C1
:1027B00048617264204661756C74210D0A00000046
:1027C0005043203D203078253038580D0A00000055
:1027D0004C52203D203078253038580D0A0000003A
:1027E00043465352203D203078253038580D0A009A
:1027F00048465352203D203078253038580D0A0085
:1028000042464152203D203078253038580D0A008C
:1028100010B50248FEF75AFC10BD0000F40100306C
:1028200010B50248FEF78DFC10BD0000F401003029
:1028300070B50546AC6BA06B10B10020A16B0865AC
:10284000E06B10B10020E16B0865204601F045F90E
:1028500070BD10B50246002001F001034BB140F0FD
:10286000420092F8413003F02803282B01D040F0B9
:10287000B00001F00203022B09D140F0440092F8AD
:10288000413003F02803282B01D040F0B00001F4C0
:102890000043B3F5004F01D140F0B800102901D139
:1028A00040F09000202901D140F02000402901D1C2
:1028B00040F0400013681B6883431468236010BD18
:1028C00010B502460020254C536BA34222D0244C65
:1028D000536BA3421ED0234C536BA3421AD001F476
:1028E0000043B3F5004F01D140F0B80001F00103FF
:1028F0000BB140F0F20001F00203022B01D140F0D5
:10290000F400102901D140F09000202920D140F09E
:1029100020001DE001F40043B3F5004F01D140F069
:10292000B80001F001030BB140F0F20001F0020326
:10293000022B01D140F0F400102901D140F09000A9
:10294000202901D140F06000402901D140F0400031
:1029500013681B6803431468236010BDCD310090D9
:102960007D3600902D33009001688969C1F34001E4
:1029700011B10021026891620168896901F00101C9
:1029800029B90168896941F00101026891617047C4
:102990002DE9F0470446894694F8410000F02800EC
:1029A000282852D120688069C0F3004720688069D8
:1029B00000F47E00050C20688068C0F309062068DA
:1029C000C06800F0FE08E06802282ED105F006007D
:1029D000062101EAE611884216D13546A06C401C5A
:1029E000A064A06C022838D10020A06408202168CF
:1029F000C86100BF002084F8400000BF2A46394665
:102A00002046A36F984728E045464FF400412046F2
:102A1000FFF71FFF00BF002084F8400000BF2A46D8
:102A200039462046A36F984717E04FF400412046EF
:102A3000FFF70FFF00BF002084F8400000BF2A46C8
:102A400039462046A36F984707E008202168C861EF
:102A500000BF002084F8400000BFBDE8F087000000
:102A60002DE9F04104460F4694F84160002084F8B7
:102A700042004D48E06200206085606C384360642D
:102A8000282E03D0292E01D02A2E09D10321204639
:102A9000FFF7DFFE282084F841004448606324E00B
:102AA00048F203012046FFF7D4FE2046FFF75CFF03
:102AB00094F84100602816D0202084F84100206856
:102AC0008069C0F3401070B120688069C0F30010C5
:102AD00030B110202168C861606C40F0040060646F
:102AE00020202168C86100206063256BA06B48B37B
:102AF000112D01D0212D25D12068006800F48040DF
:102B0000B0F5804F05D12068006820F4804021682E
:102B10000860A06BFEF776F901280FD02448A16B5E
:102B2000086500BF002084F8400000BFA06BFDF7DF
:102B30009DFF70B3A06B016D884732E0204600F026
:102B4000CCFF2EE0E06B48B3122D01D0222D25D111
:102B50002068006800F40040B0F5004F05D12068FF
:102B6000006820F4004021680860E06BFEF74AF935
:102B700001280FD00E48E16B086500BF002084F8E3
:102B8000400000BFE06BFDF771FF10B1E06B016D1D
:102B9000884706E0204600F0A0FF02E0204600F053
:102BA0009CFFBDE8F08100000000FFFF5939009054
:102BB0003128009070B504460D461948E0620020A7
:102BC0002063202084F84100002084F842006063E4
:102BD000C5F3800090B12068406A616A0870606A3D
:102BE000401C6062208D48B1208D401E2085608D84
:102BF000401E6085606C40F00400606448F2030190
:102C00002046FFF726FE10202168C86100BF002083
:102C100084F8400000BF2046616E884770BD000008
:102C20000000FFFFF8B504460D462F46202021681E
:102C3000C86194F84100212806D101212046FFF700
:102C400008FE1120206309E094F84100222805D1F4
:102C500002212046FFF7FDFD122020632068406816
:102C60003849084021684860002060633648E062C7
:102C7000C7F3001030B110202168C861606C40F0CB
:102C80000400606494F84100602807D1C7F3800015
:102C900020B12068406AC0B2009000BF2046FFF714
:102CA00063FE666C94F84100602800D026B1616C28
:102CB0002046FFF7D5FE44E094F8410021281ED1BC
:102CC000202084F841000020206394F8420040282E
:102CD0000AD1002084F8420000BF84F8400000BF01
:102CE0002046A16E88472CE0002084F8420000BFF7
:102CF00084F8400000BF2046616D884721E094F8C9
:102D0000410022281DD1202084F8410000202063AA
:102D100094F8420040280AD1002084F8420000BF05
:102D200084F8400000BF2046E16E884709E000209B
:102D300084F8420000BF84F8400000BF2046A16D27
:102D40008847F8BD00E800FE0000FFFF10B504460C
:102D5000002084F8420094F84100212813D120205B
:102D600084F8410011202063002060630121204687
:102D7000FFF76FFD00BF002084F8400000BF204631
:102D8000616D884712E0202084F841001220206302
:102D90000020606302212046FFF75BFD00BF00209A
:102DA00084F8400000BF2046A16D884710BD000098
:102DB0002DE9F047044689462068D0F800804E4649
:102DC000E76A94F8415020202168C861212D01D084
:102DD000292D07D148F201012046FFF73AFD2120B5
:102DE000206314E0222D01D02A2D07D148F20201E0
:102DF0002046FFF72EFD2220206308E0282D06D173
:102E000048F203012046FFF724FD002020632068DC
:102E1000406840F400402168486020684068C44928
:102E20000840216848602046FFF79EFDC8F38030C7
:102E3000002870D02068006820F480402168086075
:102E4000A06B002865D0A06B0068BA49884258D0B2
:102E5000A06B0068B7491831884252D0A06B006857
:102E6000B449303188424CD0A06B0068B149483138
:102E7000884246D0A06B0068AE496031884240D09D
:102E8000A06B0068AB49783188423AD0A06B0068EB
:102E9000A8499031884234D0A06B0068A549A83178
:102EA00088422ED0A06B0068A349884229D0A06B2D
:102EB0000068A1491831884223D0A06B00689E4960
:102EC000303188421DD0A06B00689B494831884250
:102ED00017D0A06B006898496031884211D0A06B70
:102EE00000689549783188420BD0A06B0068924900
:102EF0009031884205D0A06B00688F49A831884284
:102F000003D1A06B0068406802E0A06B00684068D5
:102F1000608573E0FFE7C8F3C03000286ED02068FA
:102F2000006820F4004021680860E06B002865D04C
:102F3000E06B00687F49884258D0E06B00687D49AB
:102F40001831884252D0E06B00687A4930318842AB
:102F50004CD0E06B006877494831884246D0E06B3E
:102F6000006874496031884240D0E06B0068714964
:102F7000783188423AD0E06B00686E4990318842DF
:102F800034D0E06B00686B49A83188422ED0E06BEA
:102F900000686949884229D0E06B006866491831A9
:102FA000884223D0E06B00686349303188421DD0ED
:102FB000E06B006860494831884217D0E06B0068D8
:102FC0005D496031884211D0E06B00685A49783120
:102FD00088420BD0E06B006857499031884205D099
:102FE000E06B00685449A831884203D1E06B006867
:102FF000406802E0E06B006840686085C6F38000CE
:1030000080B126F004062068406A616A0870606A30
:10301000401C6062208D28B1208D401E2085608D6F
:10302000401E6085608D18B1606C40F004006064E3
:10303000C6F3001000B3C8F30010E8B1608D00BB08
:1030400094F84100282807D1B7F1007F04D1314618
:103050002046FFF7AFFD23E094F8410029280CD16A
:1030600017F5803F09D010202168C8612046FFF77E
:103070007BFC204600F064F812E010202168C86153
:103080000EE010202168C861606C40F004006064AC
:1030900017B1B7F1807F03D1616C2046FFF7E0FCE8
:1030A000002084F842006063606C60B1616C20466F
:1030B000FFF7D6FC94F84100282837D13146204646
:1030C000FFF778FD32E0E06A10F5803F11D020462E
:1030D00000F036F81948E062202084F84100002012
:1030E000206300BF84F8400000BF2046616E88471F
:1030F0001CE094F8410022280CD1202084F84100E3
:103100000020206300BF84F8400000BF2046216EED
:1031100088470BE0202084F841000020206300BF96
:1031200084F8400000BF2046E16D8847BDE8F08785
:1031300000E800FE10000240100402400000FFFF03
:1031400070B5044620680568002084F84200C5F385
:10315000803030B12068006820F480402168086029
:1031600008E0C5F3C03028B12068006820F40040B2
:103170002168086094F84100292811D1282084F89A
:1031800041002120206301212046FFF762FB00BFA0
:10319000002084F8400000BF2046E16D884714E01D
:1031A00094F841002A2810D1282084F841002220D8
:1031B000206302212046FFF74CFB00BF002084F86B
:1031C000400000BF2046216E884770BD2DE9F843BE
:1031D00004460D46164600BF94F84000012802D16F
:1031E0000220BDE8F883012084F8400000BFC5F349
:1031F000001088B1C6F3001070B110202168C861BA
:10320000606C40F00400606420212046FFF758FB0A
:103210002046FFF7A9FB82E0C5F3C010002851D07B
:10322000C6F3801000284DD02068006820F04000D0
:1032300021680860608DA0B320684068C0F3090869
:10324000608DFF2804D9FF2020854FF0807709E0AA
:10325000608D2085E06A10F5803F01D0E76A01E0CB
:103260004FF000770020009094F828203B4641461C
:10327000204600F016FC608D218D401A608594F880
:103280004100222806D12068006840F400402168EF
:10329000086044E02068006840F4804021680860CD
:1032A0003DE0FFE72068406800F00070B0F1007F6B
:1032B00003D02046FFF74AFD31E040212046FFF7CA
:1032C000CFFB2CE0C5F38010F8B1C6F38010E0B15D
:1032D000608DA8B92068406800F00070B0F1007FF0
:1032E0001DD0E06A10F5803F06D12068406840F4A8
:1032F00080402168486012E02046FFF727FD0EE07D
:1033000040212046FFF7ACFB09E0C5F3401030B187
:10331000C6F3401018B129462046FFF783FC00BFD2
:10332000002084F8400000BF00BF5AE7F8B504460B
:103330000D461646684F00BF94F84000012801D1A1
:103340000220F8BD012084F8400000BFC5F3001042
:1033500088B1C6F3001070B110202168C861606C9C
:1033600040F00400606420212046FFF7A9FA2046BF
:10337000FFF7FAFAA8E0C5F3400048B1C6F34000F1
:1033800030B1206D216888624FF0FF3020659BE0EE
:10339000C5F3C010002847D0C6F38010002843D0E2
:1033A00001212046FFF755FA10212046FFF788FA41
:1033B000608D98B3608DFF280DD9FF2020850020F7
:1033C000009094F82820E06C81B24FF08073204682
:1033D00000F067FB0CE0608D20850020009094F8E1
:1033E0002820E06C81B24FF00073204600F059FBBA
:1033F000608D218D401A608594F84100222806D105
:103400002068006840F40040216808605CE02068A3
:10341000006840F480402168086055E0FFE74021E3
:103420002046FFF71DFB4FE0C5F38010D0B3C6F375
:103430008010B8B301212046FFF70BFA1021204677
:10344000FFF73EFA94F84100222800D1234F608D07
:10345000FF280CD9FF202085009794F82820E06CE5
:1034600081B24FF08073204600F01BFB0BE0608DB3
:103470002085009794F82820E06C81B24FF000730B
:10348000204600F00EFB608D218D401A608594F877
:103490004100222807D12068006840F400402168DC
:1034A000086011E006E02068006840F48040216870
:1034B000086009E0C5F3401030B1C6F3401018B100
:1034C00029462046FFF7AEFB00BF002084F84000ED
:1034D00000BF00BF35E7000000200080002400800E
:1034E0002DE9F84304460F461646DFF888813D462D
:1034F00000BF94F84000012802D10220BDE8F88303
:10350000012084F8400000BFC5F3001068B1C6F385
:10351000001050B110202168C861606C40F00400B8
:1035200060642046FFF720FA93E0C5F3800090B175
:10353000C6F3800078B125F004052068406A616A0E
:103540000870606A401C6062208D401E2085608D7E
:10355000401E60857DE0C5F34000D0B1C6F3400059
:10356000B8B1206D401C68B9606A00782168886233
:10357000606A401C6062208D401E2085608D401E68
:10358000608566E0206D216888624FF0FF3020651D
:103590005FE0C5F3C01050B3C6F3801038B3608D40
:1035A00000B3208DF0B9608DFF280DD9FF20208554
:1035B0000020009094F82820E06C81B24FF08073D6
:1035C000204600F06EFA44E0608D208500200090D7
:1035D00094F82820E06C81B24FF00073204600F090
:1035E00060FA36E040212046FFF73AFA31E0C5F3B1
:1035F000801000B3C6F38010E8B101212046FFF728
:1036000028F902212046FFF75BF994F841002228AF
:1036100001D1DFF86480608DFF280DD9FF2020855F
:10362000CDF8008094F82820E06C81B24FF08073D0
:10363000204600F036FA0CE0608D2085CDF8008041
:1036400094F82820E06C81B24FF00073204600F01F
:1036500028FAC5F3401030B1C6F3401018B129461E
:103660002046FFF7DFFA00BF002084F8400000BFCB
:1036700000BF43E700200080002400802DE9F047D0
:1036800004460F461546D4F82C804FF0000900BFC1
:1036900094F84000012802D10220BDE8F087012003
:1036A00084F8400000BFC7F3401038B1C5F34010A4
:1036B00020B139462046FFF77BFB42E1C7F30010FB
:1036C000002873D0C5F300100028FAD0C5F380306D
:1036D00018B9C5F3C030002869D0E06B00286ED05F
:1036E000C5F3C03000286AD0E06B00689849884272
:1036F00058D0E06B006896491831884252D0E06B90
:1037000000689349303188424CD0E06B00689049A2
:103710004831884246D0E06B00688D49603188426C
:1037200040D0E06B00688A49783188423AD0E06B3B
:10373000006887499031884234D0E06B0068844942
:10374000A83188422ED0E06B00688249884229D097
:10375000E06B00687F491831884223D0E06B006835
:103760007C49303188421DD0E06B0068794948318E
:10377000884217D0E06B006876496031884211D0EA
:10378000E06B00687349783188420BD0E06B0068C9
:1037900070499031884205D0E06B00686D49A831CE
:1037A000884206D1E06B0068406805E0BFE0BAE0FF
:1037B00005E0E06B0068406808B94FF00109A06BB4
:1037C00000286BD0C5F38030002867D0A06B00685C
:1037D0005F49884258D0A06B00685D491831884223
:1037E00052D0A06B00685A49303188424CD0A06B4F
:1037F000006857494831884246D0A06B0068544958
:103800006031884240D0A06B0068514978318842CD
:103810003AD0A06B00684E499031884234D0A06BFA
:1038200000684B49A83188422ED0A06B00684949F6
:10383000884229D0A06B006846491831884223D0BD
:10384000A06B00684349303188421DD0A06B0068EE
:1038500040494831884217D0A06B00683D4960312B
:10386000884211D0A06B00683A49783188420BD069
:10387000A06B006837499031884205D0A06B006882
:103880003449A831884203D1A06B0068406802E047
:10389000A06B0068406808B94FF00109B9F1010F49
:1038A00020D194F84100282807D1B8F1007F04D135
:1038B00039462046FFF77EF943E094F84100292875
:1038C0000CD118F5803F09D010202168C86120462E
:1038D000FFF74AF82046FFF733FC32E0102021685A
:1038E000C8612EE010202168C861606C40F00400BF
:1038F000606494F84160B8F1000F02D0B8F1807FA5
:103900001FD1212E01D0292E02D12120206305E0D4
:10391000222E01D02A2E01D122202063616C204664
:10392000FFF79EF80DE010202168C86109E0C7F399
:10393000C00030B1C5F3C00018B139462046FFF7CA
:1039400027F800BF002084F8400000BF00BFA4E6B5
:1039500010000240100402402DE9F0410446884660
:103960001646E56A474600BF94F84000012802D198
:103970000220BDE8F081012084F8400000BFC7F3B9
:10398000401038B1C6F3401020B139462046FFF749
:103990000FFA7FE0C7F30010A8B3C6F3001090B38E
:1039A000608D00BB94F84100282807D1B5F1007F55
:1039B00004D139462046FFF7FDF86BE094F841004A
:1039C00029280CD115F5803F09D010202168C86145
:1039D0002046FEF7C9FF2046FFF7B2FB5AE0102051
:1039E0002168C86156E010202168C861606C40F011
:1039F0000400606415B1B5F1807F4BD1616C204645
:103A0000FFF72EF846E0FFE7C7F38000D0B1C6F31A
:103A10008000B8B1608D60B12068406A616A08704A
:103A2000606A401C6062208D401E2085608D401EB3
:103A30006085608D30BB15F5803F2BD02046FFF7A9
:103A40007FFB27E0C7F3C00038B1C6F3C00020B148
:103A500039462046FEF79CFF1CE0C7F3400088B1C2
:103A6000C6F3400070B1608D68B1606A007821686B
:103A70008862606A401C6062608D401E6085208D97
:103A8000401E208506E0B5F1807F00D015B92046A4
:103A9000FFF756FB00BF002084F8400000BF00BFC6
:103AA00067E7F0B5059CC1F309064FF47F0707EA05
:103AB00002473E431E43264326F0004506687668CB
:103AC0004FF4806707EA545767F0FC2747F4C04774
:103AD000BE432E4307687E60F0BD10B5044694F8DF
:103AE000410060280CD1202084F841000020206390
:103AF00000BF84F8400000BF2046616F884708E09F
:103B00000020206300BF84F8400000BF2046216FE2
:103B1000884710BD1FB5FDF765FD01208DF8000039
:103B2000002001901F208DF8080000208DF80B0068
:103B30008DF80F008DF80E0001208DF80D0000208B
:103B40008DF801008DF80A0087208DF8090001200A
:103B50008DF80C006846FDF717FD01208DF8000078
:103B60004FF01040019017208DF8080003208DF8C9
:103B70000B0001208DF80F008DF80E0000208DF84D
:103B80000D0001208DF801008DF80A0000208DF84D
:103B900009008DF80C006846FDF7F6FC01208DF851
:103BA00000004FF0C040019019208DF8080003205C
:103BB0008DF80B0001208DF80F0000208DF80E000D
:103BC00001208DF80D0002208DF8010000208DF8F5
:103BD0000A008DF8090001208DF80C006846FDF7F9
:103BE000D3FC0420FDF714FD1FBD00008CB001685C
:103BF0000B9141680A9181680991C1680891016936
:103C000007914169069181690591C169049108494B
:103C1000096803910649091D0968029104490C319C
:103C200009680191024910310968009100BFFEE75F
:103C300028ED00E07047704710B500F0E7FA10BDBE
:103C40002DE9F04104460D46164600BF0E4F387868
:103C5000532801D000F0DAFA00BFEFF311800746D5
:103C6000202080F3118800BF00BF3246294620463D
:103C700000F00CF88046F8B280F3118800BF00BF56
:103C80004046BDE8F0810000DC0D00202DE9F04742
:103C9000074688461646C24607EB47011B4800EB1D
:103CA000C109D9F8140020B1012811D0022826D169
:103CB0001EE0484600F0E2FA0546B54201D2002473
:103CC00005E0344632465146484600F02EFC18E0E6
:103CD000484600F0D3FA0546B54201D2284600E036
:103CE0003046044622465146484600F01EFC08E095
:103CF00032465146484600F0DDFB044601E0002410
:103D000000BF00BF2046BDE8F0870000F40D002092
:103D10000FB438B5044606A800906A4620460599B7
:103D200000F008F8054600200090284638BC5DF8F1
:103D300014FB00002DE9F74F98B00D46144602A879
:103D40001390402014900020159018981790002090
:103D5000169000BF2E786D1C06B9FBE0252E73D19E
:103D600000274FF0010A00BF2E78232E12D02B2EF1
:103D70000CD02D2E02D0302E10D103E047F00107D9
:103D80006D1C0EE047F002076D1C0AE047F00407C7
:103D90006D1C06E047F008076D1C02E04FF0000ABA
:103DA00000BF00BFBAF1000FDED14FF0000900BF25
:103DB0002E78302E01DB392E00DD07E06D1CA6F1D8
:103DC000300009EB890100EB4109F1E700BF002059
:103DD000129080462E782E2E1ED16D1C28782A280F
:103DE00008D16D1C012012902168081D2060D1F8B7
:103DF000008011E000BF2E78302E01DB392E00DD6F
:103E000009E0012012906D1CA6F1300008EB88013A
:103E100000EB4108EFE700BF2E7800BF6C2E01D009
:103E2000682E02D16D1C2E7800E000E0F6E700BF9E
:103E3000702E6CD009DC252E7BD0582E35D0632E09
:103E40000AD0642E7AD113E07CE0732E3BD0752E1D
:103E50001CD0782E72D127E02168081D2060D1F88F
:103E600000A00AF0FF0B594613A800F001FB66E022
:103E70002168081D2060D1F800A043460A2251465F
:103E800013A8CDE9009700F007FA58E02168081D53
:103E90002060D1F800A043460A22514613A8CDE97C
:103EA000009700F06FFA4AE000BF2168081D20600B
:103EB000D1F800A043461022514613A8CDE900973F
:103EC00000F060FA3BE02168081D2060D1F800B0E6
:103ED000BBF1000F03D10FF2A40B0020129000BF22
:103EE0009BF800600BF1010B06B90EE0129818B1B7
:103EF000B8F1000F00D108E0314613A800F0B8FA7D
:103F0000A8F1010816980028EADA00BF17E0216836
:103F1000081D2060D1F800A0002008210B461022C7
:103F2000CDE90010514613A800F02CFA07E000E09C
:103F300004E0252113A800F09BFA00E000BF00BFB9
:103F40006D1C03E0314613A800F092FA1698002881
:103F5000BFF600AF00BF169800280ADD159820B103
:103F600002A9159A1898FFF76BFEDDE915100844B1
:103F7000169016981BB0BDE8F08F0000284E554CE7
:103F80004C2900007047000010B59CB00024544834
:103F9000006820F004005249086000BF0020009033
:103FA0005048006820F001004E490860084600684B
:103FB00000F0010000904A480C30006840F4404096
:103FC00047490C3108600846006800F44040009002
:103FD00000BF00BF00BF42480C30006800F4005032
:103FE000B0F5005FF7D1012001900004029000209D
:103FF0000490089002200A9002210B9105210C9157
:10400000A0210D910021139102210E911091042104
:104010000F91002112910821119101A8FDF724FEB2
:1040200004460CB1FCF721FB3F20149003201590AF
:104030000020169008201790402018901990000139
:104040001A9040201B90042114A8FDF767FB04463A
:104050000CB1FCF70AFB2448006840F080002249BC
:10406000086000BF2048F430006840F002001E499C
:10407000F43108600846006800F00200009000BFBC
:1040800000BF00BF1848DC30006840F000501649FF
:10409000DC3108600846006800F00050009000BF66
:1040A00000BF00BF0846006840F080400860084636
:1040B000006800F08040009000BF00BF00BF0846CD
:1040C000006840F0004008600846006800F00040CA
:1040D000009000BF00BFFCF7ADFE1CB010BD00009B
:1040E0000C4802582C040058004402583448006818
:1040F00040F47000324908603248006800F00F0058
:10410000072806D22F48006820F00F00C01D2D4957
:1041100008602D48006840F001002B49086000202D
:104120002949103108602848006828490840264974
:1041300008602448006800F00F00072806D92148CD
:10414000006820F00F00C01D1E49086000201E49B5
:1041500018310860091D0860091D08601C481A49CB
:10416000283108601B48091D08601B48091D0860AC
:104170000020091D08601848091D08600020091D5D
:1041800008601548091D08600020091D08600E48D8
:10419000006820F480200C49086000200A49603142
:1041A00008600E4800686FF30F00B0F1005F02D2A4
:1041B00001200B49086043F2D2000A4908607047A9
:1041C00088ED00E000200052004402587FEDF6EA3E
:1041D000000202020000FF01800201010010005CE9
:1041E000088100510040005210B50248FEF782F9E4
:1041F00010BD00001801003010B50248FEF77AF932
:1042000010BD00005C00003000BFFEE770B5144C2C
:10421000A8212046FCF708F903202061606111A065
:10422000A0611349E1614FF4806121620021A16224
:104230006162E1620BA020660E4961661021A166F1
:1042400000212167E1666167002505E0C5F10F00E7
:104250000949085C60556D1C102DF7D370BD000036
:10426000DC0D00205465726D696E616C0000000009
:10427000B4030030B4070030884B039010B50146FA
:104280000A69CB689A4204D88C68641EE41AA018A4
:1042900001E0D41A601E10BD2DE9FC5F06460F46F2
:1042A00092469846DDE90C45002F01DA784200E09D
:1042B000384683464FF0010903E09BFBFAFB09F106
:1042C0000109D345F9DAC84500D9C14634B1002FF8
:1042D00003DB05F00400042800D1641E05F0020091
:1042E00010B1B8F1000F11D005F0010070B96CB138
:1042F00008E0641E2021304600F0BAF8F06800287B
:1043000000DA02E00CB1A145F3D300BFF068002849
:1043100036DB002F05DA7F422D21304600F0A8F869
:1043200007E005F00400042803D12B21304600F0FB
:104330009FF8F068002823DB05F00200022814D162
:1043400005F0010088B9B8F1000F0ED16CB108E09A
:10435000641E3021304600F08BF8F068002800DA47
:1043600002E00CB1A145F3D300BFF068002807DBE1
:104370004346524639463046CDE9004500F002F842
:10438000BDE8FC9F2DE9FC5F8046894615461E4628
:104390000C9CCDF804900127BB4605E00198B0FBCA
:1043A000F5F001900BF1010B0198A842F6D25E45A1
:1043B00000D9B3460D9800F00100D0B9CCB10D98EA
:1043C00000F00200022803D116B93020009001E06D
:1043D0002020009009E0641E4046009900F048F853
:1043E000D8F80C00002800DA02E00CB1A345F2D3A3
:1043F00000BFD8F80C00002835DB09E0012E01D9F8
:10440000761E04E0B9FBF7FAAA4500D201E06F433B
:10441000F4E700BF00BFB9FBF7FA0AFB179913488E
:1044200010F80A10404600F023F8D8F80C000028D5
:1044300000DA03E0B7FBF5F7002FECD100BF0D98D1
:1044400000F0010078B174B109E0641E20214046FB
:1044500000F00EF8D8F80C00002800DA02E00CB1E9
:10446000A345F2D300BFBDE8FC9F0000994B039029
:1044700070B504460E46A568681C6168814206D383
:1044800020684655681CA060E068401CE060D4E9E4
:10449000011088420DD1A26821682069FFF7D0FB86
:1044A000A168884203D04FF0FF30E06001E00020B7
:1044B000A06070BD2DE9F05F0446894617464FF0B5
:1044C000000AE56800BFD4F81080A84503D9A8EB1E
:1044D0000500461E04E0A5EB0800401CA1680E1A6A
:1044E000A068401BB04201D9304601E0A068401BE3
:1044F0000646BE4201D2304600E0384606466068B5
:1045000000EB050B324649465846FBF766FFB244BE
:10451000B144BF1B3544A068A84200D10025E56026
:10452000002FD0D15046BDE8F09F2DE9F04704465A
:1045300089461546E668A068871BAF420AD96068BD
:1045400000EB060A2A4649465046FBF746FF70191B
:10455000E06014E0B846606800EB060A424649464F
:104560005046FBF73AFFA5EB0708D4F804A009EB87
:10457000070142465046FBF730FFC4F80C80BDE807
:10458000F087000002480068C0F302207047000076
:104590000CED00E010B5002804DB0A07130E054AF5
:1045A000135406E00A07140E034A00F00F031B1F02
:1045B000D45410BD00E400E018ED00E002E008C8AB
:1045C000121F08C1002AFAD170477047002001E08D
:1045D00001C1121F002AFBD1704770B504460025A7
:1045E00008E02168481C20600878303805EB850118
:1045F00000EB41052168087800F004F80028F0D1AC
:10460000284670BD0146302903DB392901DC012031
:1046100070470020FCE7000010B54421074800F077
:10462000DFFE00220A21064828F0D2F90549086079
:1046300002F0AEFA00200449087010BD58100020A6
:10464000716C009094050020900500202DE9F04F3A
:1046500087B007460C4615462946204600F066F905
:1046600020B94FF0FF3007B0BDE8F08F0022294697
:10467000204600F0FDF808B10020F4E700262046AF
:1046800013F0C5FB401E00B20490204613F037FB28
:10469000401E00B2039068886188401A0FFA80FAC1
:1046A000BAF1000F16DD2088ADF814006088ADF86F
:1046B0001600A088ADF818006088504400B2ADF82C
:1046C0001A003046711C4EB207EBC000059901601C
:1046D00006994160E8886188411A0398401A0FFAE8
:1046E00080FBBBF1000F1CDDB5F90600B4F9061024
:1046F000884216DA2088ADF81400E888ADF8160074
:10470000A088ADF81800E888584400B2ADF81A0047
:104710003046711C4EB207EBC00005990160069946
:104720004160B5F90200B4F90210884202DDB5F922
:10473000020001E0B4F902008046B5F90600B4F9C0
:104740000610884202DAB5F9060001E0B4F9060065
:1047500002900298A0EB08000FFA80F928882188BF
:10476000401A00B20190019800281BDDB9F1000F3A
:1047700018DD2088ADF81400ADF816802188019866
:10478000084400B2ADF8180008EB090000B2ADF81B
:104790001A003046711C4EB207EBC000059901604B
:1047A00006994160A8882188411A0498401A00B2ED
:1047B00000900098002818DDA888ADF81400ADF826
:1047C0001680A9880098084400B2ADF8180008EBDC
:1047D000090000B2ADF81A003046711C4EB207EB6A
:1047E000C000059901600699416030463BE730B54D
:1047F0000346B1F90040B2F90050AC4202DDB1F914
:10480000004001E0B2F900401C80B1F90240B2F969
:104810000250AC4202DDB1F9024001E0B2F90240BF
:104820005C80B1F90440B2F90450AC4202DAB1F94B
:10483000044001E0B2F904409C80B1F90640B2F9AD
:104840000650AC4202DAB1F9064001E0B2F9064086
:10485000DC800120B3F90040B3F90450AC4205DC20
:10486000B3F90240B3F90650AC4200DD002030BD80
:10487000F8B504460D4616460027B4F90000B5F910
:104880000010884212DBB4F90200B5F90210884228
:104890000CDBB4F90400B5F90410884206DCB4F965
:1048A0000600B5F90610884200DC01270FB9002088
:1048B000F8BD0EB90120FBE72088ADF80000608844
:1048C000ADF8020032466946284600F0A7F808B95C
:1048D0000020EDE7A088ADF800006088ADF8020088
:1048E00032466946284600F099F808B90020DFE70B
:1048F0002088ADF80000E088ADF802003246694635
:10490000284600F08BF808B90020D1E7A088ADF860
:104910000000E088ADF8020032466946284600F003
:104920007DF808B90020C3E70120C1E70246B2F9CB
:104930000000B1F90430984213DCB2F90400B1F977
:10494000003098420DDBB2F90200B1F9063098420E
:1049500007DCB2F90600B1F90230984201DB012010
:1049600070470020FCE7F8B504460D461646B4F93A
:104970000400B5F90010884211DBB4F90600B5F95E
:10498000021088420BDBB4F90000B5F9041088422C
:1049900005DCB4F90200B5F90610884201DD0120FA
:1049A000F8BD0EB90020FBE72088ADF80000608854
:1049B000ADF8020032466946284600F02FF808B1EB
:1049C0000020EDE7A088ADF800006088ADF8020097
:1049D00032466946284600F021F808B10020DFE79A
:1049E0002088ADF80000E088ADF802003246694644
:1049F000284600F013F808B10020D1E7A088ADF8F0
:104A00000000E088ADF8020032466946284600F012
:104A100005F808B10020C3E70120C1E72DE9FC5FDC
:104A200005460E4614464FF0000AB6F90000B5F9E7
:104A30000010884213DBB6F90000B5F90410884273
:104A40000DDCB6F90200B5F90210884207DBB6F9B1
:104A50000200B5F90610884201DC4FF0010ABAF1F4
:104A6000000F02D10020BDE8FC9F002C01DC0120DA
:104A7000F9E7284613F0CBF9834600EBDB704710CB
:104A8000284613F03CF9834600EBDB704FEA6008E0
:104A9000474501DA384600E0404681464C4500DD96
:104AA0004C462888ADF800002888204400B2ADF8B4
:104AB00004006888ADF802006888204400B2ADF8B0
:104AC0000600002231466846FFF7A8FF80B1BDF816
:104AD0000400204400B2ADF80400BDF806002044F4
:104AE00000B2ADF806003146684624F0DDFABAE7B8
:104AF000E888001B00B2ADF80200E888ADF80600B7
:104B0000002231466846FFF789FF80B1BDF80400F6
:104B1000204400B2ADF80400BDF80200001B00B252
:104B2000ADF802003146684624F0BEFA9BE7A8883B
:104B3000001B00B2ADF80000A888ADF80400002208
:104B400031466846FFF76AFF80B1BDF80000001BE0
:104B500000B2ADF80000BDF80200001B00B2ADF8D5
:104B600002003146684624F09FFA7CE76888ADF879
:104B700002006888204400B2ADF8060000223146E9
:104B80006846FFF74BFF80B1BDF80000001B00B284
:104B9000ADF80000BDF80600204400B2ADF80600F4
:104BA0003146684624F080FA5DE701205BE710B5E6
:104BB000B1F90030B2F90040A34202DAB1F9003095
:104BC00001E0B2F900300380B1F90230B2F90240DD
:104BD000A34202DAB1F9023001E0B2F902304380B7
:104BE000B1F90430B2F90440A34202DDB1F9043056
:104BF00001E0B2F904308380B1F90630B2F9064021
:104C0000A34202DDB1F9063001E0B2F90630C380FB
:104C100010BD10B5044614B916F00CF804461CB9C2
:104C200000BF00BF002010BD6068FCE72DE9FE4317
:104C3000074627F055FE8146002002901FB1A44987
:104C4000F868086003E015F0F5FFA1490860A04985
:104C50000968086924F0BCF89D480068406920B1E3
:104C60009B490968486924F0B3F899490968C869FB
:104C700024F0AEF896490968086A24F0A9F8944827
:104C80000068006940B9002091490968A1F8500105
:104C900000BF00BFBDE8FE8324F0BAFA2AF0EAFDA7
:104CA0002AF022FA8A480068B0F85001002856D04D
:104CB000874800680068007C00F0010040B3844829
:104CC00000680068C068406810B3002419E080489C
:104CD000006800F59870005D00B110E07C48006845
:104CE00000F5AC7000F0DEFB054679480068303016
:104CF00000EBC400016829604068686000BF601C68
:104D000084B273480068B0F85001A042DFDC00BFF5
:104D10004FF480716E48006830301EF093F8202107
:104D20006B48006800F598701EF08CF80020684908
:104D30000968A1F85001484627F0C4FD0290644874
:104D400000680068406A50B16149096808686049B4
:104D5000096809684B6A5F490A68029998471DF01B
:104D6000E9FD00F0FBF800F0C3F85B484669002E4F
:104D700053D100BF15F05EFF054615F08EFF0446C7
:104D80001CF00CFA064600227F21304623F06AFE12
:104D900000BF00221146104615F0E8F80090BDF85B
:104DA00000100846002201460190304623F03EFEE6
:104DB00000BFFF221146104615F0D8F80090BDF84C
:104DC00000100846002201460190304623F046FFBD
:104DD00000220321304623F019FF00220321304630
:104DE00023F0F0FE00220321304623F0F7FE0022DC
:104DF0000321304623F0FEFE00220321304623F03B
:104E000021FF36A130461DF0F1F900231A46062194
:104E100030461EF0E8FC304846612F49086827F00C
:104E200051FDB0F5967F10D22A48006841F28831D2
:104E300088424BD92848406802990844264948606E
:104E400008468068401C886040E027F049FD224900
:104E500008601F480068406840B11D48006840680D
:104E600000684FF47A71B1FBF0F400E064241A4852
:104E7000406810B90120184948601748806808B98F
:104E8000254608E0144880684FF47A714843124977
:104E90004968B0FBF1F500200F4948608860A542E1
:104EA00000D925460C48006928440B49086108468A
:104EB000C068401CC86027F0F9FDC0F16408434693
:104EC0002A4607A130461DF0E9F900BF00BFE1E620
:104ED0004C04002048040020C40E00203F000000C5
:104EE0002575204650530A25752525204350550029
:104EF00010B5002416E0C4EBC4000C4951F82000A2
:104F000030B1C4EBC401094A52F821001DF0C4FDC0
:104F1000C4EBC401054A02EB81001C211DF092FF85
:104F2000601CC4B2042CE6DB10BD0000341100206C
:104F30000146094A10680BE042688A4202D00268C2
:104F40008A4204D1027E22F00102521C027640699C
:104F50000028F1D1704700002004002070470000B5
:104F600010B50421014800F03BFA10BD4C100020A0
:104F700010B52021014800F033FA10BD6410002064
:104F80002DE9FF4704460D4616461F46DDE90C890C
:104F90006FB9B8F5807F0AD1002020806080681E3C
:104FA00000B2A080701E00B2E080BDE8FF87002044
:104FB0000090019002900390ADF80450ADF80A60A3
:104FC000ADF80C50ADF80E604B4642463946684687
:104FD00023F0A0FF4B464246394601A823F09AFF32
:104FE0004B464246394602A823F094FF4B464246C0
:104FF000394603A823F08EFFBDF90000BDF9041067
:10500000884202DABDF9000001E0BDF90400BDF9F3
:105010000810BDF90C20914202DABDF9081001E038
:10502000BDF90C1088420BDABDF90000BDF904107F
:10503000884202DABDF900000DE0BDF904000AE083
:10504000BDF90800BDF90C10884202DABDF908006C
:1050500001E0BDF90C00801E00B22080BDF9000007
:10506000BDF90410884202DDBDF9000001E0BDF980
:105070000400BDF90810BDF90C20914202DDBDF914
:10508000081001E0BDF90C1088420BDDBDF90000ED
:10509000BDF90410884202DDBDF900000DE0BDF944
:1050A00004000AE0BDF90800BDF90C10884202DDD9
:1050B000BDF9080001E0BDF90C00801C00B2A08021
:1050C000BDF90210BDF90600814202DABDF9020005
:1050D00001E0BDF90600BDF90A20BDF90E108A42B3
:1050E00002DABDF90A1001E0BDF90E1088420BDAB0
:1050F000BDF90210BDF90600814202DABDF90200D5
:105100000DE0BDF906000AE0BDF90A10BDF90E0078
:10511000814202DABDF90A0001E0BDF90E00801EED
:1051200000B26080BDF90210BDF90600814202DDC7
:10513000BDF9020001E0BDF90600BDF90A20BDF984
:105140000E108A4202DDBDF90A1001E0BDF90E1011
:1051500088420BDDBDF90210BDF90600814202DD77
:10516000BDF902000DE0BDF906000AE0BDF90A1024
:10517000BDF90E00814202DDBDF90A0001E0BDF972
:105180000E00801C00B2E08000BF0EE72DE9F7435F
:10519000054616460024134C27F0A2FB80463346F2
:1051A00029462046019A1BF08FF807465FB900BFD9
:1051B00000BF2C2120461DF045FE4FF00040A062AC
:1051C0000020BDE8FE830020A062E06918B94046D7
:1051D00027F078FBE061E06908B90120E061204632
:1051E000EFE700008810002010B51421114800F0EE
:1051F000F7F81BF01BF8044600BF1CB900BF00BF46
:1052000000BFFEE700BF14B900BF00BF10BD0A49D0
:1052100020461BF0F3F8094920461BF0F1F8084935
:1052200020461BF0EFF8074920461BF0E5F800BFC9
:10523000ECE7000070100020DDF90190B1FE019054
:1052400039010290A5F901902DE9FF4104460F466E
:1052500014B915F0EFFC04460CB9BDE8FF812046F7
:1052600015F081FD00B9F8E794F82800C0F380003C
:1052700010B100BF00BFF0E71FB90020A4F8500133
:10528000EBE70020ADF80800ADF80A00204615F065
:10529000E9FC401E00B2ADF80C00204615F048FDB8
:1052A000401E00B2ADF80E0002AA39466846FFF76C
:1052B0009EFA064606B9D0E72068007CC0F340009D
:1052C00060B102982063039860630120A4F8500144
:1052D000606810B1606827F0A5FCBEE720688069AF
:1052E00018B1206869468269904700250BE004F1F7
:1052F000300000EBC50100226846FFF7B9FA00B1A3
:10530000ABE7681C85B2B4F85001A842EFDCB4F8F2
:105310005001202809DAB4F8502104F1300101EBE2
:10532000C200694612F059FC0BE00020A4F85001BD
:10533000B4F8502104F1300101EBC20002A912F0CF
:105340004CFCB4F85001401CA4F85001606810B146
:10535000606827F067FC00BF7FE770B50546284608
:1053600000F013F8044600260CE02146284600F021
:1053700024F806462146284600F0C0F820461DF0D5
:105380008BFB3446002CF0D170BD014609B90020DA
:1053900070474868FCE770B5064600243046FFF7C2
:1053A000F4FF054605E0641C2946304600F005F888
:1053B0000546002DF7D1204670BD02460B46106809
:1053C000001D03441868704702460B4610680344EA
:1053D00018687047014609B9002070478868FCE7E3
:1053E000002242608260CA1C22F003010160704703
:1053F00070B50446216801F108001DF06FFA0546FA
:10540000A5B100222946204628F0F2FF2946204671
:10541000626828F0DFFF606820B12A462046616894
:1054200028F0E6FF6560A06800B9A560284670BD59
:105430002DE9F04106460D4606B115B90020BDE83C
:10544000F0813046FFF7A1FFA84206D13046FFF7B2
:10545000CFFF044624BB0020F1E7316801F10800CA
:105460001DF03CFA04460CB90020E8E72946304616
:10547000FFF7AAFF074622463946304628F0AAFF22
:105480003A462146304628F0B3FF224629463046A8
:1054900028F0AEFF2A462146304628F09BFF00BF89
:1054A0002046CCE770B50446216801F108001DF0E4
:1054B00015FA0546A5B100222946204628F08AFFA4
:1054C00029462046A26828F093FFA06820B12A460A
:1054D0002046A16828F07EFFA560606800B965607D
:1054E000284670BD014609B901207047486818B9BF
:1054F000886808B90120F8E70020F6E72DE9F041B7
:1055000004460D460CB9BDE8F0812046FFF73DFF8B
:10551000A8420FD129462046FFF74FFF6060606820
:1055200010B90020A0602FE000222046616828F01A
:105530005FFF29E02046FFF74DFFA8420FD1294623
:105540002046FFF741FFA060A06810B9002060600E
:105550001AE000222046A16828F03CFF14E029460A
:105560002046FFF731FF064629462046FFF725FF74
:1055700007463A463146204628F02CFF3246394647
:10558000204628F035FF00BF00BFBCE710B5044639
:105590002068806818B1206821468268904720689A
:1055A000006828B12068006820602046FFF7EEFF01
:1055B00010BD0146886818B18868B0F916007047B8
:1055C0000020FCE70146886818B18868807E800961
:1055D00070470020FCE72DE9F04104460D461646D1
:1055E0001DB916B90120BDE8F08120461EF048FB28
:1055F000A068008A284400B2A1680882A068408A96
:10560000304401B2A0684182012332462946204637
:1056100021F094FE00220B21204619F0A1FA074642
:10562000012F01D03846DEE7204621F0B0FD0120F1
:10563000D9E7F7B582B004460E4614B9049805B010
:10564000F0BD00BF62223146204620F0B7FE019037
:10565000019D00BFBDB12868A8B100BF63223146DB
:10566000204620F0ABFE01900198C0B207464FB132
:105670003A462B682846049998470190BDF80400E3
:10568000ADF8100000BF0498D9E700002DE9F04FF5
:1056900095B004468B4691469A461E9D608C20F03C
:1056A000080008306084A4F820902A8959462046D2
:1056B00020F084FE1490A4F820A02A8959462046A0
:1056C00020F07CFE1390608C20F008006084DDE9FF
:1056D000131088420CD1DDE91310884208D1BDF8BF
:1056E0005000BDF84C10884202D115B0BDE8F08FD3
:1056F000A4F820902A895946204620F05FFE149095
:10570000A4F820A0594620460FF0CCFB129029891E
:10571000129A1068149A25F06DFB28890B2833D152
:1057200047F6FF711498884202D0139888422BD113
:10573000204621F03EF9009000EBD0704710204643
:105740001FF02CFB009000EBD0704FEA600847F68A
:10575000FF711498884208D1781C08F10101884231
:1057600000DA01E008F10100149047F6FF71139888
:10577000884208D1781C08F10101884200DA01E072
:1057800008F10100139000BF2348FFF731FE0646E1
:1057900000BF1EB900BF00BF00BFFEE700BF06B9D3
:1057A000A3E71498F0601398306134602889B080C2
:1057B000C6F808B001A811F0B7FA314601A811F0F7
:1057C00072FB164901A811F032FB1548039000BF87
:1057D000144901A811F03DFBFF22002101A811F09E
:1057E0004EFB298801A811F03EFB698801A811F041
:1057F00019FBE868089000BF01A8002190F842203A
:1058000061F3000280F8422000BF2869079001A8D8
:1058100011F062FB00BF68E77C100020C13E0390DE
:10582000694103909940039010B514210148FFF796
:10583000D7FD10BD7C1000202DE9FE4F04460F4619
:1058400090464FF0000900254CE1E06800EBC500F0
:105850004068C0F3406000B143E1E16801EBC5017D
:10586000496821F07F4023F079FA064626EA0700CE
:1058700008B9012000E00020029026EA080008B9DB
:10588000012000E000200190DDE90101814270D09B
:10589000E06850F835A04FF0000B6A4610215046E2
:1058A00024F04EFE10B14FF0010B98E06A46112132
:1058B000504624F045FE10B14FF0010B8FE06A46D0
:1058C0001221504624F03CFE10B14FF0010B86E04F
:1058D0006A461321504624F033FE10B14FF0010BFD
:1058E0007DE06A461521504624F02AFE10B14FF0A3
:1058F000010B74E06A461421504624F021FE10B1D9
:105900004FF0010B6BE06A460A21504624F018FE66
:1059100010B14FF0010B62E06A466B21504624F053
:105920000FFE10B14FF0010B59E06A466C21504652
:1059300024F006FE10B14FF0010B50E06A46012141
:10594000504624F0FDFD10B14FF0010B47E06A46D0
:105950000421504624F0F4FD10B14FF0010B3EE05D
:105960006A460221504624F0EBFD18B14FF0010BBE
:1059700035E0B5E06A460321504624F0E1FD10B160
:105980004FF0010B2BE06A460521504624F0D8FD6C
:1059900010B14FF0010B22E06A460621504624F078
:1059A000CFFD10B14FF0010B19E06A46322150468D
:1059B00024F0C6FD10B14FF0010B10E06A466E21D5
:1059C000504624F0BDFD10B14FF0010B07E06A46D0
:1059D0006D21504624F0B4FD08B14FF0010BBBF12E
:1059E000000F02D00320BDE8FE8F6A4669215046B1
:1059F00024F0A6FD10B14FF0020970E06A466A215A
:105A0000504624F09DFD10B14FF0020967E06A4650
:105A10006E21504624F094FD10B14FF002095EE073
:105A20006A466D21504624F08BFD10B14FF00209FB
:105A300055E06A463721504624F082FD10B14FF000
:105A400002094CE06A463821504624F079FD10B135
:105A50004FF0020943E06A463521504624F070FDBC
:105A600010B14FF002093AE06A464021504624F056
:105A700067FD10B14FF0020931E06A4645215046FA
:105A800024F05EFD10B14FF0020928E06A46412182
:105A9000504624F055FD10B14FF002091FE06A4650
:105AA0004221504624F04CFD10B14FF0020916E09F
:105AB0006A464321504624F043FD10B14FF00209DD
:105AC0000DE06A464921504624F03AFD10B14FF0EE
:105AD000020904E0B9F1000F01D14FF0010900BF44
