:020000040800F2
:10000000E819002039030008F13D000865030008E5
:10001000B10200083B04000815460008000000007B
:1000200000000000000000000000000091430008F4
:100030007105000800000000F33D00080100000009
:100040005703000857030008570300085703000828
:100050005703000857030008570300085703000818
:100060005703000857030008570300085703000808
:1000700057030008570300085703000857030008F8
:1000800057030008570300085703000857030008E8
:1000900057030008570300085703000857030008D8
:1000A00057030008F54500085703000857030008E8
:1000B00057030008570300085703000857030008B8
:1000C00057030008252A0008152A000857030008CE
:1000D0005703000857030008570300085703000898
:1000E00057030008570300080000000057030008EA
:1000F0005703000857030008570300085703000878
:100100005703000857030008054600085703000876
:100110005703000857030008570300085703000857
:100120005703000857030008570300085703000847
:100130005703000857030008570300085703000837
:1001400000000000000000000000000000000000AF
:100150005703000857030008570300085703000817
:100160005703000857030008570300085703000807
:100170005703000857030008570300080000000059
:1001800057030008570300085703000857030008E7
:1001900057030008570300085703000857030008D7
:1001A00057030008570300085703000857030008C7
:1001B00057030008570300085703000857030008B7
:1001C00057030008570300085703000857030008A7
:1001D0005703000857030008570300085703000897
:1001E0005703000857030008570300085703000887
:1001F0005703000857030008570300085703000877
:100200005703000857030008570300085703000866
:100210005703000857030008570300085703000856
:1002200057030008570300085703000800000000A8
:100230005703000857030008000000005703000898
:100240005703000857030008570300085703000826
:100250005703000857030008570300085703000816
:100260005703000857030008570300085703000806
:100270005703000857030008570300080000000058
:100280005703000857030008570300080000000048
:100290000000000057030008DFF810D000F090F8CD
:1002A0000048004781530008AFF30080E8190020A0
:1002B0001EF0040F0CBFEFF30880EFF3098003F08A
:1002C00073BD00000246D2E84F0F411CC2E8431F35
:1002D00003B1F8E77047024652E8000F411C42E8BC
:1002E000001303B1F8E77047024652E8000F42E8F6
:1002F000001303B1F9E77047024652E8000F83018B
:1003000003D3BFF32F8F0020704700F00040084355
:1003100042E8000303B1F0E77047024652E8000FDD
:10032000800103D2BFF32F8F0020704742E80013F3
:1003300003B1F3E70120704707488047074880472B
:1003400007480047FEE7FEE7FEE7FEE7FEE7FEE7B9
:10035000FEE7FEE7FEE7FEE771080008F944000843
:10036000990200081EF0040F0CBFEFF30880EFF3B2
:10037000098002F09FBA000040EA01039B0703D006
:1003800009E008C9121F08C0042AFAD203E011F8D4
:10039000013B00F8013B521EF9D27047D2B201E096
:1003A00000F8012B491EFBD270470022F6E710B57A
:1003B00013460A4604461946FFF7F0FF204610BDD3
:1003C000064C074D06E0E06840F0010394E80700A2
:1003D00098471034AC42F6D3FFF762FFF05A00089A
:1003E000505B000870B58C1810F8015B15F007031E
:1003F00001D110F8013B2A1106D110F8012B03E0BE
:1004000010F8016B01F8016B5B1EF9D12B0705D4C5
:100410000023521E0DD401F8013BFAE710F8013B0E
:10042000CB1A921C03E013F8015B01F8015B521E2A
:10043000F9D5A142D8D3002070BD00BFFEE700006F
:1004400010B500BF4848006800F4003000B139E042
:1004500000BF00BF00BFBFF34F8F00BF00BF00BF92
:1004600000BF00BF00BFBFF36F8F00BF00BF00BF62
:1004700000203E49086000BF00BF00BFBFF34F8FA0
:1004800000BF00BF00BF00BF00BF00BFBFF36F8F42
:1004900000BF00BF00BF3448006840F4003032495C
:1004A000086000BF00BF00BFBFF34F8F00BF00BF99
:1004B00000BF00BF00BF00BFBFF36F8F00BF00BF12
:1004C00000BF00BF00BF284B1B6803F4803303B19B
:1004D00048E00023244C7034236000BF00BF00BFFD
:1004E000BFF34F8F00BF00BF00BF231F1868C0F3CA
:1004F0004E3100BFC0F3C90200BF43F6E07303EA08
:1005000041134FF0404404EA82742343174C1034E3
:10051000236000BF00BF131EA2F10102EDD10B1E2C
:10052000A1F10101E6D100BF00BF00BFBFF34F8FB3
:1005300000BF00BF00BF0C4B1B6843F480330A4C64
:10054000236000BF00BF00BFBFF34F8F00BF00BFDD
:1005500000BF00BF00BF00BFBFF36F8F00BF00BF71
:1005600000BF00BF10BD000014ED00E050EF00E040
:10057000704700BFFEE7000070B500BF0C488669F9
:1005800000F05EF9054600BF294609481830FFF71C
:10059000ABFE044600BFB442F0D1A54206D200BF74
:1005A00003481030FFF797FE00BF00BF284670BD1C
:1005B000C00900202DE9FF4F81B0884691469A4638
:1005C0004FF0070B51E000BF2E48FFF784FE0646B0
:1005D00006F03F002C4901EB0014B0094FF4700104
:1005E00001EA00510091DDE9001008434FF080510D
:1005F00001EAD80108434FF0005101EA990108438C
:100600004FF0804101EA5A01084340F04065294615
:1006100004F10C00FFF770FE054605F0806010B392
:1006200085F0806585F0004505F0004728F0004022
:100630003843206029F00040384360602AF00040D1
:100640003843A060294604F10C00FFF766FE48B16C
:1006500000BF0C48001DFFF73EFE00BF012005B0A3
:10066000BDE8F08F04E0ABF1010BBBF1000FAAD1A4
:1006700000BF00BF03480830FFF72DFE00BF002079
:10068000EDE70000C409002040050020F0B5064653
:100690000C461546FF2C01D2FF2D01D30020F0BDE2
:1006A000002200231AE0012098403040A0B12146EA
:1006B00010E002EBD1000B4F385C01F0070C012772
:1006C00007FA0CF7384302EBD107DFF818C00CF833
:1006D0000700491CA942ECD920325B1C042BE2D351
:1006E0000120DCE7400900202DE9F05F82468946C1
:1006F00000204049087080213F48FFF756FE18212E
:100700003E4804F001FA07463A48006A3C498842EC
:1007100007D0084637490862084647800120C8616B
:100720000EE034484088B84205D032484780012066
:100730003049C86104E02F48C069401C2D49C86198
:100740002C48C06901280BD100202A494870486014
:100750008860C8604FF480612A48FFF726FE0FE0EA
:1007600000260BE0274800EB0615E86800F08060E3
:1007700018B1E86820F04060E860761C402EF1D3A4
:100780001C48C069012810D100F060F8044614B17B
:10079000DFF8748001E04FF000081648C0F81480BC
:1007A000002014498861086102E000F04FF8044617
:1007B000ECB1FE2200215046FFF768FFEF22114600
:1007C0000F20FFF763FFFE2211460420FFF75EFFB4
:1007D000FFF7D2FE8346074800235946C2690B48FB
:1007E000FFF7E8FEB9F1000F01D000F011F8204644
:1007F000BDE8F09FC009002040090020D85A000839
:100800006B27A5E1400500200084D71700FF0003F7
:1008100010B50948007808B1012010BD0120064933
:100820000870FFF7A9FE044600231A462146034834
:10083000FFF7C0FE0120F0E7C009002001FF000320
:100840000148406870470000001000E0064800685A
:1008500040F08070044908600448006840F00100DE
:100860000249086001207047FCED00E0001000E044
:100870007047000070B504460CB9012070BD94F8B3
:100880003500022803D0802060650120F6E7DC49AE
:100890002068884249D0DA4918312068884244D01B
:1008A000D7493031206888423FD0D5494831206847
:1008B00088423AD0D24960312068884235D0D04948
:1008C00078312068884230D0CD4990312068884204
:1008D0002BD0CB49A8312068884226D0C94920684E
:1008E000884222D0C7491831206888421DD0C549A6
:1008F00030312068884218D0C24948312068884287
:1009000013D0C0496031206888420ED0BD4978318B
:100910002068884209D0BB4990312068884204D0C1
:10092000B849A8312068884201D1012000E00020A8
:10093000F0B3042084F83500B149206888424BD0D8
:10094000AF4918312068884246D0AD49303120681F
:10095000884241D0AA494831206888423CD0A84901
:1009600060312068884237D0A549783120688842B4
:1009700032D0A3499031206888422DD0A049A831B7
:100980002068884228D09F492068884224D09D4909
:100990001831206888421FD09A4930312068884237
:1009A0001AD0984948312068884215D0954900E00E
:1009B00020E06031206888420ED09249783120686A
:1009C000884209D08F4990312068884204D08D49EF
:1009D000A8312068884206D12068006820F0010014
:1009E0002168086009E12068006820F001002168A2
:1009F000086002E12068006820F00E0021680860AD
:100A00007F492068884249D07D4918312068884252
:100A100044D07B493031206888423FD07849483102
:100A2000206888423AD0764960312068884235D0C3
:100A3000734978312068884230D0714990312068FC
:100A400088422BD06E49A8312068884226D06D4953
:100A50002068884222D06B491831206888421DD016
:100A6000684930312068884218D06649483120688A
:100A7000884213D063496031206888420ED06149B2
:100A800078312068884209D05E49903120688842D8
:100A900004D05C49A8312068884206D120680068EB
:100AA00020F001002168086005E02068006820F05F
:100AB00001002168086052492068884270D050497E
:100AC0001831206888426BD04D4930312068884207
:100AD00066D04B4948312068884261D0484960312E
:100AE000206888425CD0464978312068884257D0D7
:100AF000434990312068884252D04149A83120684A
:100B000088424DD03F492068884249D03D4918313C
:100B10002068884244D03B493031206888423FD029
:100B200038494831206888423AD0364960312068D7
:100B3000884235D0334978312068884230D03149F5
:100B40009031206888422BD02E49A83120688842F5
:100B500026D02D492068884222D02B4914312068A4
:100B600088421DD0284928312068884218D026495B
:100B70003C312068884213D0234950312068884294
:100B80000ED0214964312068884209D01E4978314D
:100B90002068884204D01C498C312068884201D1E9
:100BA000012000E00020D8B1206E006820F48070A1
:100BB000216E0860A56D94F85C0000F01F01012013
:100BC00088406860D4E919104860E06E40B1E06E7A
:100BD000006820F48070E16E0860D4E91C10486061
:100BE000012084F8350000BF002084F8340000BFE5
:100BF000206D10B12046216D884700203EE60000A0
:100C0000100002401004024008540258014691F8B6
:100C10003500704770B5044600F02CF906462546AD
:100C2000681C10B104480078054400BF00F022F9A8
:100C3000801BA842FAD370BD10040020034800684E
:100C400040F001000149086070470000200400588E
:100C5000F8B502460B4600216F4DD7E001278F40C3
:100C60001E6806EA0704002C72D01E7906F00306FF
:100C7000012E04D01E7906F00306022E13D19068CF
:100C80004F000326BE40B0434F00DE68BE403043F5
:100C90009060506801268E40B0431E79C6F300165E
:100CA0008E40304350601E7906F00306032E09D0B3
:100CB000D0684F000326BE40B0434F009E68BE4040
:100CC0003043D0601E7906F00306022E13D1CF0800
:100CD00002F1200656F827004E07F70E0F26BE40F9
:100CE000B0434F07FF0E1E69BE403043CF0802F1EC
:100CF000200646F8270010684F000326BE40B04388
:100D00001E7906F003064F00BE40304310605E6857
:100D100006F44036002E78D000BF404E366846F0CC
:100D200002063E4F3E603E46366806F002060096DA
:100D300000BF00BF3A4E8F0856F827008E07370FC6
:100D40000F26BE40B043374EB24202D100262EE0FD
:100D50005BE0354EB24201D1012628E0334EB2426B
:100D600001D1022623E0324EB24201D103261EE019
:100D7000304EB24201D1042619E02F4EB24201D1C9
:100D8000052614E02D4EB24201D106260FE02C4E6E
:100D9000B24201D107260AE02A4EB24201D108260A
:100DA00005E0294EB24201D1092600E00A268F074C
:100DB0003F0FBE4030431A4E8F0846F827004FF0D1
:100DC000B0463068A0435E6806F4801606B1204342
:100DD0004FF0B04630607068A0435E6806F40016BD
:100DE00006B120434FF0B04670606868A0435E686B
:100DF00006F4003606B1204368602868A0435E68A8
:100E000006F4803606B120432860491C1E68CE4097
:100E1000002E7FF423AFF8BD80000058F444025840
:100E20000804005800000258000402580008025844
:100E3000000C025800100258001402580018025802
:100E4000001C025800200258002402580246136970
:100E50000B400BB1012000E0002070470AB1816116
:100E600001E00B048361704701480068000C704783
:100E70000010005C01480068704700000804002072
:100E80007047704710B504460CB9012010BD2420EE
:100E900084F841002068006820F0010021680860A3
:100EA000D4F8800010B90A48C4F880002046D4F86D
:100EB000801088470020606484F84100206384F833
:100EC000420000BF84F8400000BF00BFDEE7000022
:100ED000B91200082DE9F0410446206885692068B0
:100EE0000668C5F3002050B1C6F3C01038B1606C7D
:100EF00040F0010060644FF480702168C861C5F360
:100F0000802050B1C6F3C01038B1606C40F00800CA
:100F100060644FF480602168C861C5F3402050B11F
:100F2000C6F3C01038B1606C40F0020060644FF44A
:100F300000702168C861676C07F00B0018B1394672
:100F4000204601F08FFEBDE8F08170B504462068B0
:100F5000856920680668606B20B1324629462046C4
:100F6000636B984770BD000010B504460E492068B9
:100F7000884218D10D48FFF785FF0B480B490860E0
:100F800001210A48C16000210161C16101628160E3
:100F900041618161064805494860084600F00CF847
:100FA00001200449087010BD00580040F4010030D1
:100FB000130F42107A02003010B504460CB901201C
:100FC00010BD94F8410000281CD184F840003B4833
:100FD00060653B48A0653B48E0653B4820663B4870
:100FE00060663B48A0663B48E0663B4820673B485C
:100FF00060673B48A067E06F08B93A48E067204661
:10100000E16F8847242084F841002068006820F0C0
:10101000010021680860606820F070602168086144
:101020002068806820F4004021688860E06801281A
:1010300005D1A06840F400402168886004E0A06801
:1010400040F4044021688860E068022806D12068E6
:10105000406840F400602168486005E0206840680E
:1010600020F4006021684860206840681E490843F9
:10107000216848602068C06820F400402168C8608A
:10108000D4E904010843A16940EA01202168C8604D
:10109000D4E907010843216808602068006840F02F
:1010A00001002168086000206064202084F841006D
:1010B0000020206384F8420000BF81E7F11000089F
:1010C000EF100008BF120008BD120008ED10000864
:1010D0000D110008F5100008690F0008810E0008C6
:1010E000830E0008BB1200080080000270477047A2
:1010F00070470000034A0168914202D10121024A6F
:10110000117070470058004079020030034A0168AE
:10111000914202D10121024A1170704700580040EB
:10112000780200302DE9F84304460F4615461E4666
:10113000DDE9089894F8410020284FD1B9F1000F5B
:1011400002D0B8F1000F05D14FF4007060640120A7
:10115000BDE8F88320688069C0F3C03008B1022080
:10116000F6E700BF94F84000012801D10220EFE724
:10117000012084F8400000BF222084F84100402074
:1011800084F8420000206064C4F82490A4F82A8007
:101190001348E06213486063E764012E05D1E8B2AA
:1011A00021688862B01E206505E0C5F3072021682C
:1011B0008862E8B220650C48F2B2002339460090FC
:1011C000204602F070FD00BF002084F8400000BF00
:1011D0000121204601F076FC0020B9E70220B7E7A4
:1011E0000000FFFFE5360008002000802DE9F843ED
:1011F00004460F4615461E46DDE9089894F841005E
:10120000202850D1B9F1000F02D0B8F1000F05D15C
:101210004FF4007060640120BDE8F88320688069A5
:10122000C0F3C03008B10220F6E700BF94F84000D8
:10123000012801D10220EFE7012084F8400000BF1F
:10124000212084F84100402084F84200002060649E
:101250002085C4F82490A4F82A801448E062144839
:101260006063E764012E05D1E8B221688862B01E90
:10127000206505E0C5F3072021688862E8B2206593
:101280000C48F2B2C30239460090204602F00BFD32
:1012900000BF002084F8400000BF0121204601F07B
:1012A00011FC0020B8E70220B6E700000000FFFFB5
:1012B000E53600080020008070477047704770478F
:1012C00003480068034909780844014908607047E9
:1012D000080400201004002010B5032000F056F987
:1012E00000F0AEFC10490968C1F303210F4A515CBC
:1012F00001F01F0120FA01F40B48006800F00F0014
:101300001146085C00F01F0024FA00F0084908604C
:10131000084804600F2000F00FF808B1012010BD4C
:1013200000F0E2F80020FAE718440258D459000807
:10133000040400200004002070B504461148007821
:1013400008B9012070BD0F4800784FF47A71B1FBE5
:10135000F0F00D490968B1FBF0F5284601F0B2F94B
:1013600008B10120EEE7102C07D200222146501EC2
:1013700000F0CFF80548046001E00120E2E700201A
:10138000E0E7000010040020000400200C0400200E
:1013900070B50446FFF76EFD05460CB9012070BD1F
:1013A00094F83D00022808D08020A06600BF0020ED
:1013B00084F83C0000BF0120F1E72068C06820F0FD
:1013C0003E002168C8602068C06820F001002168E4
:1013D000C86012E0FFF74EFD401B05280DD9A06E36
:1013E00040F04000A06600BF002084F83C0000BF31
:1013F000032084F83D000120D1E72068C06800F098
:1014000001000028E6D11F202168486000BF0020AD
:1014100084F83C0000BF012084F83D000020BEE7B6
:101420004178154A116014490831096821F0010119
:10143000114A08321160121F41681160017B0907CF
:10144000C27A41EA0261827A41EAC241427B41EAC0
:101450008241827B41EA4241C27B41EA0241427AB7
:1014600041EA0221027A41EA420102781143024A2A
:10147000083211607047000098ED00E000BF00BF27
:1014800000BFBFF35F8F00BF00BF00BF054800680B
:1014900020F4803003490860002002497031086060
:1014A0007047000024ED00E040F001010D4A11609A
:1014B0000C497039096841F480310A4A703A116068
:1014C00000BF00BF00BFBFF34F8F00BF00BF00BF12
:1014D00000BF00BF00BFBFF36F8F00BF00BF00BFE2
:1014E0007047000094ED00E0704701460846002870
:1014F0000DDB00BF00BF00F01F0301229A4043092B
:101500009B0003F1E023C3F8002100BF00BF00BF30
:1015100070472DE9F05F80460D46164603F038FA15
:10152000074639462A46334601F00700C0F1070A4C
:10153000BAF1040F02D94FF0040A01E0C0F1070A22
:10154000D14600F1040ABAF1070F02D24FF0000AA7
:1015500001E0A0F1030AD4464FF0010A0AFA09FAA1
:10156000AAF1010A0AEA020A0AFA0CFA4FF0010B80
:101570000BFA0CFBABF1010B0BEA030B4AEA0B0471
:101580002146404603F00CFABDE8F09F00BF00F092
:101590000702064B19684FF6FF031940044B0B4333
:1015A00043EA0221014B196000BF70470CED00E0D7
:1015B0000000FA05F8B504460025FFF75BFC064677
:1015C00094F8410000F00200002847D000BF00203E
:1015D00084F8400000BF2068006800F0040070B18B
:1015E0002068006820F0040021680860E06BFFF7C5
:1015F000CFFE05461DB1606C40F0040060642068B9
:101600008068C0F3401030B32068006840F00200EA
:1016100021680860A06C3346012202210090204618
:1016200002F0E9FC05465DB902202168C860A06CA3
:101630003346002220210090204602F0DCFC0546C3
:1016400065B92068406920F0406021684861012048
:1016500084F8410002E0012084F841002846F8BDEA
:1016600070472DE9F84304460E4615469846FFF7A5
:1016700001FC8146B06900B100BFF06900B100BF54
:10168000306A00B100BF00BF94F84000012802D1C9
:101690000220BDE8F883012084F8400000BF94F8E0
:1016A000410001283AD100206064422084F84100C2
:1016B0004B46002220212046CDF8008002F09BFC02
:1016C000074657BB286821688862686821684862B5
:1016D000A8682168C8622068006820F44000296971
:1016E00041F48001084321680860E868B0624FF067
:1016F00000623146204602F07DFB4B460122082164
:101700002046CDF8008002F076FC07462FB908206D
:101710002168C860012084F8410000E0022700BF72
:10172000002084F8400000BF3846B2E770472DE93A
:10173000F84304460D461746FFF79CFB8046A86910
:1017400000B100BFE86900B100BF286A00B100BF66
:1017500000BF94F84000012802D10220BDE8F883C0
:10176000012084F8400000BF94F84100012828D1EE
:1017700000206064022084F84100434600222021BA
:101780002046009702F037FC0646DEB900222946C3
:10179000204602F02FFB686A78B9434601220221F5
:1017A0002046009702F027FC06465EB90220216819
:1017B000C860012084F8410004E0012084F8410061
:1017C00000E0022600BF002084F8400000BF304641
:1017D000C4E7000010B504460CB9012010BD206814
:1017E000006820F0010021680860206F08B90548F2
:1017F00020672046216F88470020606484F84100FC
:1018000000BFEBE71119000870477047014691F8D7
:1018100041007047F8B50446FFF72CFB06460CB9AB
:101820000120F8BD206A402800D000BF94F8410094
:10183000D8B92C48E0642C4820652C4860652C48B9
:10184000A0652C48E0652C4820662C4860662C4832
:10185000A066E06E08B92B48E0662046E16E884736
:1018600041F28831204600F056F82068006820F4E4
:10187000F851A068401E41EA002021680860A06C71
:101880003346002220210090204602F0B4FB05469A
:1018900035BB2179E06840EA0160E1690843216ACB
:1018A000084321680968184A114008432168086004
:1018B000208A616941EA0040A169084321684968BA
:1018C000124A11400843216848602068006840F0CF
:1018D00001002168086000206064012084F8410054
:1018E00028469EE709180008611600080B18000832
:1018F0002D170008151900081F1900081B190008EA
:101900001D190008131900082FFFFF00FEF8E0FF63
:1019100070477047704781647047704770477047E1
:101920002DE9F04104460D4614B90120BDE8F081CF
:10193000BD48006800F00F00A8420ED2BA48006807
:1019400020F00F002843B84908600846006800F0FE
:101950000F00A84201D00120E8E7207800F0040041
:1019600004280ED1B1492069096801F0700188424C
:1019700007D9AE48006820F0700021690843AB49E0
:101980000860207800F00800082811D1A749091D37
:101990006069096801F07001884209D9A348001DF7
:1019A000006820F0700061690843A049091D0860C3
:1019B000207800F01000102811D19C49091DA06961
:1019C000096801F4E061884209D99848001D00685F
:1019D00020F4E060A16908439449091D086020785B
:1019E00000F02000202811D190490831E0690968F1
:1019F00001F07001884209D98C480830006820F055
:101A00007000E1690843894908310860207800F0D6
:101A1000020002280ED18549E068096801F00F0133
:101A2000884207D98148006820F00F00E168084328
:101A30007E490860207800F00100002850D07B48E3
:101A4000006820F47060A168084378490860606805
:101A5000022807D1754818380068C0F34040F8B92B
:101A6000012063E76068032807D1704818380068D0
:101A7000C0F34060A0B9012058E76068012807D191
:101A80006A4818380068C0F3002048B901204DE7C3
:101A9000664818380068C0F3800008B9012045E79F
:101AA00062480838006820F00700616808435F4911
:101AB00008390860FFF7DEF9064608E0FFF7DAF9B3
:101AC000801B41F28831884201D903202EE7574814
:101AD0000838006800F038006168B0EBC10FEDD144
:101AE000207800F0020002280ED15049E068096811
:101AF00001F00F01884207D24C48006820F00F0027
:101B0000E1680843494908604748006800F00F0051
:101B1000A8420ED94448006820F00F0028434249EB
:101B200008600846006800F00F00A84201D00120BC
:101B3000FCE6207800F0040004280ED13B4920691F
:101B4000096801F07001884207D23848006820F027
:101B500070002169084335490860207800F00800CA
:101B6000082811D13149091D6069096801F0700127
:101B7000884209D22D48001D006820F0700061697C
:101B800008432A49091D0860207800F01000102839
:101B900011D12649091DA069096801F4E061884254
:101BA00009D22248001D006820F4E060A1690843C2
:101BB0001E49091D0860207800F02000202811D15E
:101BC0001A490831E069096801F07001884209D2B8
:101BD00016480830006820F07000E1690843134996
:101BE0000831086000F02CF810490968C1F303219E
:101BF0000F4A515C01F01F0120FA01F70B48006801
:101C000000F00F001146085C00F01F0027FA00F0FA
:101C1000084908600848076008480068FFF78CFB1F
:101C20008046404682E600000020005218440258D8
:101C3000D459000804040020000400200C040020F3
:101C4000F0B5824E366806F0380636B1082E15D04B
:101C5000102E15D0182E7DD114E07C4E103E366823
:101C6000C6F3401646B1794E103E3668C6F3C1073A
:101C7000774E26FA07F000E07548E5E07548E3E0A6
:101C80007548E1E0714E1836366806F003046F4E71
:101C900018363668C6F305116C4E1C36366806F0E9
:101CA00001056A4E24363668C6F3CC0616FB05F6E7
:101CB00001EE106AB8EE410A002971D024B1012C5E
:101CC00050D0022C6DD16DE0604E103E3668C6F3E8
:101CD00040163EB35D4E103E3668C6F3C1075C4EFB
:101CE00026FA07F301EE103AF8EE411A01EE101A47
:101CF000B8EE411A81EE812A9FED581AC0EE011A02
:101D0000524E20363668C6F3080601EE106AB8EE69
:101D1000411A31EE811AF7EE001A31EE211A62EE05
:101D2000010A1EE001EE101AB8EE411ADFED4C1A5E
:101D300081EE812A9FED491AC0EE011A434E2036EA
:101D40003668C6F3080601EE106AB8EE411A31EEA5
:101D5000811A00E076E0F7EE001A31EE211A62EE09
:101D6000010A5BE001EE101AB8EE411A9FED3D2A20
:101D7000C2EE011A9FED391A80EE012A334E203649
:101D80003668C6F3080601EE106AB8EE411A32EE64
:101D9000011AB7EE002A31EE021A61EE810A3DE027
:101DA0004EE01DE001EE101AB8EE411ADFED2E1ADA
:101DB00081EE812A9FED291AC0EE011A234E2036AA
:101DC0003668C6F3080601EE106AB8EE411A31EE25
:101DD000811AF7EE001A31EE211A62EE010A1DE0B7
:101DE00001EE101AB8EE411A9FED1E2AC2EE011A3A
:101DF0009FED1A1A80EE012A144E20363668C6F37B
:101E0000080601EE106AB8EE411A32EE011AB7EE7A
:101E1000002A31EE021A61EE810A00BF00BF0B4EAC
:101E200020363668C6F34626721C01EE102AB8EE3C
:101E3000411AC0EE811ABCEEE11A11EE100A00E060
:101E4000002001E0034800BF00BFF0BD104402586D
:101E50000090D00300093D0040787D01000000465D
:101E60000024744C0024744A20BCBE4B2DE9F0477A
:101E7000044614B90120BDE8F087207800F0010085
:101E8000002870D0FA48006800F03808F848183088
:101E9000D0F80090B8F1100F06D0B8F1180F0FD19C
:101EA00009F0030002280BD1F14810380068C0F394
:101EB000404000286AD06068002867D10120DAE736
:101EC00000BF6068B0F5803F08D1E948103800686D
:101ED00040F48030E649103908602EE0606868B947
:101EE000E3481038006820F48030E1491039086078
:101EF0000846006820F4802008601EE06068B0F5A5
:101F0000A02F0DD1DA481038006840F48020D8495D
:101F1000103908600846006840F4803008600CE022
:101F2000D3481038006820F48030D1491039086057
:101F30000846006820F48020086000BF606898B1FF
:101F4000FEF798FF054606E0FEF794FF401B642865
:101F500001D903208FE7C64810380068C0F340401D
:101F60000028F1D012E012E0FEF784FF054606E0FB
:101F7000FEF780FF401B642801D903207BE7BC48A3
:101F800010380068C0F340400028F1D100BF20782D
:101F900000F00200022874D1B548006800F038084B
:101FA000B3481830D0F80090B8F1000F05D0B8F160
:101FB000180F56D109F00300D0BBAD4810380068A7
:101FC000C0F3800018B1E06808B9012053E7A848C1
:101FD0001038006820F01900E1680843A44910395E
:101FE0000860FEF747FF054606E0FEF743FF401B8B
:101FF000022801D903203EE79D4810380068C0F34D
:1020000080000028F1D000BFFEF72EFF41F203014F
:1020100088421AD8206940280BD195480C380068AE
:1020200020F47C3040F4003091490C39086017E00E
:1020300017E08F480C38006820F47C30216940EAB2
:1020400001308B490C3908600AE089480C38006877
:1020500020F0FE40217C40EA016085490C3908608F
:1020600066E0E06888B382481038006820F0190004
:10207000E16808437E4910390860FEF7FBFE05461B
:1020800007E056E0FEF7F6FE401B022801D90320C8
:10209000F1E6774810380068C0F380000028F1D0DE
:1020A00000BFFEF7E1FE41F2030188421AD8206921
:1020B00040280BD16E480C38006820F47C3040F486
:1020C00000306B490C39086017E017E068480C389D
:1020D000006820F47C30216940EA013064490C3901
:1020E00008600AE062480C38006820F0FE40217C5D
:1020F00040EA01605E490C39086019E05C4810381C
:10210000006820F001005A4910390860FEF7B2FE5D
:10211000054606E0FEF7AEFE401B022801D903206B
:10212000A9E6534810380068C0F380000028F1D1B8
:1021300000BF207800F0100010287CD14C480068C7
:1021400000F038084A481830D0F80090B8F1080F6D
:1021500006D0B8F1180F3DD109F00300012839D19C
:10216000434810380068C0F3002020B1E06980289F
:1021700001D001207FE600BFFEF776FE41F20301A9
:1021800088421AD8206A20280AD139480C380068B9
:1021900020F0F84040F0804035490C39086018E0E4
:1021A00033480C38006820F0F84094F8201040EADA
:1021B00081602F490C3908600BE02D48001F006832
:1021C00020F07C5094F8201040EA01602849091F53
:1021D000086066E0E06978B325481038006840F090
:1021E0008000234910390860FEF744FE054606E0EA
:1021F000FEF740FE401B022801D903203BE61C48A5
:1022000010380068C0F300200028F1D000BFFEF7AE
:102210002BFE41F2030188421CD8206A20280CD1F1
:1022200013480C38006820F0F84040F08040104916
:102230000C3908601AE035E01CE00D480C380068E5
:1022400020F0F84094F8201040EA816008490C39E9
:1022500008600BE00648001F006820F07C5094F8EE
:10226000201040EA01600249091F086019E00000DF
:1022700010440258FA48006820F08000F8490860CD
:10228000FEF7F8FD054606E0FEF7F4FD401B0228C8
:1022900001D90320EFE5F2480068C0F300200028D0
:1022A000F2D100BF207800F00800082836D160691C
:1022B000D0B1EB487430006840F00100E849743157
:1022C0000860FEF7D7FD054606E0FEF7D3FD401B8C
:1022D000022801D90320CEE5E14874300068C0F33C
:1022E00040000028F1D019E0DD487430006820F08B
:1022F0000100DB4974310860FEF7BCFD054606E0CD
:10230000FEF7B8FD401B022801D90320B3E5D448ED
:1023100074300068C0F340000028F1D1207800F04C
:102320002000202830D1A069B8B1CD48006840F421
:102330008050CB490860FEF79DFD054606E0FEF79C
:1023400099FD401B022801D9032094E5C448006888
:10235000C0F340300028F2D016E0C148006820F4F5
:102360008050BF490860FEF785FD054606E0FEF790
:1023700081FD401B022801D903207CE5B848006894
:10238000C0F340300028F2D1207800F00400042887
:102390007DD1B448006840F48070B2490860FEF70F
:1023A00069FD054606E0FEF765FD401B642801D97E
:1023B000032060E5AB48006800F480700028F2D08C
:1023C00000BFA068012808D1A5487030006840F01F
:1023D0000100A349703108602DE0A06868B9A048E9
:1023E0007030006820F001009D4970310860084697
:1023F000006820F0040008601DE0A06805280DD1E9
:1024000097487030006840F00400954970310860CA
:102410000846006840F0010008600CE09048703009
:10242000006820F001008E4970310860084600689D
:1024300020F00400086000BFA068A0B1FEF71AFDFC
:10244000054608E0FEF716FD401B41F28831884240
:1024500001D903200FE5824870300068C0F34000C6
:102460000028EFD013E0FEF705FD054608E0FEF773
:1024700001FD401B41F28831884201D90320FAE472
:10248000774870300068C0F340000028EFD1606AE0
:1024900000287DD072481030006800F038001828FD
:1024A00077D0606A022875D16D48006820F080708E
:1024B0006B490860FEF7DEFC054606E0FEF7DAFC35
:1024C000401B022801D90320D5E465480068C0F309
:1024D00040600028F2D100BFD4E90A1041EA0010A0
:1024E0005F492831096840F2F332914308435C495F
:1024F00028310860208E401EC0F30800616B491E21
:102500004FF47E4202EA41210843218F491ED20145
:1025100002EA014108433C21095D491E120202EA18
:10252000016108434E493031086000BF081F006850
:1025300020F00100091F08604948343000684FF658
:10254000F8718843A16C40EAC10045493431086004
:1025500043482C30006820F00C00216C08434049AF
:102560002C3108600846006820F00200616C0843C6
:102570003B492C3108600846006840F48030086010
:102580000846006840F4003008600846006802E031
:1025900093E038E01FE040F48020086008460068BF
:1025A00040F0010008602E48006840F080702C491F
:1025B0000860FEF75FFC054606E0FEF75BFC401B8B
:1025C000022801D9032056E425480068C0F3406082
:1025D0000028F2D071E02248006820F08070204985
:1025E0000860FEF747FC054606E0FEF743FC401B8B
:1025F000022801D903203EE419480068C0F3406076
:102600000028F2D159E016482830076814483030C5
:102610000668606A012821D007F00301A06A8142A0
:102620001CD1C7F30511E06A884217D1C6F308012F
:10263000206B401E814211D1606B401EC6F34621C3
:1026400088420BD1A06B401EC6F30641884205D1DB
:10265000E06B401EC6F30661884205D001200AE403
:10266000004402580048025815480068C0F3CC07DF
:10267000A06CB84221D012480838006820F0010050
:102680000F4908390860FEF7F5FB054600BFFEF765
:10269000F1FB401BFBD00A4800684FF6F8718843F5
:1026A000A16C40EAC1000649086005480838006886
:1026B00040F0010002490839086000204AE40000A7
:1026C0003444025870B504462546681EB0F1807F38
:1026D00001D301200FE0681E4FF0E02148610F2177
:1026E0004FF0FF3002F05CF900204FF0E0218861EC
:1026F00007200861002070BD70B504462068C668D8
:102700002068056905F0020002281CD106F00200CD
:10271000022818D1401F2168086101202077206815
:10272000806900F0030020B12046D4F89410884757
:1027300007E02046D4F89C1088472046D4F8A01023
:1027400088470020207705F0040004281CD106F0FB
:102750000400042818D1C0432168086102202077B2
:102760002068806900F4407020B12046D4F89410AD
:10277000884707E02046D4F89C1088472046D4F8C4
:10278000A01088470020207705F0080008281CD1F9
:1027900006F00800082818D1C04321680861042009
:1027A00020772068C06900F0030020B12046D4F8EB
:1027B0009410884707E02046D4F89C1088472046AC
:1027C000D4F8A01088470020207705F010001028CA
:1027D0001CD106F01000102818D1C04321680861F0
:1027E000082020772068C06900F4407020B120469E
:1027F000D4F89410884707E02046D4F89C10884706
:102800002046D4F8A01088470020207705F001006A
:1028100050B106F0010038B16FF001002168086185
:102820002046D4F88410884705F08000802804D022
:1028300005F40050B0F5005F0BD106F08000802851
:1028400007D16FF40250216808612046D4F8B41013
:10285000884705F48070B0F5807F0BD106F08000CA
:10286000802807D16FF48070216808612046D4F871
:10287000B810884705F0400040280AD106F0400013
:10288000402806D1C043216808612046D4F88C1046
:10289000884705F0200020280AD106F020002028D3
:1028A00006D1C043216808612046D4F8AC1088479F
:1028B00070BD000010B504463B48006800F00040C1
:1028C00048B13948006840F0004037490860A069C5
:1028D000801CA06110BD3448083800683349086284
:1028E0003148001F007881F824002F48C01E00786E
:1028F00088622D480C300068C8622B48801E008812
:1029000008862948006848632748001D00688863D6
:10291000254810300068C86300202549086000BFC2
:10292000234800680028FBD02049206808606068C0
:102930004860A0688860E068C860206908616069D4
:102940004861A0698861E069C8611AA1002001F0AE
:10295000E5FB164882691BA1002001F0DFFB13484C
:1029600042691CA1002001F0D9FB0F48001F02683A
:102970001CA1002001F0D2FB0B4802681DA1002021
:1029800001F0CCFB08480C3002681EA1002001F0C9
:10299000C5FB00200649086000BF05480068002804
:1029A000FBD000BF96E700002CED00E0C80400203B
:1029B0001C04002048617264204661756C74210D0E
:1029C0000A0000005043203D203078253038580D53
:1029D0000A0000004C52203D203078253038580D38
:1029E0000A00000043465352203D203078253038FD
:1029F000580D0A0048465352203D20307825303883
:102A0000580D0A0042464152203D2030782530388A
:102A1000580D0A0010B50248FEF75CFA10BD000020
:102A2000F401003010B50248FEF78FFA10BD000027
:102A3000F401003070B50546AC6BA06B10B10020FE
:102A4000A16B0865E06B10B10020E16B08652046C2
:102A500001F045F970BD10B50246002001F00103F8
:102A60004BB140F0420092F8413003F02803282B8C
:102A700001D040F0B00001F00203022B09D140F078
:102A8000440092F8413003F02803282B01D040F095
:102A9000B00001F40043B3F5004F01D140F0B8009D
:102AA000102901D140F09000202901D140F02000F0
:102AB000402901D140F0400013681B68834314682B
:102AC000236010BD10B502460020254C536BA34275
:102AD00022D0244C536BA3421ED0234C536BA342F1
:102AE0001AD001F40043B3F5004F01D140F0B80013
:102AF00001F001030BB140F0F20001F00203022BE0
:102B000001D140F0F400102901D140F090002029BB
:102B100020D140F020001DE001F40043B3F5004F48
:102B200001D140F0B80001F001030BB140F0F20018
:102B300001F00203022B01D140F0F400102901D171
:102B400040F09000202901D140F06000402901D1DF
:102B500040F0400013681B6803431468236010BDF5
:102B6000D1330008813800083135000801688969CF
:102B7000C1F3400111B100210268916201688969C5
:102B800001F0010129B90168896941F00101026878
:102B9000916170472DE9F0470446894694F8410059
:102BA00000F02800282852D120688069C0F300472F
:102BB0002068806900F47E00050C20688068C0F3FE
:102BC00009062068C06800F0FE08E06802282ED1DF
:102BD00005F00600062101EAE611884216D13546C5
:102BE000A06C401CA064A06C022838D10020A06416
:102BF00008202168C86100BF002084F8400000BFA1
:102C00002A4639462046A36F984728E045464FF4A8
:102C100000412046FFF71FFF00BF002084F840005E
:102C200000BF2A4639462046A36F984717E04FF465
:102C300000412046FFF70FFF00BF002084F840004E
:102C400000BF2A4639462046A36F984707E0082070
:102C50002168C86100BF002084F8400000BFBDE8C3
:102C6000F08700002DE9F04104460F4694F84160DA
:102C7000002084F842004D48E06200206085606CCE
:102C800038436064282E03D0292E01D02A2E09D182
:102C900003212046FFF7DFFE282084F84100444846
:102CA000606324E048F203012046FFF7D4FE20468B
:102CB000FFF75CFF94F84100602816D0202084F8CC
:102CC000410020688069C0F3401070B120688069BD
:102CD000C0F3001030B110202168C861606C40F072
:102CE0000400606420202168C86100206063256BB7
:102CF000A06B48B3112D01D0212D25D1206800688B
:102D000000F48040B0F5804F05D12068006820F4C1
:102D1000804021680860A06BFDF778FF01280FD084
:102D20002448A16B086500BF002084F8400000BF64
:102D3000A06BFDF79FFD70B3A06B016D884732E07B
:102D4000204600F0CCFF2EE0E06B48B3122D01D0FE
:102D5000222D25D12068006800F40040B0F5004F16
:102D600005D12068006820F4004021680860E06B0D
:102D7000FDF74CFF01280FD00E48E16B086500BF3E
:102D8000002084F8400000BFE06BFDF773FD10B138
:102D9000E06B016D884706E0204600F0A0FF02E0EE
:102DA000204600F09CFFBDE8F08100000000FFFF1E
:102DB0005D3B0008352A000870B504460D461948E9
:102DC000E06200202063202084F84100002084F885
:102DD00042006063C5F3800090B12068406A616A78
:102DE0000870606A401C6062208D48B1208D401ED2
:102DF0002085608D401E6085606C40F0040060643A
:102E000048F203012046FFF726FE10202168C86122
:102E100000BF002084F8400000BF2046616E884754
:102E200070BD00000000FFFFF8B504460D462F46B8
:102E300020202168C86194F84100212806D1012191
:102E40002046FFF708FE1120206309E094F84100B6
:102E5000222805D102212046FFF7FDFD1220206324
:102E60002068406838490840216848600020606355
:102E70003648E062C7F3001030B110202168C86105
:102E8000606C40F00400606494F84100602807D151
:102E9000C7F3800020B12068406AC0B2009000BF34
:102EA0002046FFF763FE666C94F84100602800D06E
:102EB00026B1616C2046FFF7D5FE44E094F841004E
:102EC00021281ED1202084F841000020206394F89E
:102ED000420040280AD1002084F8420000BF84F854
:102EE000400000BF2046A16E88472CE0002084F8F7
:102EF000420000BF84F8400000BF2046616D884753
:102F000021E094F8410022281DD1202084F84100BE
:102F10000020206394F8420040280AD1002084F861
:102F2000420000BF84F8400000BF2046E16E8847A1
:102F300009E0002084F8420000BF84F8400000BF90
:102F40002046A16D8847F8BD00E800FE0000FFFFA5
:102F500010B50446002084F8420094F8410021286E
:102F600013D1202084F841001120206300206063E9
:102F700001212046FFF76FFD00BF002084F84000CC
:102F800000BF2046616D884712E0202084F8410090
:102F9000122020630020606302212046FFF75BFDC2
:102FA00000BF002084F8400000BF2046A16D884784
:102FB00010BD00002DE9F047044689462068D0F88E
:102FC00000804E46E76A94F8415020202168C8618D
:102FD000212D01D0292D07D148F201012046FFF70C
:102FE0003AFD2120206314E0222D01D02A2D07D1A3
:102FF00048F202012046FFF72EFD2220206308E060
:10300000282D06D148F203012046FFF724FD0020B9
:1030100020632068406840F40040216848602068D0
:103020004068C4490840216848602046FFF79EFD7B
:10303000C8F38030002870D02068006820F48040F9
:1030400021680860A06B002865D0A06B0068BA49B1
:10305000884258D0A06B0068B7491831884252D0D6
:10306000A06B0068B449303188424CD0A06B006836
:10307000B1494831884246D0A06B0068AE49603102
:10308000884240D0A06B0068AB49783188423AD082
:10309000A06B0068A8499031884234D0A06B0068CA
:1030A000A549A83188422ED0A06B0068A349884268
:1030B00029D0A06B0068A1491831884223D0A06BA9
:1030C00000689E49303188421DD0A06B00689B4942
:1030D0004831884217D0A06B006898496031884217
:1030E00011D0A06B00689549783188420BD0A06B55
:1030F000006892499031884205D0A06B00688F49E2
:10310000A831884203D1A06B0068406802E0A06B40
:1031100000684068608573E0FFE7C8F3C0300028AE
:103120006ED02068006820F4004021680860E06BE1
:10313000002865D0E06B00687F49884258D0E06B7A
:1031400000687D491831884252D0E06B00687A49A6
:10315000303188424CD0E06B006877494831884272
:1031600046D0E06B006874496031884240D0E06B23
:1031700000687149783188423AD0E06B00686E4946
:103180009031884234D0E06B00686B49A8318842A6
:103190002ED0E06B00686949884229D0E06B006856
:1031A00066491831884223D0E06B006863493031AA
:1031B00088421DD0E06B006860494831884217D0D2
:1031C000E06B00685D496031884211D0E06B0068B7
:1031D0005A49783188420BD0E06B006857499031EA
:1031E000884205D0E06B00685449A831884203D179
:1031F000E06B0068406802E0E06B00684068608552
:10320000C6F3800080B126F004062068406A616A37
:103210000870606A401C6062208D28B1208D401EBD
:103220002085608D401E6085608D18B1606C40F017
:1032300004006064C6F3001000B3C8F30010E8B1E6
:10324000608D00BB94F84100282807D1B7F1007FBA
:1032500004D131462046FFF7AFFD23E094F841004A
:1032600029280CD117F5803F09D010202168C861AA
:103270002046FFF77BFC204600F064F812E01020A7
:103280002168C8610EE010202168C861606C40F0C0
:103290000400606417B1B7F1807F03D1616C2046F0
:1032A000FFF7E0FC002084F842006063606C60B1CE
:1032B000616C2046FFF7D6FC94F84100282837D1EE
:1032C00031462046FFF778FD32E0E06A10F5803F96
:1032D00011D0204600F036F81948E062202084F82A
:1032E00041000020206300BF84F8400000BF20465A
:1032F000616E88471CE094F8410022280CD1202000
:1033000084F841000020206300BF84F8400000BF23
:103310002046216E88470BE0202084F841000020E1
:10332000206300BF84F8400000BF2046E16D88475D
:10333000BDE8F08700E800FE1000024010040240E3
:103340000000FFFF70B5044620680568002084F87F
:103350004200C5F3803030B12068006820F480401E
:103360002168086008E0C5F3C03028B12068006813
:1033700020F400402168086094F84100292811D108
:10338000282084F841002120206301212046FFF7F6
:1033900062FB00BF002084F8400000BF2046E16DC2
:1033A000884714E094F841002A2810D1282084F896
:1033B00041002220206302212046FFF74CFB00BF82
:1033C000002084F8400000BF2046216E884770BD71
:1033D0002DE9F84304460D46164600BF94F8400018
:1033E000012802D10220BDE8F883012084F84000C2
:1033F00000BFC5F3001088B1C6F3001070B11020F3
:103400002168C861606C40F004006064202120469F
:10341000FFF758FB2046FFF7A9FB82E0C5F3C01079
:10342000002851D0C6F3801000284DD020680068D5
:1034300020F0400021680860608DA0B320684068DB
:10344000C0F30908608DFF2804D9FF2020854FF0C4
:10345000807709E0608D2085E06A10F5803F01D01B
:10346000E76A01E04FF000770020009094F82820F0
:103470003B464146204600F016FC608D218D401AE7
:10348000608594F84100222806D12068006840F445
:1034900000402168086044E02068006840F48040F3
:1034A000216808603DE0FFE72068406800F0007098
:1034B000B0F1007F03D02046FFF74AFD31E0402104
:1034C0002046FFF7CFFB2CE0C5F38010F8B1C6F320
:1034D0008010E0B1608DA8B92068406800F00070ED
:1034E000B0F1007F1DD0E06A10F5803F06D1206862
:1034F000406840F480402168486012E02046FFF7B1
:1035000027FD0EE040212046FFF7ACFB09E0C5F3A4
:10351000401030B1C6F3401018B129462046FFF7DD
:1035200083FC00BF002084F8400000BF00BF5AE7C2
:10353000F8B504460D461646684F00BF94F84000A3
:10354000012801D10220F8BD012084F8400000BF0D
:10355000C5F3001088B1C6F3001070B110202168C7
:10356000C861606C40F00400606420212046FFF7D1
:10357000A9FA2046FFF7FAFAA8E0C5F3400048B1DF
:10358000C6F3400030B1206D216888624FF0FF30F3
:1035900020659BE0C5F3C010002847D0C6F380101B
:1035A000002843D001212046FFF755FA102120467C
:1035B000FFF788FA608D98B3608DFF280DD9FF2042
:1035C00020850020009094F82820E06C81B24FF014
:1035D0008073204600F067FB0CE0608D20850020A2
:1035E000009094F82820E06C81B24FF000732046E0
:1035F00000F059FB608D218D401A608594F84100E0
:10360000222806D12068006840F400402168086044
:103610005CE02068006840F480402168086055E064
:10362000FFE740212046FFF71DFB4FE0C5F3801068
:10363000D0B3C6F38010B8B301212046FFF70BFAD0
:1036400010212046FFF73EFA94F84100222800D1CD
:10365000234F608DFF280CD9FF202085009794F818
:103660002820E06C81B24FF08073204600F01BFBF5
:103670000BE0608D2085009794F82820E06C81B2E3
:103680004FF00073204600F00EFB608D218D401A34
:10369000608594F84100222807D12068006840F432
:1036A00000402168086011E006E02068006840F4EE
:1036B00080402168086009E0C5F3401030B1C6F3CE
:1036C000401018B129462046FFF7AEFB00BF00208E
:1036D00084F8400000BF00BF35E7000000200080F4
:1036E000002400802DE9F84304460F461646DFF813
:1036F00088813D4600BF94F84000012802D1022095
:10370000BDE8F883012084F8400000BFC5F3001035
:1037100068B1C6F3001050B110202168C861606C18
:1037200040F0040060642046FFF720FA93E0C5F300
:10373000800090B1C6F3800078B125F004052068C0
:10374000406A616A0870606A401C6062208D401E99
:103750002085608D401E60857DE0C5F34000D0B1BE
:10376000C6F34000B8B1206D401C68B9606A0078AB
:1037700021688862606A401C6062208D401E20853E
:10378000608D401E608566E0206D216888624FF084
:10379000FF3020655FE0C5F3C01050B3C6F3801062
:1037A00038B3608D00B3208DF0B9608DFF280DD93E
:1037B000FF2020850020009094F82820E06C81B242
:1037C0004FF08073204600F06EFA44E0608D208553
:1037D0000020009094F82820E06C81B24FF0007334
:1037E000204600F060FA36E040212046FFF73AFA22
:1037F00031E0C5F3801000B3C6F38010E8B10121B9
:103800002046FFF728F902212046FFF75BF994F8DC
:103810004100222801D1DFF86480608DFF280DD996
:10382000FF202085CDF8008094F82820E06C81B23C
:103830004FF08073204600F036FA0CE0608D208552
:10384000CDF8008094F82820E06C81B24FF000732E
:10385000204600F028FAC5F3401030B1C6F34010FE
:1038600018B129462046FFF7DFFA00BF002084F890
:10387000400000BF00BF43E700200080002400801C
:103880002DE9F04704460F461546D4F82C804FF03A
:10389000000900BF94F84000012802D10220BDE8D1
:1038A000F087012084F8400000BFC7F3401038B112
:1038B000C5F3401020B139462046FFF77BFB42E1BB
:1038C000C7F30010002873D0C5F300100028FAD009
:1038D000C5F3803018B9C5F3C030002869D0E06B5B
:1038E00000286ED0C5F3C03000286AD0E06B0068B5
:1038F0009849884258D0E06B006896491831884250
:1039000052D0E06B00689349303188424CD0E06B74
:10391000006890494831884246D0E06B00688D4984
:103920006031884240D0E06B00688A497831884233
:103930003AD0E06B006887499031884234D0E06B20
:1039400000688449A83188422ED0E06B0068824923
:10395000884229D0E06B00687F491831884223D023
:10396000E06B00687C49303188421DD0E06B006814
:1039700079494831884217D0E06B00687649603158
:10398000884211D0E06B00687349783188420BD0CF
:10399000E06B006870499031884205D0E06B0068A8
:1039A0006D49A831884206D1E06B0068406805E0A7
:1039B000BFE0BAE005E0E06B0068406808B94FF08E
:1039C0000109A06B00286BD0C5F38030002867D0B8
:1039D000A06B00685F49884258D0A06B00685D49C1
:1039E0001831884252D0A06B00685A493031884261
:1039F0004CD0A06B006857494831884246D0A06B34
:103A0000006854496031884240D0A06B0068514939
:103A1000783188423AD0A06B00684E499031884294
:103A200034D0A06B00684B49A83188422ED0A06BDF
:103A300000684949884229D0A06B0068464918317E
:103A4000884223D0A06B00684349303188421DD0A2
:103A5000A06B006840494831884217D0A06B0068CD
:103A60003D496031884211D0A06B00683A497831F5
:103A700088420BD0A06B006837499031884205D04E
:103A8000A06B00683449A831884203D1A06B00685C
:103A9000406802E0A06B0068406808B94FF0010977
:103AA000B9F1010F20D194F84100282807D1B8F1CD
:103AB000007F04D139462046FFF77EF943E094F8B1
:103AC000410029280CD118F5803F09D01020216829
:103AD000C8612046FFF74AF82046FFF733FC32E082
:103AE00010202168C8612EE010202168C861606C38
:103AF00040F00400606494F84160B8F1000F02D017
:103B0000B8F1807F1FD1212E01D0292E02D1212092
:103B1000206305E0222E01D02A2E01D1222020632D
:103B2000616C2046FFF79EF80DE010202168C86107
:103B300009E0C7F3C00030B1C5F3C00018B1394681
:103B40002046FFF727F800BF002084F8400000BFA0
:103B500000BFA4E610000240100402402DE9F0412D
:103B6000044688461646E56A474600BF94F840007A
:103B7000012802D10220BDE8F081012084F8400034
:103B800000BFC7F3401038B1C6F3401020B139462A
:103B90002046FFF70FFA7FE0C7F30010A8B3C6F383
:103BA000001090B3608D00BB94F84100282807D125
:103BB000B5F1007F04D139462046FFF7FDF86BE0F0
:103BC00094F8410029280CD115F5803F09D0102028
:103BD0002168C8612046FEF7C9FF2046FFF7B2FB07
:103BE0005AE010202168C86156E010202168C861A1
:103BF000606C40F00400606415B1B5F1807F4BD17A
:103C0000616C2046FFF72EF846E0FFE7C7F380001F
:103C1000D0B1C6F38000B8B1608D60B12068406A51
:103C2000616A0870606A401C6062208D401E2085B9
:103C3000608D401E6085608D30BB15F5803F2BD0B8
:103C40002046FFF77FFB27E0C7F3C00038B1C6F37B
:103C5000C00020B139462046FEF79CFF1CE0C7F3A8
:103C6000400088B1C6F3400070B1608D68B1606AF1
:103C7000007821688862606A401C6062608D401E26
:103C80006085208D401E208506E0B5F1807F00D044
:103C900015B92046FFF756FB00BF002084F840000E
:103CA00000BF00BF67E7F0B5059CC1F309064FF4FC
:103CB0007F0707EA02473E431E43264326F000459E
:103CC000066876684FF4806707EA545767F0FC2768
:103CD00047F4C047BE432E4307687E60F0BD10B571
:103CE000044694F8410060280CD1202084F841005B
:103CF0000020206300BF84F8400000BF2046616FB1
:103D0000884708E00020206300BF84F8400000BF1F
:103D10002046216F884710BD1FB5FDF7AFFB01207E
:103D20008DF80000002001901F208DF80800002071
:103D30008DF80B008DF80F008DF80E0001208DF826
:103D40000D0000208DF801008DF80A0087208DF805
:103D5000090001208DF80C006846FDF761FB012089
:103D60008DF800004FF01040019017208DF80800EA
:103D700003208DF80B0001208DF80F008DF80E0048
:103D80008DF80D008DF801008DF80A0000208DF8E7
:103D9000090001208DF80C006846FDF741FB042066
:103DA000FDF782FB1FBD00008CB001680B914168DC
:103DB0000A9181680991C168089101690791416977
:103DC000069181690591C1690491084909680391C7
:103DD0000649091D0968029104490C3109680191DD
:103DE000024910310968009100BFFEE728ED00E0AC
:103DF0007047704710B54B6A33B1B2F1406F03D0D2
:103E00008B6A5B1E046823618B69002B7DD00B6A73
:103E1000F3B38B680468E361CB69FBB1D1E90B3480
:103E200023434C6B23434C6A23438C8A43EA8443E9
:103E30000C6923430C6A2343CC682343CC69234396
:103E40008C6923430C682343134304686361B2F114
:103E5000406F02D04B680468A361CBE0D1E90B341A
:103E600023434C6B23434C6A23438C8A43EA8443A9
:103E70000C6923430C6A2343CC6923438C69234395
:103E80000C6823431343046863610023046800E063
:103E900001E0A361AEE0CB69EBB1D1E90B34234380
:103EA0004C6B23434C6A23438C8A43EA84430C6A59
:103EB0002343CC682343CC6923438C6923430C6898
:103EC0002343134304686361B2F1406FC5D04B686C
:103ED0000468A3618EE0D1E90B3423434C6B234388
:103EE0004C6A23438C8A43EA84430C6A2343CC699B
:103EF00023438C6923430C682343134304686361A1
:103F000000230468A36175E0FFE70B6ADBB38B68ED
:103F10000468E361CB69EBB1D1E90B3423434C6B0B
:103F200023434C6A23438C8A43EA84430C6923432A
:103F30000C6A2343CC682343CC6923438C69234315
:103F4000134304686361B2F1406F53D04B68046857
:103F5000A3614FE0D1E90B3423434C6B23434C6AFC
:103F600023438C8A43EA84430C6923430C6A23432A
:103F7000CC6923438C6923431343046863610023A2
:103F80000468A36136E0FFE7CB69DBB1D1E90B340C
:103F900023434C6B23434C6A23438C8A43EA844378
:103FA0000C6A2343CC682343CC6923438C692343A5
:103FB000134304686361B2F1406F1BD04B6804681F
:103FC000A36117E04B6AABB1D1E90B3423434C6BCF
:103FD00023434C6A23438C8A43EA84430C6A234379
:103FE000CC6923438C692343134304686361002332
:103FF0000468A36110BD2DE9F04104460E46174642
:104000009846069D12E0681C80B1FCF733FFA0EBD8
:104010000800A84200D84DB9042084F84100606C23
:1040200040F0010060640120BDE8F08120688068F4
:10403000304008B1012000E00020B842E3D1002068
:10404000F2E710B500F0E8FA10BD00002DE9F041EC
:1040500004460D46164600BF0E4F3878532801D04F
:1040600000F0DAFA00BFEFF311800746202080F35A
:10407000118800BF00BF32462946204600F00CF8E8
:104080008046F8B280F3118800BF00BF4046BDE80B
:10409000F0810000200400202DE9F0470746884603
:1040A0001646C24607EB47011B4800EBC109D9F889
:1040B000140020B1012811D0022826D11EE0484664
:1040C00000F0E2FA0546B54201D2002405E034468C
:1040D00032465146484600F02EFC18E0484600F0B3
:1040E000D3FA0546B54201D2284600E030460446E0
:1040F00022465146484600F01EFC08E03246514632
:10410000484600F0DDFB044601E0002400BF00BF8C
:104110002046BDE8F0870000380400200FB438B511
:10412000044606A800906A462046059900F008F863
:10413000054600200090284638BC5DF814FB0000BE
:104140002DE9F74F98B00D46144602A81390402071
:10415000149000201590189817900020169000BF1A
:104160002E786D1C06B9FBE0252E73D100274FF089
:10417000010A00BF2E78232E12D02B2E0CD02D2E0C
:1041800002D0302E10D103E047F001076D1C0EE085
:1041900047F002076D1C0AE047F004076D1C06E0BB
:1041A00047F008076D1C02E04FF0000A00BF00BF97
:1041B000BAF1000FDED14FF0000900BF2E78302E8B
:1041C00001DB392E00DD07E06D1CA6F1300009EBA4
:1041D000890100EB4109F1E700BF00201290804601
:1041E0002E782E2E1ED16D1C28782A2808D16D1C01
:1041F000012012902168081D2060D1F8008011E094
:1042000000BF2E78302E01DB392E00DD09E00120C1
:1042100012906D1CA6F1300008EB880100EB4108FC
:10422000EFE700BF2E7800BF6C2E01D0682E02D1C0
:104230006D1C2E7800E000E0F6E700BF702E6CD019
:1042400009DC252E7BD0582E35D0632E0AD0642E63
:104250007AD113E07CE0732E3BD0752E1CD0782EE3
:1042600072D127E02168081D2060D1F800A00AF073
:10427000FF0B594613A800F001FB66E02168081DFA
:104280002060D1F800A043460A22514613A8CDE988
:10429000009700F007FA58E02168081D2060D1F867
:1042A00000A043460A22514613A8CDE9009700F02A
:1042B0006FFA4AE000BF2168081D2060D1F800A015
:1042C00043461022514613A8CDE9009700F060FA4A
:1042D0003BE02168081D2060D1F800B0BBF1000F61
:1042E00003D10FF2A40B0020129000BF9BF80060D6
:1042F0000BF1010B06B90EE0129818B1B8F1000FDE
:1043000000D108E0314613A800F0B8FAA8F101087E
:1043100016980028EADA00BF17E02168081D20601F
:10432000D1F800A0002008210B461022CDE9001092
:10433000514613A800F02CFA07E000E004E0252124
:1043400013A800F09BFA00E000BF00BF6D1C03E063
:10435000314613A800F092FA16980028BFF600AF75
:1043600000BF169800280ADD159820B102A9159AF9
:104370001898FFF76BFEDDE91510084416901698A3
:104380001BB0BDE8F08F0000284E554C4C290000B2
:104390007047000010B59CB000245448006820F01D
:1043A00004005249086000BF002000905048006897
:1043B00020F001004E4908600846006800F0010046
:1043C00000904A480C30006840F4404047490C31A6
:1043D00008600846006800F44040009000BF00BF3D
:1043E00000BF42480C30006800F40050B0F5005F98
:1043F000F7D1012001900004029000200490089061
:1044000002200A9002210B9105210C91A0210D910F
:104410000021139102210E91109104210F9100218E
:1044200012910821119101A8FDF720FD04460CB15D
:10443000FCF79FF83F201490032015900020169061
:104440000820179040201890199000011A904020E1
:104450001B90042114A8FDF763FA04460CB1FCF785
:1044600088F82448006840F080002249086000BFB6
:104470002048F430006840F002001E49F431086022
:104480000846006800F00200009000BF00BF00BFB7
:104490001848DC30006840F000501649DC310860F4
:1044A0000846006800F00050009000BF00BF00BF49
:1044B0000846006840F0804008600846006800F048
:1044C0008040009000BF00BF00BF0846006840F079
:1044D000004008600846006800F00040009000BFFF
:1044E00000BFFCF7ABFB1CB010BD00000C4802582D
:1044F0002C040058004402583448006840F470000E
:10450000324908603248006800F00F00072806D2E0
:104510002F48006820F00F00C01D2D4908602D486D
:10452000006840F001002B49086000202949103143
:10453000086028480068284908402649086024483F
:10454000006800F00F00072806D92148006820F015
:104550000F00C01D1E49086000201E491831086068
:10456000091D0860091D08601C481A4928310860A7
:104570001B48091D08601B48091D08600020091D13
:1045800008601848091D08600020091D08601548CA
:10459000091D08600020091D08600E48006820F40D
:1045A00080200C49086000200A49603108600E48EC
:1045B00000686FF30F00B0F1005F02D201200B49D9
:1045C000086043F2D2000A490860704788ED00E0B5
:1045D00000200052004402587FEDF6EA0002020279
:1045E0000000FF01800201010010005C0881005101
:1045F0000040005210B50248FEF77EF810BD0000E2
:104600001801003010B50248FEF776F810BD000022
:104610005C00003000BFFEE770B5144CA8212046B6
:10462000FBF7C3FE03202061606111A0A061134964
:10463000E1614FF4806121620021A1626162E16267
:104640000BA020660E4961661021A166002121673A
:10465000E1666167002505E0C5F10F000949085CC6
:1046600060556D1C102DF7D370BD00002004002094
:104670005465726D696E616C000000000C040030BE
:104680000C080030B45A000810B501460A69CB681E
:104690009A4204D88C68641EE41AA01801E0D41A67
:1046A000601E10BD2DE9FC5F06460F4692469846F7
:1046B000DDE90C45002F01DA784200E038468346F8
:1046C0004FF0010903E09BFBFAFB09F10109D34517
:1046D000F9DAC84500D9C14634B1002F03DB05F033
:1046E0000400042800D1641E05F0020010B1B8F1E6
:1046F000000F11D005F0010070B96CB108E0641E24
:104700002021304600F0BAF8F068002800DA02E014
:104710000CB1A145F3D300BFF068002836DB002FB1
:1047200005DA7F422D21304600F0A8F807E005F0B9
:104730000400042803D12B21304600F09FF8F068D4
:10474000002823DB05F00200022814D105F0010047
:1047500088B9B8F1000F0ED16CB108E0641E3021A9
:10476000304600F08BF8F068002800DA02E00CB167
:10477000A145F3D300BFF068002807DB434652464B
:1047800039463046CDE9004500F002F8BDE8FC9F0F
:104790002DE9FC5F8046894615461E460C9CCDF8E7
:1047A00004900127BB4605E00198B0FBF5F00190AD
:1047B0000BF1010B0198A842F6D25E4500D9B34631
:1047C0000D9800F00100D0B9CCB10D9800F00200B6
:1047D000022803D116B93020009001E0202000907B
:1047E00009E0641E4046009900F048F8D8F80C0033
:1047F000002800DA02E00CB1A345F2D300BFD8F8DC
:104800000C00002835DB09E0012E01D9761E04E0FA
:10481000B9FBF7FAAA4500D201E06F43F4E700BF05
:1048200000BFB9FBF7FA0AFB1799134810F80A10F2
:10483000404600F023F8D8F80C00002800DA03E026
:10484000B7FBF5F7002FECD100BF0D9800F0010089
:1048500078B174B109E0641E2021404600F00EF8E2
:10486000D8F80C00002800DA02E00CB1A345F2D31E
:1048700000BFBDE8FC9F0000C55A000870B50446A3
:104880000E46A568681C6168814206D320684655BB
:10489000681CA060E068401CE060D4E90110884218
:1048A0000DD1A26821682069FFF7D0FBA16888427A
:1048B00003D04FF0FF30E06001E00020A06070BD49
:1048C0002DE9F05F0446894617464FF0000AE56877
:1048D00000BFD4F81080A84503D9A8EB0500461EF8
:1048E00004E0A5EB0800401CA1680E1AA068401B5C
:1048F000B04201D9304601E0A068401B0646BE42E6
:1049000001D2304600E038460646606800EB050BF1
:10491000324649465846FBF72FFDB244B144BF1B0F
:104920003544A068A84200D10025E560002FD0D111
:104930005046BDE8F09F2DE9F047044689461546EC
:10494000E668A068871BAF420AD9606800EB060AD8
:104950002A4649465046FBF70FFD7019E06014E007
:10496000B846606800EB060A424649465046FBF7E7
:1049700003FDA5EB0708D4F804A009EB07014246A4
:104980005046FBF7F9FCC4F80C80BDE8F087000046
:1049900002480068C0F30220704700000CED00E000
:1049A00010B5002804DB0A07130E054A135406E06D
:1049B0000A07140E034A00F00F031B1FD45410BD46
:1049C00000E400E018ED00E002E008C8121F08C192
:1049D000002AFAD170477047002001E001C1121F80
:1049E000002AFBD170470146086820F0010070479B
:1049F00070B504460D461DB1284600F0B8FC08B954
:104A0000002070BD256000206060A060206800F07C
:104A10006DFFE060E06808B90020F2E72168E06817
:104A2000FBF7C3FC04F1100000F0F2FC20B9E068D1
:104A300000F0CEFE0020E4E70120E2E72DE9F0419E
:104A400004460E46154615B90020BDE8F08104F174
:104A5000100000F0E0FCD4E90110401A2168491E62
:104A600000EA0107AF4205D204F1100000F0D4FCC7
:104A70000020EAE700200AE06268E168895C3154BE
:104A80006168491C2268521E11406160401CA842A6
:104A9000F2D304F1100000F0BFFC0120D5E72DE9AE
:104AA000F04104460E46154615B90020BDE8F081D8
:104AB00004F1100000F0AFFCD4E90110401A2168A5
:104AC000491E00EA01072068C01BA0F10108A845A3
:104AD00005D204F1100000F09FFC0020E6E7002062
:104AE0000AE0315CD4E90232D154A168491C226841
:104AF000521E1140A160401CA842F2D304F11000E4
:104B000000F08AFC0120D1E730B502464FF6FF7075
:104B100018E012F8015B80EA052008230FE000F49A
:104B200000443CB14FF6FF7404EA400041F2210416
:104B3000604003E04FF6FF7404EA40005B1E002B68
:104B4000EDD1491E0029E4D130BD0000002001490B
:104B5000087070477A0200300020014908707047E1
:104B60007902003000200149087070477802003057
:104B700000B587B000BF2A48006840F0020028490D
:104B800008600846006800F00200019000BF00BF06
:104B900000BF23480830006840F4800020490831F5
:104BA00008600846006800F48000019000BF00BF64
:104BB00004200690122003904FF4406002900120E0
:104BC00004900220059002A91648FCF741F88421C0
:104BD0001548FBF7EAFB1548134908600121124804
:104BE000C16000210161C161016281604161816137
:104BF0000F480D4948600846FCF7DEF900220D21F8
:104C00002120FCF786FC2120FCF76FFC00220D21FF
:104C10002220FCF77EFC2220FCF767FC07B000BDD9
:104C2000E044025800040258F401003000580040EB
:104C3000130F42102DE9FC4104460D4616461F464F
:104C400000200649087001232A4621460448CDE980
:104C50000067FCF767FABDE8FC8100007A020030CB
:104C6000F401003001480078704700007A020030FB
:104C70000148007870470000790200300148007850
:104C800070470000780200302DE9FC4104460D46D3
:104C900016461F4600200649087001232A46214671
:104CA0000448CDE90067FCF7A1FABDE8FC810000EB
:104CB0007A020030F401003030B587B00020039054
:104CC00000BF2748006840F00100254908600846F9
:104CD000006800F00100019000BF00BF00BF08465F
:104CE000006840F0040008600846006800F0040016
:104CF000019000BF00BF00242EE004EB44001949DE
:104D000001EBC0000069059004EB440001EBC0001A
:104D1000C068049004EB440001EBC00000890290DD
:104D200004EB44010F4A02EBC101486802A9FBF7FA
:104D30008FFF04EB44030B4D05EBC3039A7A04EB9E
:104D4000440305EBC303198904EB440305EBC303D8
:104D50005868FCF783F8641C042CCEDB07B030BD28
:104D6000E0440258185A000870B5002500241CE0E1
:104D700004EB44020F4B03EBC202118904EB440223
:104D800003EBC2025068FCF761F804EB4401094AE6
:104D900002EBC101097D884203D10120A0400543F7
:104DA00002E00120A0408543641C042CE0DB28467F
:104DB00070BD0000185A000830B587B0012003907C
:104DC00000BF2748006840F00200254908600846F7
:104DD000006800F00200019000BF00BF00BF08465D
:104DE000006840F0040008600846006800F0040015
:104DF000019000BF00BF00242EE004EB840019499D
:104E000001EB80000069059004EB840001EB800059
:104E1000C068049004EB840001EB800000890290DC
:104E200004EB84010F4A02EB8101486802A9FBF7F9
:104E30000FFF04EB84030B4D05EB83039A7A04EB1D
:104E4000840305EB8303198904EB840305EB8303D7
:104E50005868FCF703F8641C022CCEDB07B030BDA9
:104E6000E0440258E459000810B5044604EB8402FB
:104E7000064B03EB8202118904EB840203EB8202EE
:104E800050680122FBF7EAFF10BD0000E45900085A
:104E900010B5044604EB8402064B03EB8202118931
:104EA00004EB840203EB820250680022FBF7D6FF7A
:104EB00010BD0000E459000870B516490868804725
:104EC00014484FF48073144A00210569A020A847B4
:104ED000124C0EE00F49C869804730B10D49086A8D
:104EE00080470C498869804708E0601E041E00D195
:104EF00004E00849486980470028EBD000BF054915
:104F0000886980470020044981F8080181F8090177
:104F100070BD0000805A00087C020030A0860100AD
:104F20002DE9F0413F4890F80801002875D001288C
:104F300002D0022872D134E03A49B1F80001C11719
:104F400000EB5171C910A0EBC1018DB2C5F1080091
:104F500084B23448B0F80201A04206DA3148B0F811
:104F600002013049A1F8060102E02E48A0F80641EE
:104F70002C48B0F800012B49A1F804010846B0F80C
:104F80000631B0F804010F46C2190846B0F8041102
:104F900025484668A020B0470220394681F808011C
:104FA0003DE02149C869804760B11F49086A8047D0
:104FB0001D49C868804700201A4981F8090181F815
:104FC00008012CE018498868804718B31649C8685A
:104FD00080471448B0F800011249B1F8061108449E
:104FE0001049A1F800010846B0F80201B1F8061115
:104FF000401A0C49A1F802010846B0F8020128B98C
:10500000002081F8090181F8080103E00120054929
:1050100081F8080103E000E000E000E000BF00BF0D
:10502000BDE8F0817C020030805A000810B50649C6
:10503000086880473C210548FBF7B7F94FF48071B9
:105040000248FFF7D5FC10BD785A00082000003058
:1050500010B5694948688047684988630024C7E0FB
:1050600004EB84016548103000EB4100644908609E
:105070006248806BE04000F00100096848706048B9
:10508000006840785E490968C978884216D05C4853
:1050900000680079401C5A4909680871584800683E
:1050A000007903280EDB56480068407854490968A7
:1050B000C870002052490968087103E00020504977
:1050C000096808714E480068C07808B9012000E0FE
:1050D00000204B4909688870494800680078062814
:1050E0000CD2DFE800F0030C193F4C724448006812
:1050F000807818B9012042490968087076E0E0B26A
:10510000002100F08FF800203D490968C880022086
:105110003B490968087069E039480068807860B1E7
:10512000E0B2012100F07EF80020354909680881CD
:10513000042033490968087013E031480068C088CA
:10514000401C2F490968C8802D480068C088642821
:1051500007DBE0B2022100F065F803202849096866
:10516000087043E026480068807838B1E0B2032137
:1051700000F058F8002022490968087036E02048FD
:105180000068807860B9E0B2002100F04BF80020A0
:105190001B490968C880052019490968087013E08F
:1051A000174800680089401C15490968088114489F
:1051B000006800891E2807DBE0B2042100F032F805
:1051C00000200F490968087010E00D4800688078D9
:1051D00058B1E0B2012100F025F8E0B2052100F05D
:1051E00021F8002006490968087000BF00BF641C50
:1051F000042CFFF635AF10BD785A000820000030AF
:105200001404002008B5022269460548FFF716FC81
:1052100010B1BDF8000008BD4FF6FF70FBE70000BD
:105220002000003038B504460D4645EA04200090C1
:10523000022269460148FFF732FC38BD20000030E9
:1052400010B502490868804710BD00000C5A0008DC
:1052500010B500247DE0414800EB04104078A0B177
:1052600000203E4901EB041148703C4800EB04105B
:10527000807800286AD03A48816820468847002014
:10528000364901EB0411887060E0344800EB0410EB
:10529000007800285AD0314800EB0410C06828B3C9
:1052A0002E4800EB0410C068401E2C4901EB04118D
:1052B000C8602A4800EB0410C068B8B9002027492C
:1052C00001EB04110870254901EB041188602348A3
:1052D00000EB0410807840B121488168204688475F
:1052E00000201E4901EB0411887030E01B4800EBE0
:1052F00004108068401C194901EB041188601748AC
:1053000000EB04108068154901EB041149688842DC
:105310001CD30020114901EB041188600F4800EBF9
:105320000410807848B10E488168204688470020E4
:105330000A4901EB0411887008E0094841682046D9
:1053400088470120054901EB0411887000BF601CEB
:10535000C4B2022CFFF67FAF10BD00000000003089
:105360000C5A000801468868704781607047014602
:1053700021B1481E084008B9012070470020FCE711
:105380004FF000651C4E6A1429463046FAF7F4FFC8
:1053900030461A490860FEF754FE01210F20FBF742
:1053A000A3F9FBF735FAFEF7B7FCFBF749F8FBF773
:1053B00093FFFEF7EFFF00F079FAFFF741FFFFF7E9
:1053C00035FEFFF779FD00F087F8002403E02003A5
:1053D00000F024F8641C402CF9D300BFFFF712FF43
:1053E00004464FF6FF70844205D0E3B2220A04A1BE
:1053F0000020FEF793FEF1E70000002008ED00E03A
:105400006B65793D25642C6576743D25640D0A0035
:1054100001460120704770477047000010B58EB0FC
:10542000044600BF01231A460021052000F054F96C
:105430000028F7D0012000F013F900BF1148FCF755
:10544000E5F90228FAD02020009001940020029073
:105450004FF4005003900020049005904FF44070EA
:105460000690800007900020089009900A900B9009
:105470000C900D90421E69460248FCF758F90EB098
:1054800010BD00008803003010B50121FF2000F09E
:1054900075F900BF012302220021352000F01CF91C
:1054A0000028F7D0002000F0DBF800220221312094
:1054B00000F0DEF800BF002302221146352000F084
:1054C0000BF90028F7D04FF4FA70FBF7A3FB00218B
:1054D000382000F053F910BD10B586B000BF5A480F
:1054E000006840F48040584908600846006800F4AD
:1054F0008040009000BF00BF53485838006840F417
:1055000080405149583908600846006820F48040BE
:10551000086000BF4C480C30006840F002004A4967
:105520000C3108600846006800F00200009000BFDF
:1055300000BF00BF0846006840F008000860084649
:10554000006800F00800009000BF00BF00BF0846E0
:10555000006840F0100008600846006800F0100085
:10556000009000BF00BF02200290002003900320A3
:1055700004900A2005904020019001A93348FBF7D0
:1055800067FB092005904FF40060019001A93048A5
:10559000FBF75EFB092005904FF48050019001A9B4
:1055A0002B48FBF755FB092005900420019001A929
:1055B0002848FBF74DFB092005904FF4005001905F
:1055C00001A92348FBF744FB092005900420019022
:1055D00001A91E48FBF73CFB74211F48FAF7E5FEC2
:1055E00000BF1D48FCF712F90228FAD01B481A49DF
:1055F0000860C72048600421174881601021C160FD
:10560000172101614FF48071416100218161C16105
:105610000162FCF7FFF804460CB100BFFEE7102062
:105620000D490968C86008200B490968C860022054
:1056300009490968C860012007490968C860FFF77F
:1056400023FF06B010BD0000D444025800040258E5
:10565000000C02580010025888030030005000521D
:1056600010B504462146062000F088F810BD000061
:1056700070B58EB005460E46144600BF1548FCF7BF
:10568000C5F80228FAD000950020019002960390F8
:10569000049005901CB14FF44070069002E04FF466
:1056A00080700690002007901CB14FF44040089095
:1056B00002E04FF480400890002009900A900B907F
:1056C0000C900D90421E69460248FCF730F80EB06F
:1056D00070BD0000880300302DE9F04194B006460B
:1056E0000F4690461C4600BF2348FCF78FF802285F
:1056F000FAD000960020019002900390049005904B
:105700001CB14FF44070069002E04FF48070069098
:105710000020079008901CB14FF04070099002E003
:105720004FF08070099000200A900B900C900D9023
:105730000E97CDF83C801020109001201190002091
:1057400012904FF48000139001230EAA69460A4874
:10575000FBF787FF054665B10748FBF72BFF0648B7
:10576000FCF738F80448FCF755F8002014B0BDE801
:10577000F0810120FAE700008803003030B58FB0D7
:1057800004460D4600BF1148FCF740F80228FAD045
:1057900001940020029003900490059006901DB1A2
:1057A0004FF44070079002E04FF4807007900020A3
:1057B000089009900A900B900C900D900E90421E4C
:1057C00001A90248FBF7B3FF0FB030BD88030030DA
:1057D0002DE9F84F8046B8F1000F01D1BDE8F88FF0
:1057E000A8F108046068B0F1CD3F00D0F6E720468C
:1057F000FFF7F9F8074627604FF0A53060600026F4
:105800002948056804E02E462846FFF7ABFD05460B
:105810000DB1A542F7D30020009096B13046FFF7B6
:10582000E2F800EB0609A1450BD13046FFF7DBF8A3
:105830003844306029463046FFF797FD3446012052
:105840000090009858B929462046FFF78EFD26B1F2
:1058500021463046FFF789FD01E013480460BDB1E1
:105860002046FFF7C0F800EB040AAA4510D12046F5
:10587000FFF7B9F883462846FFF7B5F8584420608B
:105880002846FFF76FFD834659462046FFF76DFD1A
:10589000054880683844044988600846C068401E4E
:1058A000C86000BF9AE70000FC03003010B54FF459
:1058B000A0410C48FAF779FD0A4C4FF4A040206053
:1058C0004FF0A530606000212046FFF74EFD0648EE
:1058D00004604FF4A0400449486088600020C8601C
:1058E00010BD000000B00330FC0300302DE9F84F7C
:1058F0008146B9F1000F02D10020BDE8F88F09F10F
:10590000030020F0030909F10805102D00D210252D
:105910004FF0000A2E48046856E02046FFF763F86F
:105920000646AE424BD3A6EB050BBBF1100F22D3BC
:1059300045F0010020604FF0CD3060602F4604EB51
:105940000508C8F800B04FF0A530C8F8040020469C
:10595000FFF708FD014600904046FFF706FDBAF14B
:10596000000F04D041465046FFF7FFFC1BE01848EB
:10597000C0F8008017E046F0010020604FF0CD3005
:1059800060603746BAF1000F08D02046FFF7EAFC06
:10599000014600905046FFF7E8FC04E02046FFF780
:1059A000E1FC0B4908600A488068C01B0849886010
:1059B0000846C068401CC86004F108009DE7A24684
:1059C0002046FFF7CFFC0446002CA6D1002094E728
:1059D000FC0300300000000000000000010203048E
:1059E0000607080900000000000402580100010039
:1059F0000000000001000000010000000008025843
:105A0000002001000000000001000000B94D000866
:105A1000914E0008694E0008000000000000025886
:105A20000100000002000000010000000100000071
:105A300001000000000802580800010001000000F9
:105A400001000000000000000200000000080258F1
:105A5000040001000100000001000000000000003F
:105A600003000000000802580100010001000000CE
:105A70000100000000000000B94C0008694D00085A
:105A8000714B0008894C00087D4C0008654B0008EC
:105A9000354C0008714C0008594B0008654C000853
:105AA0004D4B0008303132333435363738394142C6
:105AB0004344454600000000000054545220524523
:105AC0004747455300303132333435363738394162
:105AD000424344454600000001000101400000002F
