:0200000490006A
:10000000E8190020390300907D610090650300909D
:10001000B1020090CD090090BD7100900000000079
:1000200000000000000000000000000011660090C9
:10003000FB0E0090000000007F61009001000000B6
:100040005703009057030090570300905703009008
:1000500057030090570300905703009057030090F8
:10006000570300905703009057030090010B009036
:10007000A50B0090B50B009057030090E50B009086
:10008000F50B009057030090570300905703009022
:1000900057030090570300905703009057030090B8
:1000A0005703009075680090570300905703009025
:1000B0005703009057030090570300905703009098
:1000C00057030090994C0090894C0090CD640090AB
:1000D00057030090857100905703009057030090DC
:1000E0005703009057030090000000005703009052
:1000F0005703009057030090570300905703009058
:1001000057030090570300908568009057030090B4
:100110005703009057030090570300905703009037
:100120005703009057030090570300905703009027
:100130005703009057030090570300905703009017
:1001400000000000000000000000000000000000AF
:1001500057030090570300905703009057030090F7
:1001600057030090570300905703009057030090E7
:1001700057030090570300905703009000000000C1
:1001800057030090570300905703009057030090C7
:1001900057030090570300905703009057030090B7
:1001A00057030090570300905703009057030090A7
:1001B0005703009057030090570300905703009097
:1001C0005703009057030090570300905703009087
:1001D0005703009057030090570300905703009077
:1001E0005703009057030090570300905703009067
:1001F0005703009057030090570300905703009057
:100200005703009057030090570300905703009046
:100210005703009057030090570300905703009036
:100220005703009057030090570300900000000010
:100230005703009057030090000000005703009000
:100240005703009055090090570300905703009002
:1002500057030090570300905703009057030090F6
:1002600057030090570300905703009057030090E6
:1002700057030090570300905703009000000000C0
:1002800057030090570300905703009000000000B0
:100290000000000057030090DFF810D000F0AEFA25
:1002A00000480047658D0090AFF30080E8190020FA
:1002B0001EF0040F0CBFEFF30880EFF3098005F088
:1002C00039BF00000246D2E84F0F411CC2E8431F6D
:1002D00003B1F8E77047024652E8000F411C42E8BC
:1002E000001303B1F8E77047024652E8000F42E8F6
:1002F000001303B1F9E77047024652E8000F83018B
:1003000003D3BFF32F8F0020704700F00040084355
:1003100042E8000303B1F0E77047024652E8000FDD
:10032000800103D2BFF32F8F0020704742E80013F3
:1003300003B1F3E70120704707488047074880472B
:1003400007480047FEE7FEE7FEE7FEE7FEE7FEE7B9
:10035000FEE7FEE7FEE7FEE7F911009079670090FF
:10036000990200901EF0040F0CBFEFF30880EFF32A
:10037000098004F0D9BB00002DE9F05F054600209C
:1003800092469B4688460646814640241BE0284606
:1003900041464746224600F069F853465A46C01A7D
:1003A000914110D311461846224600F050F82D1AFC
:1003B00067EB01084F4622460120002100F047F874
:1003C00017EB00094E41201EA4F10104DFDC484672
:1003D00031462A464346BDE8F09F40EA01039B07A9
:1003E00003D009E008C9121F08C0042AFAD203E0AA
:1003F00011F8013B00F8013B521EF9D27047D2B20E
:1004000001E000F8012B491EFBD270470022F6E7FD
:1004100010B513460A4604461946FFF7F0FF20467A
:1004200010BD30B50B46014600202022012409E012
:1004300021FA02F59D4205D303FA02F5491B04FA9D
:1004400002F52844151EA2F10102F1DC30BD202A7C
:1004500004DB203A00FA02F1002070479140C2F11B
:10046000200320FA03F3194390407047202A04DB4D
:10047000203A21FA02F00021704721FA02F3D0401D
:10048000C2F1200291400843194670472DE9FE4F02
:10049000804681EA0300C00F0C46009021F0004125
:1004A00023F00045B8EB0200A94105D240462146A1
:1004B00090461C460B46024623F00040104347D0AE
:1004C000270DC7F30A00C3F30A510290401A0190A6
:1004D00040286BDAC3F3130040F4801B0098924667
:1004E00020B10023D2EB030A63EB0B0B01985946B2
:1004F000C0F140025046FFF7AAFF06460D4650469F
:100500005946019A00F08CF910EB08006141002473
:1005100087EA115284EAE7731A4340D0009A62B323
:10052000019A012A4FEA075215DC001B61EB020118
:100530004FF0004202EA0752CDE90042001C41F5AB
:10054000801132462B4600F08CF903B0BDE8F08FE5
:1005500040462146F9E7001B61EB0201001C41F512
:10056000801300185B412018A2F5001747EB030128
:1005700040EAD570B6196D4111E06D084FEA3606B4
:1005800045EAC0754FEA0752001B61EB0201001CEF
:1005900041F5801149084FEA3000001951413246B7
:1005A0002B4603B0BDE8F04F00F04CB90098012293
:1005B00040000023D0EB020263EBE0730098214679
:1005C0004FEAE074B8EB000061EB0401E9E783F067
:1005D00000435BE781F0004158E72DE9FE4F81EAD7
:1005E000030404F0004421F0004100944FF0000B9C
:1005F00023F0004350EA01045ED052EA03045BD0CA
:10060000C3F30A54C1F30A552C44A4F2F334019401
:10061000A0FB0254C1F3130141F48011C3F313038F
:1006200043F4801301FB024400FB034E840A970A43
:1006300044EA815447EA8357A4FB076802958D0A70
:1006400005FB07854FEA932C04FB0C542705029DFC
:100650004FEA065847EA1637B5EB08056EEB070C6C
:10066000870E920E47EA811742EA8312A7FB020126
:10067000B6EB0B0164EB00042B0D43EA0C335E1860
:1006800044EB1C50DA465146E7FB0201C5F3130464
:100690004FEA0B3343EA14534FEA0432019C43EA16
:1006A0000603A4F10C040294009CCDE900B400F010
:1006B000D8F803B0BDE8F08F00200146F9E72DE936
:1006C000F04D81EA030404F0004B21F0004514468C
:1006D0004FF0000A23F0004150EA050220D054EA0E
:1006E00001021DD0C5F30A570246C5F31303C1F337
:1006F0001300C1F30A5640F4801543F48013A7EBAE
:100700000608101BD64608F2FD3873EB050002D32D
:1007100008F1010801E092185B41B8F1000F03DA1B
:1007200000200146BDE8F08D00204FF48011064600
:1007300084460EE0171B73EB050705D3121B63EB12
:10074000050306434CEA010C49084FEA30009218B1
:100750005B4150EA0107EDD152EA030012D082EA70
:10076000040083EA0501084305D0101BAB4106D203
:100770000122002306E000224FF0004302E06FF068
:10078000010253101AEB06004CEB085110EB0A0063
:1007900041EB0B01BDE8F04D00F054B8C1F30A5233
:1007A000C1F3130140F2FF3341F480119A4202DA9F
:1007B00000200146704740F233439A42A2F233428E
:1007C00002DC5242FFF752BEFFF741BE30B5041EB5
:1007D00071F1000404DB4FF00044404264EB01017E
:1007E000141E73F1000405DB1C464FF00043524217
:1007F00063EB0403994208BF904230BD064C074D9D
:1008000006E0E06840F0010394E8070098471034E0
:10081000AC42F6D3FFF744FDFC9500906C96009037
:10082000202A06DBCB17203A41FA02F043EAE073B4
:1008300006E041FA02F3D040C2F1200291400843A1
:100840001946704710B5141E73F1000408DA401CF5
:1008500041F1000192185B411A4301D120F00100DF
:1008600010BD2DE9F04D92469B4611B1B1FA81F2CF
:1008700002E0B0FA80F220329046FFF7E8FD04462D
:100880000F4640EA0A0041EA0B0153465A46084324
:1008900013D0114653EA010019D0C8F14002504666
:1008A000FFF7E4FD05460E46504659464246FFF71F
:1008B000CEFD084305D0012004E020463946BDE8BE
:1008C000F08D0020054346EAE0762C4337430A9832
:1008D0006305E40AA0EB08000022FD0A44EA47543D
:1008E0000A3002D500200146E9E7010510196941E7
:1008F000DDE9084500196941BDE8F04DA2E770B592
:100900008C1810F8015B15F0070301D110F8013BBA
:100910002A1106D110F8012B03E010F8016B01F841
:10092000016B5B1EF9D12B0705D40023521E0DD499
:1009300001F8013BFAE710F8013BCB1A921C03E0E7
:1009400013F8015B01F8015B521EF9D5A142D8D31F
:10095000002070BD1B48006800F0020080B14FF419
:100960000030194908610220486188610004C861AB
:100970001448001D006840F002001249091D08607B
:100980001048006800F0040070B102200E490860B1
:10099000486088600004C8600A48001D006840F094
:1009A00004000849091D08600648006800F00800B6
:1009B00038B10448001D006840F008000149091DD5
:1009C00008607047005402580000003800BFFEE77E
:1009D00010B500BF4848006800F4003000B139E0AD
:1009E00000BF00BF00BFBFF34F8F00BF00BF00BFFD
:1009F00000BF00BF00BFBFF36F8F00BF00BF00BFCD
:100A000000203E49086000BF00BF00BFBFF34F8F0A
:100A100000BF00BF00BF00BF00BF00BFBFF36F8FAC
:100A200000BF00BF00BF3448006840F400303249C6
:100A3000086000BF00BF00BFBFF34F8F00BF00BF03
:100A400000BF00BF00BF00BFBFF36F8F00BF00BF7C
:100A500000BF00BF00BF284B1B6803F4803303B105
:100A600048E00023244C7034236000BF00BF00BF67
:100A7000BFF34F8F00BF00BF00BF231F1868C0F334
:100A80004E3100BFC0F3C90200BF43F6E07303EA72
:100A900041134FF0404404EA82742343174C10344E
:100AA000236000BF00BF131EA2F10102EDD10B1E97
:100AB000A1F10101E6D100BF00BF00BFBFF34F8F1E
:100AC00000BF00BF00BF0C4B1B6843F480330A4CCF
:100AD000236000BF00BF00BFBFF34F8F00BF00BF48
:100AE00000BF00BF00BF00BFBFF36F8F00BF00BFDC
:100AF00000BF00BF10BD000014ED00E050EF00E0AB
:100B000010B52348006800F02000D8B12048806864
:100B100040F020001E4988600846806840F01000C0
:100B200088601C48007868B100211B4807F01BFA58
:100B300000201849087008460078184908701848BD
:100B400003F0A5FE1248006800F01000A0B11048A4
:100B5000806840F010000E498860104800780D4908
:100B60000978884208D000210B48203807F0FBF9AB
:100B700008480078094908700548006800F0080036
:100B800028B10348806840F008000149886010BD22
:100B90000000024038170030A0160030391700302E
:100BA000C415003010B5024800F078FD10BD0000FB
:100BB000301500300948006800F4001068B107489B
:100BC000806840F40010054988600846006C20F0F9
:100BD00001000864012002490870704700000240CB
:100BE0004017003010B5024800F058FD10BD00005D
:100BF0003C04003010B5024800F050FD10BD00006C
:100C0000B40400300146374A0868904249D0354A5A
:100C100018320868904244D0324A30320868904214
:100C20003FD0304A4832086890423AD02D4A60326C
:100C30000868904235D02B4A78320868904230D00C
:100C4000284A9032086890422BD0264AA832086879
:100C5000904226D0244A0868904222D0224A183274
:100C6000086890421DD0204A30320868904218D05F
:100C70001D4A48320868904213D01B4A6032086807
:100C800090420ED0184A78320868904209D0164A2D
:100C900090320868904204D0134AA8320868904203
:100CA00001D1012000E00020B0B10A78103A1823E9
:100CB000B2FBF3F000F007020C4B9A5CCA65032804
:100CC00005D90A686FF30902121D8A6503E00A68F4
:100CD0006FF309028A6503E0086820F0FF00886569
:100CE000886D70471000024010040240D0940090BC
:100CF00010B502682B4C0368A34222D0294C14344F
:100D00000368A3421DD0274C28340368A34218D09F
:100D1000244C3C340368A34213D0224C5034036863
:100D2000A3420ED01F4C64340368A34209D01D4C6B
:100D300078340368A34204D01A4C8C340368A3426D
:100D400001D1012300E000238BB10378083B142478
:100D5000B3FBF4F1144B03EB81030366124B8033B6
:100D6000436601F01F040123A340836618E0037863
:100D7000103B1824B3FBF4F10C4B9A4204D80B4BF4
:100D8000A83B9A4200D30831094B03EB8103036669
:100D9000074B8033436601F01F040123A3408366A1
:100DA00010BD00000854025800580258B804024010
:100DB000000802400179A9B3082940D8204B0268F5
:100DC0009A4222D01E4B143302689A421DD01C4B0B
:100DD000283302689A4218D0194B3C3302689A4271
:100DE00013D0174B503302689A420ED0144B643321
:100DF00002689A4209D0124B783302689A4204D0B2
:100E00000F4B8C3302689A4201D1012200E000228C
:100E10004AB14A1E0B4B03EB8202C266094A4032BA
:100E2000026708E00BE04A1E074B03EB8202C26632
:100E3000054A403202674A1E0123934043677047C8
:100E40000854025800590258000902400146002087
:100E50008A69D2B98A6A32B1012A0DD0022A03D036
:100E6000032A10D10EE000BFCA6A02F08072B2F10C
:100E7000807F00D1012007E0CA6AB2F1C07F00D1B3
:100E8000012001E000E000BF36E08A69B2F5005FB2
:100E90001BD18A6A32B1012A07D0022A03D0032A61
:100EA00011D10AE000BF01200EE0CA6A02F0807290
:100EB000B2F1807F00D1012006E0CA6AB2F1C07FA2
:100EC00000D1012000E000BF16E08A6A32B1012A99
:100ED00005D0022A04D0032A0CD103E000BF00BFD2
:100EE000012008E0CA6A02F08072B2F1807F00D16E
:100EF000012000E000BF00BF7047704700BFFEE761
:100F000070B500BF0C48866900F05EF9054600BF69
:100F1000294609481830FFF7E7F9044600BFB442F4
:100F2000F0D1A54206D200BF03481030FFF7D3F935
:100F300000BF00BF284670BDC00900202DE9FF4F4B
:100F400081B0884691469A464FF0070B51E000BFAA
:100F50002E48FFF7C0F9064606F03F002C4901EB8A
:100F60000014B0094FF4700101EA00510091DDE96D
:100F7000001008434FF0805101EAD80108434FF0B8
:100F8000005101EA990108434FF0804101EA5A01FA
:100F9000084340F04065294604F10C00FFF7ACF926
:100FA000054605F0806010B385F0806585F000454A
:100FB00005F0004728F000403843206029F0004049
:100FC000384360602AF000403843A060294604F1AD
:100FD0000C00FFF7A2F948B100BF0C48001DFFF755
:100FE0007AF900BF012005B0BDE8F08F04E0ABF155
:100FF000010BBBF1000FAAD100BF00BF03480830AE
:10100000FFF769F900BF0020EDE70000C4090020E8
:1010100040050020F0B506460C461546FF2C01D2CF
:10102000FF2D01D30020F0BD002200231AE0012093
:1010300098403040A0B1214610E002EBD1000B4FA8
:10104000385C01F0070C012707FA0CF7384302EB74
:10105000D107DFF818C00CF80700491CA942ECD9E9
:1010600020325B1C042BE2D30120DCE74009002086
:101070002DE9F05F824689460020404908708021B2
:101080003F48FFF7C3F918213E4806F04BFF0746DB
:101090003A48006A3C49884207D008463749086206
:1010A000084647800120C8610EE034484088B842B5
:1010B00005D03248478001203049C86104E02F48FC
:1010C000C069401C2D49C8612C48C06901280BD15A
:1010D00000202A49487048608860C8604FF48061E9
:1010E0002A48FFF793F90FE000260BE0274800EBB2
:1010F0000615E86800F0806018B1E86820F04060EC
:10110000E860761C402EF1D31C48C069012810D13C
:1011100000F060F8044614B1DFF8748001E04FF08D
:1011200000081648C0F8148000201449886108613E
:1011300002E000F04FF80446ECB1FE2200215046D8
:10114000FFF768FFEF2211460F20FFF763FFFE2233
:1011500011460420FFF75EFFFFF7D2FE83460748E3
:1011600000235946C2690B48FFF7E8FEB9F1000FAA
:1011700001D000F011F82046BDE8F09FC009002022
:1011800040090020E49500906B27A5E14005002070
:101190000084D71700FF000310B50948007808B194
:1011A000012010BD012006490870FFF7A9FE044682
:1011B00000231A4621460348FFF7C0FE0120F0E74E
:1011C000C009002001FF000301484068704700008B
:1011D000001000E00648006840F080700449086094
:1011E0000448006840F0010002490860012070478F
:1011F000FCED00E0001000E07047000070B5024612
:10120000086852F8200020F001000E6842F826001D
:101210008868082801D1402500E000254868284357
:101220008E683043CE6830430E6930434E69304398
:101230008E693043CE6930430E6A30434E6A304384
:101240008E6A3043CE6A40EA0603086B0343486B5C
:101250000343886B0343114C44F4801444F400149A
:1012600044F4E024086852F82000A04318430E68B4
:1012700042F82600086BB0F5801F07D1086828B136
:10128000106820F480100E6B30431060086818B1AD
:1012900010684E6B30431060002070BD7FFB08006B
:1012A00030B50346D1E9000540EA05108D6840EAF3
:1012B00005208D8940EA0545088A401E45EA00550B
:1012C000087D801E45EA00608D692843551C43F85F
:1012D0002500186800F48010B0F5801F0BD1586805
:1012E00020F47004088A401E44EA0054586820F430
:1012F000700020435860002030BD000070B50446E7
:101300000CB9012070BD94F83500022803D080206C
:1013100060650120F6E7DC492068884249D0DA4957
:1013200018312068884244D0D7493031206888423B
:101330003FD0D5494831206888423AD0D2496031FF
:101340002068884235D0D04978312068884230D032
:10135000CD499031206888422BD0CB49A8312068F4
:10136000884226D0C9492068884222D0C74918310E
:10137000206888421DD0C54930312068884218D085
:10138000C24948312068884213D0C0496031206882
:1013900088420ED0BD4978312068884209D0BB49C7
:1013A00090312068884204D0B849A831206888422A
:1013B00001D1012000E00020F0B3042084F83500C2
:1013C000B149206888424BD0AF4918312068884223
:1013D00046D0AD4930312068884241D0AA494831D1
:1013E000206888423CD0A84960312068884237D0C4
:1013F000A54978312068884232D0A34990312068CD
:1014000088422DD0A049A8312068884228D09F4921
:101410002068884224D09D491831206888421FD016
:101420009A493031206888421AD09849483120685A
:10143000884215D0954900E020E06031206888425C
:101440000ED0924978312068884209D08F49903176
:101450002068884204D08D49A8312068884206D18E
:101460002068006820F001002168086009E1206818
:10147000006820F001002168086002E1206800682F
:1014800020F00E00216808607F492068884249D01A
:101490007D4918312068884244D07B49303120682A
:1014A00088423FD078494831206888423AD076490E
:1014B00060312068884235D073497831206888428D
:1014C00030D071499031206888422BD06E49A831C4
:1014D0002068884226D06D492068884222D06B4916
:1014E0001831206888421DD0684930312068884210
:1014F00018D0664948312068884213D0634960316A
:10150000206888420ED0614978312068884209D02D
:101510005E4990312068884204D05C49A831206837
:10152000884206D12068006820F001002168086028
:1015300005E02068006820F0010021680860524939
:101540002068884270D050491831206888426BD09A
:101550004D4930312068884266D04B494831206877
:10156000884261D048496031206888425CD0464951
:1015700078312068884257D04349903120688842AA
:1015800052D04149A831206888424DD03F49206857
:10159000884249D03D4918312068884244D03B49AF
:1015A0003031206888423FD038494831206888422D
:1015B0003AD0364960312068884235D03349783195
:1015C0002068884230D031499031206888422BD041
:1015D0002E49A8312068884226D02D4920688842AB
:1015E00022D02B491431206888421DD02849283147
:1015F0002068884218D026493C312068884213D0A0
:1016000023495031206888420ED021496431206836
:10161000884209D01E4978312068884204D01C498C
:101620008C312068884201D1012000E00020D8B12F
:10163000206E006820F48070216E0860A56D94F81B
:101640005C0000F01F01012088406860D4E9191097
:101650004860E06E40B1E06E006820F48070E16E9A
:101660000860D4E91C104860012084F8350000BFF0
:10167000002084F8340000BF206D10B12046216D99
:10168000884700203EE6000010000240100402409F
:1016900008540258014691F8350070472DE9F84F7B
:1016A000044600200090FE4800684FF41651B0FB3D
:1016B000F1FAA66DD4F858803768D8F80090F94947
:1016C0002068884249D0F74918312068884244D0C0
:1016D000F4493031206888423FD0F24948312068CF
:1016E00088423AD0EF4960312068884235D0ED49D0
:1016F00078312068884230D0EA49903120688842A9
:101700002BD0E849A8312068884226D0E6492068D5
:10171000884222D0E4491831206888421DD0E2492D
:1017200030312068884218D0DF494831206888422B
:1017300013D0DD496031206888420ED0DA49783113
:101740002068884209D0D84990312068884204D066
:10175000D549A8312068884201D1012000E000204D
:1017600000287DD094F85C0000F01F01082088401C
:101770003840002868D0CB492068884249D0C94900
:1017800018312068884244D0C649303120688842E8
:101790003FD0C4494831206888423AD0C1496031BD
:1017A0002068884235D0BF4978312068884230D0DF
:1017B000BC499031206888422BD0BA49A8312068B2
:1017C000884226D0B8492068884222D0B6491831CC
:1017D000206888421DD0B44930312068884218D032
:1017E000B14948312068884213D0AF496031206840
:1017F00088420ED0AC4978312068884209D0AA4985
:1018000090312068884204D0A749A83120688842D6
:1018100004D12068006800F0040003E0206800683C
:1018200000F0080080B12068006820F00400216802
:10183000086094F85C0000F01F0108208840B06048
:10184000606D40F00100606594F85C0000F01F01DD
:10185000012088403840E8B392492068884200E07F
:10186000B7E24BD08F4918312068884246D08D4965
:1018700030312068884241D08A4948312068884206
:101880003CD0884960312068884237D0854978311A
:101890002068884232D083499031206888422DD018
:1018A0008049A8312068884228D07F492068884232
:1018B00024D07D491831206888421FD07A493031C0
:1018C000206888421AD0784948312068884215D06B
:1018D000754900E026E06031206888420ED07249E8
:1018E00078312068884209D06F4990312068884259
:1018F00004D06D49A8312068884204D1206840692D
:1019000000F0800002E020680068002050B194F8E8
:101910005C0000F01F0101208840B060606D40F065
:101920000200606594F85C0000F01F01042088400C
:101930003840E8B35B49206888424BD05949183198
:101940002068884246D0574930312068884241D0CB
:1019500054494831206888423CD05249603120685F
:10196000884237D04F4978312068884232D04D497B
:101970009031206888422DD04A49A8312068884299
:1019800028D049492068884224D047491831206826
:1019900088421FD044493031206888421AD04249D9
:1019A00048312068884215D03F496031206800E006
:1019B00024E088420ED03C4978312068884209D022
:1019C000394990312068884204D03749A8312068CD
:1019D000884204D12068006800F0020002E020681C
:1019E0000068002050B194F85C0000F01F01042052
:1019F0008840B060606D40F00400606594F85C0061
:101A000000F01F01102088403840E8B325492068C5
:101A1000884251D023491831206888424CD021494E
:101A200030312068884247D01E49483120688842BA
:101A300042D01C496031206888423DD01949783134
:101A40002068884238D0174990312068884233D0C6
:101A50001449A831206888422ED013492068884252
:101A60002AD0114918312068884225D00E493031DA
:101A70002068884220D00C494831206888421BD019
:101A800009496031206800E04DE0884214D00649E1
:101A90007831206888420FD003499031206805E0F2
:101AA000000400201000024010040240884203D0CD
:101AB000FE492068884204D12068006800F00800D0
:101AC00003E02068006800F0040060B394F85C0054
:101AD00000F01F0110208840B0602068006800F40A
:101AE000802080B12068006800F4002028B9206CB4
:101AF000C8B12046216C884715E0A06C98B12046FB
:101B0000A16C88470FE02068006800F4807028B955
:101B10002068006820F0080021680860206C10B17F
:101B20002046216C884794F85C0000F01F012020BB
:101B30008840384000287DD0DD492068884249D05F
:101B4000DB4918312068884244D0D94930312068B7
:101B500088423FD0D6494831206888423AD0D4499B
:101B600060312068884235D0D14978312068884278
:101B700030D0CF499031206888422BD0CC49A83151
:101B80002068884226D0C949A8392068884221D0D7
:101B9000C6499039206888421CD0C44978392068E9
:101BA000884217D0C14960392068884212D0BF49A5
:101BB0004839206888420DD0BC49303920688842B5
:101BC00008D0BA4918392068884203D0B74920683C
:101BD000884204D12068006800F0100003E020680B
:101BE000006800F0020028B394F85C0000F01F01C8
:101BF00020208840B06094F8350004282DD120685A
:101C0000006820F01600216808602068406920F014
:101C1000800021684861206C08B9A06C28B1206858
:101C2000006820F008002168086094F85C0000F06B
:101C30001F0100E03FE03F208840B060012084F8B1
:101C4000350000BF002084F8340000BF206D10B1C3
:101C50002046216D8847BDE8F88F2068006800F4B1
:101C6000802080B12068006800F4002028B9606CF2
:101C700008B32046616C88471DE0E06BD8B1204670
:101C8000E16B884717E02068006800F4807068B94D
:101C90002068006820F0100021680860012084F8A6
:101CA000350000BF002084F8340000BFE06B10B1A5
:101CB0002046E16B8847606D00287AD0606D00F0A7
:101CC0000100E8B3042084F835007949206888428F
:101CD0004BD0774918312068884246D0744930315A
:101CE0002068884241D072494831206888423CD0FF
:101CF0006F4960312068884237D06D49783120685B
:101D0000884232D06A499031206888422DD0684993
:101D1000A8312068884228D06449A83920688842C0
:101D200023D062499039206888421ED05F497839B3
:101D30002068884219D05D4960392068884200E0F7
:101D400040E012D059494839206888420DD057499F
:101D500030392068884208D05449183920688842B0
:101D600003D052492068884206D12068006820F0DC
:101D700001002168086005E02068006820F001008B
:101D80002168086000BF0098401C0090504500D9B1
:101D900005E02068006800F001000028F3D100BFD2
:101DA0002068006800F0010020B1032084F83500AD
:101DB00003E00DE0012084F8350000BF002084F826
:101DC000340000BFE06C002802D02046E16C884758
:101DD000D9E138492068884222D036491431206838
:101DE00088421DD0334928312068884218D03149B3
:101DF0003C312068884213D02E49503120688842F7
:101E00000ED02C4964312068884209D029497831A4
:101E10002068884204D027498C312068884201D14B
:101E2000012000E000200028D2D02068056894F846
:101E30005C0000F01F010420884000EA0900D8B3CC
:101E400005F00400C0B394F85C0000F01F0104200A
:101E50008840C8F8040005F4004080B105F48030E3
:101E600030B9A06C0028B3D02046A16C88478AE125
:101E7000206C0028ACD02046216C884783E105F017
:101E80002000E8BB0A492068884253D0084918312D
:101E9000206888424ED0064930312068884249D0B7
:101EA000034948312068884244D006E0B804024023
:101EB00010000240085402584FE0B44960312068D5
:101EC000884237D0B14978312068884232D0AF4952
:101ED0009031206888422DD0AC49A83120688842D2
:101EE00028D0AB492068884224D0A94918312068FD
:101EF00088421FD0A6493031206888421AD000E0BD
:101F000025E0A34948312068884213D0A0496031B8
:101F1000206888420ED09E4978312068884209D0D6
:101F20009B4990312068884204D09949A8312068A3
:101F3000884206D12068006820F008002168086007
:101F400005E02068006820F0040021680860206C2B
:101F500010B32046216C884715E194F85C0000F02E
:101F60001F010220884000EA0900E8B305F00200E2
:101F7000D0B394F85C0000F01F0102208840C8F83C
:101F8000040005F4004070B105F4803028B9606C9D
:101F900010B12046616C8847F5E0E06BF0B3204655
:101FA000E16B8847EFE005F02000C0BB774920686F
:101FB00088424ED0754918312068884249D073490B
:101FC00030312068884244D07049483120688842C6
:101FD0003FD06E496031206888423AD06B497831F1
:101FE0002068884235D000E04EE068499031206892
:101FF00088422ED06549A8312068884229D064499A
:102000002068884225D0624918312068884220D053
:102010005F493031206888421BD001E06EE02DE03E
:102020005B4948312068884213D0594960312068A3
:1020300088420ED0564978312068884209D05449E8
:1020400090312068884204D05149A83120688842E4
:1020500006D12068006820F014002168086005E0BF
:102060002068006820F00A0021680860012084F8D8
:10207000350000BF002084F8340000BFE06BE8B3F7
:102080002046E16B88477EE094F85C0000F01F0179
:102090000820884000EA090080B305F0080068B312
:1020A0003A49206888424BD0384918312068884224
:1020B00046D0364930312068884241D033494831D2
:1020C000206888423CD0314960312068884237D04E
:1020D0002E4978312068884232D02C4990312068CE
:1020E00088422DD02949A8312068884228D0284923
:1020F0002068884224D02649183100E043E0206857
:1021000088421DD0224930312068884218D02049A9
:1021100048312068884213D01D49603120688842C8
:102120000ED01B4978312068884209D01849903177
:102130002068884204D01649A8312068884206D118
:102140002068006820F01C002168086005E0206815
:10215000006820F00E002168086094F85C0000F030
:102160001F0101208840C8F804000120606584F840
:10217000350000BF002084F8340000BFE06C10B1CF
:102180002046E16C884700BF65E500001000024072
:10219000100402402DE9F041044600F0BBFB8046EC
:1021A00014B90120BDE8F081FE492068884249D079
:1021B000FC4918312068884244D0FA4930312068FF
:1021C00088423FD0F7494831206888423AD0F549E3
:1021D00060312068884235D0F249783120688842E1
:1021E00030D0F0499031206888422BD0ED49A83199
:1021F0002068884226D0EC492068884222D0EA49EB
:102200001831206888421DD0E74930312068884263
:1022100018D0E54948312068884213D0E24960313E
:10222000206888420ED0E04978312068884209D081
:10223000DD4990312068884204D0DB49A83120680C
:10224000884201D1012000E00020002873D0606A9C
:1022500000B100BF022084F8350000BF002084F8E0
:10226000340000BFCF492068884249D0CD49183199
:102270002068884244D0CB493031206888423FD022
:10228000C8494831206888423AD0C6496031206840
:10229000884235D0C34978312068884230D0C1495E
:1022A0009031206888422BD0BE49A83120688842EE
:1022B00026D0BD492068884222D0BB491831206809
:1022C00088421DD0B84930312068884218D0B649BC
:1022D00048312068884213D0B34960312068884271
:1022E0000ED0B14978312068884209D0AE4990318A
:1022F0002068884204D0AC49A8312068884206D1C1
:102300002068006820F001002168086005E020686E
:10231000006820F00100216808600DE000F0FAFA82
:10232000A0EB0800052807D920206065032084F869
:102330003500012036E76AE02068006800F00100FF
:102340000028EBD12068056898480540D4E90201CF
:1023500008432169084361690843A1690843E169A9
:102360000843216A08430543606A042803D1D4E97D
:102370000B01084305438E4800686FF30F00B0F16E
:10238000005F1DD36068292802D360682E2811D908
:1023900060683F2802D3606842280BD960684728EC
:1023A00002D36068482805D960684F2804D3606864
:1023B000522801D8012000E0002008B145F4801522
:1023C000206805602068456925F00705606A0543B7
:1023D000606A04280DD1A06A0543E06A48B120462E
:1023E000FEF734FD28B140206065012084F83500F7
:1023F000D8E6206845612046FEF704FC064694F8BE
:102400005C0000F01F013F208840B0609EE06949F9
:102410002068884222D067491431206888421DD044
:10242000644928312068884218D062493C312068CC
:10243000884213D05F495031206888420ED05D49F0
:1024400064312068884209D05A497831206888422E
:1024500004D058498C312068884201D1012000E025
:102460000020E0B353492068884222D051491431FA
:10247000206888421DD04F4928312068884218D0F2
:102480004C493C312068884213D04A495031206879
:1024900088420ED0474964312068884209D04549B6
:1024A00078312068884204D042498C3120688842C3
:1024B00001D1012000E0002000B100BF022084F81B
:1024C000350000BF002084F8340000BF2068056894
:1024D00039480540A068402802D1102106E02EE0CE
:1024E000A068802801D1C10100E00021E06841EA34
:1024F000D001206941EAD001606941EAD001A069B8
:1025000041EAD001E06941EAD001206A41EA1010B5
:1025100005432068056027492068401A1421B0FB54
:10252000F1F08000E0652046FEF76CFB074694F86A
:102530005C0000F01F0101208840786006E0402028
:102540006065032084F8350001202BE615492068DA
:1025500088427FD013491831206888427AD01149C7
:1025600030312068884275D00E4948312068884251
:1025700070D00C496031206888426BD009497831AD
:102580002068884266D0074990312068884261D02F
:102590000449A831206888425CD0034920688842F9
:1025A00058D00BE010000240100402403F8010FEA3
:1025B0000010005C085402580F00FEFF3B49183120
:1025C0002068884246D0394930312068884241D05D
:1025D00036494831206888423CD03449603120680F
:1025E000884237D0314978312068884232D02F492B
:1025F0009031206888422DD02C49A831206888422B
:1026000028D02B492068884224D0294914312068D9
:1026100088421FD026492831206888421AD0244990
:102620003C312068884215D02149503120688842C9
:1026300010D01F496431206888420BD01C49783182
:102640002068884206D01A498C312068884200E010
:1026500000E001D1012000E0002000B32046FEF799
:1026600047FBA068802801D1002060602079216E9E
:102670000860D4E919104860606860B16068082893
:1026800009D82046FEF796FB0020E16E0860D4E9E9
:102690001C10486003E00020E066206760670020AF
:1026A0006065012084F8350000207BE510040240BD
:1026B0000854025870B5044600F02CF90646254629
:1026C000681C10B104480078054400BF00F022F9EE
:1026D000801BA842FAD370BD100400200348006894
:1026E00040F00100014908607047000020040058D4
:1026F000F8B502460B4600216F4DD7E001278F4009
:102700001E6806EA0704002C72D01E7906F0030644
:10271000012E04D01E7906F00306022E13D1906814
:102720004F000326BE40B0434F00DE68BE4030433A
:102730009060506801268E40B0431E79C6F30016A3
:102740008E40304350601E7906F00306032E09D0F8
:10275000D0684F000326BE40B0434F009E68BE4085
:102760003043D0601E7906F00306022E13D1CF0845
:1027700002F1200656F827004E07F70E0F26BE403E
:10278000B0434F07FF0E1E69BE403043CF0802F131
:10279000200646F8270010684F000326BE40B043CD
:1027A0001E7906F003064F00BE40304310605E689D
:1027B00006F44036002E78D000BF404E366846F012
:1027C00002063E4F3E603E46366806F00206009620
:1027D00000BF00BF3A4E8F0856F827008E07370F0C
:1027E0000F26BE40B043374EB24202D100262EE043
:1027F0005BE0354EB24201D1012628E0334EB242B1
:1028000001D1022623E0324EB24201D103261EE05E
:10281000304EB24201D1042619E02F4EB24201D10E
:10282000052614E02D4EB24201D106260FE02C4EB3
:10283000B24201D107260AE02A4EB24201D108264F
:1028400005E0294EB24201D1092600E00A268F0791
:102850003F0FBE4030431A4E8F0846F827004FF016
:10286000B0463068A0435E6806F4801606B1204387
:102870004FF0B04630607068A0435E6806F4001602
:1028800006B120434FF0B04670606868A0435E68B0
:1028900006F4003606B1204368602868A0435E68ED
:1028A00006F4803606B120432860491C1E68CE40DD
:1028B000002E7FF423AFF8BD80000058F444025886
:1028C000080400580000025800040258000802588A
:1028D000000C025800100258001402580018025848
:1028E000001C0258002002580024025802461369B6
:1028F0000B400BB1012000E0002070470AB181615C
:1029000001E00B048361704701480068000C7047C8
:102910000010005C014800687047000008040020B7
:102920007047704710B504460CB9012010BD242033
:1029300084F841002068006820F0010021680860E8
:10294000D4F8800010B90A48C4F880002046D4F8B2
:10295000801088470020606484F84100206384F878
:10296000420000BF84F8400000BF00BFDEE7000067
:10297000592D00902DE9F0410446206885692068B2
:102980000668C5F3002050B1C6F3C01038B1606CC2
:1029900040F0010060644FF480702168C861C5F3A5
:1029A000802050B1C6F3C01038B1606C40F0080010
:1029B00060644FF480602168C861C5F3402050B165
:1029C000C6F3C01038B1606C40F0020060644FF490
:1029D00000702168C861676C07F00B0018B13946B8
:1029E000204602F079FABDE8F08170B5044620680F
:1029F000856920680668606B20B13246294620460A
:102A0000636B984770BD000010B504460E492068FE
:102A1000884218D10D48FFF785FF0B480B49086025
:102A200001210A48C16000210161C1610162816028
:102A300041618161064805494860084600F00CF88C
:102A400001200449087010BD00580040F401003016
:102A5000130F42107A02003010B504460CB9012061
:102A600010BD94F8410000281CD184F840003B4878
:102A700060653B48A0653B48E0653B4820663B48B5
:102A800060663B48A0663B48E0663B4820673B48A1
:102A900060673B48A067E06F08B93A48E0672046A6
:102AA000E16F8847242084F841002068006820F006
:102AB000010021680860606820F07060216808618A
:102AC0002068806820F4004021688860E068012860
:102AD00005D1A06840F400402168886004E0A06847
:102AE00040F4044021688860E068022806D120682C
:102AF000406840F400602168486005E02068406854
:102B000020F4006021684860206840681E4908433E
:102B1000216848602068C06820F400402168C860CF
:102B2000D4E904010843A16940EA01202168C86092
:102B3000D4E907010843216808602068006840F074
:102B400001002168086000206064202084F84100B2
:102B50000020206384F8420000BF81E7912B0090A1
:102B60008F2B00905F2D00905D2D00908D2B00909D
:102B7000AD2B0090952B0090092A00902129009000
:102B8000232900905B2D0090008000027047704761
:102B900070470000034A0168914202D10121024AB4
:102BA000117070470058004079020030034A0168F4
:102BB000914202D10121024A117070470058004031
:102BC000780200302DE9F84304460F4615461E46AC
:102BD000DDE9089894F8410020284FD1B9F1000FA1
:102BE00002D0B8F1000F05D14FF4007060640120ED
:102BF000BDE8F88320688069C0F3C03008B10220C6
:102C0000F6E700BF94F84000012801D10220EFE769
:102C1000012084F8400000BF222084F841004020B9
:102C200084F8420000206064C4F82490A4F82A804C
:102C30001348E06213486063E764012E05D1E8B2EF
:102C400021688862B01E206505E0C5F30720216871
:102C50008862E8B220650C48F2B200233946009041
:102C6000204603F05AF900BF002084F8400000BF5E
:102C70000121204602F060F80020B9E70220B7E702
:102C80000000FFFF59590090002000802DE9F84313
:102C900004460F4615461E46DDE9089894F84100A3
:102CA000202850D1B9F1000F02D0B8F1000F05D1A2
:102CB0004FF4007060640120BDE8F88320688069EB
:102CC000C0F3C03008B10220F6E700BF94F840001E
:102CD000012801D10220EFE7012084F8400000BF65
:102CE000212084F84100402084F8420000206064E4
:102CF0002085C4F82490A4F82A801448E06214487F
:102D00006063E764012E05D1E8B221688862B01ED5
:102D1000206505E0C5F3072021688862E8B22065D8
:102D20000C48F2B2C30239460090204603F0F5F891
:102D300000BF002084F8400000BF0121204601F0C0
:102D4000FBFF0020B8E70220B6E700000000FFFF0D
:102D500059590090002000807047704770477047B5
:102D6000034800680349097808440149086070472E
:102D7000080400201004002010B5032000F00EF914
:102D800000F03CFD10490968C1F303210F4A515C72
:102D900001F01F0120FA01F40B48006800F00F0059
:102DA0001146085C00F01F0024FA00F00849086092
:102DB000084804600F2000F00FF808B1012010BD92
:102DC00000F09AF80020FAE718440258C0940090E6
:102DD000040400200004002070B504461148007867
:102DE00008B9012070BD0F4800784FF47A71B1FB2B
:102DF000F0F00D490968B1FBF0F5284601F02DFD12
:102E000008B10120EEE7102C07D200222146501E07
:102E100000F087F80548046001E00120E2E70020A7
:102E2000E0E7000010040020000400200C04002053
:102E30004178154A116014490831096821F00101EF
:102E4000114A08321160121F41681160017B0907A5
:102E5000C27A41EA0261827A41EAC241427B41EA96
:102E60008241827B41EA4241C27B41EA0241427A8D
:102E700041EA0221027A41EA420102781143024A00
:102E8000083211607047000098ED00E000BF00BFFD
:102E900000BFBFF35F8F00BF00BF00BF05480068E1
:102EA00020F4803003490860002002497031086036
:102EB0007047000024ED00E040F001010D4A116070
:102EC0000C497039096841F480310A4A703A11603E
:102ED00000BF00BF00BFBFF34F8F00BF00BF00BFE8
:102EE00000BF00BF00BFBFF36F8F00BF00BF00BFB8
:102EF0007047000094ED00E0704701460846002846
:102F00000DDB00BF00BF00F01F0301229A40430900
:102F10009B0003F1E023C3F8002100BF00BF00BF06
:102F200070472DE9F05F80460D46164604F01EFB03
:102F3000074639462A46334601F00700C0F1070A22
:102F4000BAF1040F02D94FF0040A01E0C0F1070AF8
:102F5000D14600F1040ABAF1070F02D24FF0000A7D
:102F600001E0A0F1030AD4464FF0010A0AFA09FA77
:102F7000AAF1010A0AEA020A0AFA0CFA4FF0010B56
:102F80000BFA0CFBABF1010B0BEA030B4AEA0B0447
:102F90002146404604F0F2FABDE8F09F00BF00F081
:102FA0000702064B19684FF6FF031940044B0B4309
:102FB00043EA0221014B196000BF70470CED00E0AD
:102FC0000000FA0510B500F0CFFB05490968C1F310
:102FD0000211044A515C01F01F01C84010BD0000FD
:102FE00020440258C094009070B50146844D2D686D
:102FF00005F00303824D2D68C5F30530804D2D1D6E
:103000002D68C5F300147E4D14352D68C5F3CC052D
:1030100015FB04F501EE105AB8EE411AF0EE410A24
:1030200000286FD023B1012B4ED0022B6BD16BE067
:10303000734D283D2D68C5F340153DB3704D283DB7
:103040002D68C5F3C1066F4D25FA06F201EE102A70
:10305000F8EE411A01EE100AB8EE411A81EE812A0B
:103060009FED691AC0EE811A654D10352D68C5F3C4
:10307000080501EE105AB8EE411A31EE811AF7EE4A
:10308000001A31EE211A22EE010A1CE001EE100AAC
:10309000B8EE411ADFED5D1A81EE812A9FED5A1AD2
:1030A000C0EE811A564D10352D68C5F3080501EEA6
:1030B000105AB8EE411A31EE811AF7EE001A31EECD
:1030C000211A22EE010A5BE001EE100AB8EE411A65
:1030D000DFED4F1A81EE812A9FED4B1AC0EE811A67
:1030E000474D10352D68C5F3080501EE105AB8EEAE
:1030F000411A31EE811AF7EE001A31EE211A22EE52
:10310000010A3DE077E01DE001EE100AB8EE411A39
:103110009FED402AC2EE011A9FED3B1A80EE812AF4
:10312000374D10352D68C5F3080501EE105AB8EE7D
:10313000411A32EE011AB7EE002A31EE021A21EEE0
:10314000810A1DE001EE100AB8EE411ADFED301AD7
:1031500081EE812A9FED2C1AC0EE811A284D103580
:103160002D68C5F3080501EE105AB8EE411A31EE8C
:10317000811AF7EE001A31EE211A22EE010A00BF81
:1031800000BF1F4D10352D68C5F3462501EE105ABE
:10319000B8EE411AF7EE001A31EE211AC0EE011A0C
:1031A000BCEEE11A81ED001A154D10352D68C5F3FE
:1031B000064501EE105AB8EE411AF7EE001A31EE4C
:1031C000211AC0EE011ABCEEE11A81ED011A0C4D74
:1031D00010352D68C5F3066501EE105AB8EE411A98
:1031E000F7EE001A31EE211AC0EE011ABCEEE11A18
:1031F00081ED021A03E000250D604D608D6070BD09
:10320000284402580090D003000000460024744C6B
:103210000024744A20BCBE4B70B50146844D2D6815
:1032200005F00303824D2D68C5F30550804D2D1D1B
:103230002D68C5F300247E4D1C352D68C5F3CC05E3
:1032400015FB04F501EE105AB8EE411AF0EE410AF2
:1032500000286FD023B1012B4ED0022B6BD16BE035
:10326000734D283D2D68C5F340153DB3704D283D85
:103270002D68C5F3C1066F4D25FA06F201EE102A3E
:10328000F8EE411A01EE100AB8EE411A81EE812AD9
:103290009FED691AC0EE811A654D18352D68C5F38A
:1032A000080501EE105AB8EE411A31EE811AF7EE18
:1032B000001A31EE211A22EE010A1CE001EE100A7A
:1032C000B8EE411ADFED5D1A81EE812A9FED5A1AA0
:1032D000C0EE811A564D18352D68C5F3080501EE6C
:1032E000105AB8EE411A31EE811AF7EE001A31EE9B
:1032F000211A22EE010A5BE001EE100AB8EE411A33
:10330000DFED4F1A81EE812A9FED4B1AC0EE811A34
:10331000474D18352D68C5F3080501EE105AB8EE73
:10332000411A31EE811AF7EE001A31EE211A22EE1F
:10333000010A3DE077E01DE001EE100AB8EE411A07
:103340009FED402AC2EE011A9FED3B1A80EE812AC2
:10335000374D18352D68C5F3080501EE105AB8EE43
:10336000411A32EE011AB7EE002A31EE021A21EEAE
:10337000810A1DE001EE100AB8EE411ADFED301AA5
:1033800081EE812A9FED2C1AC0EE811A284D183546
:103390002D68C5F3080501EE105AB8EE411A31EE5A
:1033A000811AF7EE001A31EE211A22EE010A00BF4F
:1033B00000BF1F4D18352D68C5F3462501EE105A84
:1033C000B8EE411AF7EE001A31EE211AC0EE011ADA
:1033D000BCEEE11A81ED001A154D18352D68C5F3C4
:1033E000064501EE105AB8EE411AF7EE001A31EE1A
:1033F000211AC0EE011ABCEEE11A81ED011A0C4D42
:1034000018352D68C5F3066501EE105AB8EE411A5D
:10341000F7EE001A31EE211AC0EE011ABCEEE11AE5
:1034200081ED021A03E000250D604D608D6070BDD6
:10343000284402580090D003000000460024744C39
:103440000024744A20BCBE4B2DE9F04104460D46D1
:1034500014B90120BDE8F081BD48006800F00F00FC
:10346000A8420ED2BA48006820F00F002843B8499D
:1034700008600846006800F00F00A84201D0012053
:10348000E8E7207800F0040004280ED1B149206953
:10349000096801F07001884207D9AE48006820F041
:1034A000700021690843AB490860207800F00800EB
:1034B000082811D1A749091D6069096801F0700148
:1034C000884209D9A348001D006820F07000616996
:1034D0000843A049091D0860207800F0100010285A
:1034E00011D19C49091DA069096801F4E061884275
:1034F00009D99848001D006820F4E060A1690843DC
:103500009449091D0860207800F02000202811D17E
:1035100090490831E069096801F07001884209D9D1
:103520008C480830006820F07000E1690843894940
:1035300008310860207800F0020002280ED1854989
:10354000E068096801F00F01884207D981480068E6
:1035500020F00F00E16808437E490860207800F001
:103560000100002850D07B48006820F47060A168FA
:103570000843784908606068022807D17548183800
:103580000068C0F34040F8B9012063E76068032891
:1035900007D1704818380068C0F34060A0B9012016
:1035A00058E76068012807D16A4818380068C0F3F6
:1035B000002048B901204DE7664818380068C0F37C
:1035C000800008B9012045E762480838006820F00B
:1035D0000700616808435F4908390860FFF79AF9F6
:1035E000064608E0FFF796F9801B41F288318842D1
:1035F00001D903202EE757480838006800F038004A
:103600006168B0EBC10FEDD1207800F00200022814
:103610000ED15049E068096801F00F01884207D2D5
:103620004C48006820F00F00E168084349490860F1
:103630004748006800F00F00A8420ED944480068CF
:1036400020F00F002843424908600846006800F057
:103650000F00A84201D00120FCE6207800F0040011
:1036600004280ED13B492069096801F070018842A5
:1036700007D23848006820F07000216908433549B6
:103680000860207800F00800082811D13149091D90
:103690006069096801F07001884209D22D48001D57
:1036A000006820F07000616908432A49091D08601C
:1036B000207800F01000102811D12649091DA069BA
:1036C000096801F4E061884209D22248001D0068BF
:1036D00020F4E060A16908431E49091D08602078B4
:1036E00000F02000202811D11A490831E06909684A
:1036F00001F07001884209D216480830006820F0B5
:103700007000E169084313490831086000F076F859
:1037100010490968C1F303210F4A515C01F01F01F0
:1037200020FA01F70B48006800F00F001146085C12
:1037300000F01F0027FA00F00849086008480760F9
:1037400008480068FFF748FB8046404682E60000D4
:103750000020005218440258C09400900404002035
:10376000000400200C04002010B500F047F80D49BB
:103770000968C1F303210C4A515C01F01F0120FAD2
:1037800001F40848006800F00F001146085C00F0E2
:103790001F0024FA00F00549086005480460084647
:1037A000006810BD18440258C09400900404002022
:1037B0000004002000B5FFF7D7FF05490968C1F3F1
:1037C0000211044A515C01F01F01C84000BD000015
:1037D0001C440258C094009000B5FFF7C5FF05498E
:1037E0000968C1F30221044A515C01F01F01C8407D
:1037F00000BD00001C440258C0940090F0B5824EF9
:10380000366806F0380636B1082E15D0102E15D0C1
:10381000182E7DD114E07C4E103E3668C6F340165B
:1038200046B1794E103E3668C6F3C107774E26FA88
:1038300007F000E07548E5E07548E3E07548E1E031
:10384000714E1836366806F003046F4E1836366827
:10385000C6F305116C4E1C36366806F001056A4E3B
:1038600024363668C6F3CC0616FB05F601EE106A60
:10387000B8EE410A002971D024B1012C50D0022C9D
:103880006DD16DE0604E103E3668C6F340163EB313
:103890005D4E103E3668C6F3C1075C4E26FA07F34C
:1038A00001EE103AF8EE411A01EE101AB8EE411A84
:1038B00081EE812A9FED581AC0EE011A524E203631
:1038C0003668C6F3080601EE106AB8EE411A31EE0A
:1038D000811AF7EE001A31EE211A62EE010A1EE09B
:1038E00001EE101AB8EE411ADFED4C1A81EE812A72
:1038F0009FED491AC0EE011A434E20363668C6F3D2
:10390000080601EE106AB8EE411A31EE811A00E0A5
:1039100076E0F7EE001A31EE211A62EE010A5BE062
:1039200001EE101AB8EE411A9FED3D2AC2EE011ABF
:103930009FED391A80EE012A334E20363668C6F3E1
:10394000080601EE106AB8EE411A32EE011AB7EE1F
:10395000002A31EE021A61EE810A3DE04EE01DE0E0
:1039600001EE101AB8EE411ADFED2E1A81EE812A0F
:103970009FED291AC0EE011A234E20363668C6F391
:10398000080601EE106AB8EE411A31EE811AF7EE20
:10399000001A31EE211A62EE010A1DE001EE101A42
:1039A000B8EE411A9FED1E2AC2EE011A9FED1A1AB7
:1039B00080EE012A144E20363668C6F3080601EE62
:1039C000106AB8EE411A32EE011AB7EE002A31EE53
:1039D000021A61EE810A00BF00BF0B4E2036366826
:1039E000C6F34626721C01EE102AB8EE411AC0EE4C
:1039F000811ABCEEE11A11EE100A00E0002001E08D
:103A0000034800BF00BFF0BD104402580090D0032F
:103A100000093D0040787D01000000460024744C00
:103A20000024744A20BCBE4B2DE9F047044614B96B
:103A30000120BDE8F087207800F00100002870D058
:103A4000FA48006800F03808F8481830D0F80090BC
:103A5000B8F1100F06D0B8F1180F0FD109F003001C
:103A600002280BD1F14810380068C0F3404000280C
:103A70006AD06068002867D10120DAE700BF60687B
:103A8000B0F5803F08D1E9481038006840F4803034
:103A9000E649103908602EE0606868B9E3481038DC
:103AA000006820F48030E149103908600846006859
:103AB00020F4802008601EE06068B0F5A02F0DD1D2
:103AC000DA481038006840F48020D849103908607E
:103AD0000846006840F4803008600CE0D348103895
:103AE000006820F48030D149103908600846006829
:103AF00020F48020086000BF606898B1FEF70AFFDC
:103B0000054606E0FEF706FF401B642801D90320A6
:103B10008FE7C64810380068C0F340400028F1D055
:103B200012E012E0FEF7F6FE054606E0FEF7F2FEB2
:103B3000401B642801D903207BE7BC48103800688B
:103B4000C0F340400028F1D100BF207800F002000F
:103B5000022874D1B548006800F03808B34818301E
:103B6000D0F80090B8F1000F05D0B8F1180F56D179
:103B700009F00300D0BBAD4810380068C0F38000E6
:103B800018B1E06808B9012053E7A8481038006868
:103B900020F01900E1680843A44910390860FEF7D5
:103BA000B9FE054606E0FEF7B5FE401B022801D926
:103BB00003203EE79D4810380068C0F380000028CD
:103BC000F1D000BFFEF7A0FE41F2030188421AD8EF
:103BD000206940280BD195480C38006820F47C30CF
:103BE00040F4003091490C39086017E017E08F4825
:103BF0000C38006820F47C30216940EA01308B49A0
:103C00000C3908600AE089480C38006820F0FE4052
:103C1000217C40EA016085490C39086066E0E06873
:103C200088B382481038006820F01900E168084322
:103C30007E4910390860FEF76DFE054607E056E044
:103C4000FEF768FE401B022801D90320F1E6774801
:103C500010380068C0F380000028F1D000BFFEF7E4
:103C600053FE41F2030188421AD8206940280BD143
:103C70006E480C38006820F47C3040F400306B490A
:103C80000C39086017E017E068480C38006820F429
:103C90007C30216940EA013064490C3908600AE04F
:103CA00062480C38006820F0FE40217C40EA016048
:103CB0005E490C39086019E05C481038006820F053
:103CC00001005A4910390860FEF724FE054606E057
:103CD000FEF720FE401B022801D90320A9E6534825
:103CE00010380068C0F380000028F1D100BF2078B0
:103CF00000F0100010287CD14C48006800F0380813
:103D00004A481830D0F80090B8F1080F06D0B8F142
:103D1000180F3DD109F00300012839D1434810386C
:103D20000068C0F3002020B1E069802801D00120A4
:103D30007FE600BFFEF7E8FD41F2030188421AD892
:103D4000206A20280AD139480C38006820F0F84051
:103D500040F0804035490C39086018E033480C3891
:103D6000006820F0F84094F8201040EA81602F4964
:103D70000C3908600BE02D48001F006820F07C50D3
:103D800094F8201040EA01602849091F086066E0A5
:103D9000E06978B325481038006840F08000234976
:103DA00010390860FEF7B6FD054606E0FEF7B2FDE5
:103DB000401B022801D903203BE61C48103800684C
:103DC000C0F300200028F1D000BFFEF79DFD41F2B6
:103DD000030188421CD8206A20280CD113480C38D3
:103DE000006820F0F84040F0804010490C3908602D
:103DF0001AE035E01CE00D480C38006820F0F8406F
:103E000094F8201040EA816008490C3908600BE002
:103E10000648001F006820F07C5094F8201040EA0B
:103E200001600249091F086019E0000010440258AF
:103E3000FA48006820F08000F8490860FEF76AFD43
:103E4000054606E0FEF766FD401B022801D9032067
:103E5000EFE5F2480068C0F300200028F2D100BF6F
:103E6000207800F00800082836D16069D0B1EB480E
:103E70007430006840F00100E84974310860FEF7D2
:103E800049FD054606E0FEF745FD401B022801D925
:103E90000320CEE5E14874300068C0F340000028FC
:103EA000F1D019E0DD487430006820F00100DB49F2
:103EB00074310860FEF72EFD054606E0FEF72AFD88
:103EC000401B022801D90320B3E5D44874300068B0
:103ED000C0F340000028F1D1207800F02000202815
:103EE00030D1A069B8B1CD48006840F48050CB49CA
:103EF0000860FEF70FFD054606E0FEF70BFD401BD0
:103F0000022801D9032094E5C4480068C0F340307A
:103F10000028F2D016E0C148006820F48050BF4964
:103F20000860FEF7F7FC054606E0FEF7F3FC401BD1
:103F3000022801D903207CE5B8480068C0F340306E
:103F40000028F2D1207800F0040004287DD1B44884
:103F5000006840F48070B2490860FEF7DBFC05465B
:103F600006E0FEF7D7FC401B642801D9032060E57A
:103F7000AB48006800F480700028F2D000BFA06851
:103F8000012808D1A5487030006840F00100A3491D
:103F9000703108602DE0A06868B9A04870300068F2
:103FA00020F001009D49703108600846006820F04B
:103FB000040008601DE0A06805280DD19748703006
:103FC000006840F0040095497031086008460068B8
:103FD00040F0010008600CE090487030006820F06C
:103FE00001008E49703108600846006820F0040026
:103FF000086000BFA068A0B1FEF78CFC054608E091
:10400000FEF788FC401B41F28831884201D9032029
:104010000FE5824870300068C0F340000028EFD000
:1040200013E0FEF777FC054608E0FEF773FC401B43
:1040300041F28831884201D90320FAE47748703090
:104040000068C0F340000028EFD1606A00287DD0EE
:1040500072481030006800F03800182877D0606A85
:10406000022875D16D48006820F080706B490860A7
:10407000FEF750FC054606E0FEF74CFC401B02280C
:1040800001D90320D5E465480068C0F340600028EA
:10409000F2D100BFD4E90A1041EA00105F4928318B
:1040A000096840F2F332914308435C4928310860C3
:1040B000208E401EC0F30800616B491E4FF47E4203
:1040C00002EA41210843218F491ED20102EA01413F
:1040D00008433C21095D491E120202EA01610843BE
:1040E0004E493031086000BF081F006820F0010011
:1040F000091F08604948343000684FF6F87188435A
:10410000A16C40EAC10045493431086043482C3075
:10411000006820F00C00216C084340492C310860F5
:104120000846006820F00200616C08433B492C31CE
:1041300008600846006840F480300860084600685F
:1041400040F4003008600846006802E093E038E080
:104150001FE040F4802008600846006840F001003D
:1041600008602E48006840F080702C490860FEF717
:10417000D1FB054606E0FEF7CDFB401B022801D926
:10418000032056E425480068C0F340600028F2D0C0
:1041900071E02248006820F0807020490860FEF736
:1041A000B9FB054606E0FEF7B5FB401B022801D926
:1041B00003203EE419480068C0F340600028F2D1B3
:1041C00059E0164828300768144830300668606A9D
:1041D000012821D007F00301A06A81421CD1C7F356
:1041E0000511E06A884217D1C6F30801206B401E12
:1041F000814211D1606B401EC6F3462188420BD12B
:10420000A06B401EC6F30641884205D1E06B401EFC
:10421000C6F30661884205D001200AE40044025832
:104220000048025815480068C0F3CC07A06CB8429B
:1042300021D012480838006820F001000F490839E1
:104240000860FEF767FB054600BFFEF763FB401BF7
:10425000FBD00A4800684FF6F8718843A16C40EA29
:10426000C1000649086005480838006840F00100B0
:1042700002490839086000204AE40000344402582A
:10428000704770472DE9F05F044620680769206891
:10429000D0F8148007EA08052068D0F808904FF09D
:1042A000000A94F88160206800F1300B08F4006087
:1042B000B0F5006F0FD107F0080008280BD1206877
:1042C000806940F40060216888612046D4F8A81015
:1042D0008847BDE8F09F05F0400070B905F0200068
:1042E00058B905F00400042807D12046616F8847BB
:1042F0002046216F88474FF0010A05F0400050B971
:1043000005F0010038B105F0040020B92046216F06
:1043100088474FF0010A05F0200058B905F0020067
:10432000022807D105F0040020B92046616F8847B4
:104330004FF0010ABAF1000F00D0CAE705F00800FB
:10434000082867D12068806940F0080021688861EA
:104350002068806940F010002168886120688069C9
:1043600040F40060216888612068006920F008003E
:10437000216808612068806800F4404038BB22E072
:10438000E0680F2807D92068006B616E0860606ED6
:10439000001D606612E0E068072807D9BBF800003E
:1043A000616E0880606E801C606607E0206890F88F
:1043B0003000616E0870606E401C6066B4F86A0080
:1043C000401EA4F86A00B4F86A000028D8D120463C
:1043D00002F084F8012084F88100D4F8840020B130
:1043E0002046D4F8A010884773E7052E04D1204654
:1043F000D4F8901088470CE0042E04D12046D4F85D
:104400008C10884705E0032E03D12046D4F888108D
:1044100088475EE705F4587000287ED005F040001C
:1044200058B1D4F8840040F00400C4F88400206837
:10443000806940F040002168886105F4007058B13F
:10444000D4F8840040F00100C4F88400206880693A
:1044500040F400702168886105F4807058B1D4F888
:10446000840040F00800C4F884002068806940F4AB
:1044700080702168886105F0200058B1D4F884006C
:1044800040F08000C4F884002068806940F020007B
:1044900021688861D4F88400A8B32068006820F0FF
:1044A0000100216808602068006940F26B31884390
:1044B0002168086109F44040B0F5404F25D12068DB
:1044C000806820F4404021688860E06F60B1144843
:1044D000E16F0865E06FFCF711FF28B1D4F88400A4
:1044E00040F04000C4F88400A06F60B10C48A16F98
:1044F0000865A06FFCF702FF28B1D4F8840040F0F3
:104500004000C4F8840007E007E0012084F881003F
:104510002046D4F8A0108847DBE600BFD9E60000AB
:10452000D96500902DE9F041044614B90120BDE899
:10453000F081606A00B900BFA06AB0F5800F00D1B9
:1045400000BFAF49206888420CD0AE49206888423D
:1045500008D0AD492068884204D0E0680F2801D90E
:104560000120E4E7204602F046F80646A449206808
:10457000884209D0A3492068884205D0A249206812
:10458000884201D0082E0DD89D492068884207D066
:104590009C492068884203D09B492068884203D107
:1045A000102E01D90120C2E7A06AB0F5800F1DD1FD
:1045B0009349206888420DD092492068884209D0EA
:1045C00091492068884205D0206BB0F5702F01D941
:1045D0000120ACE7206B10B9A089050400E0256B31
:1045E000E068B0EB154F03D90120A0E7A0890504CE
:1045F00094F88100F0B9002004F8800F8348A0608F
:104600008348E06083482061834860618348A061FB
:104610008348E06183482062834860628348A062E7
:10462000E06A803C10B98248C4F8AC002046D4F857
:10463000AC108847022084F881002068006820F0D0
:10464000010021680860A069B0F1806F11D1606835
:10465000B0F5800F01D1A06B28B1606848B9A06B9C
:10466000B0F1805F05D12068006840F48050216877
:104670000860606800F48000B0F5800F0BD1E0683E
:10468000072808D32068006820F48070216D084353
:104690002168086005E02068006820F480702168C7
:1046A0000860A16AE06908432843E16B0843E168B8
:1046B000084321688860616A606B0843A16B084306
:1046C000A16908432169084361690843216A0843D5
:1046D00061680843E16C0843A1680843A16C084382
:1046E000A16D08432168C860A06AB0F5800F56D15B
:1046F000206C012806D12068006840F40040216841
:10470000086005E02068006820F400402168086027
:10471000606C012806D12068006840F48040216860
:10472000086005E02068006820F480402168086087
:104730003349206888420AD032492068884206D02E
:1047400031492068884202D0B5F5702F0ED02C492F
:104750002068884207D02B492068884203D02A4924
:10476000206888420CD1B5F5F81F09D1206800688F
:1047700040F40050216808602168E06A08640EE097
:104780002068006820F4005021680860012000EBD8
:10479000154100FA01F7E06A38432168086460684F
:1047A00088B9A06A38B92068806820F4C05040F405
:1047B0000060216888602068806820F4C06040F450
:1047C0008060216888602068006D20F00100216809
:1047D0000865606800F48000B0F5800F07D120689C
:1047E000C06820F00040616D08432168C860002067
:1047F000C4F88400012084F88100002097E60000BE
:104800000030014000380040003C00403D4800902E
:1048100037480090414800903F4800903948009048
:104820005948009083420090814200903B4800909C
:104830003548009070477047704770477047704721
:104840000349884202D10121024A117070470000D9
:10485000880300302C050030704770B504462546AB
:10486000681EB0F1807F01D301200FE0681E4FF079
:10487000E02148610F214FF0FF3002F07FFE002061
:104880004FF0E021886107200861002070BD0146DB
:1048900000BF0868006A41F21112104050B9086860
:1048A000006A9210104028B90868006820F00100E2
:1048B0000A68106000BF012081F83D0000207047A9
:1048C00070B504462068C6682068056905F00200D6
:1048D00002281CD106F00200022818D1401F2168CE
:1048E0000861012020772068806900F0030020B172
:1048F0002046D4F89410884707E02046D4F89C104E
:1049000088472046D4F8A01088470020207705F07B
:10491000040004281CD106F00400042818D1C04368
:1049200021680861022020772068806900F44070C7
:1049300020B12046D4F89410884707E02046D4F8E8
:104940009C1088472046D4F8A01088470020207784
:1049500005F0080008281CD106F00800082818D126
:10496000C04321680861042020772068C06900F0F6
:10497000030020B12046D4F89410884707E0204671
:10498000D4F89C1088472046D4F8A010884700200F
:10499000207705F0100010281CD106F01000102818
:1049A00018D1C04321680861082020772068C069B9
:1049B00000F4407020B12046D4F89410884707E0F6
:1049C0002046D4F89C1088472046D4F8A010884789
:1049D0000020207705F0010050B106F0010038B149
:1049E0006FF00100216808612046D4F884108847E0
:1049F00005F08000802804D005F40050B0F5005F79
:104A00000BD106F08000802807D16FF40250216896
:104A100008612046D4F8B410884705F48070B0F5DA
:104A2000807F0BD106F08000802807D16FF4807062
:104A3000216808612046D4F8B810884705F0400086
:104A400040280AD106F04000402806D1C043216822
:104A500008612046D4F88C10884705F020002028F3
:104A60000AD106F02000202806D1C0432168086141
:104A70002046D4F8AC10884770BD70477047704727
:104A800070477047704770477047000010B5044684
:104A90000CB9012010BDA06900B100E000BFD4F83E
:104AA000880078B9002084F88400204602F01AF8C3
:104AB000D4F8C40010B91848C4F8C4002046D4F88B
:104AC000C41088472420C4F888002068006820F0BB
:104AD000010021680860A06A10B1204601F0DAFEEA
:104AE000204602F033F8012800D1D3E7206840685F
:104AF00020F49040216848602068806820F02A00F7
:104B0000216888602068006840F001002168086022
:104B1000204601F03BFFBDE71D4B009070477047FA
:104B2000704770477047000010B504463B48006866
:104B300000F0004048B13948006840F00040374973
:104B40000860A069801CA06110BD34480838006866
:104B5000334908623148001F007881F824002F484B
:104B6000C01E007888622D480C300068C8622B484F
:104B7000801E008808862948006848632748001D71
:104B800000688863254810300068C8630020254904
:104B9000086000BF234800680028FBD02049206837
:104BA000086060684860A0688860E068C860206944
:104BB000086160694861A0698861E069C8611AA1FB
:104BC000002001F049FB164882691BA1002001F07A
:104BD00043FB134842691CA1002001F03DFB0F4834
:104BE000001F02681CA1002001F036FB0B48026880
:104BF0001DA1002001F030FB08480C3002681EA106
:104C0000002001F029FB00200649086000BF05488C
:104C100000680028FBD000BF96E700002CED00E004
:104C2000C80400201C04002048617264204661759D
:104C30006C74210D0A0000005043203D203078257F
:104C40003038580D0A0000004C52203D20307825A5
:104C50003038580D0A00000043465352203D2030A2
:104C600078253038580D0A0048465352203D2030F0
:104C700078253038580D0A0042464152203D2030F8
:104C800078253038580D0A0010B50248FDF772FE3D
:104C900010BD0000F401003010B50248FDF7A5FE7C
:104CA00010BD0000F401003070B50546AC6BA06B80
:104CB00010B10020A16B0865E06B10B10020E16B22
:104CC0000865204601F045F970BD10B50246002088
:104CD00001F001034BB140F0420092F8413003F083
:104CE0002803282B01D040F0B00001F00203022B72
:104CF00009D140F0440092F8413003F02803282BFA
:104D000001D040F0B00001F40043B3F5004F01D1F1
:104D100040F0B800102901D140F09000202901D1C5
:104D200040F02000402901D140F0400013681B688A
:104D300083431468236010BD10B502460020254C43
:104D4000536BA34222D0244C536BA3421ED0234C5E
:104D5000536BA3421AD001F40043B3F5004F01D1C5
:104D600040F0B80001F001030BB140F0F20001F097
:104D70000203022B01D140F0F400102901D140F0D0
:104D80009000202920D140F020001DE001F40043D4
:104D9000B3F5004F01D140F0B80001F001030BB1B1
:104DA00040F0F20001F00203022B01D140F0F400C8
:104DB000102901D140F09000202901D140F060007D
:104DC000402901D140F0400013681B680343146878
:104DD000236010BD45560090F55A0090A5570090ED
:104DE00001688969C1F3400111B100210268916233
:104DF0000168896901F0010129B90168896941F0F7
:104E000001010268916170472DE9F0470446894627
:104E100094F8410000F02800282852D120688069C9
:104E2000C0F300472068806900F47E00050C20680C
:104E30008068C0F309062068C06800F0FE08E068DA
:104E400002282ED105F00600062101EAE61188426B
:104E500016D13546A06C401CA064A06C022838D145
:104E60000020A06408202168C86100BF002084F8E9
:104E7000400000BF2A4639462046A36F984728E0E5
:104E800045464FF400412046FFF71FFF00BF0020BA
:104E900084F8400000BF2A4639462046A36F984751
:104EA00017E04FF400412046FFF70FFF00BF00203E
:104EB00084F8400000BF2A4639462046A36F984731
:104EC00007E008202168C86100BF002084F8400086
:104ED00000BFBDE8F08700002DE9F04104460F4611
:104EE00094F84160002084F842004D48E0620020C0
:104EF0006085606C38436064282E03D0292E01D071
:104F00002A2E09D103212046FFF7DFFE282084F84E
:104F100041004448606324E048F203012046FFF763
:104F2000D4FE2046FFF75CFF94F84100602816D0BD
:104F3000202084F8410020688069C0F3401070B1DF
:104F400020688069C0F3001030B110202168C8616A
:104F5000606C40F00400606420202168C86100207B
:104F60006063256BA06B48B3112D01D0212D25D195
:104F70002068006800F48040B0F5804F05D12068BB
:104F8000006820F4804021680860A06BFCF782FB79
:104F900001280FD02448A16B086500BF002084F8C9
:104FA000400000BFA06BFCF7A9F970B3A06B016DC6
:104FB000884732E0204600F0CCFF2EE0E06B48B39B
:104FC000122D01D0222D25D12068006800F4004068
:104FD000B0F5004F05D12068006820F4004021683A
:104FE0000860E06BFCF756FB01280FD00E48E16B20
:104FF000086500BF002084F8400000BFE06BFCF7AC
:105000007DF910B1E06B016D884706E0204600F0A5
:10501000A0FF02E0204600F09CFFBDE8F081000008
:105020000000FFFFD15D0090A94C009070B50446D0
:105030000D461948E06200202063202084F84100DA
:10504000002084F842006063C5F3800090B12068BE
:10505000406A616A0870606A401C6062208D48B1D5
:10506000208D401E2085608D401E6085606C40F064
:105070000400606448F203012046FFF726FE10207A
:105080002168C86100BF002084F8400000BF2046AE
:10509000616E884770BD00000000FFFFF8B5044650
:1050A0000D462F4620202168C86194F84100212830
:1050B00006D101212046FFF708FE1120206309E0F8
:1050C00094F84100222805D102212046FFF7FDFD7A
:1050D00012202063206840683849084021684860F1
:1050E000002060633648E062C7F3001030B1102042
:1050F0002168C861606C40F00400606494F841006D
:10510000602807D1C7F3800020B12068406AC0B290
:10511000009000BF2046FFF763FE666C94F84100E4
:10512000602800D026B1616C2046FFF7D5FE44E030
:1051300094F8410021281ED1202084F8410000204D
:10514000206394F8420040280AD1002084F84200ED
:1051500000BF84F8400000BF2046A16E88472CE0C5
:10516000002084F8420000BF84F8400000BF2046C1
:10517000616D884721E094F8410022281DD120204C
:1051800084F841000020206394F8420040280AD1AE
:10519000002084F8420000BF84F8400000BF204691
:1051A000E16E884709E0002084F8420000BF84F8DF
:1051B000400000BF2046A16D8847F8BD00E800FE12
:1051C0000000FFFF10B50446002084F8420094F868
:1051D0004100212813D1202084F8410011202063B0
:1051E0000020606301212046FFF76FFD00BF002013
:1051F00084F8400000BF2046616D884712E02020FF
:1052000084F84100122020630020606302212046C0
:10521000FFF75BFD00BF002084F8400000BF204680
:10522000A16D884710BD00002DE9F047044689466E
:105230002068D0F800804E46E76A94F8415020205C
:105240002168C861212D01D0292D07D148F2010123
:105250002046FFF73AFD2120206314E0222D01D0E3
:105260002A2D07D148F202012046FFF72EFD222009
:10527000206308E0282D06D148F203012046FFF7FD
:1052800024FD002020632068406840F4004021682D
:10529000486020684068C44908402168486020464A
:1052A000FFF79EFDC8F38030002870D020680068AA
:1052B00020F4804021680860A06B002865D0A06BB6
:1052C0000068BA49884258D0A06B0068B7491831C5
:1052D000884252D0A06B0068B449303188424CD02B
:1052E000A06B0068B1494831884246D0A06B006885
:1052F000AE496031884240D0A06B0068AB4978313C
:1053000088423AD0A06B0068A8499031884234D0D6
:10531000A06B0068A549A83188422ED0A06B006818
:10532000A349884229D0A06B0068A149183188425E
:1053300023D0A06B00689E49303188421DD0A06BFD
:1053400000689B494831884217D0A06B0068984993
:105350006031884211D0A06B00689549783188424D
:105360000BD0A06B006892499031884205D0A06BA9
:1053700000688F49A831884203D1A06B006840685B
:1053800002E0A06B00684068608573E0FFE7C8F347
:10539000C03000286ED02068006820F400402168EA
:1053A0000860E06B002865D0E06B00687F498842A8
:1053B00058D0E06B00687D491831884252D0E06BCC
:1053C00000687A49303188424CD0E06B00687749F8
:1053D0004831884246D0E06B0068744960318842A9
:1053E00040D0E06B00687149783188423AD0E06B78
:1053F00000686E499031884234D0E06B00686B4998
:10540000A83188422ED0E06B00686949884229D0D3
:10541000E06B006866491831884223D0E06B006871
:105420006349303188421DD0E06B006860494831E3
:10543000884217D0E06B00685D496031884211D026
:10544000E06B00685A49783188420BD0E06B006805
:1054500057499031884205D0E06B00685449A83123
:10546000884203D1E06B0068406802E0E06B0068AE
:1054700040686085C6F3800080B126F0040620688D
:10548000406A616A0870606A401C6062208D28B1C1
:10549000208D401E2085608D401E6085608D18B176
:1054A000606C40F004006064C6F3001000B3C8F301
:1054B0000010E8B1608D00BB94F84100282807D1A6
:1054C000B7F1007F04D131462046FFF7AFFD23E05E
:1054D00094F8410029280CD117F5803F09D01020FD
:1054E0002168C8612046FFF77BFC204600F064F885
:1054F00012E010202168C8610EE010202168C86108
:10550000606C40F00400606417B1B7F1807F03D194
:10551000616C2046FFF7E0FC002084F842006063E5
:10552000606C60B1616C2046FFF7D6FC94F84100D6
:10553000282837D131462046FFF778FD32E0E06A6F
:1055400010F5803F11D0204600F036F81948E0628F
:10555000202084F841000020206300BF84F8400030
:1055600000BF2046616E88471CE094F84100222865
:105570000CD1202084F841000020206300BF84F873
:10558000400000BF2046216E88470BE0202084F8B1
:1055900041000020206300BF84F8400000BF204687
:1055A000E16D8847BDE8F08700E800FE100002408A
:1055B000100402400000FFFF70B504462068056833
:1055C000002084F84200C5F3803030B120680068C4
:1055D00020F480402168086008E0C5F3C03028B19D
:1055E0002068006820F400402168086094F84100B9
:1055F000292811D1282084F841002120206301218D
:105600002046FFF762FB00BF002084F8400000BF87
:105610002046E16D884714E094F841002A2810D113
:10562000282084F841002220206302212046FFF731
:105630004CFB00BF002084F8400000BF2046216ED4
:10564000884770BD2DE9F84304460D46164600BF55
:1056500094F84000012802D10220BDE8F88301201F
:1056600084F8400000BFC5F3001088B1C6F30010F5
:1056700070B110202168C861606C40F00400606463
:1056800020212046FFF758FB2046FFF7A9FB82E0C8
:10569000C5F3C010002851D0C6F3801000284DD0AB
:1056A0002068006820F0400021680860608DA0B389
:1056B00020684068C0F30908608DFF2804D9FF20E6
:1056C00020854FF0807709E0608D2085E06A10F535
:1056D000803F01D0E76A01E04FF0007700200090A2
:1056E00094F828203B464146204600F016FC608D89
:1056F000218D401A608594F84100222806D1206847
:10570000006840F400402168086044E020680068B8
:1057100040F48040216808603DE0FFE72068406871
:1057200000F00070B0F1007F03D02046FFF74AFD83
:1057300031E040212046FFF7CFFB2CE0C5F380107D
:10574000F8B1C6F38010E0B1608DA8B92068406858
:1057500000F00070B0F1007F1DD0E06A10F5803FCE
:1057600006D12068406840F480402168486012E01B
:105770002046FFF727FD0EE040212046FFF7ACFB57
:1057800009E0C5F3401030B1C6F3401018B1294606
:105790002046FFF783FC00BF002084F8400000BFD4
:1057A00000BF5AE7F8B504460D461646684F00BFDD
:1057B00094F84000012801D10220F8BD012084F8AE
:1057C000400000BFC5F3001088B1C6F3001070B1EF
:1057D00010202168C861606C40F0040060642021E2
:1057E0002046FFF7A9FA2046FFF7FAFAA8E0C5F32A
:1057F000400048B1C6F3400030B1206D2168886296
:105800004FF0FF3020659BE0C5F3C010002847D063
:10581000C6F38010002843D001212046FFF755FA37
:1058200010212046FFF788FA608D98B3608DFF281D
:105830000DD9FF2020850020009094F82820E06CEE
:1058400081B24FF08073204600F067FB0CE0608D62
:1058500020850020009094F82820E06C81B24FF061
:105860000073204600F059FB608D218D401A608541
:1058700094F84100222806D12068006840F40040D6
:10588000216808605CE02068006840F4804021687E
:10589000086055E0FFE740212046FFF71DFB4FE081
:1058A000C5F38010D0B3C6F38010B8B301212046F1
:1058B000FFF70BFA10212046FFF73EFA94F841005B
:1058C000222800D1234F608DFF280CD9FF2020858E
:1058D000009794F82820E06C81B24FF08073204646
:1058E00000F01BFB0BE0608D2085009794F82820CA
:1058F000E06C81B24FF00073204600F00EFB608D2B
:10590000218D401A608594F84100222807D1206833
:10591000006840F400402168086011E006E020685B
:10592000006840F480402168086009E0C5F3401039
:1059300030B1C6F3401018B129462046FFF7AEFB40
:1059400000BF002084F8400000BF00BF35E7000022
:1059500000200080002400802DE9F84304460F4613
:105960001646DFF888813D4600BF94F840000128C4
:1059700002D10220BDE8F883012084F8400000BF76
:10598000C5F3001068B1C6F3001050B110202168B3
:10599000C861606C40F0040060642046FFF720FAA4
:1059A00093E0C5F3800090B1C6F3800078B125F094
:1059B00004052068406A616A0870606A401C606281
:1059C000208D401E2085608D401E60857DE0C5F3E2
:1059D0004000D0B1C6F34000B8B1206D401C68B99A
:1059E000606A007821688862606A401C6062208D6D
:1059F000401E2085608D401E608566E0206D216818
:105A000088624FF0FF3020655FE0C5F3C01050B3EF
:105A1000C6F3801038B3608D00B3208DF0B9608D6F
:105A2000FF280DD9FF2020850020009094F8282021
:105A3000E06C81B24FF08073204600F06EFA44E0D3
:105A4000608D20850020009094F82820E06C81B2C1
:105A50004FF00073204600F060FA36E04021204607
:105A6000FFF73AFA31E0C5F3801000B3C6F38010B7
:105A7000E8B101212046FFF728F902212046FFF76F
:105A80005BF994F84100222801D1DFF86480608D31
:105A9000FF280DD9FF202085CDF8008094F828201C
:105AA000E06C81B24FF08073204600F036FA0CE0D3
:105AB000608D2085CDF8008094F82820E06C81B2BC
:105AC0004FF00073204600F028FAC5F3401030B1C3
:105AD000C6F3401018B129462046FFF7DFFA00BF91
