:0200000490006A
:10000000E819002039030090794E009065030090B4
:10001000B1020090E9090090E55E00900000000048
:100020000000000000000000000000000D530090E0
:10003000170F0090000000007B4E009001000000B0
:100040005703009057030090570300905703009008
:1000500057030090570300905703009057030090F8
:100060005703009057030090570300901D0B00901A
:10007000C10B0090D10B009057030090010C009031
:10008000110C009057030090570300901912009034
:1000900029120090570300905703009057030090D7
:1000A000570300909D550090570300905703009010
:1000B0005703009057030090570300905703009098
:1000C000570300905703009057030090C9510090C8
:1000D00057030090AD5E00905703009057030090C7
:1000E0005703009057030090000000005703009052
:1000F0005703009057030090570300905703009058
:100100005703009057030090AD550090570300909F
:100110005703009057030090570300905703009037
:100120005703009057030090570300905703009027
:100130005703009057030090570300903912009026
:1001400000000000000000000000000000000000AF
:1001500057030090570300905703009057030090F7
:1001600057030090570300905703009057030090E7
:1001700057030090570300905703009000000000C1
:1001800057030090570300905703009057030090C7
:1001900057030090570300905703009057030090B7
:1001A00057030090570300905703009057030090A7
:1001B0005703009057030090570300905703009097
:1001C0005703009057030090570300905703009087
:1001D0005703009057030090570300905703009077
:1001E0005703009057030090570300905703009067
:1001F0005703009057030090570300905703009057
:100200005703009057030090570300905703009046
:100210005703009057030090570300905703009036
:100220005703009057030090570300900000000010
:100230005703009057030090000000005703009000
:1002400057030090710900905703009057030090E6
:1002500057030090570300905703009057030090F6
:1002600057030090570300905703009057030090E6
:1002700057030090570300905703009000000000C0
:1002800057030090570300905703009000000000B0
:100290000000000057030090DFF810D000F0BCFA17
:1002A00000480047AD770090AFF30080E8190020C8
:1002B0001EF0040F0CBFEFF30880EFF3098004F089
:1002C000B7BD00000246D2E84F0F411CC2E8431FF1
:1002D00003B1F8E77047024652E8000F411C42E8BC
:1002E000001303B1F8E77047024652E8000F42E8F6
:1002F000001303B1F9E77047024652E8000F83018B
:1003000003D3BFF32F8F0020704700F00040084355
:1003100042E8000303B1F0E77047024652E8000FDD
:10032000800103D2BFF32F8F0020704742E80013F3
:1003300003B1F3E70120704707488047074880472B
:1003400007480047FEE7FEE7FEE7FEE7FEE7FEE7B9
:10035000FEE7FEE7FEE7FEE71512009075540090F9
:10036000990200901EF0040F0CBFEFF30880EFF32A
:10037000098004F0D9BB00002DE9F05F054600209C
:1003800092469B4688460646814640241BE0284606
:1003900041464746224600F077F853465A46C01A6F
:1003A000914110D311461846224600F05EF82D1AEE
:1003B00067EB01084F4622460120002100F055F866
:1003C00017EB00094E41201EA4F10104DFDC484672
:1003D00031462A464346BDE8F09F10B5431A934282
:1003E00009D28318881803E010F8011D03F8011DD5
:1003F000521EF9D210BD40EA01039B0703D009E069
:1004000008C9121F08C0042AFAD203E011F8013B00
:1004100000F8013B521EF9D210BDD2B201E000F843
:10042000012B491EFBD270470022F6E710B5134698
:100430000A4604461946FFF7F0FF204610BD30B5C6
:100440000B46014600202022012409E021FA02F592
:100450009D4205D303FA02F5491B04FA02F528442C
:10046000151EA2F10102F1DC30BD202A04DB203A86
:1004700000FA02F1002070479140C2F1200320FAF7
:1004800003F3194390407047202A04DB203A21FAF5
:1004900002F00021704721FA02F3D040C2F120029D
:1004A00091400843194670472DE9FE4F804681EA86
:1004B0000300C00F0C46009021F0004123F00045DE
:1004C000B8EB0200A94105D24046214690461C46A1
:1004D0000B46024623F00040104347D0270DC7F3D8
:1004E0000A00C3F30A510290401A019040286BDAC7
:1004F000C3F3130040F4801B0098924620B1002300
:10050000D2EB030A63EB0B0B01985946C0F1400292
:100510005046FFF7AAFF06460D4650465946019A37
:1005200000F08CF910EB08006141002487EA1152B9
:1005300084EAE7731A4340D0009A62B3019A012A11
:100540004FEA075215DC001B61EB02014FF000423D
:1005500002EA0752CDE90042001C41F58011324603
:100560002B4600F08CF903B0BDE8F08F40462146E1
:10057000F9E7001B61EB0201001C41F58013001834
:100580005B412018A2F5001747EB030140EAD57044
:10059000B6196D4111E06D084FEA360645EAC0759F
:1005A0004FEA0752001B61EB0201001C41F580116C
:1005B00049084FEA30000019514132462B4603B03A
:1005C000BDE8F04F00F04CB9009801224000002334
:1005D000D0EB020263EBE073009821464FEAE0742F
:1005E000B8EB000061EB0401E9E783F000435BE74F
:1005F00081F0004158E72DE9FE4F81EA030404F041
:10060000004421F0004100944FF0000B23F0004320
:1006100050EA01045ED052EA03045BD0C3F30A54EB
:10062000C1F30A552C44A4F2F3340194A0FB025404
:10063000C1F3130141F48011C3F3130343F4801396
:1006400001FB024400FB034E840A970A44EA8154EA
:1006500047EA8357A4FB076802958D0A05FB0785C7
:100660004FEA932C04FB0C542705029D4FEA0658D1
:1006700047EA1637B5EB08056EEB070C870E920EAE
:1006800047EA811742EA8312A7FB0201B6EB0B018E
:1006900064EB00042B0D43EA0C335E1844EB1C5052
:1006A000DA465146E7FB0201C5F313044FEA0B3368
:1006B00043EA14534FEA0432019C43EA0603A4F1CF
:1006C0000C040294009CCDE900B400F0D8F803B00B
:1006D000BDE8F08F00200146F9E72DE9F04D81EAF1
:1006E000030404F0004B21F0004514464FF0000ACB
:1006F00023F0004150EA050220D054EA01021DD047
:10070000C5F30A570246C5F31303C1F31300C1F33F
:100710000A5640F4801543F48013A7EB0608101B1B
:10072000D64608F2FD3873EB050002D308F1010844
:1007300001E092185B41B8F1000F03DA0020014696
:10074000BDE8F08D00204FF48011064684460EE08F
:10075000171B73EB050705D3121B63EB0503064359
:100760004CEA010C49084FEA300092185B4150EA0C
:100770000107EDD152EA030012D082EA040083EAB5
:100780000501084305D0101BAB4106D2012200230E
:1007900006E000224FF0004302E06FF00102531028
:1007A0001AEB06004CEB085110EB0A0041EB0B0171
:1007B000BDE8F04D00F054B8C1F30A52C1F3130183
:1007C00040F2FF3341F480119A4202DA00200146E0
:1007D000704740F233439A42A2F2334202DC524263
:1007E000FFF752BEFFF741BE30B5041E71F10004A1
:1007F00004DB4FF00044404264EB0101141E73F12E
:10080000000405DB1C464FF00043524263EB040337
:10081000994208BF904230BD064C074D06E0E068A3
:1008200040F0010394E8070098471034AC42F6D337
:10083000FFF736FD0880009078800090202A06DBC4
:10084000CB17203A41FA02F043EAE07306E041FA9E
:1008500002F3D040C2F1200291400843194670478C
:1008600010B5141E73F1000408DA401C41F10001B8
:1008700092185B411A4301D120F0010010BD2DE90F
:10088000F04D92469B4611B1B1FA81F202E0B0FA06
:1008900080F220329046FFF7E8FD04460F4640EA1A
:1008A0000A0041EA0B0153465A46084313D0114649
:1008B00053EA010019D0C8F140025046FFF7E4FDA9
:1008C00005460E46504659464246FFF7CEFD0843C0
:1008D00005D0012004E020463946BDE8F08D002017
:1008E000054346EAE0762C4337430A986305E40A59
:1008F000A0EB08000022FD0A44EA47540A3002D562
:1009000000200146E9E7010510196941DDE90845C4
:1009100000196941BDE8F04DA2E770B58C1810F8D8
:10092000015B15F0070301D110F8013B2A1106D134
:1009300010F8012B03E010F8016B01F8016B5B1E4E
:10094000F9D12B0705D40023521E0DD401F8013B29
:10095000FAE710F8013BCB1A921C03E013F8015B95
:1009600001F8015B521EF9D5A142D8D3002070BD19
:100970001B48006800F0020080B14FF400301949B4
:1009800008610220486188610004C8611448001DA4
:10099000006840F002001249091D08601048006814
:1009A00000F0040070B102200E49086048608860C1
:1009B0000004C8600A48001D006840F004000849AF
:1009C000091D08600648006800F0080038B10448B6
:1009D000001D006840F008000149091D08607047CB
:1009E000005402580000003800BFFEE710B500BFF9
:1009F0004848006800F4003000B139E000BF00BF93
:100A000000BFBFF34F8F00BF00BF00BF00BF00BFDC
:100A100000BFBFF36F8F00BF00BF00BF00203E4983
:100A2000086000BF00BF00BFBFF34F8F00BF00BF13
:100A300000BF00BF00BF00BFBFF36F8F00BF00BF8C
:100A400000BF3448006840F400303249086000BFFD
:100A500000BF00BFBFF34F8F00BF00BF00BF00BF8C
:100A600000BF00BFBFF36F8F00BF00BF00BF00BF5C
:100A700000BF284B1B6803F4803303B148E0002318
:100A8000244C7034236000BF00BF00BFBFF34F8F02
:100A900000BF00BF00BF231F1868C0F34E3100BF66
:100AA000C0F3C90200BF43F6E07303EA41134FF0FD
:100AB000404404EA82742343174C1034236000BF7F
:100AC00000BF131EA2F10102EDD10B1EA1F1010125
:100AD000E6D100BF00BF00BFBFF34F8F00BF00BF14
:100AE00000BF0C4B1B6843F480330A4C236000BFEB
:100AF00000BF00BFBFF34F8F00BF00BF00BF00BFEC
:100B000000BF00BFBFF36F8F00BF00BF00BF00BFBB
:100B100010BD000014ED00E050EF00E010B52348D8
:100B2000006800F02000D8B12048806840F0200024
:100B30001E4988600846806840F0100088601C48A4
:100B4000007868B100211B4806F0A1F80020184980
:100B500008700846007818490870184803F097FE96
:100B60001248006800F01000A0B11048806840F002
:100B700010000E498860104800780D4909788842B5
:100B800008D000210B48203806F081F8084800788A
:100B9000094908700548006800F0080028B10348BA
:100BA000806840F008000149886010BD00000240E4
:100BB000A41500300C150030A5150030301400309D
:100BC00010B5024800F090FD10BD00009C130030ED
:100BD0000948006800F4001068B10748806840F4D4
:100BE0000010054988600846006C20F00100086488
:100BF000012002490870704700000240C015003013
:100C000010B5024800F070FD10BD0000A8020030D1
:100C100010B5024800F068FD10BD00002003003050
:100C20000146374A0868904249D0354A1832086868
:100C3000904244D0324A3032086890423FD0304A25
:100C40004832086890423AD02D4A60320868904293
:100C500035D02B4A78320868904230D0284A9032FA
:100C6000086890422BD0264AA8320868904226D0C5
:100C7000244A0868904222D0224A183208689042DA
:100C80001DD0204A30320868904218D01D4A4832A0
:100C90000868904213D01B4A6032086890420ED018
:100CA000184A78320868904209D0164A903208688B
:100CB000904204D0134AA8320868904201D1012022
:100CC00000E00020B0B10A78103A1823B2FBF3F02C
:100CD00000F007020C4B9A5CCA65032805D90A6824
:100CE0006FF30902121D8A6503E00A686FF30902B7
:100CF0008A6503E0086820F0FF008865886D70470A
:100D00001000024010040240147F009010B50268E9
:100D10002B4C0368A34222D0294C14340368A3420D
:100D20001DD0274C28340368A34218D0244C3C34EF
:100D30000368A34213D0224C50340368A3420ED060
:100D40001F4C64340368A34209D01D4C78340368F7
:100D5000A34204D01A4C8C340368A34201D101236E
:100D600000E000238BB10378083B1424B3FBF4F1BB
:100D7000144B03EB81030366124B8033436601F08F
:100D80001F040123A340836618E00378103B182456
:100D9000B3FBF4F10C4B9A4204D80B4BA83B9A429C
:100DA00000D30831094B03EB81030366074B803303
:100DB000436601F01F040123A340836610BD0000B9
:100DC0000854025800580258B80402400008024073
:100DD0000179A9B3082940D8204B02689A4222D051
:100DE0001E4B143302689A421DD01C4B28330268F4
:100DF0009A4218D0194B3C3302689A4213D0174BD1
:100E0000503302689A420ED0144B643302689A42FF
:100E100009D0124B783302689A4204D00F4B8C33BE
:100E200002689A4201D1012200E000224AB14A1E22
:100E30000B4B03EB8202C266094A4032026708E0AC
:100E40000BE04A1E074B03EB8202C266054A4032A2
:100E500002674A1E012393404367704708540258B3
:100E60000059025800090240014600208A69D2B99F
:100E70008A6A32B1012A0DD0022A03D0032A10D186
:100E80000EE000BFCA6A02F08072B2F1807F00D12A
:100E9000012007E0CA6AB2F1C07F00D1012001E061
:100EA00000E000BF36E08A69B2F5005F1BD18A6AB4
:100EB00032B1012A07D0022A03D0032A11D10AE055
:100EC00000BF01200EE0CA6A02F08072B2F1807F9A
:100ED00000D1012006E0CA6AB2F1C07F00D1012032
:100EE00000E000BF16E08A6A32B1012A05D0022A6A
:100EF00004D0032A0CD103E000BF00BF012008E0AA
:100F0000CA6A02F08072B2F1807F00D1012000E055
:100F100000BF00BF7047704700BFFEE770B500BF5D
:100F20000C48866900F05EF9054600BF294609486D
:100F30001830FFF7D9F9044600BFB442F0D1A542FA
:100F400006D200BF03481030FFF7C5F900BF00BF4D
:100F5000284670BDC00900202DE9FF4F81B08846AA
:100F600091469A464FF0070B51E000BF2E48FFF71D
:100F7000B2F9064606F03F002C4901EB0014B00917
:100F80004FF4700101EA00510091DDE900100843BF
:100F90004FF0805101EAD80108434FF0005101EAB7
:100FA000990108434FF0804101EA5A01084340F09B
:100FB0004065294604F10C00FFF79EF9054605F04F
:100FC000806010B385F0806585F0004505F000472E
:100FD00028F000403843206029F00040384360602A
:100FE0002AF000403843A060294604F10C00FFF7C6
:100FF00094F948B100BF0C48001DFFF76CF900BF21
:10100000012005B0BDE8F08F04E0ABF1010BBBF1AE
:10101000000FAAD100BF00BF03480830FFF75BF9FB
:1010200000BF0020EDE70000C409002040050020BB
:10103000F0B506460C461546FF2C01D2FF2D01D314
:101040000020F0BD002200231AE00120984030402B
:10105000A0B1214610E002EBD1000B4F385C01F04B
:10106000070C012707FA0CF7384302EBD107DFF82A
:1010700018C00CF80700491CA942ECD920325B1CAF
:10108000042BE2D30120DCE7400900202DE9F05FCA
:101090008246894600204049087080213F48FFF77A
:1010A000C3F918213E4805F0D1FD07463A48006AC9
:1010B0003C49884207D008463749086208464780BD
:1010C0000120C8610EE034484088B84205D032485B
:1010D000478001203049C86104E02F48C069401CA6
:1010E0002D49C8612C48C06901280BD100202A492C
:1010F000487048608860C8604FF480612A48FFF7F4
:1011000093F90FE000260BE0274800EB0615E8688E
:1011100000F0806018B1E86820F04060E860761C5C
:10112000402EF1D31C48C069012810D100F060F8AE
:10113000044614B1DFF8748001E04FF0000816484F
:10114000C0F81480002014498861086102E000F0B2
:101150004FF80446ECB1FE2200215046FFF768FF2D
:10116000EF2211460F20FFF763FFFE2211460420F5
:10117000FFF75EFFFFF7D2FE83460748002359467C
:10118000C2690B48FFF7E8FEB9F1000F01D000F08B
:1011900011F82046BDE8F09FC0090020400900205A
:1011A000F07F00906B27A5E1400500200084D71751
:1011B00000FF000310B50948007808B1012010BDF8
:1011C000012006490870FFF7A9FE044600231A46CD
:1011D00021460348FFF7C0FE0120F0E7C0090020C8
:1011E00001FF00030148406870470000001000E064
:1011F0000648006840F080700449086004480068B0
:1012000040F001000249086001207047FCED00E059
:10121000001000E07047000010B5024801F08EFA9F
:1012200010BD00000C22003010B5024801F086FA13
:1012300010BD0000F822003010B5034801F07EFA1E
:10124000024801F07BFA10BD0C220030F822003079
:1012500070B50246086852F8200020F001000E68C0
:1012600042F826008868082801D1402500E00025C2
:10127000486828438E683043CE6830430E69304357
:101280004E6930438E693043CE6930430E6A304335
:101290004E6A30438E6A3043CE6A40EA0603086BDA
:1012A0000343486B0343886B0343114C44F480149D
:1012B00044F4001444F4E024086852F82000A043E9
:1012C00018430E6842F82600086BB0F5801F07D15E
:1012D000086828B1106820F480100E6B304310604D
:1012E000086818B110684E6B30431060002070BD64
:1012F0007FFB080030B50346D1E9000540EA051040
:101300008D6840EA05208D8940EA0545088A401E1F
:1013100045EA0055087D801E45EA00608D69284336
:10132000551C43F82500186800F48010B0F5801FA4
:101330000BD1586820F47004088A401E44EA005417
:10134000586820F4700020435860002030BD000031
:1013500070B504460CB9012070BD94F83500022820
:1013600003D0802060650120F6E7DC4920688842D0
:1013700049D0DA4918312068884244D0D749303101
:10138000206888423FD0D5494831206888423AD009
:10139000D24960312068884235D0D0497831206800
:1013A000884230D0CD499031206888422BD0CB493B
:1013B000A8312068884226D0C9492068884222D0B6
:1013C000C7491831206888421DD0C549303120688E
:1013D000884218D0C24948312068884213D0C04999
:1013E0006031206888420ED0BD497831206888423B
:1013F00009D0BB4990312068884204D0B849A8314F
:101400002068884201D1012000E00020F0B30420D0
:1014100084F83500B149206888424BD0AF49183173
:101420002068884246D0AD4930312068884241D09A
:10143000AA494831206888423CD0A84960312068D8
:10144000884237D0A54978312068884232D0A349F4
:101450009031206888422DD0A049A8312068884268
:1014600028D09F492068884224D09D49183120689F
:1014700088421FD09A493031206888421AD0984952
:1014800048312068884215D0954900E020E060315D
:10149000206888420ED0924978312068884209D06D
:1014A0008F4990312068884204D08D49A831206846
:1014B000884206D12068006820F001002168086099
:1014C00009E12068006820F001002168086002E15D
:1014D0002068006820F00E00216808607F492068BD
:1014E000884249D07D4918312068884244D07B49E0
:1014F0003031206888423FD078494831206888429E
:101500003AD0764960312068884235D073497831C5
:101510002068884230D071499031206888422BD0B1
:101520006E49A8312068884226D06D4920688842DB
:1015300022D06B491831206888421DD0684930316B
:101540002068884218D0664948312068884213D004
:1015500063496031206888420ED061497831206843
:10156000884209D05E4990312068884204D05C49A5
:10157000A8312068884206D12068006820F0010068
:101580002168086005E02068006820F001002168FB
:10159000086052492068884270D05049183120684C
:1015A00088426BD04D4930312068884266D04B4923
:1015B00048312068884261D04849603120688842BB
:1015C0005CD0464978312068884257D043499031F1
:1015D0002068884252D04149A831206888424DD0C5
:1015E0003F492068884249D03D49183120688842E7
:1015F00044D03B493031206888423FD03849483197
:10160000206888423AD0364960312068884235D017
:10161000334978312068884230D031499031206890
:1016200088422BD02E49A8312068884226D02D49E7
:101630002068884222D02B491431206888421DD06E
:10164000284928312068884218D026493C31206832
:10165000884213D023495031206888420ED0214956
:1016600064312068884209D01E4978312068884258
:1016700004D01C498C312068884201D1012000E04F
:101680000020D8B1206E006820F48070216E0860C0
:10169000A56D94F85C0000F01F010120884068608F
:1016A000D4E919104860E06E40B1E06E006820F4A3
:1016B0008070E16E0860D4E91C104860012084F855
:1016C000350000BF002084F8340000BF206D10B149
:1016D0002046216D884700203EE6000010000240B1
:1016E00010040240085402582DE9F84F0446002027
:1016F0000090FE4800684FF41651B0FBF1FAA66D59
:10170000D4F858803768D8F80090F94920688842A2
:1017100049D0F74918312068884244D0F449303123
:10172000206888423FD0F2494831206888423AD048
:10173000EF4960312068884235D0ED497831206822
:10174000884230D0EA499031206888422BD0E8495D
:10175000A8312068884226D0E6492068884222D0F5
:10176000E4491831206888421DD0E24930312068B0
:10177000884218D0DF4948312068884213D0DD49BB
:101780006031206888420ED0DA497831206888427A
:1017900009D0D84990312068884204D0D549A83171
:1017A0002068884201D1012000E0002000287DD07F
:1017B00094F85C0000F01F010820884038400028A1
:1017C00068D0CB492068884249D0C949183120687F
:1017D000884244D0C6493031206888423FD0C4494D
:1017E0004831206888423AD0C14960312068884237
:1017F00035D0BF4978312068884230D0BC4990311B
:10180000206888422BD0BA49A8312068884226D067
:10181000B8492068884222D0B649183120688842E9
:101820001DD0B44930312068884218D0B1494831C0
:101830002068884213D0AF496031206888420ED0BA
:10184000AC4978312068884209D0AA499031206893
:10185000884204D0A749A8312068884204D1206872
:10186000006800F0040003E02068006800F0080051
:1018700080B12068006820F004002168086094F8B6
:101880005C0000F01F0108208840B060606D40F0EF
:101890000100606594F85C0000F01F0101208840A1
:1018A0003840E8B392492068884200E0B7E24BD064
:1018B0008F4918312068884246D08D4930312068E0
:1018C000884241D08A494831206888423CD08849C2
:1018D00060312068884237D0854978312068884255
:1018E00032D083499031206888422DD08049A83178
:1018F0002068884228D07F492068884224D07D49CA
:101900001831206888421FD07A49303120688842D7
:101910001AD0784948312068884215D0754900E0CE
:1019200026E06031206888420ED072497831206804
:10193000884209D06F4990312068884204D06D49AF
:10194000A8312068884204D12068406900F08000F6
:1019500002E020680068002050B194F85C0000F0BC
:101960001F0101208840B060606D40F0020060659A
:1019700094F85C0000F01F01042088403840E8B370
:101980005B49206888424BD0594918312068884209
:1019900046D0574930312068884241D054494831B7
:1019A000206888423CD0524960312068884237D054
:1019B0004F4978312068884232D04D4990312068B3
:1019C00088422DD04A49A8312068884228D0494908
:1019D0002068884224D047491831206888421FD0A7
:1019E00044493031206888421AD042494831206841
:1019F000884215D03F496031206800E024E08842E9
:101A00000ED03C4978312068884209D0394990315C
:101A10002068884204D03749A8312068884204D120
:101A20002068006800F0020002E0206800680020E2
:101A300050B194F85C0000F01F0104208840B060B1
:101A4000606D40F00400606594F85C0000F01F01D8
:101A5000102088403840E8B325492068884251D09A
:101A600023491831206888424CD021493031206800
:101A7000884247D01E4948312068884242D01C49DC
:101A80006031206888423DD0194978312068884209
:101A900038D0174990312068884233D01449A83192
:101AA000206888422ED01349206888422AD01149E4
:101AB00018312068884225D00E493031206888428C
:101AC00020D00C494831206888421BD00949603138
:101AD000206800E04DE0884214D006497831206843
:101AE00088420FD003499031206805E000040020AF
:101AF0001000024010040240884203D0FE492068D2
:101B0000884204D12068006800F0080003E02068E3
:101B1000006800F0040060B394F85C0000F01F015E
:101B200010208840B0602068006800F4802080B1F8
:101B30002068006800F4002028B9206CC8B1204655
:101B4000216C884715E0A06C98B12046A16C8847AD
:101B50000FE02068006800F4807028B920680068F1
:101B600020F0080021680860206C10B12046216C2C
:101B7000884794F85C0000F01F012020884038401E
:101B800000287DD0DD492068884249D0DB491831E2
:101B90002068884244D0D9493031206888423FD0FB
:101BA000D6494831206888423AD0D449603120680B
:101BB000884235D0D14978312068884230D0CF4929
:101BC0009031206888422BD0CC49A83120688842C7
:101BD00026D0C949A8392068884221D0C649903901
:101BE000206888421CD0C44978392068884217D0C0
:101BF000C14960392068884212D0BF4948392068FD
:101C000088420DD0BC4930392068884208D0BA4992
:101C100018392068884203D0B7492068884204D127
:101C20002068006800F0100003E02068006800F001
:101C3000020028B394F85C0000F01F0120208840C7
:101C4000B06094F8350004282DD12068006820F099
:101C50001600216808602068406920F08000216833
:101C60004861206C08B9A06C28B12068006820F099
:101C700008002168086094F85C0000F01F0100E093
:101C80003FE03F208840B060012084F8350000BF6D
:101C9000002084F8340000BF206D10B12046216D73
:101CA0008847BDE8F88F2068006800F4802080B184
:101CB0002068006800F4002028B9606C08B3204652
:101CC000616C88471DE0E06BD8B12046E16B884726
:101CD00017E02068006800F4807068B92068006828
:101CE00020F0100021680860012084F8350000BF52
:101CF000002084F8340000BFE06B10B12046E16B97
:101D00008847606D00287AD0606D00F00100E8B36C
:101D1000042084F835007949206888424BD07749FF
:101D200018312068884246D0744930312068884292
:101D300041D072494831206888423CD06F496031B7
:101D40002068884237D06D4978312068884232D087
:101D50006A499031206888422DD06849A8312068AE
:101D6000884228D06449A8392068884223D0624933
:101D70009039206888421ED05F49783920688842AF
:101D800019D05D4960392068884200E040E012D0F7
:101D900059494839206888420DD057493039206860
:101DA000884208D0544918392068884203D05249E3
:101DB0002068884206D12068006820F00100216870
:101DC000086005E02068006820F0010021680860D4
:101DD00000BF0098401C0090504500D905E02068E5
:101DE000006800F001000028F3D100BF20680068FF
:101DF00000F0010020B1032084F8350003E00DE07D
:101E0000012084F8350000BF002084F8340000BFB2
:101E1000E06C002802D02046E16C8847D9E13849BF
:101E20002068884222D036491431206888421DD06B
:101E3000334928312068884218D031493C31206824
:101E4000884213D02E495031206888420ED02C4948
:101E500064312068884209D0294978312068884255
:101E600004D027498C312068884201D1012000E04C
:101E700000200028D2D02068056894F85C0000F0AB
:101E80001F010420884000EA0900D8B305F00400CF
:101E9000C0B394F85C0000F01F0104208840C8F82B
:101EA000040005F4004080B105F4803030B9A06C26
:101EB0000028B3D02046A16C88478AE1206C002816
:101EC000ACD02046216C884783E105F02000E8BBB8
:101ED0000A492068884253D008491831206888424E
:101EE0004ED0064930312068884249D003494831F4
:101EF0002068884244D006E0B80402401000024046
:101F0000085402584FE0B44960312068884237D005
:101F1000B14978312068884232D0AF499031206889
:101F200088422DD0AC49A8312068884228D0AB49DE
:101F30002068884224D0A9491831206888421FD0DF
:101F4000A6493031206888421AD000E025E0A34934
:101F500048312068884213D0A04960312068884207
:101F60000ED09E4978312068884209D09B49903133
:101F70002068884204D09949A8312068884206D157
:101F80002068006820F008002168086005E02068EB
:101F9000006820F0040021680860206C10B320461F
:101FA000216C884715E194F85C0000F01F010220C5
:101FB000884000EA0900E8B305F00200D0B394F8C5
:101FC0005C0000F01F0102208840C8F8040005F4FE
:101FD000004070B105F4803028B9606C10B1204623
:101FE000616C8847F5E0E06BF0B32046E16B884711
:101FF000EFE005F02000C0BB7749206888424ED052
:10200000754918312068884249D0734930312068B9
:10201000884244D070494831206888423FD06E4998
:102020006031206888423AD06B4978312068884214
:1020300035D000E04EE068499031206888422ED0CB
:102040006549A8312068884229D0644920688842BF
:1020500025D0624918312068884220D05F4930314C
:10206000206888421BD001E06EE02DE05B494831DA
:102070002068884213D059496031206888420ED0C8
:10208000564978312068884209D0544990312068F7
:10209000884204D05149A8312068884206D120687E
:1020A000006820F014002168086005E020680068DE
:1020B00020F00A0021680860012084F8350000BF84
:1020C000002084F8340000BFE06BE8B32046E16BE9
:1020D00088477EE094F85C0000F01F0108208840EB
:1020E00000EA090080B305F0080068B33A492068A7
:1020F00088424BD0384918312068884246D036494A
:1021000030312068884241D03349483120688842C4
:102110003CD0314960312068884237D02E4978312F
:102120002068884232D02C499031206888422DD0D6
:102130002949A8312068884228D028492068884247
:1021400024D02649183100E043E0206888421DD0A1
:10215000224930312068884218D02049483120680F
:10216000884213D01D496031206888420ED01B4937
:1021700078312068884209D0184990312068884217
:1021800004D01649A8312068884206D1206800682A
:1021900020F01C002168086005E02068006820F03D
:1021A0000E002168086094F85C0000F01F01012017
:1021B0008840C8F804000120606584F8350000BF3D
:1021C000002084F8340000BFE06C10B12046E16CC0
:1021D000884700BF65E5000010000240100402407F
:1021E0002DE9F041044600F0B5FD804614B9012008
:1021F000BDE8F081FE492068884249D0FC49183189
:102200002068884244D0FA493031206888423FD063
:10221000F7494831206888423AD0F5496031206852
:10222000884235D0F24978312068884230D0F04970
:102230009031206888422BD0ED49A831206888422F
:1022400026D0EC492068884222D0EA49183120681B
:1022500088421DD0E74930312068884218D0E549CE
:1022600048312068884213D0E249603120688842B2
:102270000ED0E04978312068884209D0DD4990319C
:102280002068884204D0DB49A8312068884201D107
:10229000012000E00020002873D0606A00B100BF78
:1022A000022084F8350000BF002084F8340000BF0D
:1022B000CF492068884249D0CD49183120688842EA
:1022C00044D0CB493031206888423FD0C84948319A
:1022D000206888423AD0C64960312068884235D0AB
:1022E000C34978312068884230D0C1499031206894
:1022F00088422BD0BE49A8312068884226D0BD49EB
:102300002068884222D0BB491831206888421DD0FD
:10231000B84930312068884218D0B6494831206821
:10232000884213D0B3496031206888420ED0B14949
:1023300078312068884209D0AE49903120688842BF
:1023400004D0AC49A8312068884206D120680068D2
:1023500020F001002168086005E02068006820F096
:102360000100216808600DE000F0F4FCA0EB08001B
:10237000052807D920206065032084F83500012056
:1023800036E76AE02068006800F001000028EBD121
:102390002068056898480540D4E90201084321698E
:1023A000084361690843A1690843E1690843216A58
:1023B00008430543606A042803D1D4E90B010843AC
:1023C00005438E4800686FF30F00B0F1005F1DD326
:1023D0006068292802D360682E2811D960683F28D8
:1023E00002D3606842280BD96068472802D360682E
:1023F000482805D960684F2804D36068522801D85E
:10240000012000E0002008B145F480152068056037
:102410002068456925F00705606A0543606A04285D
:102420000DD1A06A0543E06A48B12046FEF71CFDC5
:1024300028B140206065012084F83500D8E6206886
:1024400045612046FEF7ECFB064694F85C0000F080
:102450001F013F208840B0609EE0694920688842A3
:1024600022D067491431206888421DD06449283140
:102470002068884218D062493C312068884213D0D5
:102480005F495031206888420ED05D496431206830
:10249000884209D05A4978312068884204D0584986
:1024A0008C312068884201D1012000E00020E0B397
:1024B00053492068884222D051491431206888420B
:1024C0001DD04F4928312068884218D04C493C31F2
:1024D0002068884213D04A495031206888420ED083
:1024E000474964312068884209D0454978312068DD
:1024F000884204D042498C312068884201D10120B1
:1025000000E0002000B100BF022084F8350000BFC9
:10251000002084F8340000BF206805683948054071
:10252000A068402802D1102106E02EE0A068802893
:1025300001D1C10100E00021E06841EAD001206939
:1025400041EAD001606941EAD001A06941EAD001C5
:10255000E06941EAD001206A41EA10100543206891
:10256000056027492068401A1421B0FBF1F0800073
:10257000E0652046FEF754FB074694F85C0000F047
:102580001F0101208840786006E04020606503203C
:1025900084F8350001202BE61549206888427FD059
:1025A00013491831206888427AD0114930312068A7
:1025B000884275D00E4948312068884270D00C4955
:1025C0006031206888426BD00949783120688842A0
:1025D00066D0074990312068884261D00449A8310B
:1025E000206888425CD003492068884258D00BE0BC
:1025F00010000240100402403F8010FE0010005CFA
:10260000085402580F00FEFF3B49183120688842E9
:1026100046D0394930312068884241D03649483166
:10262000206888423CD0344960312068884237D0E5
:10263000314978312068884232D02F499031206862
:1026400088422DD02C49A8312068884228D02B49B7
:102650002068884224D029491431206888421FD03C
:1026600026492831206888421AD024493C31206804
:10267000884215D0214950312068884210D01F4926
:102680006431206888420BD01C4978312068884228
:1026900006D01A498C312068884200E000E001D160
:1026A000012000E0002000B32046FEF72FFBA068C9
:1026B000802801D1002060602079216E0860D4E973
:1026C00019104860606860B16068082809D8204621
:1026D000FEF77EFB0020E16E0860D4E91C10486024
:1026E00003E00020E066206760670020606501204D
:1026F00084F8350000207BE510040240085402589D
:1027000070B5044600F026FB06462546681C10B14D
:1027100004480078054400BF00F01CFB801BA84261
:10272000FAD370BD100400200348006840F0010097
:102730000149086070470000200400582DE9F04F5F
:102740008DB00446F74800688707F648001D00680A
:1027500007EA80772068006D00F470482068406DBB
:1027600000EA08082068006D00F00F092068406D3D
:1027700000EA09092068006D00F0F00A2068406D49
:1027800000EA0A0A2068006D00F0715B2068406D65
:1027900000EA0B0B2068006D00F060700C90206860
:1027A000406D0C9908400C902068456D2068066DBE
:1027B000C5F3002078B1C6F3002060B100BF4FF42C
:1027C0008070216808650020D649086000BF204657
:1027D000D4F8C0108847C5F38020D0B1C6F380205C
:1027E000B8B12068D0F8DC000A902068D0F8E40086
:1027F0000A9908400A9000BF4FF48060216808657C
:102800000020C849086000BFD4F8B82020460A99C3
:1028100090476FB100BFC448384021680865B80FC1
:10282000C049086000BF39462046D4F8A020904730
:10283000B8F1000F0FD000BFBB4808EA00002168C4
:1028400008654FEA9870B749086000BF41462046C6
:10285000D4F8A4209047B9F1000F0FD000BFB248C0
:1028600009EA0000216808654FEA9970AD490860DF
:1028700000BF49462046D4F8A8209047BAF1000F7F
:102880000FD000BFA8480AEA0000216808654FEA97
:102890009A70A449086000BF51462046D4F8AC2085
:1028A0009047C5F3C02078B1C6F3C02060B100BF27
:1028B0004FF400602168086500209A49086000BF55
:1028C0002046D4F8B0108847C5F34020D0B1C6F3F5
:1028D0004020B8B12068D0F8D8000B902068D0F81C
:1028E000E0000B9908400B9000BF4FF40070216886
:1028F000086500208B49086000BFD4F8B42020464A
:102900000B999047C5F3C04078B1C6F3C04060B1A1
:1029100000BF4FF40020216808650020814908604D
:1029200000BF2046D4F8BC108847C5F3004078B1FA
:10293000C6F3004060B100BF4FF4803021680865E5
:1029400000207849086000BF2046D4F8C4108847AA
:10295000C5F3804078B1C6F3804060B100BF4FF44A
:1029600080202168086500206E49086000BF20466D
:10297000D4F8C8108847C5F3404088B1C6F340403A
:1029800070B100BF4FF40030216808650020654930
:10299000086000BFD4F89C0040F08000C4F89C00A0
:1029A0000C9878B100BF60490C9808402168086510
:1029B0000C98800F5B49086000BFD4F8D0202046F7
:1029C0000C999047BBF1000F10D000BF56480BEA9E
:1029D0000000216808654FEA9B705249086000BFFB
:1029E000D4F89C0040EA0B00C4F89C004F492068D2
:1029F00088427DD16068806800F00300002877D0AD
:102A00006068006A00F00F0009906068406A0999E8
:102A1000084009906068006A00F030000890606823
:102A2000406A0899084008906068006A00F4C07025
:102A300007906068406A0799084007906068006ADC
:102A400000F4FC4006906068406A069908400690D1
:102A50006068006A00F4F02005906068406A05999B
:102A6000084005906068406A02906068006A0190C2
:102A7000099838B1099861680862D4F8D4202046D2
:102A800009999047089838B1089861680862D4F8A5
:102A9000D8202046089990470298C0F38010A8B12A
:102AA0000198C0F3801088B16068C06B000C04907E
:102AB0006068C06B00F03F000390402061680862CE
:102AC000D4F8DC302046DDE903219847079838B177
:102AD000079861680862D4F8E0202046079990477B
:102AE000069850B1069861680862D4F89C0000E02E
:102AF0000EE006990843C4F89C00059840B105987B
:102B000061680862D4F89C0005990843C4F89C00E9
:102B1000D4F89C0018B12046D4F8CC1088470DB0EA
:102B2000BDE8F08F10A80040FFFFCF3F00A000409D
:102B3000F8B502460B4600216F4DD7E001278F40C4
:102B40001E6806EA0704002C72D01E7906F0030600
:102B5000012E04D01E7906F00306022E13D19068D0
:102B60004F000326BE40B0434F00DE68BE403043F6
:102B70009060506801268E40B0431E79C6F300165F
:102B80008E40304350601E7906F00306032E09D0B4
:102B9000D0684F000326BE40B0434F009E68BE4041
:102BA0003043D0601E7906F00306022E13D1CF0801
:102BB00002F1200656F827004E07F70E0F26BE40FA
:102BC000B0434F07FF0E1E69BE403043CF0802F1ED
:102BD000200646F8270010684F000326BE40B04389
:102BE0001E7906F003064F00BE40304310605E6859
:102BF00006F44036002E78D000BF404E366846F0CE
:102C000002063E4F3E603E46366806F002060096DB
:102C100000BF00BF3A4E8F0856F827008E07370FC7
:102C20000F26BE40B043374EB24202D100262EE0FE
:102C30005BE0354EB24201D1012628E0334EB2426C
:102C400001D1022623E0324EB24201D103261EE01A
:102C5000304EB24201D1042619E02F4EB24201D1CA
:102C6000052614E02D4EB24201D106260FE02C4E6F
:102C7000B24201D107260AE02A4EB24201D108260B
:102C800005E0294EB24201D1092600E00A268F074D
:102C90003F0FBE4030431A4E8F0846F827004FF0D2
:102CA000B0463068A0435E6806F4801606B1204343
:102CB0004FF0B04630607068A0435E6806F40016BE
:102CC00006B120434FF0B04670606868A0435E686C
:102CD00006F4003606B1204368602868A0435E68A9
:102CE00006F4803606B120432860491C1E68CE4099
:102CF000002E7FF423AFF8BD80000058F444025842
:102D00000804005800000258000402580008025845
:102D1000000C025800100258001402580018025803
:102D2000001C025800200258002402580246136971
:102D30000B400BB1012000E0002070470AB1816117
:102D400001E00B048361704701480068000C704784
:102D50000010005C01480068704700000804002073
:102D6000034800680349097808440149086070472E
:102D7000080400201004002010B5032000F00EF914
:102D800000F03CFD10490968C1F303210F4A515C72
:102D900001F01F0120FA01F40B48006800F00F0059
:102DA0001146085C00F01F0024FA00F00849086092
:102DB000084804600F2000F00FF808B1012010BD92
:102DC00000F09AF80020FAE718440258047F0090B7
:102DD000040400200004002070B504461148007867
:102DE00008B9012070BD0F4800784FF47A71B1FB2B
:102DF000F0F00D490968B1FBF0F5284601F02DFD12
:102E000008B10120EEE7102C07D200222146501E07
:102E100000F087F80548046001E00120E2E70020A7
:102E2000E0E7000010040020000400200C04002053
:102E30004178154A116014490831096821F00101EF
:102E4000114A08321160121F41681160017B0907A5
:102E5000C27A41EA0261827A41EAC241427B41EA96
:102E60008241827B41EA4241C27B41EA0241427A8D
:102E700041EA0221027A41EA420102781143024A00
:102E8000083211607047000098ED00E000BF00BFFD
:102E900000BFBFF35F8F00BF00BF00BF05480068E1
:102EA00020F4803003490860002002497031086036
:102EB0007047000024ED00E040F001010D4A116070
:102EC0000C497039096841F480310A4A703A11603E
:102ED00000BF00BF00BFBFF34F8F00BF00BF00BFE8
:102EE00000BF00BF00BFBFF36F8F00BF00BF00BFB8
:102EF0007047000094ED00E0704701460846002846
:102F00000DDB00BF00BF00F01F0301229A40430900
:102F10009B0003F1E023C3F8002100BF00BF00BF06
:102F200070472DE9F05F80460D46164603F0B2F972
:102F3000074639462A46334601F00700C0F1070A22
:102F4000BAF1040F02D94FF0040A01E0C0F1070AF8
:102F5000D14600F1040ABAF1070F02D24FF0000A7D
:102F600001E0A0F1030AD4464FF0010A0AFA09FA77
:102F7000AAF1010A0AEA020A0AFA0CFA4FF0010B56
:102F80000BFA0CFBABF1010B0BEA030B4AEA0B0447
:102F90002146404603F086F9BDE8F09F00BF00F0EF
:102FA0000702064B19684FF6FF031940044B0B4309
:102FB00043EA0221014B196000BF70470CED00E0AD
:102FC0000000FA0510B500F0CFFB05490968C1F310
:102FD0000211044A515C01F01F01C84010BD0000FD
:102FE00020440258047F009070B50146844D2D683E
:102FF00005F00303824D2D68C5F30530804D2D1D6E
:103000002D68C5F300147E4D14352D68C5F3CC052D
:1030100015FB04F501EE105AB8EE411AF0EE410A24
:1030200000286FD023B1012B4ED0022B6BD16BE067
:10303000734D283D2D68C5F340153DB3704D283DB7
:103040002D68C5F3C1066F4D25FA06F201EE102A70
:10305000F8EE411A01EE100AB8EE411A81EE812A0B
:103060009FED691AC0EE811A654D10352D68C5F3C4
:10307000080501EE105AB8EE411A31EE811AF7EE4A
:10308000001A31EE211A22EE010A1CE001EE100AAC
:10309000B8EE411ADFED5D1A81EE812A9FED5A1AD2
:1030A000C0EE811A564D10352D68C5F3080501EEA6
:1030B000105AB8EE411A31EE811AF7EE001A31EECD
:1030C000211A22EE010A5BE001EE100AB8EE411A65
:1030D000DFED4F1A81EE812A9FED4B1AC0EE811A67
:1030E000474D10352D68C5F3080501EE105AB8EEAE
:1030F000411A31EE811AF7EE001A31EE211A22EE52
:10310000010A3DE077E01DE001EE100AB8EE411A39
:103110009FED402AC2EE011A9FED3B1A80EE812AF4
:10312000374D10352D68C5F3080501EE105AB8EE7D
:10313000411A32EE011AB7EE002A31EE021A21EEE0
:10314000810A1DE001EE100AB8EE411ADFED301AD7
:1031500081EE812A9FED2C1AC0EE811A284D103580
:103160002D68C5F3080501EE105AB8EE411A31EE8C
:10317000811AF7EE001A31EE211A22EE010A00BF81
:1031800000BF1F4D10352D68C5F3462501EE105ABE
:10319000B8EE411AF7EE001A31EE211AC0EE011A0C
:1031A000BCEEE11A81ED001A154D10352D68C5F3FE
:1031B000064501EE105AB8EE411AF7EE001A31EE4C
:1031C000211AC0EE011ABCEEE11A81ED011A0C4D74
:1031D00010352D68C5F3066501EE105AB8EE411A98
:1031E000F7EE001A31EE211AC0EE011ABCEEE11A18
:1031F00081ED021A03E000250D604D608D6070BD09
:10320000284402580090D003000000460024744C6B
:103210000024744A20BCBE4B70B50146844D2D6815
:1032200005F00303824D2D68C5F30550804D2D1D1B
:103230002D68C5F300247E4D1C352D68C5F3CC05E3
:1032400015FB04F501EE105AB8EE411AF0EE410AF2
:1032500000286FD023B1012B4ED0022B6BD16BE035
:10326000734D283D2D68C5F340153DB3704D283D85
:103270002D68C5F3C1066F4D25FA06F201EE102A3E
:10328000F8EE411A01EE100AB8EE411A81EE812AD9
:103290009FED691AC0EE811A654D18352D68C5F38A
:1032A000080501EE105AB8EE411A31EE811AF7EE18
:1032B000001A31EE211A22EE010A1CE001EE100A7A
:1032C000B8EE411ADFED5D1A81EE812A9FED5A1AA0
:1032D000C0EE811A564D18352D68C5F3080501EE6C
:1032E000105AB8EE411A31EE811AF7EE001A31EE9B
:1032F000211A22EE010A5BE001EE100AB8EE411A33
:10330000DFED4F1A81EE812A9FED4B1AC0EE811A34
:10331000474D18352D68C5F3080501EE105AB8EE73
:10332000411A31EE811AF7EE001A31EE211A22EE1F
:10333000010A3DE077E01DE001EE100AB8EE411A07
:103340009FED402AC2EE011A9FED3B1A80EE812AC2
:10335000374D18352D68C5F3080501EE105AB8EE43
:10336000411A32EE011AB7EE002A31EE021A21EEAE
:10337000810A1DE001EE100AB8EE411ADFED301AA5
:1033800081EE812A9FED2C1AC0EE811A284D183546
:103390002D68C5F3080501EE105AB8EE411A31EE5A
:1033A000811AF7EE001A31EE211A22EE010A00BF4F
:1033B00000BF1F4D18352D68C5F3462501EE105A84
:1033C000B8EE411AF7EE001A31EE211AC0EE011ADA
:1033D000BCEEE11A81ED001A154D18352D68C5F3C4
:1033E000064501EE105AB8EE411AF7EE001A31EE1A
:1033F000211AC0EE011ABCEEE11A81ED011A0C4D42
:1034000018352D68C5F3066501EE105AB8EE411A5D
:10341000F7EE001A31EE211AC0EE011ABCEEE11AE5
:1034200081ED021A03E000250D604D608D6070BDD6
:10343000284402580090D003000000460024744C39
:103440000024744A20BCBE4B2DE9F04104460D46D1
:1034500014B90120BDE8F081BD48006800F00F00FC
:10346000A8420ED2BA48006820F00F002843B8499D
:1034700008600846006800F00F00A84201D0012053
:10348000E8E7207800F0040004280ED1B149206953
:10349000096801F07001884207D9AE48006820F041
:1034A000700021690843AB490860207800F00800EB
:1034B000082811D1A749091D6069096801F0700148
:1034C000884209D9A348001D006820F07000616996
:1034D0000843A049091D0860207800F0100010285A
:1034E00011D19C49091DA069096801F4E061884275
:1034F00009D99848001D006820F4E060A1690843DC
:103500009449091D0860207800F02000202811D17E
:1035100090490831E069096801F07001884209D9D1
:103520008C480830006820F07000E1690843894940
:1035300008310860207800F0020002280ED1854989
:10354000E068096801F00F01884207D981480068E6
:1035500020F00F00E16808437E490860207800F001
:103560000100002850D07B48006820F47060A168FA
:103570000843784908606068022807D17548183800
:103580000068C0F34040F8B9012063E76068032891
:1035900007D1704818380068C0F34060A0B9012016
:1035A00058E76068012807D16A4818380068C0F3F6
:1035B000002048B901204DE7664818380068C0F37C
:1035C000800008B9012045E762480838006820F00B
:1035D0000700616808435F4908390860FFF7BAFBD4
:1035E000064608E0FFF7B6FB801B41F288318842AF
:1035F00001D903202EE757480838006800F038004A
:103600006168B0EBC10FEDD1207800F00200022814
:103610000ED15049E068096801F00F01884207D2D5
:103620004C48006820F00F00E168084349490860F1
:103630004748006800F00F00A8420ED944480068CF
:1036400020F00F002843424908600846006800F057
:103650000F00A84201D00120FCE6207800F0040011
:1036600004280ED13B492069096801F070018842A5
:1036700007D23848006820F07000216908433549B6
:103680000860207800F00800082811D13149091D90
:103690006069096801F07001884209D22D48001D57
:1036A000006820F07000616908432A49091D08601C
:1036B000207800F01000102811D12649091DA069BA
:1036C000096801F4E061884209D22248001D0068BF
:1036D00020F4E060A16908431E49091D08602078B4
:1036E00000F02000202811D11A490831E06909684A
:1036F00001F07001884209D216480830006820F0B5
:103700007000E169084313490831086000F076F859
:1037100010490968C1F303210F4A515C01F01F01F0
:1037200020FA01F70B48006800F00F001146085C12
:1037300000F01F0027FA00F00849086008480760F9
:1037400008480068FFF748FB8046404682E60000D4
:103750000020005218440258047F00900404002006
:10376000000400200C04002010B500F047F80D49BB
:103770000968C1F303210C4A515C01F01F0120FAD2
:1037800001F40848006800F00F001146085C00F0E2
:103790001F0024FA00F00549086005480460084647
:1037A000006810BD18440258047F009004040020F3
:1037B0000004002000B5FFF7D7FF05490968C1F3F1
:1037C0000211044A515C01F01F01C84000BD000015
:1037D0001C440258047F009000B5FFF7C5FF05495F
:1037E0000968C1F30221044A515C01F01F01C8407D
:1037F00000BD00001C440258047F0090F0B5824ECA
:10380000366806F0380636B1082E15D0102E15D0C1
:10381000182E7DD114E07C4E103E3668C6F340165B
:1038200046B1794E103E3668C6F3C107774E26FA88
:1038300007F000E07548E5E07548E3E07548E1E031
:10384000714E1836366806F003046F4E1836366827
:10385000C6F305116C4E1C36366806F001056A4E3B
:1038600024363668C6F3CC0616FB05F601EE106A60
:10387000B8EE410A002971D024B1012C50D0022C9D
:103880006DD16DE0604E103E3668C6F340163EB313
:103890005D4E103E3668C6F3C1075C4E26FA07F34C
:1038A00001EE103AF8EE411A01EE101AB8EE411A84
:1038B00081EE812A9FED581AC0EE011A524E203631
:1038C0003668C6F3080601EE106AB8EE411A31EE0A
:1038D000811AF7EE001A31EE211A62EE010A1EE09B
:1038E00001EE101AB8EE411ADFED4C1A81EE812A72
:1038F0009FED491AC0EE011A434E20363668C6F3D2
:10390000080601EE106AB8EE411A31EE811A00E0A5
:1039100076E0F7EE001A31EE211A62EE010A5BE062
:1039200001EE101AB8EE411A9FED3D2AC2EE011ABF
:103930009FED391A80EE012A334E20363668C6F3E1
:10394000080601EE106AB8EE411A32EE011AB7EE1F
:10395000002A31EE021A61EE810A3DE04EE01DE0E0
:1039600001EE101AB8EE411ADFED2E1A81EE812A0F
:103970009FED291AC0EE011A234E20363668C6F391
:10398000080601EE106AB8EE411A31EE811AF7EE20
:10399000001A31EE211A62EE010A1DE001EE101A42
:1039A000B8EE411A9FED1E2AC2EE011A9FED1A1AB7
:1039B00080EE012A144E20363668C6F3080601EE62
:1039C000106AB8EE411A32EE011AB7EE002A31EE53
:1039D000021A61EE810A00BF00BF0B4E2036366826
:1039E000C6F34626721C01EE102AB8EE411AC0EE4C
:1039F000811ABCEEE11A11EE100A00E0002001E08D
:103A0000034800BF00BFF0BD104402580090D0032F
:103A100000093D0040787D01000000460024744C00
:103A20000024744A20BCBE4B2DE9F047044614B96B
:103A30000120BDE8F087207800F00100002870D058
:103A4000FA48006800F03808F8481830D0F80090BC
:103A5000B8F1100F06D0B8F1180F0FD109F003001C
:103A600002280BD1F14810380068C0F3404000280C
:103A70006AD06068002867D10120DAE700BF60687B
:103A8000B0F5803F08D1E9481038006840F4803034
:103A9000E649103908602EE0606868B9E3481038DC
:103AA000006820F48030E149103908600846006859
:103AB00020F4802008601EE06068B0F5A02F0DD1D2
:103AC000DA481038006840F48020D849103908607E
:103AD0000846006840F4803008600CE0D348103895
:103AE000006820F48030D149103908600846006829
:103AF00020F48020086000BF606898B1FFF72AF9C1
:103B0000054606E0FFF726F9401B642801D903208B
:103B10008FE7C64810380068C0F340400028F1D055
:103B200012E012E0FFF716F9054606E0FFF712F97A
:103B3000401B642801D903207BE7BC48103800688B
:103B4000C0F340400028F1D100BF207800F002000F
:103B5000022874D1B548006800F03808B34818301E
:103B6000D0F80090B8F1000F05D0B8F1180F56D179
:103B700009F00300D0BBAD4810380068C0F38000E6
:103B800018B1E06808B9012053E7A8481038006868
:103B900020F01900E1680843A44910390860FFF7D4
:103BA000D9F8054606E0FFF7D5F8401B022801D9F1
:103BB00003203EE79D4810380068C0F380000028CD
:103BC000F1D000BFFFF7C0F841F2030188421AD8D4
:103BD000206940280BD195480C38006820F47C30CF
:103BE00040F4003091490C39086017E017E08F4825
:103BF0000C38006820F47C30216940EA01308B49A0
:103C00000C3908600AE089480C38006820F0FE4052
:103C1000217C40EA016085490C39086066E0E06873
:103C200088B382481038006820F01900E168084322
:103C30007E4910390860FFF78DF8054607E056E029
:103C4000FFF788F8401B022801D90320F1E67748E6
:103C500010380068C0F380000028F1D000BFFFF7E3
:103C600073F841F2030188421AD8206940280BD129
:103C70006E480C38006820F47C3040F400306B490A
:103C80000C39086017E017E068480C38006820F429
:103C90007C30216940EA013064490C3908600AE04F
:103CA00062480C38006820F0FE40217C40EA016048
:103CB0005E490C39086019E05C481038006820F053
:103CC00001005A4910390860FFF744F8054606E03C
:103CD000FFF740F8401B022801D90320A9E653480A
:103CE00010380068C0F380000028F1D100BF2078B0
:103CF00000F0100010287CD14C48006800F0380813
:103D00004A481830D0F80090B8F1080F06D0B8F142
:103D1000180F3DD109F00300012839D1434810386C
:103D20000068C0F3002020B1E069802801D00120A4
:103D30007FE600BFFFF708F841F2030188421AD876
:103D4000206A20280AD139480C38006820F0F84051
:103D500040F0804035490C39086018E033480C3891
:103D6000006820F0F84094F8201040EA81602F4964
:103D70000C3908600BE02D48001F006820F07C50D3
:103D800094F8201040EA01602849091F086066E0A5
:103D9000E06978B325481038006840F08000234976
:103DA00010390860FEF7D6FF054606E0FEF7D2FFA1
:103DB000401B022801D903203BE61C48103800684C
:103DC000C0F300200028F1D000BFFEF7BDFF41F294
:103DD000030188421CD8206A20280CD113480C38D3
:103DE000006820F0F84040F0804010490C3908602D
:103DF0001AE035E01CE00D480C38006820F0F8406F
:103E000094F8201040EA816008490C3908600BE002
:103E10000648001F006820F07C5094F8201040EA0B
:103E200001600249091F086019E0000010440258AF
:103E3000FA48006820F08000F8490860FEF78AFF21
:103E4000054606E0FEF786FF401B022801D9032045
:103E5000EFE5F2480068C0F300200028F2D100BF6F
:103E6000207800F00800082836D16069D0B1EB480E
:103E70007430006840F00100E84974310860FEF7D2
:103E800069FF054606E0FEF765FF401B022801D9E1
:103E90000320CEE5E14874300068C0F340000028FC
:103EA000F1D019E0DD487430006820F00100DB49F2
:103EB00074310860FEF74EFF054606E0FEF74AFF44
:103EC000401B022801D90320B3E5D44874300068B0
:103ED000C0F340000028F1D1207800F02000202815
:103EE00030D1A069B8B1CD48006840F48050CB49CA
:103EF0000860FEF72FFF054606E0FEF72BFF401B8C
:103F0000022801D9032094E5C4480068C0F340307A
:103F10000028F2D016E0C148006820F48050BF4964
:103F20000860FEF717FF054606E0FEF713FF401B8B
:103F3000022801D903207CE5B8480068C0F340306E
:103F40000028F2D1207800F0040004287DD1B44884
:103F5000006840F48070B2490860FEF7FBFE054639
:103F600006E0FEF7F7FE401B642801D9032060E558
:103F7000AB48006800F480700028F2D000BFA06851
:103F8000012808D1A5487030006840F00100A3491D
:103F9000703108602DE0A06868B9A04870300068F2
:103FA00020F001009D49703108600846006820F04B
:103FB000040008601DE0A06805280DD19748703006
:103FC000006840F0040095497031086008460068B8
:103FD00040F0010008600CE090487030006820F06C
:103FE00001008E49703108600846006820F0040026
:103FF000086000BFA068A0B1FEF7ACFE054608E06F
:10400000FEF7A8FE401B41F28831884201D9032007
:104010000FE5824870300068C0F340000028EFD000
:1040200013E0FEF797FE054608E0FEF793FE401BFF
:1040300041F28831884201D90320FAE47748703090
:104040000068C0F340000028EFD1606A00287DD0EE
:1040500072481030006800F03800182877D0606A85
:10406000022875D16D48006820F080706B490860A7
:10407000FEF770FE054606E0FEF76CFE401B0228C8
:1040800001D90320D5E465480068C0F340600028EA
:10409000F2D100BFD4E90A1041EA00105F4928318B
:1040A000096840F2F332914308435C4928310860C3
:1040B000208E401EC0F30800616B491E4FF47E4203
:1040C00002EA41210843218F491ED20102EA01413F
:1040D00008433C21095D491E120202EA01610843BE
:1040E0004E493031086000BF081F006820F0010011
:1040F000091F08604948343000684FF6F87188435A
:10410000A16C40EAC10045493431086043482C3075
:10411000006820F00C00216C084340492C310860F5
:104120000846006820F00200616C08433B492C31CE
:1041300008600846006840F480300860084600685F
:1041400040F4003008600846006802E093E038E080
:104150001FE040F4802008600846006840F001003D
:1041600008602E48006840F080702C490860FEF717
:10417000F1FD054606E0FEF7EDFD401B022801D9E2
:10418000032056E425480068C0F340600028F2D0C0
:1041900071E02248006820F0807020490860FEF736
:1041A000D9FD054606E0FEF7D5FD401B022801D9E2
:1041B00003203EE419480068C0F340600028F2D1B3
:1041C00059E0164828300768144830300668606A9D
:1041D000012821D007F00301A06A81421CD1C7F356
:1041E0000511E06A884217D1C6F30801206B401E12
:1041F000814211D1606B401EC6F3462188420BD12B
:10420000A06B401EC6F30641884205D1E06B401EFC
:10421000C6F30661884205D001200AE40044025832
:104220000048025815480068C0F3CC07A06CB8429B
:1042300021D012480838006820F001000F490839E1
:104240000860FEF787FD054600BFFEF783FD401BB3
:10425000FBD00A4800684FF6F8718843A16C40EA29
:10426000C1000649086005480838006840F00100B0
:1042700002490839086000204AE40000344402582A
:10428000704770472DE9F05F044620680769206891
:10429000D0F8148007EA08052068D0F808904FF09D
:1042A000000A94F88160206800F1300B08F4006087
:1042B000B0F5006F0FD107F0080008280BD1206877
:1042C000806940F40060216888612046D4F8A81015
:1042D0008847BDE8F09F05F0400070B905F0200068
:1042E00058B905F00400042807D12046616F8847BB
:1042F0002046216F88474FF0010A05F0400050B971
:1043000005F0010038B105F0040020B92046216F06
:1043100088474FF0010A05F0200058B905F0020067
:10432000022807D105F0040020B92046616F8847B4
:104330004FF0010ABAF1000F00D0CAE705F00800FB
:10434000082867D12068806940F0080021688861EA
:104350002068806940F010002168886120688069C9
:1043600040F40060216888612068006920F008003E
:10437000216808612068806800F4404038BB22E072
:10438000E0680F2807D92068006B616E0860606ED6
:10439000001D606612E0E068072807D9BBF800003E
:1043A000616E0880606E801C606607E0206890F88F
:1043B0003000616E0870606E401C6066B4F86A0080
:1043C000401EA4F86A00B4F86A000028D8D120463C
:1043D00000F002FF012084F88100D4F8840020B1AD
:1043E0002046D4F8A010884773E7052E04D1204654
:1043F000D4F8901088470CE0042E04D12046D4F85D
:104400008C10884705E0032E03D12046D4F888108D
:1044100088475EE705F4587000287ED005F040001C
:1044200058B1D4F8840040F00400C4F88400206837
:10443000806940F040002168886105F4007058B13F
:10444000D4F8840040F00100C4F88400206880693A
:1044500040F400702168886105F4807058B1D4F888
:10446000840040F00800C4F884002068806940F4AB
:1044700080702168886105F0200058B1D4F884006C
:1044800040F08000C4F884002068806940F020007B
:1044900021688861D4F88400A8B32068006820F0FF
:1044A0000100216808602068006940F26B31884390
:1044B0002168086109F44040B0F5404F25D12068DB
:1044C000806820F4404021688860E06F60B1144843
:1044D000E16F0865E06FFCF73BFF28B1D4F884007A
:1044E00040F04000C4F88400A06F60B10C48A16F98
:1044F0000865A06FFCF72CFF28B1D4F8840040F0C9
:104500004000C4F8840007E007E0012084F881003F
:104510002046D4F8A0108847DBE600BFD9E60000AB
:10452000D55200902DE9F041044614B90120BDE8B0
:10453000F081606A00B900BFA06AB0F5800F00D1B9
:1045400000BFAF49206888420CD0AE49206888423D
:1045500008D0AD492068884204D0E0680F2801D90E
:104560000120E4E7204600F0C4FE0646A449206886
:10457000884209D0A3492068884205D0A249206812
:10458000884201D0082E0DD89D492068884207D066
:104590009C492068884203D09B492068884203D107
:1045A000102E01D90120C2E7A06AB0F5800F1DD1FD
:1045B0009349206888420DD092492068884209D0EA
:1045C00091492068884205D0206BB0F5702F01D941
:1045D0000120ACE7206B10B9A089050400E0256B31
:1045E000E068B0EB154F03D90120A0E7A0890504CE
:1045F00094F88100F0B9002004F8800F8348A0608F
:104600008348E06083482061834860618348A061FB
:104610008348E06183482062834860628348A062E7
:10462000E06A803C10B98248C4F8AC002046D4F857
:10463000AC108847022084F881002068006820F0D0
:10464000010021680860A069B0F1806F11D1606835
:10465000B0F5800F01D1A06B28B1606848B9A06B9C
:10466000B0F1805F05D12068006840F48050216877
:104670000860606800F48000B0F5800F0BD1E0683E
:10468000072808D32068006820F48070216D084353
:104690002168086005E02068006820F480702168C7
:1046A0000860A16AE06908432843E16B0843E168B8
:1046B000084321688860616A606B0843A16B084306
:1046C000A16908432169084361690843216A0843D5
:1046D00061680843E16C0843A1680843A16C084382
:1046E000A16D08432168C860A06AB0F5800F56D15B
:1046F000206C012806D12068006840F40040216841
:10470000086005E02068006820F400402168086027
:10471000606C012806D12068006840F48040216860
:10472000086005E02068006820F480402168086087
:104730003349206888420AD032492068884206D02E
:1047400031492068884202D0B5F5702F0ED02C492F
:104750002068884207D02B492068884203D02A4924
:10476000206888420CD1B5F5F81F09D1206800688F
:1047700040F40050216808602168E06A08640EE097
:104780002068006820F4005021680860012000EBD8
:10479000154100FA01F7E06A38432168086460684F
:1047A00088B9A06A38B92068806820F4C05040F405
:1047B0000060216888602068806820F4C06040F450
:1047C0008060216888602068006D20F00100216809
:1047D0000865606800F48000B0F5800F07D120689C
:1047E000C06820F00040616D08432168C860002067
:1047F000C4F88400012084F88100002097E60000BE
:104800000030014000380040003C00403D4800902E
:1048100037480090414800903F4800903948009048
:104820005948009083420090814200903B4800909C
:104830003548009070477047704770477047704721
:104840000349884202D10121024A117070470000D9
:10485000F401003098030030704770B504462546D7
:10486000681EB0F1807F01D301200FE0681E4FF079
:10487000E02148610F214FF0FF3001F013FD0020CF
:104880004FF0E021886107200861002070BD0146DB
:1048900000BF0868006A41F21112104050B9086860
:1048A000006A9210104028B90868006820F00100E2
:1048B0000A68106000BF012081F83D0000207047A9
:1048C00070B504462068C6682068056905F00200D6
:1048D00002281CD106F00200022818D1401F2168CE
:1048E0000861012020772068806900F0030020B172
:1048F0002046D4F89410884707E02046D4F89C104E
:1049000088472046D4F8A01088470020207705F07B
:10491000040004281CD106F00400042818D1C04368
:1049200021680861022020772068806900F44070C7
:1049300020B12046D4F89410884707E02046D4F8E8
:104940009C1088472046D4F8A01088470020207784
:1049500005F0080008281CD106F00800082818D126
:10496000C04321680861042020772068C06900F0F6
:10497000030020B12046D4F89410884707E0204671
:10498000D4F89C1088472046D4F8A010884700200F
:10499000207705F0100010281CD106F01000102818
:1049A00018D1C04321680861082020772068C069B9
:1049B00000F4407020B12046D4F89410884707E0F6
:1049C0002046D4F89C1088472046D4F8A010884789
:1049D0000020207705F0010050B106F0010038B149
:1049E0006FF00100216808612046D4F884108847E0
:1049F00005F08000802804D005F40050B0F5005F79
:104A00000BD106F08000802807D16FF40250216896
:104A100008612046D4F8B410884705F48070B0F5DA
:104A2000807F0BD106F08000802807D16FF4807062
:104A3000216808612046D4F8B810884705F0400086
:104A400040280AD106F04000402806D1C043216822
:104A500008612046D4F88C10884705F020002028F3
:104A60000AD106F02000202806D1C0432168086141
:104A70002046D4F8AC10884770BD70477047704727
:104A800070477047704770477047000010B5044684
:104A90000CB9012010BDA06900B100E000BFD4F83E
:104AA000880078B9002084F88400204600F0AEFE2B
:104AB000D4F8C40010B91848C4F8C4002046D4F88B
:104AC000C41088472420C4F888002068006820F0BB
:104AD000010021680860A06A10B1204600F06EFD58
:104AE000204600F0C7FE012800D1D3E720684068C7
:104AF00020F49040216848602068806820F02A00F7
:104B0000216888602068006840F001002168086022
:104B1000204600F0CFFDBDE71D4B00907047704769
:104B2000704770477047000010B504463B48006866
:104B300000F0004048B13948006840F00040374973
:104B40000860A069801CA06110BD34480838006866
:104B5000334908623148001F007881F824002F484B
:104B6000C01E007888622D480C300068C8622B484F
:104B7000801E008808862948006848632748001D71
:104B800000688863254810300068C8630020254904
:104B9000086000BF234800680028FBD02049206837
:104BA000086060684860A0688860E068C860206944
:104BB000086160694861A0698861E069C8611AA1FB
:104BC000002000F0C7F9164882691BA1002000F000
:104BD000C1F9134842691CA1002000F0BBF90F483D
:104BE000001F02681CA1002000F0B4F90B48026805
:104BF0001DA1002000F0AEF908480C3002681EA18B
:104C0000002000F0A7F900200649086000BF054811
:104C100000680028FBD000BF96E700002CED00E004
:104C2000DC04002030040020486172642046617575
:104C30006C74210D0A0000005043203D203078257F
:104C40003038580D0A0000004C52203D20307825A5
:104C50003038580D0A00000043465352203D2030A2
:104C600078253038580D0A0048465352203D2030F0
:104C700078253038580D0A0042464152203D2030F8
:104C800078253038580D0A001FB5FEF7FFF80120CF
:104C90008DF80000002001901F208DF808000020F2
:104CA0008DF80B008DF80F008DF80E0001208DF8A7
:104CB0000D0000208DF801008DF80A0087208DF886
:104CC000090001208DF80C006846FEF7B1F80120BC
:104CD0008DF800004FF01050019012208DF8080060
:104CE00003208DF80B0000208DF80F008DF80E00CA
:104CF00001208DF80D008DF801008DF80A000020CC
:104D00008DF8090001208DF80C006846FEF790F838
:104D100001208DF800004FF01040019017208DF811
:104D2000080003208DF80B0001208DF80F008DF88E
:104D30000E0000208DF80D0002208DF801000120EA
:104D40008DF80A0000208DF809008DF80C006846E7
:104D5000FEF76EF801208DF800004FF0C040019082
:104D600019208DF8080003208DF80B0001208DF824
:104D70000F0000208DF80E0001208DF80D0003209B
:104D80008DF8010000208DF80A008DF8090001203F
:104D90008DF80C006846FEF74BF801208DF80000F6
:104DA0004FF0605001900F208DF8080003208DF81F
:104DB0000B0000208DF80F008DF80E0001208DF8FB
:104DC0000D0004208DF8010001208DF80A0000205C
:104DD0008DF8090001208DF80C006846FEF728F8D0
:104DE00001208DF800004FF04050019011208DF807
:104DF000080003208DF80B0000208DF80F008DF8BF
:104E00000E0001208DF80D0005208DF80100012015
:104E10008DF80A0000208DF8090001208DF80C00A3
:104E20006846FEF705F80420FEF746F81FBD0000AF
:104E30008CB001680B9141680A9181680991C16841
:104E40000891016907914169069181690591C169DC
:104E500004910849096803910649091D09680291EE
:104E600004490C3109680191024910310968009127
:104E700000BFFEE728ED00E07047704710B501F075
:104E800033F810BD2DE9F04104460D46164600BF2B
:104E90000E4F3878532801D001F026F800BFEFF309
:104EA00011800746202080F3118800BF00BF3246E2
:104EB0002946204600F00CF88046F8B280F31188AD
:104EC00000BF00BF4046BDE8F08100003404002070
:104ED0002DE9F047074688461646C24607EB4701CC
:104EE0001B4800EBC109D9F8140020B1012811D0EA
:104EF000022826D11EE0484601F02EF80546B542AC
:104F000001D2002405E0344632465146484601F0BD
:104F10007AF918E0484601F01FF80546B54201D27B
:104F2000284600E03046044622465146484601F0F5
:104F30006AF908E032465146484601F029F904462C
:104F400001E0002400BF00BF2046BDE8F08700005C
:104F50004C0400200FB438B5044606A800906A46F9
:104F60002046059900F008F80546002000902846E4
:104F700038BC5DF814FB00002DE9F74F98B00D46E2
:104F8000144602A813904020149000201590189801
:104F900017900020169000BF2E786D1C06B9FBE01C
:104FA000252E73D100274FF0010A00BF2E78232E43
:104FB00012D02B2E0CD02D2E02D0302E10D103E08B
:104FC00047F001076D1C0EE047F002076D1C0AE078
:104FD00047F004076D1C06E047F008076D1C02E06F
:104FE0004FF0000A00BF00BFBAF1000FDED14FF052
:104FF000000900BF2E78302E01DB392E00DD07E0DE
:105000006D1CA6F1300009EB890100EB4109F1E7C5
:1050100000BF0020129080462E782E2E1ED16D1CCF
:1050200028782A2808D16D1C012012902168081DBB
:105030002060D1F8008011E000BF2E78302E01DB17
:10504000392E00DD09E0012012906D1CA6F1300020
:1050500008EB880100EB4108EFE700BF2E7800BFA6
:105060006C2E01D0682E02D16D1C2E7800E000E07D
:10507000F6E700BF702E6CD009DC252E7BD0582EB1
:1050800035D0632E0AD0642E7AD113E07CE0732EE3
:105090003BD0752E1CD0782E72D127E02168081DD8
:1050A0002060D1F800A00AF0FF0B594613A801F0C8
:1050B0004DF866E02168081D2060D1F800A0434645
:1050C0000A22514613A8CDE9009700F053FF58E09B
:1050D0002168081D2060D1F800A043460A225146ED
:1050E00013A8CDE9009700F0BBFF4AE000BF21689C
:1050F000081D2060D1F800A043461022514613A895
:10510000CDE9009700F0ACFF3BE02168081D20606E
:10511000D1F800B0BBF1000F03D10FF2A40B0020B7
:10512000129000BF9BF800600BF1010B06B90EE076
:10513000129818B1B8F1000F00D108E0314613A859
:1051400001F004F8A8F1010816980028EADA00BF77
:1051500017E02168081D2060D1F800A00020082178
:105160000B461022CDE90010514613A800F078FF3D
:1051700007E000E004E0252113A800F0E7FF00E0CD
:1051800000BF00BF6D1C03E0314613A800F0DEFF36
:1051900016980028BFF600AF00BF169800280ADD59
:1051A000159820B102A9159A1898FFF76BFEDDE952
:1051B00015100844169016981BB0BDE8F08F00003B
:1051C000284E554C4C29000010B50248FFF75AF8FC
:1051D00010BD0000F4010030026851690268926954
:1051E00042F0080203689A610268926942F0100274
:1051F00003689A610268126822F0010203681A606B
:105200000268126940F26F339A4303681A610268B8
:10521000926822F4404203689A6090F88120042A40
:105220000ED001F020025AB1D0F8842042F0800262
:10523000C0F884200268926942F0200203689A61F3
:1052400090F88120032A21D001F040025AB1D0F811
:10525000842042F00402C0F884200268926942F07F
:10526000400203689A61826AB2F5800F0ED101F0A4
:1052700080025AB1D0F8842042F00202C0F88420A3
:105280000268926942F0800203689A6101F4007238
:105290005AB1D0F8842042F00102C0F8842002689C
:1052A000926942F4007203689A6101F480725AB103
:1052B000D0F8842042F00802C0F884200268926985
:1052C00042F4807203689A610022A0F86220A0F87C
:1052D0006A20704770B50546AC6B002062342081AF
:1052E00020800120E077D4F83E10623C20468847B9
:1052F00070BD10B501460124C86B04EB5013C8689B
:10530000421CD01DC20802FB03F010BD7047000014
:1053100010B59CB000245448006820F004005249A5
:10532000086000BF002000905048006820F0010095
:105330004E4908600846006800F0010000904A48A5
:105340000C30006840F4404047490C310860084682
:10535000006800F44040009000BF00BF00BF42481A
:105360000C30006800F40050B0F5005FF7D1012068
:1053700001900004029000200490089002200A90FE
:1053800002210B9105210C91A0210D910021139177
:1053900002210E91109104210F91002112910821F8
:1053A000119101A8FEF740FB04460CB1FBF7B4FDD8
:1053B0003F2014900320159000201690082017908D
:1053C00040201890199000011A9040201B90042151
:1053D00014A8FEF739F804460CB1FBF79DFD2448EC
:1053E000006840F080002249086000BF2048F43087
:1053F000006840F002001E49F43108600846006869
:1054000000F00200009000BF00BF00BF1848DC3071
:10541000006840F000501649DC310860084600681A
:1054200000F00050009000BF00BF00BF08460068B9
:1054300040F0804008600846006800F0804000901E
:1054400000BF00BF00BF0846006840F00040086091
:105450000846006800F00040009000BF00BFFDF764
:1054600063F91CB010BD00000C4802582C04005811
:10547000004402583F48006840F470003D4908600D
:105480003D48006800F00F00072806D23A4800683F
:1054900020F00F00C01D384908603848006840F00F
:1054A0000100364908600020344910310860334853
:1054B000006833490840314908602F48006800F00F
:1054C0000F00072806D92C48006820F00F00C01DE7
:1054D000294908600020294918310860091D086021
:1054E000091D086027482549283108602648091DFC
:1054F00008602648091D08600020091D086023482F
:10550000091D08600020091D08602048091D086069
:105510000020091D08601948006820F48020174900
:1055200008600020154960310860194800686FF371
:105530000F00B0F1005F02D20120164908600F4849
:10554000D430006800F4805098B90C48D43000681A
:1055500040F480500949D431086043F2D2000E492A
:1055600008600648D430006820F480500349D431E4
:105570000860704788ED00E00020005200440258A7
:105580007FEDF6EA000202020000FF018002010145
:105590000010005C088100510040005210B5024824
:1055A000FFF78EF910BD00001801003010B5024859
:1055B000FFF786F910BD00005C00003090F828105D
:1055C00001F00801082907D10168496821F4004168
:1055D000826B11430268516090F8281001F00101BC
:1055E00039B10168496821F40031C26A1143026887
:1055F000516090F8281001F00201022907D10168DA
:10560000496821F48031026B11430268516090F8BF
:10561000281001F00401042907D10168496821F428
:105620008021426B11430268516090F8281001F00C
:105630001001102907D10168896821F48051C26BDB
:1056400011430268916090F8281001F02001202990
:1056500007D10168896821F40051026C1143026886
:10566000916090F8281001F04001402913D10168A1
:10567000496821F48011426C114302685160416C09
:10568000B1F5801F07D10168496821F4C001826C1F
:1056900011430268516090F8281001F080018029C0
:1056A00007D10168496821F40021C26C11430268E6
:1056B0005160704738B504460020C4F89000FDF7EB
:1056C00049FB05462068006800F00800082821D141
:1056D0006FF07E402B4600224FF4001100902046D0
:1056E00000F08EFBB0B100BF00BF216851E8001F81
:1056F00021F08000226842E800010029F5D100BFB6
:105700002020C4F8880000BF002084F8840000BF77
:10571000032038BD2068006800F00400042830D160
:105720006FF07E402B4600224FF48001009020460F
:1057300000F066FB28B300BF00BF216851E8001FDE
:1057400021F49070226842E800010029F5D100BFE1
:1057500000BF00BF2168083151E8001F21F001009F
:105760002168083141E80002002AF3D100BF20205F
:10577000C4F88C0000BF002084F8840000BF032020
:10578000C7E72020C4F88800C4F88C000020E06639
:10579000206700BF84F8840000BF00BFB9E70000A5
:1057A00000BF00BF026852E8002F22F49071036826
:1057B00043E80012002AF5D100BF00BF00BF026815
:1057C000083252E8002F104B02EA03010268083247
:1057D00042E80013002BF2D100BFC16E01290CD1A9
:1057E00000BF00BF026852E8002F22F010010368DA
:1057F00043E80012002AF5D100BF2021C0F88C1028
:105800000021C16641677047FEFFFFEF0D4940F878
:10581000941F0D4941600D4981600D49C1600D49DA
:1058200001610D4941610D4981610D49C1610D4918
:1058300001620D4941620D4981620D49C16294388E
:1058400070470000254B0090234B0090214B0090A7
:105850001F4B0090894A0090834A0090874A00902D
:10586000854A0090814A00907D4A00907F4A0090CE
:105870007B4A00902DE9F04F89B005460020089042
:10588000F8492868884200D100E000BF2969A8686B
:10589000084369690843E96940EA01082868006823
:1058A000F149084040EA0800296808602868406813
:1058B00020F44050E968084329684860D5F818800A
:1058C000E8492868884202D0286A40EA080828681F
:1058D0008068E649084040EA08002968886028682E
:1058E000C06A20F00F00696A08432968C86200BFD7
:1058F000DF492868884220D1DE48006800F038007F
:10590000182811D005DC48B1082809D0102811D179
:1059100008E020280AD028280CD109E001240BE057
:10592000042409E0082407E0102405E0202403E013
:10593000402401E0802400BFF8E0CF492868884275
:1059400019D1CC48006800F00700062810D2DFE823
:1059500000F0030507090B0D00240BE0042409E007
:10596000082407E0102405E0202403E0402401E09F
:10597000802400BFDAE0C1492868884219D1BD48B7
:10598000006800F00700062810D2DFE800F00305E9
:1059900007090B0D00240BE0042409E0082407E0AC
:1059A000102405E0202403E0402401E0802400BF0F
:1059B000BCE0B3492868884219D1AE48006800F0BD
:1059C0000700062810D2DFE800F0030507090B0DD9
:1059D00000240BE0042409E0082407E0102405E07B
:1059E000202403E0402401E0802400BF9EE0A5497C
:1059F0002868884219D19F48006800F007000628EF
:105A000010D2DFE800F0030507090B0D00240BE0BE
:105A1000042409E0082407E0102405E0202403E022
:105A2000402401E0802400BF80E097492868884234
:105A300020D19048006800F03800182811D005DC0B
:105A400048B1082809D0102811D108E020280AD030
:105A500028280CD109E001240BE0042409E00824E3
:105A600007E0102405E0202403E0402401E0802426
:105A700000BF5BE085492868884219D17D480068ED
:105A800000F00700062810D2DFE800F00305070940
:105A90000B0D00240BE0042409E0082407E0102487
:105AA00005E0202403E0402401E0802400BF3DE025
:105AB00077492868884219D16E48006800F00700CD
:105AC000062810D2DFE800F0030507090B0D0024BB
:105AD0000BE0042409E0082407E0102405E020245A
