:020000040800F2
:1000000000040024010010083F0010083700100809
:100010003B0010082D0010084501100800000000EA
:100020000000000000000000000000004300100875
:1000300031001008000000004100100845001008C1
:100040001F0010081F0010081F0010081F001008D4
:100050001F0010081F0010081F0010081F001008C4
:100060001F0010081F0010081F0010081F001008B4
:100070001F0010081F0010081F0010081F001008A4
:100080001F0010081F0010081F0010081F00100894
:100090001F0010081F0010081F0010081F00100884
:1000A0001F0010081F0010081F0010081F00100874
:1000B0001F0010081F0010081F0010081F00100864
:1000C0001F0010081F0010081F0010081F00100854
:1000D0001F0010081F0010081F0010081F00100844
:1000E0001F0010081F001008000000001F0010086B
:1000F0001F0010081F0010081F0010081F00100824
:100100001F0010081F0010081F0010081F00100813
:100110001F0010081F0010081F0010081F00100803
:100120001F0010081F0010081F0010081F001008F3
:100130001F0010081F0010081F0010081F001008E3
:1001400000000000000000000000000000000000AF
:100150001F0010081F0010081F0010081F001008C3
:100160001F0010081F0010081F0010081F001008B3
:100170001F0010081F0010081F00100800000000DA
:100180001F0010081F0010081F0010081F00100893
:100190001F0010081F0010081F0010081F00100883
:1001A0001F0010081F0010081F0010081F00100873
:1001B0001F0010081F0010081F0010081F00100863
:1001C0001F0010081F0010081F0010081F00100853
:1001D0001F0010081F0010081F0010081F00100843
:1001E0001F0010081F0010081F0010081F00100833
:1001F0001F0010081F0010081F0010081F00100823
:100200001F0010081F0010081F0010081F00100812
:100210001F0010081F0010081F0010081F00100802
:100220001F0010081F0010081F0010080000000029
:100230001F0010081F001008000000001F00100819
:100240001F0010081F0010081F0010081F001008D2
:100250001F0010081F0010081F0010081F001008C2
:100260001F0010081F0010081F0010081F001008B2
:100270001F0010081F0010081F00100800000000D9
:100280001F0010081F0010081F00100800000000C9
:10029000000000001F001008DFF810D000F008F880
:1002A0000048004749011008AFF300800004002413
:1002B000064C074D06E0E06840F0010394E80700B3
:1002C00098471034AC42F6D3FFF7EAFFF402000877
:1002D0000403000802E008C8121F08C1002AFAD16E
:1002E00070477047002001E001C1121F002AFBD1B6
:1002F0007047000004030008000000240004000010
:04030000E40200080B
:020000040810E2
:10000000074880470748804707480047FEE7FEE764
:10001000FEE7FEE7FEE7FEE7FEE7FEE7FEE7FEE7B8
:1000200035001008490010089902000800BFFEE7DB
:1000300070477047704700BFFEE700BFFEE770479C
:1000400070477047704700003448006840F4700003
:10005000324908603248006800F00F00072806D2D5
:100060002F48006820F00F00C01D2D4908602D4862
:10007000006840F001002B49086000202949103138
:100080000860284800682849084026490860244834
:10009000006800F00F00072806D92148006820F00A
:1000A0000F00C01D1E49086000201E49183108605D
:1000B000091D0860091D08601C481A49283108609C
:1000C0001B48091D08601B48091D08600020091D08
:1000D00008601848091D08600020091D08601548BF
:1000E000091D08600020091D08600E48006820F402
:1000F00080200C49086000200A49603108600E48E1
:1001000000686FF30F00B0F1005F02D201200B49CD
:10011000086043F2D2000A490860704788ED00E0A9
:1001200000200052004402587FEDF6EA000202026D
:100130000000FF01800201010010005C08810051F5
:100140000040005200BFFEE7FFF773FF00BFFEE76D
:040000050800029954
:00000001FF
