:0200000490006A
:10000000E819002039030090197F009065030090E3
:10001000B1020090CD0900904D92009000000000C8
:100020000000000000000000000000007586009045
:10003000FB0E0090000000001B7F009001000000FC
:100040005703009057030090570300905703009008
:1000500057030090570300905703009057030090F8
:10006000570300905703009057030090010B009036
:10007000A50B0090B50B009057030090E50B009086
:10008000F50B00905703009057030090FD1100906E
:100090001D1200900D1200902D1200905703009039
:1000A0005703009005890090570300905703009074
:1000B0005703009057030090570300905703009098
:1000C00057030090356A0090256A009031850090B2
:1000D000570300901592009057030090570300902B
:1000E0005703009057030090000000005703009052
:1000F0005703009057030090570300905703009058
:100100005703009057030090158900905703009003
:100110005703009057030090570300905703009037
:100120005703009057030090570300905703009027
:100130005703009057030090570300903D12009022
:1001400000000000000000000000000000000000AF
:1001500057030090570300905703009057030090F7
:1001600057030090570300905703009057030090E7
:1001700057030090570300905703009000000000C1
:1001800057030090570300905703009057030090C7
:1001900057030090570300905703009057030090B7
:1001A00057030090570300905703009057030090A7
:1001B0005703009057030090570300905703009097
:1001C0005703009057030090570300905703009087
:1001D0005703009057030090570300905703009077
:1001E0005703009057030090570300905703009067
:1001F0005703009057030090570300905703009057
:100200005703009057030090570300905703009046
:100210005703009057030090570300905703009036
:100220005703009057030090570300900000000010
:100230005703009057030090000000005703009000
:100240005703009055090090570300905703009002
:1002500057030090570300905703009057030090F6
:1002600057030090570300905703009057030090E6
:1002700057030090570300905703009000000000C0
:1002800057030090570300905703009000000000B0
:100290000000000057030090DFF810D000F0AEFA25
:1002A00000480047B5B10090AFF30080E819002086
:1002B0001EF0040F0CBFEFF30880EFF3098007F086
:1002C00007BE00000246D2E84F0F411CC2E8431FA0
:1002D00003B1F8E77047024652E8000F411C42E8BC
:1002E000001303B1F8E77047024652E8000F42E8F6
:1002F000001303B1F9E77047024652E8000F83018B
:1003000003D3BFF32F8F0020704700F00040084355
:1003100042E8000303B1F0E77047024652E8000FDD
:10032000800103D2BFF32F8F0020704742E80013F3
:1003300003B1F3E70120704707488047074880472B
:1003400007480047FEE7FEE7FEE7FEE7FEE7FEE7B9
:10035000FEE7FEE7FEE7FEE7F9110090DD8700907B
:10036000990200901EF0040F0CBFEFF30880EFF32A
:10037000098006F0A7BA00002DE9F05F05460020CD
:1003800092469B4688460646814640241BE0284606
:1003900041464746224600F069F853465A46C01A7D
:1003A000914110D311461846224600F050F82D1AFC
:1003B00067EB01084F4622460120002100F047F874
:1003C00017EB00094E41201EA4F10104DFDC484672
:1003D00031462A464346BDE8F09F40EA01039B07A9
:1003E00003D009E008C9121F08C0042AFAD203E0AA
:1003F00011F8013B00F8013B521EF9D27047D2B20E
:1004000001E000F8012B491EFBD270470022F6E7FD
:1004100010B513460A4604461946FFF7F0FF20467A
:1004200010BD30B50B46014600202022012409E012
:1004300021FA02F59D4205D303FA02F5491B04FA9D
:1004400002F52844151EA2F10102F1DC30BD202A7C
:1004500004DB203A00FA02F1002070479140C2F11B
:10046000200320FA03F3194390407047202A04DB4D
:10047000203A21FA02F00021704721FA02F3D0401D
:10048000C2F1200291400843194670472DE9FE4F02
:10049000804681EA0300C00F0C46009021F0004125
:1004A00023F00045B8EB0200A94105D240462146A1
:1004B00090461C460B46024623F00040104347D0AE
:1004C000270DC7F30A00C3F30A510290401A0190A6
:1004D00040286BDAC3F3130040F4801B0098924667
:1004E00020B10023D2EB030A63EB0B0B01985946B2
:1004F000C0F140025046FFF7AAFF06460D4650469F
:100500005946019A00F08CF910EB08006141002473
:1005100087EA115284EAE7731A4340D0009A62B323
:10052000019A012A4FEA075215DC001B61EB020118
:100530004FF0004202EA0752CDE90042001C41F5AB
:10054000801132462B4600F08CF903B0BDE8F08FE5
:1005500040462146F9E7001B61EB0201001C41F512
:10056000801300185B412018A2F5001747EB030128
:1005700040EAD570B6196D4111E06D084FEA3606B4
:1005800045EAC0754FEA0752001B61EB0201001CEF
:1005900041F5801149084FEA3000001951413246B7
:1005A0002B4603B0BDE8F04F00F04CB90098012293
:1005B00040000023D0EB020263EBE0730098214679
:1005C0004FEAE074B8EB000061EB0401E9E783F067
:1005D00000435BE781F0004158E72DE9FE4F81EAD7
:1005E000030404F0004421F0004100944FF0000B9C
:1005F00023F0004350EA01045ED052EA03045BD0CA
:10060000C3F30A54C1F30A552C44A4F2F334019401
:10061000A0FB0254C1F3130141F48011C3F313038F
:1006200043F4801301FB024400FB034E840A970A43
:1006300044EA815447EA8357A4FB076802958D0A70
:1006400005FB07854FEA932C04FB0C542705029DFC
:100650004FEA065847EA1637B5EB08056EEB070C6C
:10066000870E920E47EA811742EA8312A7FB020126
:10067000B6EB0B0164EB00042B0D43EA0C335E1860
:1006800044EB1C50DA465146E7FB0201C5F3130464
:100690004FEA0B3343EA14534FEA0432019C43EA16
:1006A0000603A4F10C040294009CCDE900B400F010
:1006B000D8F803B0BDE8F08F00200146F9E72DE936
:1006C000F04D81EA030404F0004B21F0004514468C
:1006D0004FF0000A23F0004150EA050220D054EA0E
:1006E00001021DD0C5F30A570246C5F31303C1F337
:1006F0001300C1F30A5640F4801543F48013A7EBAE
:100700000608101BD64608F2FD3873EB050002D32D
:1007100008F1010801E092185B41B8F1000F03DA1B
:1007200000200146BDE8F08D00204FF48011064600
:1007300084460EE0171B73EB050705D3121B63EB12
:10074000050306434CEA010C49084FEA30009218B1
:100750005B4150EA0107EDD152EA030012D082EA70
:10076000040083EA0501084305D0101BAB4106D203
:100770000122002306E000224FF0004302E06FF068
:10078000010253101AEB06004CEB085110EB0A0063
:1007900041EB0B01BDE8F04D00F054B8C1F30A5233
:1007A000C1F3130140F2FF3341F480119A4202DA9F
:1007B00000200146704740F233439A42A2F233428E
:1007C00002DC5242FFF752BEFFF741BE30B5041EB5
:1007D00071F1000404DB4FF00044404264EB01017E
:1007E000141E73F1000405DB1C464FF00043524217
:1007F00063EB0403994208BF904230BD064C074D9D
:1008000006E0E06840F0010394E8070098471034E0
:10081000AC42F6D3FFF744FD64BC0090D4BC00901A
:10082000202A06DBCB17203A41FA02F043EAE073B4
:1008300006E041FA02F3D040C2F1200291400843A1
:100840001946704710B5141E73F1000408DA401CF5
:1008500041F1000192185B411A4301D120F00100DF
:1008600010BD2DE9F04D92469B4611B1B1FA81F2CF
:1008700002E0B0FA80F220329046FFF7E8FD04462D
:100880000F4640EA0A0041EA0B0153465A46084324
:1008900013D0114653EA010019D0C8F14002504666
:1008A000FFF7E4FD05460E46504659464246FFF71F
:1008B000CEFD084305D0012004E020463946BDE8BE
:1008C000F08D0020054346EAE0762C4337430A9832
:1008D0006305E40AA0EB08000022FD0A44EA47543D
:1008E0000A3002D500200146E9E7010510196941E7
:1008F000DDE9084500196941BDE8F04DA2E770B592
:100900008C1810F8015B15F0070301D110F8013BBA
:100910002A1106D110F8012B03E010F8016B01F841
:10092000016B5B1EF9D12B0705D40023521E0DD499
:1009300001F8013BFAE710F8013BCB1A921C03E0E7
:1009400013F8015B01F8015B521EF9D5A142D8D31F
:10095000002070BD1B48006800F0020080B14FF419
:100960000030194908610220486188610004C861AB
:100970001448001D006840F002001249091D08607B
:100980001048006800F0040070B102200E490860B1
:10099000486088600004C8600A48001D006840F094
:1009A00004000849091D08600648006800F00800B6
:1009B00038B10448001D006840F008000149091DD5
:1009C00008607047005402580000003800BFFEE77E
:1009D00010B500BF4848006800F4003000B139E0AD
:1009E00000BF00BF00BFBFF34F8F00BF00BF00BFFD
:1009F00000BF00BF00BFBFF36F8F00BF00BF00BFCD
:100A000000203E49086000BF00BF00BFBFF34F8F0A
:100A100000BF00BF00BF00BF00BF00BFBFF36F8FAC
:100A200000BF00BF00BF3448006840F400303249C6
:100A3000086000BF00BF00BFBFF34F8F00BF00BF03
:100A400000BF00BF00BF00BFBFF36F8F00BF00BF7C
:100A500000BF00BF00BF284B1B6803F4803303B105
:100A600048E00023244C7034236000BF00BF00BF67
:100A7000BFF34F8F00BF00BF00BF231F1868C0F334
:100A80004E3100BFC0F3C90200BF43F6E07303EA72
:100A900041134FF0404404EA82742343174C10344E
:100AA000236000BF00BF131EA2F10102EDD10B1E97
:100AB000A1F10101E6D100BF00BF00BFBFF34F8F1E
:100AC00000BF00BF00BF0C4B1B6843F480330A4CCF
:100AD000236000BF00BF00BFBFF34F8F00BF00BF48
:100AE00000BF00BF00BF00BFBFF36F8F00BF00BFDC
:100AF00000BF00BF10BD000014ED00E050EF00E0AB
:100B000010B52348006800F02000D8B12048806864
:100B100040F020001E4988600846806840F01000C0
:100B200088601C48007868B100211B4809F042FC2D
:100B300000201849087008460078184908701848BD
:100B400005F073FD1248006800F01000A0B11048D5
:100B5000806840F010000E498860104800780D4908
:100B60000978884208D000210B48203809F022FC7F
:100B700008480078094908700548006800F0080036
:100B800028B10348806840F008000149886010BD22
:100B90000000024038170030A0160030391700302E
:100BA000C415003010B5024800F018FF10BD000059
:100BB000301500300948006800F4001068B107489B
:100BC000806840F40010054988600846006C20F0F9
:100BD00001000864012002490870704700000240CB
:100BE0004017003010B5024800F0F8FE10BD0000BC
:100BF0003C04003010B5024800F0F0FE10BD0000CB
:100C0000B40400300146374A0868904249D0354A5A
:100C100018320868904244D0324A30320868904214
:100C20003FD0304A4832086890423AD02D4A60326C
:100C30000868904235D02B4A78320868904230D00C
:100C4000284A9032086890422BD0264AA832086879
:100C5000904226D0244A0868904222D0224A183274
:100C6000086890421DD0204A30320868904218D05F
:100C70001D4A48320868904213D01B4A6032086807
:100C800090420ED0184A78320868904209D0164A2D
:100C900090320868904204D0134AA8320868904203
:100CA00001D1012000E00020B0B10A78103A1823E9
:100CB000B2FBF3F000F007020C4B9A5CCA65032804
:100CC00005D90A686FF30902121D8A6503E00A68F4
:100CD0006FF309028A6503E0086820F0FF00886569
:100CE000886D70471000024010040240DCBA00908A
:100CF00010B502682B4C0368A34222D0294C14344F
:100D00000368A3421DD0274C28340368A34218D09F
:100D1000244C3C340368A34213D0224C5034036863
:100D2000A3420ED01F4C64340368A34209D01D4C6B
:100D300078340368A34204D01A4C8C340368A3426D
:100D400001D1012300E000238BB10378083B142478
:100D5000B3FBF4F1144B03EB81030366124B8033B6
:100D6000436601F01F040123A340836618E0037863
:100D7000103B1824B3FBF4F10C4B9A4204D80B4BF4
:100D8000A83B9A4200D30831094B03EB8103036669
:100D9000074B8033436601F01F040123A3408366A1
:100DA00010BD00000854025800580258B804024010
:100DB000000802400179A9B3082940D8204B0268F5
:100DC0009A4222D01E4B143302689A421DD01C4B0B
:100DD000283302689A4218D0194B3C3302689A4271
:100DE00013D0174B503302689A420ED0144B643321
:100DF00002689A4209D0124B783302689A4204D0B2
:100E00000F4B8C3302689A4201D1012200E000228C
:100E10004AB14A1E0B4B03EB8202C266094A4032BA
:100E2000026708E00BE04A1E074B03EB8202C26632
:100E3000054A403202674A1E0123934043677047C8
:100E40000854025800590258000902400146002087
:100E50008A69D2B98A6A32B1012A0DD0022A03D036
:100E6000032A10D10EE000BFCA6A02F08072B2F10C
:100E7000807F00D1012007E0CA6AB2F1C07F00D1B3
:100E8000012001E000E000BF36E08A69B2F5005FB2
:100E90001BD18A6A32B1012A07D0022A03D0032A61
:100EA00011D10AE000BF01200EE0CA6A02F0807290
:100EB000B2F1807F00D1012006E0CA6AB2F1C07FA2
:100EC00000D1012000E000BF16E08A6A32B1012A99
:100ED00005D0022A04D0032A0CD103E000BF00BFD2
:100EE000012008E0CA6A02F08072B2F1807F00D16E
:100EF000012000E000BF00BF7047704700BFFEE761
:100F000070B500BF0C48866900F05EF9054600BF69
:100F1000294609481830FFF7E7F9044600BFB442F4
:100F2000F0D1A54206D200BF03481030FFF7D3F935
:100F300000BF00BF284670BDC00900202DE9FF4F4B
:100F400081B0884691469A464FF0070B51E000BFAA
:100F50002E48FFF7C0F9064606F03F002C4901EB8A
:100F60000014B0094FF4700101EA00510091DDE96D
:100F7000001008434FF0805101EAD80108434FF0B8
:100F8000005101EA990108434FF0804101EA5A01FA
:100F9000084340F04065294604F10C00FFF7ACF926
:100FA000054605F0806010B385F0806585F000454A
:100FB00005F0004728F000403843206029F0004049
:100FC000384360602AF000403843A060294604F1AD
:100FD0000C00FFF7A2F948B100BF0C48001DFFF755
:100FE0007AF900BF012005B0BDE8F08F04E0ABF155
:100FF000010BBBF1000FAAD100BF00BF03480830AE
:10100000FFF769F900BF0020EDE70000C4090020E8
:1010100040050020F0B506460C461546FF2C01D2CF
:10102000FF2D01D30020F0BD002200231AE0012093
:1010300098403040A0B1214610E002EBD1000B4FA8
:10104000385C01F0070C012707FA0CF7384302EB74
:10105000D107DFF818C00CF80700491CA942ECD9E9
:1010600020325B1C042BE2D30120DCE74009002086
:101070002DE9F05F824689460020404908708021B2
:101080003F48FFF7C3F918213E4809F072F90746B7
:101090003A48006A3C49884207D008463749086206
:1010A000084647800120C8610EE034484088B842B5
:1010B00005D03248478001203049C86104E02F48FC
:1010C000C069401C2D49C8612C48C06901280BD15A
:1010D00000202A49487048608860C8604FF48061E9
:1010E0002A48FFF793F90FE000260BE0274800EBB2
:1010F0000615E86800F0806018B1E86820F04060EC
:10110000E860761C402EF1D31C48C069012810D13C
:1011100000F060F8044614B1DFF8748001E04FF08D
:1011200000081648C0F8148000201449886108613E
:1011300002E000F04FF80446ECB1FE2200215046D8
:10114000FFF768FFEF2211460F20FFF763FFFE2233
:1011500011460420FFF75EFFFFF7D2FE83460748E3
:1011600000235946C2690B48FFF7E8FEB9F1000FAA
:1011700001D000F011F82046BDE8F09FC009002022
:10118000400900204CBC00906B27A5E140050020E1
:101190000084D71700FF000310B50948007808B194
:1011A000012010BD012006490870FFF7A9FE044682
:1011B00000231A4621460348FFF7C0FE0120F0E74E
:1011C000C009002001FF000301484068704700008B
:1011D000001000E00648006840F080700449086094
:1011E0000448006840F0010002490860012070478F
:1011F000FCED00E0001000E07047000010B5024870
:1012000001F056FE10BD0000681F003010B5024806
:1012100001F04EFE10BD0000681F003010B50248FE
:1012200001F046FE10BD0000681F003010B50248F6
:1012300001F03EFE10BD0000681F003010B50248EE
:1012400001F036FE10BD0000681F003010B50146E9
:101250004A6B0868D0F884004FF6FC74A04340EA5B
:1012600082000C68C4F884000868D0F8840020F478
:101270007F04088F44EA00400C68C4F88400886B3F
:1012800002440868D0F888004FF6FC74A04340EA96
:1012900082000C68C4F888000868D0F8880020F440
:1012A000FE04888F44EA00400C68C4F88800C86BCC
:1012B00002EB40020868D0F8A0004FF6FC74A0438F
:1012C00040EA82000C68C4F8A0000868D0F8A000CA
:1012D00020F4FE044020405A44EA00400C68C4F860
:1012E000A000D1E9104004FB00220868D0F8B0004B
:1012F0004FF6FC74A04340EA82000C68C4F8B000CA
:101300000868D0F8B00020F4FE04B1F8480044EAC0
:1013100000400C68C4F8B000D1E9124004FB002280
:101320000868D0F8AC004FF6FC74A04340EA820095
:101330000C68C4F8AC00D1E9144004FB0022086832
:10134000D0F8F0004FF6FC74A04340EA82000C682D
:10135000C4F8F0000868D0F8F00020F47C14B1F86C
:10136000580044EA00400C68C4F8F000886D02EBB5
:1013700040020868D0F8C0004FF6FC74A04340EA71
:1013800082000C68C4F8C0000868D0F8C00020F4DF
:101390007C14B1F85C0044EA00400C68C4F8C0005A
:1013A0000868D0F8C00020F07C5491F8600044EA4E
:1013B00000600C68C4F8C0002A4C486B04EB800045
:1013C000C866CC6E886B04EB80040C670C6FC86B2E
:1013D00004EBC0044C67D1E9100460434C6F04EB8C
:1013E00080048C67D1E9120460438C6F04EB8004A5
:1013F000CC67D1E914046043CC6F04EB80048020F7
:1014000044504458886D04EBC004842044508C6ED2
:10141000C86D60438424645804EB800488204450E1
:101420008C6E086E60438824645804EB800490201E
:10143000445040580C4CA04209D99831486840F0BB
:1014400020004860032001F89809012010BDCB6EF0
:1014500002E0002018601B1D902040589842F8D8E8
:101460000020F3E700AC0040FCD300402DE9F04140
:10147000054614461E46D1F804C0BCF1000F0AD13F
:10148000D1F810C0D1F808804CEA080CB1F80080FF
:101490004CEA88430BE0D1F810C04CF0804CD1F8F6
:1014A00008804CEA080CD1F800804CEA080391F857
:1014B0002080D1F81CC04CEA086CD1F818804CEAA6
:1014C000080CD1F814804CEA080CB1F80C804CEAF6
:1014D0000847D5F868C00CFB06FCD5F8848008EBFB
:1014E0008C021360121D1760121D002019E000F11C
:1014F000030C14F80CC04FEA0C6800F1020C14F84D
:101500000CC048EA0C4800F1010C14F80CC048EA81
:101510000C2C14F800804CEA080CC2F800C0121D14
:10152000001DDFF81480D1F80CC018F80CC08445F9
:10153000DDD8BDE8F0810000E4BA009070B5024645
:10154000086852F8200020F001000E6842F82600DA
:101550008868082801D1402500E000254868284314
:101560008E683043CE6830430E6930434E69304355
:101570008E693043CE6930430E6A30434E6A304341
:101580008E6A3043CE6A40EA0603086B0343486B19
:101590000343886B0343114C44F4801444F4001457
:1015A00044F4E024086852F82000A04318430E6871
:1015B00042F82600086BB0F5801F07D1086828B1F3
:1015C000106820F480100E6B30431060086818B16A
:1015D00010684E6B30431060002070BD7FFB080028
:1015E00030B50346D1E9000540EA05108D6840EAB0
:1015F00005208D8940EA0545088A401E45EA0055C8
:10160000087D801E45EA00608D692843551C43F81B
:101610002500186800F48010B0F5801F0BD15868C1
:1016200020F47004088A401E44EA0054586820F4EC
:10163000700020435860002030BD000070B50446A3
:101640000CB9012070BD94F83500022803D0802029
:1016500060650120F6E7DC492068884249D0DA4914
:1016600018312068884244D0D749303120688842F8
:101670003FD0D5494831206888423AD0D2496031BC
:101680002068884235D0D04978312068884230D0EF
:10169000CD499031206888422BD0CB49A8312068B1
:1016A000884226D0C9492068884222D0C7491831CB
:1016B000206888421DD0C54930312068884218D042
:1016C000C24948312068884213D0C049603120683F
:1016D00088420ED0BD4978312068884209D0BB4984
:1016E00090312068884204D0B849A83120688842E7
:1016F00001D1012000E00020F0B3042084F835007F
:10170000B149206888424BD0AF49183120688842DF
:1017100046D0AD4930312068884241D0AA4948318D
:10172000206888423CD0A84960312068884237D080
:10173000A54978312068884232D0A3499031206889
:1017400088422DD0A049A8312068884228D09F49DE
:101750002068884224D09D491831206888421FD0D3
:101760009A493031206888421AD098494831206817
:10177000884215D0954900E020E060312068884219
:101780000ED0924978312068884209D08F49903133
:101790002068884204D08D49A8312068884206D14B
:1017A0002068006820F001002168086009E12068D5
:1017B000006820F001002168086002E120680068EC
:1017C00020F00E00216808607F492068884249D0D7
:1017D0007D4918312068884244D07B4930312068E7
:1017E00088423FD078494831206888423AD07649CB
:1017F00060312068884235D073497831206888424A
:1018000030D071499031206888422BD06E49A83180
:101810002068884226D06D492068884222D06B49D2
:101820001831206888421DD06849303120688842CC
:1018300018D0664948312068884213D06349603126
:10184000206888420ED0614978312068884209D0EA
:101850005E4990312068884204D05C49A8312068F4
:10186000884206D12068006820F0010021680860E5
:1018700005E02068006820F00100216808605249F6
:101880002068884270D050491831206888426BD057
:101890004D4930312068884266D04B494831206834
:1018A000884261D048496031206888425CD046490E
:1018B00078312068884257D0434990312068884267
:1018C00052D04149A831206888424DD03F49206814
:1018D000884249D03D4918312068884244D03B496C
:1018E0003031206888423FD03849483120688842EA
:1018F0003AD0364960312068884235D03349783152
:101900002068884230D031499031206888422BD0FD
:101910002E49A8312068884226D02D492068884267
:1019200022D02B491431206888421DD02849283103
:101930002068884218D026493C312068884213D05C
:1019400023495031206888420ED0214964312068F3
:10195000884209D01E4978312068884204D01C4949
:101960008C312068884201D1012000E00020D8B1EC
:10197000206E006820F48070216E0860A56D94F8D8
:101980005C0000F01F01012088406860D4E9191054
:101990004860E06E40B1E06E006820F48070E16E57
:1019A0000860D4E91C104860012084F8350000BFAD
:1019B000002084F8340000BF206D10B12046216D56
:1019C000884700203EE6000010000240100402405C
:1019D00008540258014691F8350070472DE9F84F38
:1019E000044600200090FE4800684FF41651B0FBFA
:1019F000F1FAA66DD4F858803768D8F80090F94904
:101A00002068884249D0F74918312068884244D07C
:101A1000F4493031206888423FD0F249483120688B
:101A200088423AD0EF4960312068884235D0ED498C
:101A300078312068884230D0EA4990312068884265
:101A40002BD0E849A8312068884226D0E649206892
:101A5000884222D0E4491831206888421DD0E249EA
:101A600030312068884218D0DF49483120688842E8
:101A700013D0DD496031206888420ED0DA497831D0
:101A80002068884209D0D84990312068884204D023
:101A9000D549A8312068884201D1012000E000200A
:101AA00000287DD094F85C0000F01F0108208840D9
:101AB0003840002868D0CB492068884249D0C949BD
:101AC00018312068884244D0C649303120688842A5
:101AD0003FD0C4494831206888423AD0C14960317A
:101AE0002068884235D0BF4978312068884230D09C
:101AF000BC499031206888422BD0BA49A83120686F
:101B0000884226D0B8492068884222D0B649183188
:101B1000206888421DD0B44930312068884218D0EE
:101B2000B14948312068884213D0AF4960312068FC
:101B300088420ED0AC4978312068884209D0AA4941
:101B400090312068884204D0A749A8312068884293
:101B500004D12068006800F0040003E020680068F9
:101B600000F0080080B12068006820F004002168BF
:101B7000086094F85C0000F01F0108208840B06005
:101B8000606D40F00100606594F85C0000F01F019A
:101B9000012088403840E8B392492068884200E03C
:101BA000B7E24BD08F4918312068884246D08D4922
:101BB00030312068884241D08A49483120688842C3
:101BC0003CD0884960312068884237D085497831D7
:101BD0002068884232D083499031206888422DD0D5
:101BE0008049A8312068884228D07F4920688842EF
:101BF00024D07D491831206888421FD07A4930317D
:101C0000206888421AD0784948312068884215D027
:101C1000754900E026E06031206888420ED07249A4
:101C200078312068884209D06F4990312068884215
:101C300004D06D49A8312068884204D120684069E9
:101C400000F0800002E020680068002050B194F8A5
:101C50005C0000F01F0101208840B060606D40F022
:101C60000200606594F85C0000F01F0104208840C9
:101C70003840E8B35B49206888424BD05949183155
:101C80002068884246D0574930312068884241D088
:101C900054494831206888423CD05249603120681C
:101CA000884237D04F4978312068884232D04D4938
:101CB0009031206888422DD04A49A8312068884256
:101CC00028D049492068884224D0474918312068E3
:101CD00088421FD044493031206888421AD0424996
:101CE00048312068884215D03F496031206800E0C3
:101CF00024E088420ED03C4978312068884209D0DF
:101D0000394990312068884204D03749A831206889
:101D1000884204D12068006800F0020002E02068D8
:101D20000068002050B194F85C0000F01F0104200E
:101D30008840B060606D40F00400606594F85C001D
:101D400000F01F01102088403840E8B32549206882
:101D5000884251D023491831206888424CD021490B
:101D600030312068884247D01E4948312068884277
:101D700042D01C496031206888423DD019497831F1
:101D80002068884238D0174990312068884233D083
:101D90001449A831206888422ED01349206888420F
:101DA0002AD0114918312068884225D00E49303197
:101DB0002068884220D00C494831206888421BD0D6
:101DC00009496031206800E04DE0884214D006499E
:101DD0007831206888420FD003499031206805E0AF
:101DE000000400201000024010040240884203D08A
:101DF000FE492068884204D12068006800F008008D
:101E000003E02068006800F0040060B394F85C0010
:101E100000F01F0110208840B0602068006800F4C6
:101E2000802080B12068006800F4002028B9206C70
:101E3000C8B12046216C884715E0A06C98B12046B7
:101E4000A16C88470FE02068006800F4807028B912
:101E50002068006820F0080021680860206C10B13C
:101E60002046216C884794F85C0000F01F01202078
:101E70008840384000287DD0DD492068884249D01C
:101E8000DB4918312068884244D0D9493031206874
:101E900088423FD0D6494831206888423AD0D44958
:101EA00060312068884235D0D14978312068884235
:101EB00030D0CF499031206888422BD0CC49A8310E
:101EC0002068884226D0C949A8392068884221D094
:101ED000C6499039206888421CD0C44978392068A6
:101EE000884217D0C14960392068884212D0BF4962
:101EF0004839206888420DD0BC4930392068884272
:101F000008D0BA4918392068884203D0B7492068F8
:101F1000884204D12068006800F0100003E02068C7
:101F2000006800F0020028B394F85C0000F01F0184
:101F300020208840B06094F8350004282DD1206816
:101F4000006820F01600216808602068406920F0D1
:101F5000800021684861206C08B9A06C28B1206815
:101F6000006820F008002168086094F85C0000F028
:101F70001F0100E03FE03F208840B060012084F86E
:101F8000350000BF002084F8340000BF206D10B180
:101F90002046216D8847BDE8F88F2068006800F46E
:101FA000802080B12068006800F4002028B9606CAF
:101FB00008B32046616C88471DE0E06BD8B120462D
:101FC000E16B884717E02068006800F4807068B90A
:101FD0002068006820F0100021680860012084F863
:101FE000350000BF002084F8340000BFE06B10B162
:101FF0002046E16B8847606D00287AD0606D00F064
:102000000100E8B3042084F835007949206888424B
:102010004BD0774918312068884246D07449303116
:102020002068884241D072494831206888423CD0BB
:102030006F4960312068884237D06D497831206817
:10204000884232D06A499031206888422DD0684950
:10205000A8312068884228D06449A839206888427D
:1020600023D062499039206888421ED05F49783970
:102070002068884219D05D4960392068884200E0B4
:1020800040E012D059494839206888420DD057495C
:1020900030392068884208D054491839206888426D
:1020A00003D052492068884206D12068006820F099
:1020B00001002168086005E02068006820F0010048
:1020C0002168086000BF0098401C0090504500D96E
:1020D00005E02068006800F001000028F3D100BF8F
:1020E0002068006800F0010020B1032084F835006A
:1020F00003E00DE0012084F8350000BF002084F8E3
:10210000340000BFE06C002802D02046E16C884714
:10211000D9E138492068884222D0364914312068F4
:1021200088421DD0334928312068884218D031496F
:102130003C312068884213D02E49503120688842B3
:102140000ED02C4964312068884209D02949783161
:102150002068884204D027498C312068884201D108
:10216000012000E000200028D2D02068056894F803
:102170005C0000F01F010420884000EA0900D8B389
:1021800005F00400C0B394F85C0000F01F010420C7
:102190008840C8F8040005F4004080B105F48030A0
:1021A00030B9A06C0028B3D02046A16C88478AE1E2
:1021B000206C0028ACD02046216C884783E105F0D4
:1021C0002000E8BB0A492068884253D008491831EA
:1021D000206888424ED0064930312068884249D074
:1021E000034948312068884244D006E0B8040240E0
:1021F00010000240085402584FE0B4496031206892
:10220000884237D0B14978312068884232D0AF490E
:102210009031206888422DD0AC49A831206888428E
:1022200028D0AB492068884224D0A94918312068B9
:1022300088421FD0A6493031206888421AD000E079
:1022400025E0A34948312068884213D0A049603175
:10225000206888420ED09E4978312068884209D093
:102260009B4990312068884204D09949A831206860
:10227000884206D12068006820F0080021680860C4
:1022800005E02068006820F0040021680860206CE8
:1022900010B32046216C884715E194F85C0000F0EB
:1022A0001F010220884000EA0900E8B305F002009F
:1022B000D0B394F85C0000F01F0102208840C8F8F9
:1022C000040005F4004070B105F4803028B9606C5A
:1022D00010B12046616C8847F5E0E06BF0B3204612
:1022E000E16B8847EFE005F02000C0BB774920682C
:1022F00088424ED0754918312068884249D07349C8
:1023000030312068884244D0704948312068884282
:102310003FD06E496031206888423AD06B497831AD
:102320002068884235D000E04EE06849903120684E
:1023300088422ED06549A8312068884229D0644956
:102340002068884225D0624918312068884220D010
:102350005F493031206888421BD001E06EE02DE0FB
:102360005B4948312068884213D059496031206860
:1023700088420ED0564978312068884209D05449A5
:1023800090312068884204D05149A83120688842A1
:1023900006D12068006820F014002168086005E07C
:1023A0002068006820F00A0021680860012084F895
:1023B000350000BF002084F8340000BFE06BE8B3B4
:1023C0002046E16B88477EE094F85C0000F01F0136
:1023D0000820884000EA090080B305F0080068B3CF
:1023E0003A49206888424BD03849183120688842E1
:1023F00046D0364930312068884241D0334948318F
:10240000206888423CD0314960312068884237D00A
:102410002E4978312068884232D02C49903120688A
:1024200088422DD02949A8312068884228D02849DF
:102430002068884224D02649183100E043E0206813
:1024400088421DD0224930312068884218D0204966
:1024500048312068884213D01D4960312068884285
:102460000ED01B4978312068884209D01849903134
:102470002068884204D01649A8312068884206D1D5
:102480002068006820F01C002168086005E02068D2
:10249000006820F00E002168086094F85C0000F0ED
:1024A0001F0101208840C8F804000120606584F8FD
:1024B000350000BF002084F8340000BFE06C10B18C
:1024C0002046E16C884700BF65E50000100002402F
:1024D000100402402DE9F041044601F035FA80462F
:1024E00014B90120BDE8F081FE492068884249D036
:1024F000FC4918312068884244D0FA4930312068BC
:1025000088423FD0F7494831206888423AD0F5499F
:1025100060312068884235D0F2497831206888429D
:1025200030D0F0499031206888422BD0ED49A83155
:102530002068884226D0EC492068884222D0EA49A7
:102540001831206888421DD0E74930312068884220
:1025500018D0E54948312068884213D0E2496031FB
:10256000206888420ED0E04978312068884209D03E
:10257000DD4990312068884204D0DB49A8312068C9
:10258000884201D1012000E00020002873D0606A59
:1025900000B100BF022084F8350000BF002084F89D
:1025A000340000BFCF492068884249D0CD49183156
:1025B0002068884244D0CB493031206888423FD0DF
:1025C000C8494831206888423AD0C64960312068FD
:1025D000884235D0C34978312068884230D0C1491B
:1025E0009031206888422BD0BE49A83120688842AB
:1025F00026D0BD492068884222D0BB4918312068C6
:1026000088421DD0B84930312068884218D0B64978
:1026100048312068884213D0B3496031206888422D
:102620000ED0B14978312068884209D0AE49903146
:102630002068884204D0AC49A8312068884206D17D
:102640002068006820F001002168086005E020682B
:10265000006820F00100216808600DE001F074F9C5
:10266000A0EB0800052807D920206065032084F826
:102670003500012036E76AE02068006800F00100BC
:102680000028EBD12068056898480540D4E902018C
:1026900008432169084361690843A1690843E16966
:1026A0000843216A08430543606A042803D1D4E93A
:1026B0000B01084305438E4800686FF30F00B0F12B
:1026C000005F1DD36068292802D360682E2811D9C5
:1026D00060683F2802D3606842280BD960684728A9
:1026E00002D36068482805D960684F2804D3606821
:1026F000522801D8012000E0002008B145F48015DF
:10270000206805602068456925F00705606A054373
:10271000606A04280DD1A06A0543E06A48B12046EA
:10272000FEF794FB28B140206065012084F8350055
:10273000D8E6206845612046FEF764FA064694F81C
:102740005C0000F01F013F208840B0609EE06949B6
:102750002068884222D067491431206888421DD001
:10276000644928312068884218D062493C31206889
:10277000884213D05F495031206888420ED05D49AD
:1027800064312068884209D05A49783120688842EB
:1027900004D058498C312068884201D1012000E0E2
:1027A0000020E0B353492068884222D051491431B7
:1027B000206888421DD04F4928312068884218D0AF
:1027C0004C493C312068884213D04A495031206836
:1027D00088420ED0474964312068884209D0454973
:1027E00078312068884204D042498C312068884280
:1027F00001D1012000E0002000B100BF022084F8D8
:10280000350000BF002084F8340000BF2068056850
:1028100039480540A068402802D1102106E02EE08A
:10282000A068802801D1C10100E00021E06841EAF0
:10283000D001206941EAD001606941EAD001A06974
:1028400041EAD001E06941EAD001206A41EA101072
:1028500005432068056027492068401A1421B0FB11
:10286000F1F08000E0652046FEF7CCF9074694F8C9
:102870005C0000F01F0101208840786006E04020E5
:102880006065032084F8350001202BE61549206897
:1028900088427FD013491831206888427AD0114984
:1028A00030312068884275D00E494831206888420E
:1028B00070D00C496031206888426BD0094978316A
:1028C0002068884266D0074990312068884261D0EC
:1028D0000449A831206888425CD0034920688842B6
:1028E00058D00BE010000240100402403F8010FE60
:1028F0000010005C085402580F00FEFF3B491831DD
:102900002068884246D0394930312068884241D019
:1029100036494831206888423CD0344960312068CB
:10292000884237D0314978312068884232D02F49E7
:102930009031206888422DD02C49A83120688842E7
:1029400028D02B492068884224D029491431206896
:1029500088421FD026492831206888421AD024494D
:102960003C312068884215D0214950312068884286
:1029700010D01F496431206888420BD01C4978313F
:102980002068884206D01A498C312068884200E0CD
:1029900000E001D1012000E0002000B32046FEF756
:1029A000A7F9A068802801D1002060602079216EFD
:1029B0000860D4E919104860606860B16068082850
:1029C00009D82046FEF7F6F90020E16E0860D4E948
:1029D0001C10486003E00020E0662067606700206C
:1029E0006065012084F8350000207BE5100402407A
:1029F0000854025870B5044600F0A6FF0646254666
:102A0000681C10B104480078054400BF00F09CFF2A
:102A1000801BA842FAD370BD100400200348006850
:102A200040F0010001490860704700002004005890
:102A300030B5034693F89840012C01D0022C3ED1CA
:102A40001868806D084030B91868C06D40F001000A
:102A50001D68E8650EE01868806D0840884206D160
:102A60001868C06D40F002001D68E86502E00320B0
:102A70001D68E86501F4007030B11868D0F8E00016
:102A800010431D68C5F8E00001F4806030B118689B
:102A9000D0F8E40010431D68C5F8E40000BF1868D2
:102AA000406D0B4D0D4028431D686865094800685E
:102AB00040EA9170074D286000BF002030BDD3F878
:102AC0009C0040F00200C3F89C000120F6E70000E3
:102AD000FFFFCF3F14A800402DE9F04104460E4609
:102AE0001746706800B900E000BF94F8980002280B
:102AF00032D12068D0F8C00000F07C5040B9D4F842
:102B00009C0040F02000C4F89C000120BDE8F0814A
:102B10002068D0F8C40000F4001038B1D4F89C004C
:102B200040F40070C4F89C000120EFE72068D0F862
:102B3000C400C0F304452B463A4631462046FEF712
:102B400095FC0120A8402168C1F8D0000120A840D0
:102B5000C4F894000020D9E7D4F89C0040F00800A5
:102B6000C4F89C000120D1E7704710B5034601B9B5
:102B700000E000BF93F89800012824D151B91868EB
:102B8000D0F8F00020F07C5040EA02601C68C4F8E5
:102B9000F00016E001290AD11868D0F8A00020F052
:102BA000FE4040EA02601C68C4F8A00009E0186812
:102BB000D0F8B00020F0FE4040EA02601C68C4F883
:102BC000B000002010BDD3F89C0040F00400C3F812
:102BD0009C000120F6E7F0B5024692F89860012EBD
:102BE00001D0022E43D1C868072800D100BF086871
:102BF00018BBC868072800D000BFC86807280BD1D9
:102C0000088A4FF0605747EA0040CF6940EA072042
:102C10008F6940EA07040AE0087A80070F7B40EAE0
:102C2000C7600F8A40EA07404F6940EA0704D76E41
:102C3000486807EB80031C6017E0C868072800D0CD
:102C400000BF0F7B086940EA4774C868072801D1B4
:102C50008D6903E00F7A486940EA8775176F486805
:102C600007EBC0031C601B1D1D600020F0BDD2F8E7
:102C70009C0040F00200C2F89C000120F6E770B50D
:102C80000446049D94F8980001280AD1080140EAFE
:102C9000820040EA430028432668C6F880000020EE
:102CA00070BDD4F89C0040F00400C4F89C000120E2
:102CB000F6E77047704700002DE9F04304460D46E3
:102CC0009C46002394F89880B8F1020F74D1402DEF
:102CD00038D12068D0F8A00000F4FE0040B9D4F844
:102CE0009C0040F02000C4F89C000120BDE8F08367
:102CF0002068D0F8A40000F07F0038B9D4F89C0018
:102D000040F48070C4F89C000120EFE72068D0F800
:102D1000A400C0F3006040B12068D0F8A0004FF0DC
:102D20000109B9EBD07F00D101232068D0F8A400BD
:102D3000C0F305200344606C5843D4F8749009EB49
:102D400080014BE0412D38D12068D0F8B00000F46C
:102D5000FE0038B9D4F89C0040F02000C4F89C0074
:102D60000120C3E72068D0F8B40000F07F0038B934
:102D7000D4F89C0040F48070C4F89C000120B5E7B2
:102D80002068D0F8B400C0F3006040B12068D0F8EB
:102D9000B0004FF00109B9EBD07F00D101232068CA
:102DA000D0F8B400C0F305200344E06C5843D4F8D5
:102DB000789009EB800111E06DE0206DA84207D802
:102DC000D4F89C0040F02000C4F89C0001208DE75E
:102DD000606D6843D4F87C9009EB8001086800F0CE
:102DE00080405060506820B90868C0F38A40106085
:102DF00003E0086820F060401060086800F00050B0
:102E00009060086800F000401061091D088880B2D9
:102E1000D0610868C0F30340D060086800F48010F7
:102E20005061086800F4001090610868C0F3066003
:102E300010620868C00F5062091D0F46002603E0AB
:102E4000B85D0CF80600761CDFF85C90D06819F8C5
:102E50000000B042F4D8402D03D12068C0F8A8305B
:102E600017E0412D03D12068C0F8B83011E0202DC3
:102E700006D20120A840D4F80090C9F8980008E0D4
:102E800005F01F09012000FA09F0D4F80090C9F8F4
:102E90009C0000202AE7D4F89C0040F00800C4F809
:102EA0009C00012022E70000E4BA00907047000077
:102EB0002DE9F04F8DB00446F74800688707F648C3
:102EC000001D006807EA80772068006D00F47048F4
:102ED0002068406D00EA08082068006D00F00F09C6
:102EE0002068406D00EA09092068006D00F0F00AD2
:102EF0002068406D00EA0A0A2068006D00F0715BEE
:102F00002068406D00EA0B0B2068006D00F06070D7
:102F10000C902068406D0C9908400C902068456D1D
:102F20002068066DC5F3002078B1C6F3002060B1BB
:102F300000BF4FF48070216808650020D649086002
:102F400000BF2046D4F8C0108847C5F38020D0B118
:102F5000C6F38020B8B12068D0F8DC000A90206861
:102F6000D0F8E4000A9908400A9000BF4FF480604E
:102F7000216808650020C849086000BFD4F8B8205F
:102F800020460A9990476FB100BFC4483840216875
:102F90000865B80FC049086000BF39462046D4F81C
:102FA000A0209047B8F1000F0FD000BFBB4808EA3F
:102FB0000000216808654FEA9870B749086000BFB3
:102FC00041462046D4F8A4209047B9F1000F0FD015
:102FD00000BFB24809EA0000216808654FEA99700D
:102FE000AD49086000BF49462046D4F8A820904764
:102FF000BAF1000F0FD000BFA8480AEA000021680C
:1030000008654FEA9A70A449086000BF51462046FF
:10301000D4F8AC209047C5F3C02078B1C6F3C020E7
:1030200060B100BF4FF400602168086500209A4934
:10303000086000BF2046D4F8B0108847C5F3402090
:10304000D0B1C6F34020B8B12068D0F8D8000B90BA
:103050002068D0F8E0000B9908400B9000BF4FF4B7
:1030600000702168086500208B49086000BFD4F813
:10307000B42020460B999047C5F3C04078B1C6F301
:10308000C04060B100BF4FF40020216808650020F7
:103090008149086000BF2046D4F8BC108847C5F3BA
:1030A000004078B1C6F3004060B100BF4FF48030FB
:1030B0002168086500207849086000BF2046D4F8E0
:1030C000C4108847C5F3804078B1C6F3804060B132
:1030D00000BF4FF480202168086500206E49086019
:1030E00000BF2046D4F8C8108847C5F3404088B1D7
:1030F000C6F3404070B100BF4FF40030216808654E
:1031000000206549086000BFD4F89C0040F08000B2
:10311000C4F89C000C9878B100BF60490C98084036
:10312000216808650C98800F5B49086000BFD4F8DF
:10313000D02020460C999047BBF1000F10D000BF63
:1031400056480BEA0000216808654FEA9B70524917
:10315000086000BFD4F89C0040EA0B00C4F89C0053
:103160004F49206888427DD16068806800F0030084
:10317000002877D06068006A00F00F00099060684E
:10318000406A0999084009906068006A00F03000C0
:1031900008906068406A0899084008906068006A72
:1031A00000F4C07007906068406A07990840079073
:1031B0006068006A00F4FC4006906068406A069906
:1031C000084006906068006A00F4F020059060688E
:1031D000406A0599084005906068406A02906068FE
:1031E000006A0190099838B1099861680862D4F8BA
:1031F000D420204609999047089838B1089861680A
:103200000862D4F8D8202046089990470298C0F365
:103210008010A8B10198C0F3801088B16068C06BBD
:10322000000C04906068C06B00F03F0003904020E9
:1032300061680862D4F8DC302046DDE90321984754
:10324000079838B1079861680862D4F8E0202046F2
:1032500007999047069850B1069861680862D4F8BB
:103260009C0000E00EE006990843C4F89C00059815
:1032700040B1059861680862D4F89C00059908433C
:10328000C4F89C00D4F89C0018B12046D4F8CC10A7
:1032900088470DB0BDE8F08F10A80040FFFFCF3F7A
:1032A00000A0004070B594B004464C22C84901A863
:1032B000FDF793F814B9012014B070BDC54920681A
:1032C000884203D1206800F580706060A068B0F586
:1032D000407F00D100BF206C00B100BFA06C00B1E6
:1032E00000BF206D00B100BF206E00B100BFD4E967
:1032F0001710084400B100BF94F8980000282ED1A0
:103300009C3404F8030CB4486060B448A060B4482E
:10331000E060B4482061B4486061B448A061B4483A
:10332000E061B4482062B4486062B448A062B44826
:10333000E062B4482063B4486063B448A063B44812
:10334000E063B4482064B4486064A06C9C3C10B94D
:10335000B248C4F8E4002046D4F8E4108847206856
:10336000806920F010002168886100F0EDFA0546C0
:103370000EE000F0E9FA401B0A2809D99834606889
:1033800040F001006060032004F89809012093E7F1
:103390002068806900F008000828EAD02068806969
:1033A00040F001002168886100F0CEFA05460EE089
:1033B00000F0CAFA401B0A2809D99834606840F026
:1033C00001006060032004F89809012074E7206878
:1033D000806900F001000028EAD02068806940F090
:1033E000020021688861207C012806D1206880695C
:1033F00020F040002168886105E02068806940F085
:10340000400021688861607C012806D120688069BD
:1034100040F480402168886105E02068806920F4DC
:10342000804021688861A07C012806D120688069DD
:1034300020F480502168886105E02068806940F4AC
:103440008050216888612068806920F44070A168FC
:103450000843216888612068806920F0A400216801
:1034600088612068006920F0100021680861E06828
:10347000012806D12068806940F004002168886135
:1034800020E0E068F0B1E068022815D0206880698B
:1034900040F08000216888612068006940F01000D9
:1034A00021680861E06803280CD12068806940F039
:1034B00020002168886105E02068806940F02000D4
:1034C00021688861207E401E4106E069401E41EA75
:1034D0000020216A491E0843A18A491E40EA014092
:1034E0002168C861A068B0F5407F0FD1A06A401E76
:1034F000E16A491E40EA0121206B401E41EA0011A9
:10350000A08C401E41EA00402168C860206E38B19E
:103510002068D0F8C000616E08432168C1F8C0007F
:10352000D4E91710084460B12068D0F8C80020F032
:10353000070001AAA16E52F8211008432168C1F8C2
:10354000C800206C60B12068D0F8BC0020F00700F3
:1035500001AA616C52F8211008432168C1F8BC002F
:10356000A06C68B12068D0F8BC0020F0700101AAFE
:10357000E06C52F8200041EA00102168C1F8BC005C
:10358000206D68B12068D0F8BC0020F4E06101AA89
:10359000606D52F8200041EA00202168C1F8BC00AB
:1035A0000C492068884205D16068806820F00300DB
:1035B00061688860002044F8940FA06001202071A9
:1035C000943C2046FDF742FE0646304674E6000075
:1035D000F4BA009000A00040692B009021370090C1
:1035E0002536009081360090233700901F370090D9
:1035F0001D37009023360090AD2E00901B370090B1
:1036000019370090B32C0090B52C00901337009020
:103610001737009015370090113700902136009031
:103620007047704770B505460C4604F0020010B3B1
:1036300072B61148007800EB800101EBC0010E4822
:10364000001D00EBC10000F128030B48007800EBDF
:10365000800101EBC0010848001D00EBC1024021C0
:103660000648FFF729FB04480078401C00F07F0063
:103670000149087062B670BD9C200030681F0030A0
:1036800070B505460C4604F0200010B372B6114820
:10369000007800EB800101EBC0010E48001D00EB3B
:1036A000C10000F128030B48007800EB800101EB1A
:1036B000C0010848001D00EBC10241210648FFF788
:1036C000FBFA04480078401C00F07F0001490870B4
:1036D00062B670BD9C200030681F0030014691F832
:1036E000980001280CD1022081F8980008688069B0
:1036F00020F001000A6890610020C1F89C0070472A
:10370000D1F89C0040F00400C1F89C000120F6E7CD
:1037100070477047704770477047704770477047F1
:1037200070477047F8B502460B4600216F4DD7E051
:1037300001278F401E6806EA0704002C72D01E790C
:1037400006F00306012E04D01E7906F00306022EB1
:1037500013D190684F000326BE40B0434F00DE688F
:10376000BE4030439060506801268E40B0431E79C1
:10377000C6F300168E40304350601E7906F00306F3
:10378000032E09D0D0684F000326BE40B0434F003F
:103790009E68BE403043D0601E7906F00306022EBC
:1037A00013D1CF0802F1200656F827004E07F70E76
:1037B0000F26BE40B0434F07FF0E1E69BE40304388
:1037C000CF0802F1200646F8270010684F000326B4
:1037D000BE40B0431E7906F003064F00BE403043A2
:1037E00010605E6806F44036002E78D000BF404E70
:1037F000366846F002063E4F3E603E46366806F0AA
:103800000206009600BF00BF3A4E8F0856F8270008
:103810008E07370F0F26BE40B043374EB24202D15B
:1038200000262EE05BE0354EB24201D1012628E0B1
:10383000334EB24201D1022623E0324EB24201D1D0
:1038400003261EE0304EB24201D1042619E02F4E6D
:10385000B24201D1052614E02D4EB24201D1062616
:103860000FE02C4EB24201D107260AE02A4EB242A6
:1038700001D1082605E0294EB24201D1092600E017
:103880000A268F073F0FBE4030431A4E8F0846F876
:1038900027004FF0B0463068A0435E6806F48016FB
:1038A00006B120434FF0B04630607068A0435E68B8
:1038B00006F4001606B120434FF0B0467060686809
:1038C000A0435E6806F4003606B1204368602868AD
:1038D000A0435E6806F4803606B120432860491C88
:1038E0001E68CE40002E7FF423AFF8BD8000005844
:1038F000F44402580804005800000258000402581A
:1039000000080258000C0258001002580014025817
:1039100000180258001C02580020025800240258C7
:10392000024613690B400BB1012000E000207047F4
:103930000AB1816101E00B048361704701480068AE
:10394000000C70470010005C0148006870470000E0
:10395000080400207047704710B504460CB90120D8
:1039600010BD242084F841002068006820F0010088
:1039700021680860D4F8800010B90A48C4F88000B3
:103980002046D4F8801088470020606484F8410005
:10399000206384F8420000BF84F8400000BF00BFED
:1039A000DEE700008D3D00902DE9F04104462068DF
:1039B000856920680668C5F3002050B1C6F3C010C1
:1039C00038B1606C40F0010060644FF48070216891
:1039D000C861C5F3802050B1C6F3C01038B1606C27
:1039E00040F0080060644FF480602168C861C5F34E
:1039F000402050B1C6F3C01038B1606C40F00200F6
:103A000060644FF400702168C861676C07F00B00B8
:103A100018B13946204603F02DF9BDE8F08170B5A4
:103A200004462068856920680668606B20B13246CC
:103A300029462046636B984770BD000010B50446C8
:103A40000E492068884218D10D48FFF785FF0B48C2
:103A50000B49086001210A48C16000210161C16170
:103A600001628160416181610648054948600846FC
:103A700000F00CF801200449087010BD0058004007
:103A8000F4010030130F42107A02003010B50446E2
:103A90000CB9012010BD94F8410000281CD184F815
:103AA00040003B4860653B48A0653B48E0653B48BB
:103AB00020663B4860663B48A0663B48E0663B4862
:103AC00020673B4860673B48A067E06F08B93A4809
:103AD000E0672046E16F8847242084F84100206891
:103AE000006820F0010021680860606820F07060C4
:103AF000216808612068806820F40040216888609F
:103B0000E068012805D1A06840F400402168886081
:103B100004E0A06840F4044021688860E06802285E
:103B200006D12068406840F400602168486005E0E4
:103B30002068406820F40060216848602068406880
:103B40001E490843216848602068C06820F400408E
:103B50002168C860D4E904010843A16940EA012052
:103B60002168C860D4E9070108432168086020681B
:103B7000006840F001002168086000206064202097
:103B800084F841000020206384F8420000BF81E7F0
:103B9000C53B0090C33B0090933D0090913D009049
:103BA000C13B0090E13B0090C93B00903D3A009042
:103BB00055390090573900908F3D009000800002E9
:103BC0007047704770470000034A0168914202D174
:103BD0000121024A117070470058004079020030FC
:103BE000034A0168914202D10121024A11707047D3
:103BF00000580040780200302DE9F84304460F4693
:103C000015461E46DDE9089894F8410020284FD15A
:103C1000B9F1000F02D0B8F1000F05D14FF40070D8
:103C200060640120BDE8F88320688069C0F3C0307B
:103C300008B10220F6E700BF94F84000012801D146
:103C40000220EFE7012084F8400000BF222084F822
:103C50004100402084F8420000206064C4F82490B1
:103C6000A4F82A801348E06213486063E764012ED9
:103C700005D1E8B221688862B01E206505E0C5F371
:103C8000072021688862E8B220650C48F2B2002360
:103C900039460090204604F00EF800BF002084F85A
:103CA000400000BF0121204602F014FF0020B9E7C8
:103CB0000220B7E70000FFFFF576009000200080AB
:103CC0002DE9F84304460F4615461E46DDE90898DF
:103CD00094F84100202850D1B9F1000F02D0B8F17A
:103CE000000F05D14FF4007060640120BDE8F88337
:103CF00020688069C0F3C03008B10220F6E700BF39
:103D000094F84000012801D10220EFE7012084F857
:103D1000400000BF212084F84100402084F8420088
:103D2000002060642085C4F82490A4F82A801448F8
:103D3000E06214486063E764012E05D1E8B22168AF
:103D40008862B01E206505E0C5F3072021688862FF
:103D5000E8B220650C48F2B2C30239460090204612
:103D600003F0A9FF00BF002084F8400000BF01213C
:103D7000204602F0AFFE0020B8E70220B6E70000C0
:103D80000000FFFFF576009000200080704770472C
:103D9000704770470348006803490978084401499F
:103DA00008607047080400201004002010B50320AC
:103DB00000F00EF901F0F0FB10490968C1F303218E
:103DC0000F4A515C01F01F0120FA01F40B48006812
:103DD00000F00F001146085C00F01F0024FA00F00C
:103DE00008490860084804600F2000F00FF808B187
:103DF000012010BD00F09AF80020FAE7184402589C
:103E0000CCBA0090040400200004002070B50446E1
:103E10001148007808B9012070BD0F4800784FF4B0
:103E20007A71B1FBF0F00D490968B1FBF0F5284655
:103E300002F0E1FB08B10120EEE7102C07D20022CE
:103E40002146501E00F087F80548046001E001207B
:103E5000E2E70020E0E7000010040020000400205A
:103E60000C0400204178154A116014490831096892
:103E700021F00101114A08321160121F41681160DE
:103E8000017B0907C27A41EA0261827A41EAC241B2
:103E9000427B41EA8241827B41EA4241C27B41EA64
:103EA0000241427A41EA0221027A41EA4201027861
:103EB0001143024A083211607047000098ED00E09B
:103EC00000BF00BF00BFBFF35F8F00BF00BF00BFD8
:103ED0000548006820F4803003490860002002494A
:103EE000703108607047000024ED00E040F00101EF
:103EF0000D4A11600C497039096841F480310A4A51
:103F0000703A116000BF00BF00BFBFF34F8F00BF0A
:103F100000BF00BF00BF00BF00BFBFF36F8F00BF77
:103F200000BF00BF7047000094ED00E070470146FD
:103F3000084600280DDB00BF00BF00F01F03012270
:103F40009A4043099B0003F1E023C3F8002100BF1E
:103F500000BF00BF70472DE9F05F80460D46164652
:103F600005F04CFB074639462A46334601F0070068
:103F7000C0F1070ABAF1040F02D94FF0040A01E0B8
:103F8000C0F1070AD14600F1040ABAF1070F02D2C4
:103F90004FF0000A01E0A0F1030AD4464FF0010AF5
:103FA0000AFA09FAAAF1010A0AEA020A0AFA0CFA5A
:103FB0004FF0010B0BFA0CFBABF1010B0BEA030BFF
:103FC0004AEA0B042146404605F020FBBDE8F09F7D
:103FD00000BF00F00702064B19684FF6FF031940B7
:103FE000044B0B4343EA0221014B196000BF7047A9
:103FF0000CED00E00000FA0510B501F083FA054968
:104000000968C1F30211044A515C01F01F01C84064
:1040100010BD000020440258CCBA009070B5014693
:10402000844D2D6805F00303824D2D68C5F30530DE
:10403000804D2D1D2D68C5F300147E4D14352D685F
:10404000C5F3CC0515FB04F501EE105AB8EE411A84
:10405000F0EE410A00286FD023B1012B4ED0022B85
:104060006BD16BE0734D283D2D68C5F340153DB312
:10407000704D283D2D68C5F3C1066F4D25FA06F237
:1040800001EE102AF8EE411A01EE100AB8EE411ABC
:1040900081EE812A9FED691AC0EE811A654D1035B7
:1040A0002D68C5F3080501EE105AB8EE411A31EE3D
:1040B000811AF7EE001A31EE211A22EE010A1CE0F5
:1040C00001EE100AB8EE411ADFED5D1A81EE812A89
:1040D0009FED5A1AC0EE811A564D10352D68C5F362
:1040E000080501EE105AB8EE411A31EE811AF7EECA
:1040F000001A31EE211A22EE010A5BE001EE100AED
:10410000B8EE411ADFED4F1A81EE812A9FED4B1A6E
:10411000C0EE811A474D10352D68C5F3080501EE34
:10412000105AB8EE411A31EE811AF7EE001A31EE4C
:10413000211A22EE010A3DE077E01DE001EE100AAF
:10414000B8EE411A9FED402AC2EE011A9FED3B1ACC
:1041500080EE812A374D10352D68C5F3080501EE34
:10416000105AB8EE411A32EE011AB7EE002A31EEBB
:10417000021A21EE810A1DE001EE100AB8EE411A82
:10418000DFED301A81EE812A9FED2C1AC0EE811AE4
:10419000284D10352D68C5F3080501EE105AB8EE0C
:1041A000411A31EE811AF7EE001A31EE211A22EE91
:1041B000010A00BF00BF1F4D10352D68C5F346250D
:1041C00001EE105AB8EE411AF7EE001A31EE211A3C
:1041D000C0EE011ABCEEE11A81ED001A154D103542
:1041E0002D68C5F3064501EE105AB8EE411AF7EEF8
:1041F000001A31EE211AC0EE011ABCEEE11A81ED6F
:10420000011A0C4D10352D68C5F3066501EE105AE4
:10421000B8EE411AF7EE001A31EE211AC0EE011A7B
:10422000BCEEE11A81ED021A03E000250D604D603D
:104230008D6070BD284402580090D00300000046F5
:104240000024744C0024744A20BCBE4B70B5014657
:10425000844D2D6805F00303824D2D68C5F305508C
:10426000804D2D1D2D68C5F300247E4D1C352D6815
:10427000C5F3CC0515FB04F501EE105AB8EE411A52
:10428000F0EE410A00286FD023B1012B4ED0022B53
:104290006BD16BE0734D283D2D68C5F340153DB3E0
:1042A000704D283D2D68C5F3C1066F4D25FA06F205
:1042B00001EE102AF8EE411A01EE100AB8EE411A8A
:1042C00081EE812A9FED691AC0EE811A654D18357D
:1042D0002D68C5F3080501EE105AB8EE411A31EE0B
:1042E000811AF7EE001A31EE211A22EE010A1CE0C3
:1042F00001EE100AB8EE411ADFED5D1A81EE812A57
:104300009FED5A1AC0EE811A564D18352D68C5F327
:10431000080501EE105AB8EE411A31EE811AF7EE97
:10432000001A31EE211A22EE010A5BE001EE100ABA
:10433000B8EE411ADFED4F1A81EE812A9FED4B1A3C
:10434000C0EE811A474D18352D68C5F3080501EEFA
:10435000105AB8EE411A31EE811AF7EE001A31EE1A
:10436000211A22EE010A3DE077E01DE001EE100A7D
:10437000B8EE411A9FED402AC2EE011A9FED3B1A9A
:1043800080EE812A374D18352D68C5F3080501EEFA
:10439000105AB8EE411A32EE011AB7EE002A31EE89
:1043A000021A21EE810A1DE001EE100AB8EE411A50
:1043B000DFED301A81EE812A9FED2C1AC0EE811AB2
:1043C000284D18352D68C5F3080501EE105AB8EED2
:1043D000411A31EE811AF7EE001A31EE211A22EE5F
:1043E000010A00BF00BF1F4D18352D68C5F34625D3
:1043F00001EE105AB8EE411AF7EE001A31EE211A0A
:10440000C0EE011ABCEEE11A81ED001A154D183507
:104410002D68C5F3064501EE105AB8EE411AF7EEC5
:10442000001A31EE211AC0EE011ABCEEE11A81ED3C
:10443000011A0C4D18352D68C5F3066501EE105AAA
:10444000B8EE411AF7EE001A31EE211AC0EE011A49
:10445000BCEEE11A81ED021A03E000250D604D600B
:104460008D6070BD284402580090D00300000046C3
:104470000024744C0024744A20BCBE4B2DE9F0414A
:1044800004460025A8464FF00062D4E90010114010
:104490000020134659404040014331D1A06E48B13D
:1044A000B0F5801F0DD0B0F5001F11D0B0F5401F42
:1044B00016D114E0F948006840F40030F74908606C
:1044C00010E0022104F1080003F028FD054609E090
:1044D000022104F1280003F0D3FD054602E001E0CB
:1044E000012500BF00BF55B9EC482430006820F416
:1044F0004010A16E0843E9492431086000E0A84655
:104500004FF48073D4E90010194000205940404016
:1045100001432ED1A06D05281BD2DFE800F0030A6D
:1045200011181900DD48006840F40030DB490860CC
:1045300011E0002104F1080003F0F0FC05460AE058
:10454000002104F1280003F09BFD054603E002E092
:1045500001E0012500BF00BF55B9D04824300068F4
:1045600020F00700A16D0843CC492431086000E029
:10457000A8464FF40073D4E90010194000205940B8
:104580004040014334D1E06D802818D003DC40B1B5
:1045900040281DD10CE0C02818D0B0F5807F17D17D
:1045A00015E0BE48006840F40030BC49086011E0E6
:1045B000002104F1080003F0B1FC05460AE00021E7
:1045C00004F1280003F05CFD054603E002E001E091
:1045D000012500BF00BF55B9B0482430006820F461
:1045E000E070E16D0843AD492431086000E0A84661
:1045F0004FF48063D4E90010194000205940404036
:10460000014339D1D4F8A800B0F5800F1AD004DCEA
:1046100050B1B0F5001F1ED10DE0B0F5C00F18D09D
:10462000B0F5000F17D115E09C48006840F4003049
:104630009A49086011E0002104F1080003F06EFCC3
:1046400005460AE0002104F1280003F019FD0546A3
:1046500003E002E001E0012500BF00BF5DB98F4823
:104660002C30006820F46000D4F8A81008438B496F
:104670002C31086000E0A8464FF40062D4E9001035
:1046800011400020134659404040014339D1D4F82D
:10469000AC00B0F1007F1AD004DC50B1B0F1807FE3
:1046A0001ED10DE0B0F1407F18D0B0F1806F17D16E
:1046B00015E07A48006840F400307849086011E05D
:1046C000002104F1080003F029FC05460AE000215E
:1046D00004F1280003F0D4FC054603E002E001E009
:1046E000012500BF00BF5DB96C482C30006820F088
:1046F000E060D4F8AC10084368492C31086000E051
:10470000A8464FF00073D4E900011840002158403A
:104710004940084328D1E06CA8B1102804D02028D3
:1047200009D0302810D10DE05C48006840F400301A
:104730005A4908600AE0022104F1080003F0EEFB88
:10474000054603E002E001E0012500BF00BF55B9C6
:1047500052482030006820F03000E16C08434F4997
:104760002031086000E0A8464FF48053D4E90010DF
:104770001940002059404040014337D1206EB0F528
:10478000005F1AD004DC50B1B0F5805F1ED10DE09F
:10479000B0F5405F18D0B0F5804F17D115E03F4815
:1047A000006840F400303D49086011E0002104F148
:1047B000080003F0B3FB05460AE0002104F12800DD
:1047C00003F05EFC054603E002E001E0012500BFC6
:1047D00000BF55B931482430006820F4E040216E14
:1047E00008432E492431086000E0A8464FF40053E6
:1047F000D4E900101940002059404040014335D110
:10480000606EB0F5403F1ED007DC68B1B0F5803F68
:104810000BD0B0F5003F19D10EE0B0F5802F13D0CA
:10482000B0F5A02F12D110E012E0012104F1080030
:1048300003F074FB05460BE0012104F1280003F0AE
:104840001FFC054604E003E002E001E0012500BF93
:1048500000BF55B911482430006820F4E020616E93
:1048600008430E492431086000E0A8464FF4804315
:10487000D4E900011840002158404940084337D18D
:10488000D4F8B000B0F1405F20D009DC78B1B0F1CD
:10489000805F0DD0B0F1005F1BD110E02C440258B6
:1048A000B0F1804F13D0B0F1A04F12D110E012E060
:1048B000012104F1080003F031FB05460BE0012162
:1048C00004F1280003F0DCFB054604E003E002E00D
:1048D00001E0012500BF00BF4DB9FE48006820F08F
:1048E000E040D4F8B0100843FA49086000E0A84658
:1048F0004FF40042D4E90010114000201346594003
:104900004040014329D1206FB0B1B0F1805F03D0A6
:10491000B0F1005F11D108E0EE482C38006840F497
:104920000030EC492C39086009E0012104F108004D
:1049300003F0F4FA054602E001E0012500BF00BFE4
:1049400055B9E4480838006820F04050216F08430A
:10495000E0490839086000E0A8464FF08072D4E9C9
:1049600000101140002013465940404001432AD115
:10497000A06CB8B1012804D002280BD0032812D1B2
:104980000FE0D4482C38006840F40030D1492C396D
:1049900008600AE0022104F1080003F0BFFA0546AE
:1049A00003E002E001E0012500BF00BF55B9C9489E
:1049B0000C38006820F00300A16C0843C5490C398D
:1049C000086000E0A8464FF48002D4E900011040DE
:1049D000002113465840494008437DD1BE48006835
:1049E00040F48070BC490860FEF7AEFF064606E062
:1049F000FEF7AAFF801B642801D9032505E0B6480D
:104A0000006800F480700028F2D000BF85BBB14878
:104A10001830006800F44070B4F8B41001F440712C
:104A2000884213D0AB481830006820F44077A9487A
:104A30001830006840F48030A649183108600846F4
:104A4000006820F48030086008460760D4F8B4009D
:104A5000B0F5807F15D1FEF777FF064609E0FEF737
:104A600073FF801B41F28831884202D9032507E099
:104A700038E0984818300068C0F340000028EED0B5
:104A800000BF55BB00BFB4F8B40000F44070B0F5EF
:104A9000407F0ED18F484838006820F47C518F4AFF
:104AA000D4F8B400104041EA10108A49483908602F
:104AB00007E088484838006820F47C508549483928
:104AC0000860844818300068B4F8B410C1F30B01D2
:104AD00008438049183101E005E001E0086002E088
:104AE000A84600E0A8460122D4E9000110400021B8
:104AF000134658404940084330D1E06F18281AD077
:104B000005DC48B1082808D0102817D10CE020286F
:104B100012D0282812D110E012E0012104F108007F
:104B200003F0FCF905460BE0012104F1280003F035
:104B3000A7FA054604E003E002E001E0012500BF1A
:104B400000BF55B96348001F006820F03800E16FCE
:104B500008436049091F086000E0A8460222D4E922
:104B6000000110400021134658404940084329D114
:104B7000A06F062816D2DFE800F003040B1213140E
:104B800012E0012104F1080003F0C8F905460BE02A
:104B9000012104F1280003F073FA054604E003E064
:104BA00002E001E0012500BF00BF55B94948001FE0
:104BB000006820F00700A16F08434649091F0860FC
:104BC00000E0A8460423D4E9001019400020594011
:104BD0004040014329D1D4F89400062816D2DFE8DA
:104BE00000F003040B12131412E0012104F1080079
:104BF00003F094F905460BE0012104F1280003F0CD
:104C00003FFA054604E003E002E001E0012500BFB1
:104C100000BF4DB92F48006820F00700D4F8941069
:104C200008432C49086000E0A8462023D4E900018D
:104C30001840002158404940084337D1D4F890002B
:104C4000B0F1405F1ED007DC68B1B0F1805F0BD0DF
:104C5000B0F1005F19D10EE0B0F1804F13D0B0F188
:104C6000A04F12D110E012E0002104F1080003F07F
:104C700055F905460BE0022104F1280003F000FA83
:104C8000054604E003E002E001E0012500BF00BFAB
:104C90005DB91048001F006820F0E040D4F8901083
:104CA00008430C49091F086000E0A8464023D4E9E6
:104CB0000010194000205940404001433CD1D4F835
:104CC0009C00B0F5406F25D00EDCA0B1B0F5806F30
:104CD00012D005E05844025800480258FFFCFF0F6C
:104CE000B0F5006F19D10EE0B0F5805F13D0B0F5CC
:104CF000A05F12D110E012E0002104F1080003F0DF
:104D00000DF905460BE0022104F1280003F0B8F983
:104D1000054604E003E002E001E0012500BF00BF1A
:104D20004DB9FE48006820F4E050D4F89C100843C8
:104D3000FA49086000E0A8468023D4E90010194031
:104D4000002059404040014335D1D4F8A000B0F5CF
:104D5000C04F1ED007DC68B1B0F5005F0BD0B0F5D6
:104D6000804F19D10EE0B0F5004F13D0B0F5204FB1
:104D700012D110E012E0002104F1080003F0CEF897
:104D800005460BE0022104F1280003F079F90546FD
:104D900004E003E002E001E0012500BF00BF4DB9DF
:104DA000DE48006820F46040D4F8A0100843DB49D6
:104DB000086000E0A8460823D4E90010194000204C
:104DC00059404040014317D1D4F88400B0F5805FCA
:104DD00007D1022104F1280003F052F908B14FF085
:104DE0000108CE48001F006820F44050D4F8841019
:104DF0000843CA49091F08601023D4E9001019406C
:104E0000002059404040014315D1D4F89800B0F536
:104E1000807F07D1022104F1280003F031F908B1A5
:104E20004FF00108BD48006820F44070D4F8981095
:104E30000843BA4908604FF40022D4E90001104049
:104E40000021134658404940084327D1D4F8A40014
:104E500030B1B0F5803F0AD0B0F5003F0FD10DE082
:104E6000002104F1080003F059F8054609E0022189
:104E700004F1280003F004F9054602E001E00125F1
:104E800000BF00BF4DB9A548006820F44030D4F8F9
:104E9000A4100843A149086000E0A8464FF480230D
:104EA000D4E90001184000215840494008432DD161
:104EB000D4F88800B0F5801F06D0B0F5001F0CD0E4
:104EC000B0F5401F11D10FE094482C38006840F431
:104ED000003092492C39086009E0012104F12800D2
:104EE00003F0CEF8054602E001E0012500BF00BF57
:104EF0005DB98A48001F006820F44010D4F888107B
:104F000008438649091F086000E0A8464FF4803234
:104F1000D4E900011040002113465840494008439D
:104F200025D1206D18B1B0F5803F10D108E07B4845
:104F30002C38006840F4003078492C39086008E0CB
:104F4000022104F1080002F0E9FF054601E0012515
:104F500000BF00BF55B971480C38006820F480309C
:104F6000216D08436D490C39086000E0A8464FF0F8
:104F70000052D4E90010114000201346594040402F
:104F8000014307D1022104F1280003F079F808B1A8
:104F90004FF001084FF40033D4E90001184000211C
:104FA00058404940084329D1D4F88000A0B1B0F559
:104FB000807F06D0B0F5007F0CD0B0F5407F0CD1DB
:104FC00009E056482C38006840F4003053492C3929
:104FD000086004E003E002E001E0012500BF00BF3B
:104FE0005DB94E48001F006820F44070D4F880106E
:104FF00008434A49091F086000E0A8464FF48012A0
:10500000D4E90010114000201346594040400143AC
:1050100009D142480838006820F00040616F084319
:105020003E49083908604FF08052D4E90010114021
:10503000002013465940404001430AD137484838C0
:10504000006820F48040D4F8B81008433349483948
:1050500008604FF40012D4E90010114000201346FC
:1050600059404040014309D12C480838006820F0DD
:105070008070E16E08432949083908604FF080428A
:10508000D4E900101140002013465940404001432C
:1050900011D100BF21484838006820F400401F4962
:1050A0004839086008460068D4F8BC1008431B491A
:1050B0004839086000BF4FF00042D4E900101140A9
:1050C0000020134659404040014309D113480C3891
:1050D000006820F04050616D084310490C390860A9
:1050E0004FF40002D4E9001011400020134659404B
:1050F000404001430AD10948001F006820F44000E5
:10510000D4F88C1008430549091F086001230021C9
:105110006068184001224940504001E0584402585C
:10512000014306D104F1080002F0F8FE054605B17E
:10513000A8460222002160681040494050400143C7
:1051400007D1012104F1080002F0E8FE054605B18F
:10515000A8460423002061681940042240405140C1
:10516000084307D1022104F1080002F0D7FE0546EA
:1051700005B1A8460823002160681840082249406C
:105180005040014306D104F1280002F079FF0546A2
:1051900005B1A846102200216068104049405040E7
:1051A000014307D1012104F1280002F069FF0546FF
:1051B00005B1A846202200206168114040405140BE
:1051C000084307D1022104F1280002F059FF0546E7
:1051D00005B1A846B8F1000F02D10020BDE8F0816A
:1051E0000120FBE72DE9F04104460D4614B90120EA
:1051F000BDE8F081BD48006800F00F00A8420ED263
:10520000BA48006820F00F002843B84908600846F3
:10521000006800F00F00A84201D00120E8E72078E4
:1052200000F0040004280ED1B1492069096801F09A
:105230007001884207D9AE48006820F070002169EB
:105240000843AB490860207800F00800082811D115
:10525000A749091D6069096801F07001884209D9F0
:10526000A348001D006820F0700061690843A04950
:10527000091D0860207800F01000102811D19C4909
:10528000091DA069096801F4E061884209D99848BC
:10529000001D006820F4E060A16908439449091DDD
:1052A0000860207800F02000202811D190490831B2
:1052B000E069096801F07001884209D98C4808301A
:1052C000006820F07000E1690843894908310860EE
:1052D000207800F0020002280ED18549E0680968B4
:1052E00001F00F01884207D98148006820F00F00C3
:1052F000E16808437E490860207800F0010000283A
:1053000050D07B48006820F47060A1680843784959
:1053100008606068022807D1754818380068C0F333
:105320004040F8B9012063E76068032807D170485E
:1053300018380068C0F34060A0B9012058E76068E1
:10534000012807D16A4818380068C0F3002048B91E
:1053500001204DE7664818380068C0F3800008B99E
:10536000012045E762480838006820F007006168BE
:1053700008435F4908390860FEF7E6FA064608E088
:10538000FEF7E2FA801B41F28831884201D90320FE
:105390002EE757480838006800F038006168B0EB25
:1053A000C10FEDD1207800F0020002280ED1504943
:1053B000E068096801F00F01884207D24C48006894
:1053C00020F00F00E1680843494908604748006839
:1053D00000F00F00A8420ED94448006820F00F00EA
:1053E0002843424908600846006800F00F00A842C0
:1053F00001D00120FCE6207800F0040004280ED142
:105400003B492069096801F07001884207D2384899
:10541000006820F070002169084335490860207851
:1054200000F00800082811D13149091D6069096898
:1054300001F07001884209D22D48001D006820F05B
:105440007000616908432A49091D0860207800F04E
:105450001000102811D12649091DA069096801F41E
:10546000E061884209D22248001D006820F4E06013
:10547000A16908431E49091D0860207800F020003A
:10548000202811D11A490831E069096801F070013A
:10549000884209D216480830006820F07000E1699F
:1054A000084313490831086000F076F8104909688C
:1054B000C1F303210F4A515C01F01F0120FA01F7EB
:1054C0000B48006800F00F001146085C00F01F0058
:1054D00027FA00F008490860084807600848006893
:1054E000FEF794FC8046404682E600000020005211
:1054F00018440258CCBA0090040400200004002094
:105500000C04002010B500F047F80D490968C1F3FC
:1055100003210C4A515C01F01F0120FA01F40848F4
:10552000006800F00F001146085C00F01F0024FA2C
:1055300000F005490860054804600846006810BD91
:1055400018440258CCBA0090040400200004002043
:1055500000B5FFF7D7FF05490968C1F30211044AF6
:10556000515C01F01F01C84000BD00001C440258FE
:10557000CCBA009000B5FFF7C5FF05490968C1F333
:105580000221044A515C01F01F01C84000BD000027
:105590001C440258CCBA0090F0B5824E366806F032
:1055A000380636B1082E15D0102E15D0182E7DD104
:1055B00014E07C4E103E3668C6F3401646B1794E74
:1055C000103E3668C6F3C107774E26FA07F000E0B2
:1055D0007548E5E07548E3E07548E1E0714E18363E
:1055E000366806F003046F4E18363668C6F30511A8
:1055F0006C4E1C36366806F001056A4E2436366855
:10560000C6F3CC0616FB05F601EE106AB8EE410AA9
:10561000002971D024B1012C50D0022C6DD16DE045
:10562000604E103E3668C6F340163EB35D4E103EE7
:105630003668C6F3C1075C4E26FA07F301EE103A4E
:10564000F8EE411A01EE101AB8EE411A81EE812AE5
:105650009FED581AC0EE011A524E20363668C6F336
:10566000080601EE106AB8EE411A31EE811AF7EE23
:10567000001A31EE211A62EE010A1EE001EE101A44
:10568000B8EE411ADFED4C1A81EE812A9FED491ADE
:10569000C0EE011A434E20363668C6F3080601EE06
:1056A000106AB8EE411A31EE811A00E076E0F7EEAA
:1056B000001A31EE211A62EE010A5BE001EE101AC7
:1056C000B8EE411A9FED3D2AC2EE011A9FED391A3C
:1056D00080EE012A334E20363668C6F3080601EE06
:1056E000106AB8EE411A32EE011AB7EE002A31EE16
:1056F000021A61EE810A3DE04EE01DE001EE101A53
:10570000B8EE411ADFED2E1A81EE812A9FED291A9B
:10571000C0EE011A234E20363668C6F3080601EEA5
:10572000106AB8EE411A31EE811AF7EE001A31EE26
:10573000211A62EE010A1DE001EE101AB8EE411ABC
:105740009FED1E2AC2EE011A9FED1A1A80EE012A61
:10575000144E20363668C6F3080601EE106AB8EE1D
:10576000411A32EE011AB7EE002A31EE021A61EE4A
:10577000810A00BF00BF0B4E20363668C6F34626AE
:10578000721C01EE102AB8EE411AC0EE811ABCEE6E
:10579000E11A11EE100A00E0002001E0034800BF0A
:1057A00000BFF0BD104402580090D00300093D0036
:1057B00040787D01000000460024744C0024744AA7
:1057C00020BCBE4B2DE9F047044614B90120BDE8CA
:1057D000F087207800F00100002870D0FA480068B7
:1057E00000F03808F8481830D0F80090B8F1100FE1
:1057F00006D0B8F1180F0FD109F0030002280BD121
:10580000F14810380068C0F3404000286AD0606852
:10581000002867D10120DAE700BF6068B0F5803F5B
:1058200008D1E9481038006840F48030E649103962
:1058300008602EE0606868B9E3481038006820F41A
:105840008030E149103908600846006820F4802063
:1058500008601EE06068B0F5A02F0DD1DA4810385E
:10586000006840F48020D849103908600846006874
:1058700040F4803008600CE0D3481038006820F411
:105880008030D149103908600846006820F4802033
:10589000086000BF606898B1FEF756F8054606E05C
:1058A000FEF752F8401B642801D903208FE7C64851
:1058B00010380068C0F340400028F1D012E012E038
:1058C000FEF742F8054606E0FEF73EF8401B642866
:1058D00001D903207BE7BC4810380068C0F3404082
:1058E0000028F1D100BF207800F00200022874D116
:1058F000B548006800F03808B3481830D0F8009078
:10590000B8F1000F05D0B8F1180F56D109F0030017
:10591000D0BBAD4810380068C0F3800018B1E06813
:1059200008B9012053E7A8481038006820F0190092
:10593000E1680843A44910390860FEF705F80546F8
:1059400006E0FEF701F8401B022801D903203EE7DC
:105950009D4810380068C0F380000028F1D000BFD7
:10596000FDF7ECFF41F2030188421AD82069402874
:105970000BD195480C38006820F47C3040F400309E
:1059800091490C39086017E017E08F480C3800681F
:1059900020F47C30216940EA01308B490C390860E1
:1059A0000AE089480C38006820F0FE40217C40EA7B
:1059B000016085490C39086066E0E06888B3824878
:1059C0001038006820F01900E16808437E4910395A
:1059D0000860FDF7B9FF054607E056E0FDF7B4FFA4
:1059E000401B022801D90320F1E6774810380068EF
:1059F000C0F380000028F1D000BFFDF79FFF41F207
:105A0000030188421AD8206940280BD16E480C380F
:105A1000006820F47C3040F400306B490C39086099
:105A200017E017E068480C38006820F47C302169E2
:105A300040EA013064490C3908600AE062480C38D9
:105A4000006820F0FE40217C40EA01605E490C398C
:105A5000086019E05C481038006820F001005A49DD
:105A600010390860FDF770FF054606E0FDF76CFF92
:105A7000401B022801D90320A9E6534810380068CA
:105A8000C0F380000028F1D100BF207800F01000A2
:105A900010287CD14C48006800F038084A4818307B
:105AA000D0F80090B8F1080F06D0B8F1180F3DD12A
:105AB00009F00300012839D1434810380068C0F3C9
:105AC000002020B1E069802801D001207FE600BFDE
:105AD000FDF734FF41F2030188421AD8206A2028DA
